:020000040800F2
:1000000000000524391C0008011200080312000832
:10001000051200080712000809120008000000007D
:10002000000000000000000000000000A1CE000859
:100030000B1200080000000041CF0008D7CA0008DA
:10004000891C0008891C0008891C0008891C0008FC
:10005000891C0008891C0008891C0008891C0008EC
:10006000891C0008891C0008891C00080D12000862
:100070001D1200082D1200083D1200084D12000844
:100080005D1200086D120008891C00087D1200082E
:100090008D120008891C0008891C0008891C0008B2
:1000A000891C00089D120008891C0008891C000892
:1000B000891C0008891C0008891C0008891C00088C
:1000C000891C0008891C0008891C0008891C00087C
:1000D000AD120008BD120008891C0008891C000828
:1000E000CD120008891C000800000000891C0008CF
:1000F000891C0008891C0008891C0008E1120008FE
:10010000891C0008891C0008891C0008891C00083B
:10011000891C0008F1120008891C0008891C0008CD
:1001200001130008891C0008891C0008891C0008AC
:10013000891C0008891C0008891C0008891C00080B
:1001400000000000000000000000000000000000AF
:10015000891C0008891C0008891C0008891C0008EB
:10016000891C0008891C0008891C0008891C0008DB
:10017000891C000811130008891C000800000000F9
:10018000891C0008891C000821130008891C00082C
:10019000891C0008891C0008891C0008891C0008AB
:1001A000891C0008891C0008891C00080000000048
:1001B000891C0008891C0008891C0008891C00088B
:1001C000891C0008891C00080000000000000000D5
:1001D0000000000000000000891C00080000000072
:1001E000000000000000000000000000000000000F
:1001F0000000000000000000891C0008891C0008A5
:10020000891C0008891C000800000000891C0008E7
:10021000891C0008891C0008891C0008891C00082A
:10022000891C000800000000891C00080000000074
:10023000891C0008891C000800000000891C0008B7
:10024000891C0008891C0008891C0008891C0008FA
:10025000891C0008891C0008891C0008891C0008EA
:10026000891C0008891C0008891C0008891C0008DA
:10027000891C0008891C0008891C00080000000077
:10028000891C0008891C0008891C0008891C0008BA
:1002900000000000891C0008891C00080000000004
:1002A00000000000891C0008891C0008891C000847
:1002B00031130008891C0008891C0008411300083C
:0C02C000891C0008891C0008891C00082B
:1002D00053B94AB9002908BF00281CBF4FF0FF31AD
:1002E0004FF0FF3000F00CB8ADF1080C6DE904CE12
:1002F00011F042FADDF804E0DDE9022304B07047B2
:10030000704700BF844641EA000313F003036DD138
:10031000403A41D351F8043B40F8043B51F8043BC8
:1003200040F8043B51F8043B40F8043B51F8043BCF
:1003300040F8043B51F8043B40F8043B51F8043BBF
:1003400040F8043B51F8043B40F8043B51F8043BAF
:1003500040F8043B51F8043B40F8043B51F8043B9F
:1003600040F8043B51F8043B40F8043B51F8043B8F
:1003700040F8043B51F8043B40F8043B51F8043B7F
:1003800040F8043B51F8043B40F8043B51F8043B6F
:1003900040F8043B403ABDD2303211D351F8043B0F
:1003A00040F8043B51F8043B40F8043B51F8043B4F
:1003B00040F8043B51F8043B40F8043B103AEDD2BE
:1003C0000C3205D351F8043B40F8043B043AF9D20F
:1003D000043208D0D2071CBF11F8013B00F8013BE2
:1003E00001D30B8803806046704700BF082A13D3EF
:1003F0008B078DD010F003038AD0C3F10403D21A07
:10040000DB071CBF11F8013B00F8013B80D331F83A
:10041000023B20F8023B7BE7043AD9D3013A11F8BA
:10042000013B00F8013BF9D20B7803704B78437025
:100430008B788370604670470348044B834202D038
:10044000034B03B118477047A4080024A4080024F4
:10045000000000000548064B1B1AD90F01EBA30151
:10046000491002D0034B03B118477047A408002479
:10047000A40800240000000010B5064C237843B9FE
:10048000FFF7DAFF044B13B10448AFF300800123F8
:10049000237010BDA80800240000000020390108C6
:1004A00008B5054B1BB105490548AFF30080BDE811
:1004B0000840FFF7CFBF00BF00000000AC080024D9
:1004C0002039010810B58CB0002409940A940B94CB
:1004D00024222146684611F0B9FA2648264B0360CB
:1004E0004FF41013436084600123036104224261CE
:1004F000047643760222C26180F820408462C4629E
:100500000463C463046480F84440836402F004F824
:1005100020BB0023099309A9164802F065F900BB26
:10052000164B0093062301930423029340F2FF72BB
:1005300003920493002305938DF8213069460D48FA
:1005400001F08AFC80B90E4B00930C23019369469D
:10055000084801F081FC50B90CB010BD00F0E2FB7E
:10056000D7E700F0DFFBDBE700F0DCFBEBE700F0B8
:10057000D9FBF1E734090024002002401000C0102C
:100580000000B84F00B58BB02422002101A811F063
:100590005DFA1E481E4B03604FF40023436008239E
:1005A00083600023C36003610422426103764376C3
:1005B0000122C26180F820308362C36280F8383043
:1005C00043630363C363036480F84430836401F0CE
:1005D000A3FFA8B90F4B01930623029307230393AC
:1005E00040F2FF73049304230593002306930893BA
:1005F00001A9064801F030FC28B90BB05DF804FBF6
:1006000000F090FBE6E700F08DFBF6E7C40800245D
:1006100000600258000052C710B58AB0002305934D
:1006200006930793089309930368264A934204D0DC
:10063000254A934238D00AB010BD244BD3F8D820B5
:1006400042F02002C3F8D820D3F8D82002F02002CC
:100650000192019AD3F8E02042F00102C3F8E020B1
:10066000D3F8E02002F001020292029AD3F8E020CF
:1006700042F00402C3F8E020D3F8E03003F00403B2
:100680000393039B202305930324069405A9104894
:1006900004F02EFE1023059306940023079305A96A
:1006A0000C4804F025FEC6E7084BD3F8E02042F0E2
:1006B0008072C3F8E020D3F8E03003F08073049335
:1006C000049BB8E700200240006002580044025832
:1006D000000002580008025808B50848084B03609B
:1006E000002303714371436183610123036202F0BC
:1006F00089F900B908BD00F015FBFBE7A409002447
:10070000004C025802680A4B9A4200D0704782B0EF
:10071000A3F50063D3F8E02042F40022C3F8E02000
:10072000D3F8E03003F400230193019B02B070473B
:10073000004C025800B583B0314BD3F8D82042F0BA
:100740000102C3F8D820D3F8D82002F001020092A9
:10075000009AD3F8D82042F00202C3F8D820D3F888
:10076000D83003F002030193019B002205210B20E6
:1007700002F034F90B2002F041F9002205210C208F
:1007800002F02CF90C2002F039F9002205210D208D
:1007900002F024F90D2002F031F9002205210E208B
:1007A00002F01CF90E2002F029F9002205210F2089
:1007B00002F014F90F2002F021F900220521102087
:1007C00002F00CF9102002F019F900220521112085
:1007D00002F004F9112002F011F9002205212F2066
:1007E00002F0FCF82F2002F009F900220521382040
:1007F00002F0F4F8382002F001F903B05DF804FBD0
:100800000044025810B51648164B0360002282605F
:10081000C2600123037442748374436114218161B3
:100820003B24C46101624362022484620D23C362DB
:100830000463426304238363C36308210164436444
:100840008164C364046543658165C1650166426670
:10085000836604F045F800B910BD00F063FAFBE7C9
:100860000C0B002400A0004010B51648164B036086
:1008700000228260C2600123037442748374436166
:10088000142181613B24C4610162436202248462B9
:100890000D23C3620463426304238363C36308219B
:1008A000016443648164C364046543658165C16513
:1008B00001664266836604F013F800B910BD00F0CB
:1008C00031FAFBE76C0A002400A4004010B516487A
:1008D000164B036000228260C260012303744274DD
:1008E00083744361142181613B24C46101624362CA
:1008F000022484620D23C36204634263042383637E
:10090000C3630821016443648164C364046543656F
:100910008165C16501664266836603F0E1FF00B947
:1009200010BD00F0FFF9FBE7CC09002400D4004023
:1009300030B5BBB0044600213591369137913891DE
:100940003991B82206A811F081F823686F4A9342C2
:1009500008D06F4A93424BD06E4A934200F08E808B
:100960003BB030BD4FF400420023CDE906234FF0E9
:100970008053219306A806F02BFB40BB664A136800
:1009800001331360012B25D0644BD3F8E02042F0F3
:100990000802C3F8E020D3F8E03003F00803019325
:1009A000019B032335930223369300243794389414
:1009B0000923399335A95A4804F09AFC22460521A7
:1009C000132002F00BF8132002F018F8C8E700F02B
:1009D000A9F9D3E7514BD3F8EC2042F48072C3F865
:1009E000EC20D3F8EC3003F480730093009BCBE74A
:1009F0004FF400420023CDE906234FF080532193AA
:100A000006A806F0E5FA40BB434A136801331360B9
:100A1000012B25D0414BD3F8E02042F00202C3F86D
:100A2000E020D3F8E03003F002030393039B60233C
:100A3000359302233693002437943894092339934D
:100A400035A9384804F054FC22460521142001F051
:100A5000C5FF142001F0D2FF82E700F063F9D3E76D
:100A60002E4BD3F8EC2042F48072C3F8EC20D3F87C
:100A7000EC3003F480730293029BCBE74FF4004207
:100A80000023CDE906234FF08053219306A806F0FA
:100A90009FFA48BB204A136801331360012B26D00C
:100AA0001E4BD3F8E02042F00802C3F8E020D3F850
:100AB000E03003F008030593059B4FF44053359352
:100AC000022336930024379438940525399535A9A7
:100AD000134804F00DFC224629469F2001F07EFFBA
:100AE0009F2001F08BFF3BE700F01CF9D2E70B4B96
:100AF000D3F8EC2042F48072C3F8EC20D3F8EC3049
:100B000003F480730493049BCAE700BF00A0004075
:100B100000A4004000D40040C8090024004402584A
:100B2000000C02580004025808B50DF0F3FF012034
:100B30000CF06BF8FBE7000008B5194A01210846E4
:100B40000CF071F8174B1860174A002117480BF08A
:100B5000FDFF174B1860174A002117480BF0F6FFEE
:100B6000164B1860164A002116480BF0EFFF164B83
:100B70001860164A002116480BF0E8FF154B186064
:100B8000154A002115480BF0E1FF154B1860154A76
:100B9000002115480BF0DAFF144B186008BD00BFA8
:100BA0005C3A0108AC0B0024203B0108290B00082B
:100BB000C40B0024FC3A0108A5F80008C00B00246F
:100BC000D83A010891F80008BC0B0024B43A010897
:100BD000BDF60008B80B0024903A010805F900089A
:100BE000B40B00246C3A0108C5F80008B00B0024CF
:100BF00070B58CB000240794089409940A940B945F
:100C00003F4BD3F8E02042F01002C3F8E020D3F8C5
:100C1000E02002F010020192019AD3F8E02042F0A5
:100C20000402C3F8E020D3F8E02002F004020292AC
:100C3000029AD3F8E02042F08002C3F8E020D3F813
:100C4000E02002F080020392039AD3F8E02042F001
:100C50000102C3F8E020D3F8E02002F00102049280
:100C6000049AD3F8E02042F00202C3F8E020D3F85F
:100C7000E02002F002020592059AD3F8E02042F04B
:100C80000802C3F8E020D3F8E03003F0080306932D
:100C9000069B1C4D22464FF40041284604F032FCCE
:100CA00001220921284604F02DFC4FF4004307934C
:100CB0000126089609940A9407A9284604F018FB0F
:100CC000092307930896099403230A9307A9284642
:100CD00004F00EFB4FF4A05307934FF488130893CE
:100CE000099407A9084804F003FB2246052128209F
:100CF00001F074FE282001F081FE0CB070BD00BF31
:100D000000440258000802580010025808B5026852
:100D1000034B9A4200D008BD00F0E6FFFBE700BF9E
:100D20000000014072B6FEE700B59DB04C220021E4
:100D300009A810F08BFE2022002101A810F086FEE9
:100D4000022005F063FA00230093214B9A6922F4F4
:100D500040429A619B6903F440430093009B1C4B03
:100D60009B6913F4005FFAD0212309934FF4803379
:100D70000A9301220F9202231293139314932821B2
:100D8000159116920622179218930C23199300239B
:100D90001A931B9309A805F06BFAA8B93F23019396
:100DA0000321029100230393082304934023059316
:100DB00006934FF480620792089301A805F046FE5F
:100DC00020B91DB05DF804FBFFF7ACFFFFF7AAFFE9
:100DD0000048025800B5AFB0B8220021684610F0B4
:100DE00035FE4FF400220023CDE9002302230293B5
:100DF00010220392049305930693C0230793684639
:100E000006F0E6F810B92FB05DF804FBFFF78AFF93
:100E100008B500F03BFFFFF787FFFFF7DBFFFFF7A9
:100E2000E7FEFFF787FCFFF7EDFCFFF71DFDFFF77F
:100E30004DFD00F057F800F073FCFFF743FBFFF7A0
:100E4000A1FB00F0B9FBFFF747FC00F035FC00F018
:100E50009BFC00F015F800F06BFB00F0F1FB0DF0CF
:100E600059FE0EF0E5FF0FF013F80FF041F810F007
:100E700003FB0BF03DFEFFF75FFE0BF04BFEFEE7C2
:100E800008B51648164B03604FF4800343600023F7
:100E900083600722C2604FF0007202614FF08072DF
:100EA00042614FF0806282614FF04052C261036242
:100EB00043628362C3624FF0804242638363C363D1
:100EC000036443648364C36403654365836507F017
:100ED0003FFC00B908BDFFF725FFFBE7400D0024EC
:100EE0000038004008B51448144B03604FF48003E9
:100EF00043604FF4003383600323C3600023036126
:100F000043614FF080628261C36103624362836226
:100F1000C3624FF0804242638363C36303644364EC
:100F20008364C36403654365836507F011FC00B9FE
:100F300008BDFFF7F7FEFBE7B80C002400140058CB
:100F4000F0B5BBB004460021359136913791389108
:100F50003991B82206A810F079FD23686D4A9342B2
:100F600005D06D4A934200F08B803BB0F0BD4FF44A
:100F700080520023CDE9062306A806F029F80028B0
:100F800075D1664BD3F8E82042F48042C3F8E820DC
:100F9000D3F8E82002F480420092009AD3F8E020CF
:100FA00042F00402C3F8E020D3F8E02002F004028B
:100FB0000192019AD3F8E02042F00202C3F8E02047
:100FC000D3F8E03003F002030293029B062335932B
:100FD000022736970025379538950526399635A985
:100FE0004F4804F085F94FF4005335933697379501
:100FF0003895399635A94B4804F07AF94A484B4B55
:1010000003602823436040238360C5604FF48063FE
:10101000036145618561C5614FF400330362456238
:1010200001F07CFF30BB404BA3679C634048414BC1
:1010300003602723436000238360C3604FF4806212
:10104000026143618361C3614FF4403202624362D3
:1010500001F064FF88B9364BE3679C6300220521E9
:10106000242001F0BBFC242001F0C8FC7DE7FFF741
:1010700059FE86E7FFF756FED5E7FFF753FEEAE78E
:101080004FF480420023CDE9062306A805F0A0FF17
:1010900000283CD1214BD3F8F42042F02002C3F8C1
:1010A000F420D3F8F42002F020020392039AD3F83C
:1010B000E02042F00102C3F8E020D3F8E02002F083
:1010C00001020492049AD3F8E02042F00202C3F82D
:1010D000E020D3F8E03003F002030593059B802362
:1010E000359302273697002637960325389508242E
:1010F000399435A9104804F0FBF8359436973796A3
:101100003895399435A9074804F0F2F82DE7FFF730
:1011100009FEBFE7003800400014005800440258A0
:101120000008025800040258400C0024A0000240AD
:10113000C80B0024B80002400000025800B583B07C
:101140000A4BD3F8F42042F00202C3F8F420D3F89B
:10115000F43003F002030193019B00220F216FF092
:10116000010001F03BFC03B05DF804FB00440258B1
:101170000F2801D90120704710B58AB0044600221B
:101180000146192001F02AFC192001F037FC174B09
:101190001C60174BD3F8F02042F00102C3F8F02096
:1011A000D3F8F03003F001030093009B01A902A8DB
:1011B00005F0DCFD05F0C8FD43000E4AA2FB032349
:1011C0009B0C013B0C480D4A026040F2E732C260C2
:1011D000436000230361836008F052FB10B10120DB
:1011E0000AB010BD044808F0A1F9F9E70C0000248A
:1011F0000044025883DE1B43C80D00240000014058
:10120000FEE7FEE7FEE7FEE7FEE7704708B50248A7
:1012100002F076FC08BD00BF1810002408B5024893
:1012200002F06EFC08BD00BF8011002408B5024822
:1012300002F066FC08BD00BF0811002408B5024892
:1012400002F05EFC08BD00BF9010002408B5024803
:1012500002F056FC08BD00BF280F002408B5024864
:1012600002F04EFC08BD00BFB00E002408B50248D5
:1012700002F046FC08BD00BF400C002408B502483F
:1012800003F0A6FE08BD00BF0C0B002408B5024801
:1012900003F09EFE08BD00BF6C0A002408B502489A
:1012A00008F098F908BD00BFC80D002408B5024831
:1012B00007F0D0FE08BD00BF400D002408B502486D
:1012C00008F0E0FD08BD00BF8C12002408B54FF403
:1012D000806004F01DF94FF4805004F019F908BD46
:1012E00008B5024802F00CFC08BD00BFC80B002482
:1012F00008B5024808F0C6FD08BD00BFB4130024BD
:1013000008B5024802F0FCFB08BD00BFA00F002496
:1013100008B5024804F039FC08BD00BF247700245A
:1013200008B5024808F0AEFD08BD00BF2013002438
:1013300008B5024808F0A6FD08BD00BFF81100245A
:1013400008B5024803F044FE08BD00BFCC090024E4
:1013500010B503460C4A0D490D48006840B10C48D1
:1013600000680344521A934206D8094A136010BD1C
:101370000748084C0460F2E710F002FC0C230360FD
:101380004FF0FF30F3E700BF000005240004000029
:10139000140E0024A08D0024224AD2F8883043F491
:1013A0007003C2F88830204B1B6803F00F03062B34
:1013B00006D81D4A136823F00F0343F00703136098
:1013C0001A4B1A6842F001021A6000221A61196869
:1013D000174A0A401A60144B1B6813F0080F06D016
:1013E000114A136823F00F0343F0070313600F4BF8
:1013F00000229A61DA611A620E4999620E49D96235
:101400000E4919635A639963DA6319645A64196857
:1014100021F4802119601A66094B43F2D2021A6046
:10142000704700BF00ED00E0002000520044025869
:101430007FEDF6EA000202020000FF0180020101D6
:101440000040005282B00368114A934204D0114A0E
:1014500093420FD002B070470F4BD3F8E82042F010
:101460000202C3F8E820D3F8E83003F00203009347
:10147000009BEFE7084BD3F8E82042F04002C3F8A6
:10148000E820D3F8E83003F040030193019BE1E743
:1014900000040040001800400044025800B589B024
:1014A00000230393049305930693079303681C4A50
:1014B000934205D01B4A934218D009B05DF804FB53
:1014C000194BD3F8E02042F00202C3F8E020D3F831
:1014D000E03003F002030193019B02230393049382
:1014E000079303A9114803F003FFE6E70E4BD3F877
:1014F000E02042F00202C3F8E020D3F8E03003F02D
:1015000002030293029B4FF40043039302230493CC
:101510000693079303A9054803F0EAFECDE700BF51
:101520000004004000180040004402580004025823
:1015300000B58BB0002307930893099300930193A0
:10154000029303930493059306931948194A026082
:1015500017224260836042F20F72C26003618023EF
:10156000836108F0BDF9C8B900230793099307A95F
:101570000F4808F09BFBA0B9602300930023019360
:10158000029304930C226946094808F023FA58B9DB
:101590000748FFF783FF0BB05DF804FBFFF7C2FBC2
:1015A000E2E7FFF7BFFBE7E7FFF7BCFBF0E700BFB1
:1015B000640E00240004004000B58BB000230793A4
:1015C0000893099300930193029303930493059363
:1015D00006931948194A026017224260836040F25C
:1015E000CF72C2600361836108F07AF9D8B9002331
:1015F0000793099307A9104808F058FBB0B9602376
:1016000000934FF47A73019300230293049304220E
:101610006946094808F0DEF958B90748FFF73EFF68
:101620000BB05DF804FBFFF77DFBE0E7FFF77AFB0B
:10163000E5E7FFF777FBF0E7180E002400180040FD
:1016400008B51A481A4B03601A4B43604FF4805395
:1016500083604FF40053C3604FF4806303610C2335
:10166000436100238361C36103624362836209F0C3
:10167000BAFA70B900210D4809F088FB60B9002161
:101680000A4809F0A8FB50B9084809F060FB48B9BE
:1016900008BDFFF747FBEDE7FFF744FBEFE7FFF778
:1016A00041FBF1E7FFF73EFBF2E700BFB413002474
:1016B00000500040A086010008B51748174B036092
:1016C0004FF4E133436000238360C36003610C2265
:1016D00042618361C36103624362836209F083FAFA
:1016E00070B900210C4809F051FB60B900210A488B
:1016F00009F071FB50B9084809F029FB48B908BD49
:10170000FFF710FBEDE7FFF70DFBEFE7FFF70AFB35
:10171000F1E7FFF707FBF2E7201300240078004011
:1017200008B51748174B03604FF4E13343600023BB
:101730008360C36003610C2242618361C361036201
:101740004362836209F04FFA70B900210C4809F036
:101750001DFB60B900210A4809F03DFB50B908485B
:1017600009F0F5FA48B908BDFFF7DCFAEDE7FFF735
:10177000D9FAEFE7FFF7D6FAF1E7FFF7D3FAF2E786
:101780008C1200240010014008B51748174B036065
:101790004FF4E133436000238360C36003610C2294
:1017A00042618361C36103624362836209F01BFA91
:1017B00070B900210C4809F0E9FA60B900210A4823
:1017C00009F009FB50B9084809F0C1FA48B908BD49
:1017D000FFF7A8FAEDE7FFF7A5FAEFE7FFF7A2FAA0
:1017E000F1E7FFF79FFAF2E7F8110024001C01402F
:1017F000F0B5BFB00446002139913A913B913C913C
:101800003D91B8220AA810F021F92368AE4A93420C
:101810000CD0AE4A934278D0AD4A934200F0E880B3
:10182000AC4A934200F07F813FB0F0BD022200231A
:10183000CDE90A230AA805F0CBFB00285FD1A64B0F
:10184000D3F8E82042F48012C3F8E820D3F8E82067
:1018500002F480120192019AD3F8E02042F00202D1
:10186000C3F8E020D3F8E02002F002020292029ACC
:10187000D3F8E02042F00402C3F8E020D3F8E030CF
:1018800003F004030393039B4FF480573997022618
:101890003A9600253B953C950E233D9339A98F48F8
:1018A00003F026FD39973A963B953C9508233D93E6
:1018B00039A98B4803F01CFD8A488B4B03604123F8
:1018C00043608560C5604FF4806303614561856155
:1018D0004FF48073C3614FF440330362456201F0FB
:1018E0001DFB78B97F4BC4F880309C630022052132
:1018F000352001F073F8352001F080F894E7FFF708
:1019000011FA9CE7FFF70EFAECE702220023CDE97B
:101910000A230AA805F05CFB002860D16E4BD3F8BF
:10192000E82042F08042C3F8E820D3F8E82002F033
:1019300080420492049AD3F8E02042F01002C3F8E7
:10194000E020D3F8E03003F010030593059B4FF43B
:10195000C073399302233A9300253B953C950723A6
:101960003D9339A9614803F0C3FC6148614B0360B2
:101970004F2343608560C5604FF480630361456118
:101980008561C5614FF440330362456201F0C6FAD8
:1019900040BB574BC4F880309C635748574B03609B
:1019A00050234360402383600023C3604FF4806270
:1019B000026143618361C3614FF44032026243625A
:1019C00001F0ACFA88B94C4BE3679C630022052117
:1019D000522001F003F8522001F010F824E7FFF73D
:1019E000A1F99BE7FFF79EF9D3E7FFF79BF9EAE739
:1019F00001220023CDE90A230AA805F0E9FA00280C
:101A000040F08880344BD3F8F02042F01002C3F845
:101A1000F020D3F8F02002F010020692069AD3F8D4
:101A2000E02042F00102C3F8E020D3F8E03003F0F8
:101A300001030793079B4FF4C063399302233A9342
:101A400000253B953C9507233D9339A92C4803F08D
:101A50004FFC2C482C4B0360292343608560C560F4
:101A60004FF48063036145618561C5614FF4403384
:101A70000362456201F052FA00284ED1214BC4F8AE
:101A800080309C632148224B03602A23436040231B
:101A900083600023C3604FF480620261436183610D
:101AA000C3614FF440320262436201F037FAB8BBBF
:101AB000164BE3679C6300220521252000F08EFF72
:101AC000252000F09BFFAFE600500040007800406A
:101AD00000100140001C014000440258000402585C
:101AE000000802588011002428000240001002580B
:101AF00008110024400002409010002458000240C9
:101B0000000002581810002410000240A00F00240A
:101B100010040240FFF706F974E7FFF703F9ADE799
:101B2000FFF700F9C4E701220023CDE90A230AA840
:101B300005F04EFA00286AD1394BD3F8F02042F074
:101B40008002C3F8F020D3F8F02002F0800208925F
:101B5000089AD3F8E02042F01002C3F8E020D3F84E
:101B6000E03003F010030993099B04233993022703
:101B70003A9700253B953C953D932A4E39A930462E
:101B800003F0B6FB082339933A973B953C950B231A
:101B90003D9339A9304603F0ABFB2348234B036048
:101BA000762343608560C5604FF4806303614561BF
:101BB0008561C5614FF440330362456201F0AEF9BF
:101BC00040BB194BC4F880309C631948194B036023
:101BD00077234360402383600023C3604FF4806217
:101BE000026143618361C3614FF440320262436228
:101BF00001F094F988B90E4BE3679C63002205213C
:101C00009C2000F0EBFE9C2000F0F8FE0CE6FFF7B5
:101C100089F891E7FFF786F8D3E7FFF783F8EAE75B
:101C20000044025800100258280F0024700002409F
:101C3000B00E002488000240DFF834D0FFF7ACFB80
:101C40000C480D490D4A002302E0D458C450043317
:101C5000C4188C42F9D30A4A0A4C002301E01360ED
:101C60000432A242FBD30FF091FFFFF7D1F8704787
:101C70000000052400000024A408002438430108C3
:101C8000A8080024A08D0024FEE7000010B5032062
:101C900000F092FE04F0DEFD0F498B69C3F30323CD
:101CA0000E4AD35C03F01F03D8408B6903F00F0387
:101CB000D35C03F01F0320FA03F3094A1360094BB6
:101CC00018600F20FFF754FA10B10124204610BD10
:101CD0000446FFF733FAF9E700440258443B010891
:101CE0000000002404000024034B1B78034A116801
:101CF0000B441360704700BF080000244814002400
:101D0000014B1868704700BF4814002438B50446DA
:101D1000FFF7F6FF0546B4F1FF3F02D0044B1B78F6
:101D20001C44FFF7EDFF401BA042FAD338BD00BFB3
:101D30000800002410B400F1600C0D4CA0420CD03F
:101D40005CF8210000F0004002F0F8421343034326
:101D50004CF821305DF8044B70475CF8210002F02C
:101D6000F842134343F000434CF82130F2E700BF40
:101D70000060025800F1600C094B984207D05CF8F3
:101D8000213023F000431A434CF8212070475CF8BF
:101D9000213023F0004313434CF82130704700BF3B
:101DA0000060025810B430300B0A9B0003F00C03A3
:101DB000C45801F01F014FF01F0C0CFA01FC24EA7B
:101DC0000C0CC2F384628A404CEA0202C2505DF8F5
:101DD000044B704710B414304B0E9B0003F0040307
:101DE000C458C1F304514FF0070C0CFA01FC24EA6B
:101DF0000C0C8A404CEA0202C2505DF8044B70475A
:101E0000134B984211D0D0F8C030C1F3130C23EA21
:101E10000C0C02F018020F4BD3401940C1F3130110
:101E20004CEA0101C0F8C0107047D0F8B030C1F3DF
:101E3000130C23EA0C0C02F01802064BD3400B40A3
:101E4000C3F313034CEA0303C0F8B030704700BF7C
:101E500000600258FFFF0F0070B582B000230193AD
:101E600090F85C30012B00F0A88204460D46012357
:101E700080F85C3001688B6813F0040F09D0036EA2
:101E800043F0200303660120002384F85C3002B095
:101E900070BD2B68002B0CDBA74A914209D0C3F31D
:101EA000130272BBC3F3846301229A40CB691343CC
:101EB000CB612A6869682068FFF774FF206883682F
:101EC00013F0040300D00123826812F0080200D04E
:101ED000012252EA030620D02068836813F0010F24
:101EE00040F06782EA682968FFF78AFFEA68934B47
:101EF0009A4200F036812B68002BC0F2E18100206D
:101F0000C2E793FAA3F333B1B3FA83F303F01F03E9
:101F100001229A40CAE72023F8E7AA682968FFF758
:101F200059FF2068844B984211D0854B1B6803F001
:101F30007043B3F1805F3DD0C36813F0100F40D100
:101F40006B69C268C2F382025200934005E06B697C
:101F5000C268C2F3C102520093402969042938D1F2
:101F6000754B98427FD0036E03F0F8432A68B3EBB9
:101F7000826F00F0E7802268536E03F0F84329680F
:101F8000B3EB816F00F0E3802268936E03F0F843B7
:101F90002968B3EB816F00F0DF802268D36E03F015
:101FA000F8432968B3EB816F96D1D36E23F00043D9
:101FB000D36691E76B69C268C2F382025200934014
:101FC000CBE76B69C268920802F0040252009340AA
:101FD000C3E72A68FFF7AEFE2368574A93421CD036
:101FE000286995F82120012A37D03146603353F80B
:101FF000202022F000420A4343F8202021682A6969
:102000002B7E012B2CD00B6923F4F04302F01F022E
:1020100006FA02F213430B615EE72869EA6960334E
:1020200053F8201021F080710A4343F820202368E0
:10203000296995F82020012A0CD03F4A93427FF469
:102040004BAF603353F8212022F00072324343F843
:10205000212041E74FF00076EFE74FF00041C5E760
:102060004FF40066CFE7036E026EC2F384622B6802
:10207000C3F3130181BBC3F384639A4234D0206855
:10208000436E426EC2F384622B68C3F3130181BBBB
:10209000C3F384639A4234D02068836E826EC2F3A5
:1020A00084622B68C3F3130181BBC3F384639A4238
:1020B00034D02068C36EC26EC2F384622B68C3F34F
:1020C000130181BBC3F384639A427FF405AF0022FE
:1020D0000321FFF74FFEFFE693FAA3F313B1B3FA20
:1020E00083F3CAE72023C8E700221146FFF742FE28
:1020F000C5E793FAA3F313B1B3FA83F3CAE7202336
:10210000C8E700220121FFF735FEC5E793FAA3F3E4
:1021100013B1B3FA83F3CAE72023C8E700220221F0
:10212000FFF728FEC5E793FAA3F313B1B3FA83F3DD
:10213000CAE72023C8E700BF006002580000FF473D
:102140000010005C036E23F00043036613E7536E38
:1021500023F00043536617E7936E23F00043936622
:102160001BE720682B68C3F313063EBB9A0E0132AF
:1021700002F01F02092A8CBF00220122002A55D03A
:102180005EBB990E0131890601F0F8418EBB4FEA22
:10219000936C0CF1010C0CF01F0C012202FA0CF2F2
:1021A0001143AEBB9B0E013303F01F0303EB43034C
:1021B0001B051943AA68FFF70DFE9CE693FAA3F2EC
:1021C0004AB1B2FA82F2013202F01F02092A8CBF30
:1021D00000220122D2E72022F5E793FAA3F131B1E0
:1021E000B1FA81F10131890601F0F841CEE72021F1
:1021F000F8E793FAA3F24AB1B2FA82F2013202F09E
:102200001F024FF0010C0CFA02F2C9E72022F5E799
:1022100093FAA3F343B1B3FA83F3013303F01F033B
:1022200003EB43031B05C4E72023F6E7E6B9990E49
:102230000131890601F0F84116BB4FEA936C0CF1AD
:10224000010C0CF01F0C012202FA0CF2114336BBF8
:102250009B0E013303F01F0303EB43031E3B1B05DF
:1022600043F000731943A5E793FAA3F131B1B1FA32
:1022700081F10131890601F0F841DDE72021F8E71D
:1022800093FAA3F24AB1B2FA82F2013202F01F02CB
:102290004FF0010C0CFA02F2D8E72022F5E793FA8E
:1022A000A3F35BB1B3FA83F3013303F01F0303EB32
:1022B00043031E3B1B0543F00073D3E72023F3E7E2
:1022C00022683F493F48824218BF8A420CBF012121
:1022D000002118D13C4EB56805F0E07CA9B1384921
:1022E000886810F0010000D001203649896811F09B
:1022F000010100D0012101430CD0236E43F02003E3
:1023000023660120C0E5314EE5E73149896811F0C7
:10231000010FF2D12F498B4207D02F498B4226D093
:102320002E498B4234D00020AEE515F4000FF4D1D5
:10233000274B9A4201D00020A6E54CF40003B26876
:1023400022F0E0721343B360254B1B689B09254ABA
:10235000A2FB03239B0901335B00019302E0019B75
:10236000013B0193019B002BF9D100208CE515F076
:10237000807FD5D1164B9A4201D0002084E54CF0E5
:102380008073B26822F0E0721343B36000207BE5F3
:1023900015F4800F0FD10E4B9A4201D0002073E547
:1023A0004CF48003B26822F0E0721343B360002063
:1023B0006AE5002068E5002066E5022067E500BFC9
:1023C0000020024000210240002302400063025826
:1023D00000600258000052C7000021C3000084CBF7
:1023E00004000024632D3E0510B5044603684349EC
:1023F000434A934218BF8B421FD1424B9B6813F450
:10240000403F14BF012300230BB304F069FC636851
:10241000B3F5003F05D0B3F5403F16D0B3F5803F8C
:1024200002D11B0CB0FBF3F0374B984249D822681D
:10243000936823F44073936010BD344B9B6813F48E
:10244000403F14BF01230023DEE78008ECE74FF490
:102450000020002105F0E4FD6368B3F5101F2CD0C7
:1024600021D8B3F5E01F26D004D9B3F5001FDBD186
:102470004009D9E7B3F5801F10D009D8B3F5002F74
:102480000CD0B3F5402F09D0B3F5802F06D0CBE7A1
:10249000B3F5A01F02D0B3F5C01FC5D19B0C5B00E4
:1024A000B0FBF3F0C0E7B3F5201F08D0B3F5301F41
:1024B000BAD1000AB8E70009B6E78009B4E7C00955
:1024C000B2E7134B984207D82268936823F440730D
:1024D00043F480739360AFE70E4B984207D82268AD
:1024E000936823F4407343F400739360A4E7226875
:1024F000936843F4407393609EE700BF002002405E
:10250000002102400023024021BCBE0000630258AB
:1025100041787D0181F0FA0230B583B00023019348
:10252000002800F043810446036EEBB123689A68EB
:1025300012F0005F03D099689D4A0A409A602368B0
:102540009A6812F0805F1CD199689A4A0A4042F05A
:1025500080529A60984B1B689B09984AA2FB032300
:102560009B090133019309E0FEF756F800236366E7
:1025700084F85C30DAE7019B013B0193019B002B5F
:10258000F9D123689A6812F0805F40F09F80226E34
:1025900042F010022266626E42F00102626601257C
:1025A0009A6812F0040200D00122216E11F0100F7F
:1025B00040F0F480002A40F0F180216E21F4817116
:1025C00041F002012166996811F0010F1ED17C488B
:1025D0007C498B4218BF83420CBF0123002377D173
:1025E000806810F0010000D001207649896811F060
:1025F000010100D00121014308D1002B6ED07248A7
:102600006368816821F47C110B43836021686F4B00
:10261000994265D0627EE36B43EA4233A26813437A
:1026200094F8202043EA024394F82020012A6FD036
:10263000A26A22B102F47872E06A02431343634A49
:1026400091426AD0C868624A02401A43CA6021684F
:102650008A6812F0040200D001228B6813F008038C
:1026600000D00123134322D1584B994262D0237EDC
:10267000226B42EA8332C868564B03401343CB6057
:1026800094F84430012B5CD02268136923F00103D5
:1026900013612268136923F07043216C0B431361AB
:1026A00022684A4B9A4202D02046FFF79DFE2369DA
:1026B000012B6AD02268136B23F00F031363236E80
:1026C00023F0030343F0010323666CE0002567E772
:1026D0003E49896811F0010F98D18EE73E488FE797
:1026E000607EE36B43EA4033E0680343A068182848
:1026F00004D01C2808D00C2808D10820034394F8E3
:10270000202043EA02438FE71020F7E71046F5E761
:10271000626A013A43EA42438AE7C8682F4A0240A4
:102720001A43CA602268136923F04063616B0B434C
:1027300013618CE7237E94F83820520042EA8332FA
:1027400099E72168214B994210D00A69244B134024
:10275000A26C501EE26C42EA0042206D0243606DA2
:102760000243134343F001030B6192E70A691D4BD7
:102770001340A26CE06C0243206D0243606D024383
:10278000134343F001030B6183E721680B6B23F0D4
:102790000F03E269013A13430B6390E7236E43F0A2
:1027A000100323660125284603B030BD0125FAE752
:1027B000C0FFFF5FC0FFFF6F04000024632D3E05D4
:1027C0000020024000210240002302400060025825
:1027D00003C0F0FFFCBFFFFF006302580740F0FF9B
:1027E0001EF800FC1FF800FC90F85C20012A00F0A5
:1027F000968030B49CB00346012280F85C20002211
:10280000189219920068474A904236D000220092EE
:10281000009A002A35D0926812F0040200D00122FA
:10282000846814F0040F6BD1002A69D13D4C3E4AF4
:10283000904218BFA0422DD102F50072086800280E
:1028400039D0906820F440404C682043906018686C
:10285000344D354CA04218BFA8421DD1AC6814F0CD
:10286000010400D001243048806810F0010000D03D
:102870000120204315D0002047E002F5807200922D
:10288000C6E71A6E42F020021A66002283F85C2026
:1028900001203DE0254AD1E72548806810F0010F6E
:1028A00039D19468234820400C6889682143084343
:1028B0009060002029E0916821F4404191601968FE
:1028C000184C1948814218BFA1420ED1A06810F0DF
:1028D000010000D001201449896811F0010100D0E5
:1028E0000121014306D000200FE01149896811F051
:1028F000010F12D190680F4901409160002004E05F
:102900001A6E42F020021A660120002283F85C2031
:102910001CB030BC70470020F7E70020F5E702202C
:10292000704700BF002002400021024000630258AF
:1029300000600258E0F0FFFF002807DB00F01F02F4
:10294000400901239340024A42F82030704700BFFB
:1029500000E100E0002804DB0901C9B2044B19546E
:10296000704700F00F000901C9B2024B19547047BB
:1029700000E400E014ED00E000B500F00700C0F155
:10298000070CBCF1040F28BF4FF0040C031D062BED
:102990000FD9C31E4FF0FF3E0EFA0CF021EA0001E2
:1029A00099400EFA03FE22EA0E0241EA02005DF8A7
:1029B00004FB0023EEE700000649CB6823F4E06344
:1029C0001B041B0C000200F4E0600343024A1A439C
:1029D000CA60704700ED00E00000FA0510B504463B
:1029E000054BD868C0F30220FFF7C6FF014620461A
:1029F000FFF7B0FF10BD00BF00ED00E008B5FFF726
:102A00009BFF08BD002838D010B50446437F1BB398
:102A10000223637723791BBB2368194A5A61226812
:102A2000936823F018039360637913BB23684FF016
:102A3000FF321A612268936823F0600361690B43D7
:102A400093602268936823F08003A1690B4393602D
:102A500001236377002010BD0377FDF753FED7E70E
:102A6000E268A168204600F00DF80028DCD00120C3
:102A7000F1E7236822691A61DCE70120704700BF93
:102A8000B71DC10411F0010F30D010B41F231C4634
:102A9000013B34B103F01F0C21FA0CFC1CF0010FB8
:102AA000F5D0182A24D8DFE802F00F2323232323AC
:102AB00023231D23232323232323192323232323F6
:102AC00023230D00062B17D80368596101688B6812
:102AD00023F0180313438B6000200AE0072BF3D97F
:102AE000012006E00F2BEFD9012002E00120704702
:102AF00001205DF8044B70470120FAE7F0B4876DC0
:102B00000468664E664DAC4218BFB44242D01835D8
:102B1000AC423FD01835AC423CD01835AC4239D02D
:102B20001835AC4236D01835AC4233D01835AC42EB
:102B300030D005F55675AC422CD01835AC4229D0B2
:102B40001835AC4226D01835AC4223D01835AC42EB
:102B500020D01835AC421DD01835AC421AD01835EB
:102B6000AC4217D04F4DAC4214D01435AC4211D00A
:102B70001435AC420ED01435AC420BD01435AC42F7
:102B800008D01435AC4205D01435AC4202D014350F
:102B9000AC4207D1446E856E6560C46E14B1046F9B
:102BA000456F656004683D4E3D4DAC4218BFB44270
:102BB00052D01835AC424FD01835AC424CD01835F5
:102BC000AC4249D01835AC4246D01835AC4243D05F
:102BD0001835AC4240D005F55675AC423CD018359E
:102BE000AC4239D01835AC4236D01835AC4233D06F
:102BF0001835AC4230D01835AC422DD01835AC4227
:102C00002AD01835AC4227D0264E274DAC4218BFEB
:102C1000B44211D0254DAC420ED01435AC420BD08D
:102C20001435AC4208D01435AC4205D01435AC4252
:102C300002D01435AC4224D1C46D04F01F05012428
:102C4000AC407C60046863608368402B20D00368DC
:102C500099600368DA6014E0C46D04F01F0C3F242F
:102C600004FA0CF4BC6005682C6824F480242C6001
:102C7000046863608368402B05D00368996003682B
:102C8000DA60F0BC704703689A600368D960F8E7BF
:102C900003689A600368D960F3E700BF1000024040
:102CA00028000240085402581C540258305402585C
:102CB00003682749274A934218BF8B422FD0183206
:102CC00093422CD01832934229D01832934226D006
:102CD0001832934223D01832934220D018329342B4
:102CE0001DD002F55672934219D01832934216D075
:102CF0001832934213D01832934210D018329342B4
:102D00000DD0183293420AD01832934207D01832AD
:102D1000934204D023F0FF038365806D704710B4A5
:102D2000D9B210390C4AA2FB0142C2F302120B4C79
:102D3000A25CC2655F2907D96FF309030433836579
:102D4000806D5DF8044B70476FF309038365F7E707
:102D50001000024028000240ABAAAAAA543B010876
:102D600083699BB9836A012B0AD0022B02D00BB175
:102D700000207047C36A13F0807F2AD1002070477B
:102D8000C36AB3F1C07F26D000207047B3F5005F5F
:102D90000AD0836A022B26D9032B26D1C36A13F0EB
:102DA000807F24D100207047836A032B03D8DFE89B
:102DB00003F01404140A00207047C36A13F0807FE4
:102DC0000DD100207047C36AB3F1C07F09D0002045
:102DD0007047012070470120704701207047012093
:102DE0007047012070470120704700207047012084
:102DF0007047000003682149214A934218BF8B4263
:102E000027D01432934224D01432934221D014326A
:102E100093421ED0143293421BD01432934218D0E6
:102E20001432934215D0DAB2103A1649A1FB0212BD
:102E3000120915491944A8291ED9144B13449B00A3
:102E40000366134B436602F01F020123934083661F
:102E50007047DBB2083B0F4AA2FB03230E4A02EB8A
:102E60001312920002660D4A4266C3F30413012254
:102E700002FA03F3836670470832DEE7085402580B
:102E80001C540258ABAAAAAAF0FBFDBF0082001096
:102E900080080240CDCCCCCC009600168058025859
:102EA00001794A1E072A2BD830B40368154D164CF9
:102EB000A34218BFAB4218D01434A34215D0143427
:102EC000A34212D01434A3420FD01434A3420CD026
:102ED0001434A34209D01434A34206D00B4B0B4444
:102EE0009B00C3660A4B036705E00A4B0B449B003B
:102EF000C366094B036701239340436730BC7047A7
:102F0000704700BF085402581C5402583F820010FA
:102F1000400902403F9600164059025870B50446D9
:102F2000FEF7EEFE002C00F0B781054623685349FA
:102F3000534A934218BF8B420CBF0121002150D04D
:102F4000183293424DD0183293424AD018329342ED
:102F500047D01832934244D01832934241D01832AD
:102F600093423ED002F5567293423AD018329342C1
:102F700037D01832934234D01832934231D01832BD
:102F800093422ED0183293422BD01832934228D03D
:102F90001832934225D03B493B4A934218BF8B429B
:102FA00000F03281394A934200F02E81143293426C
:102FB00000F02A811432934200F0268114329342A9
:102FC00000F022811432934200F01E8114329342A9
:102FD00000F01A8140236365032384F83530012013
:102FE0004AE0022284F83520002284F8342079BB9C
:102FF000274A93422CD01832934229D01832934258
:1030000026D01832934223D01832934220D018325F
:1030100093421DD002F55672934219D01832934252
:1030200016D01832934213D01832934210D018326F
:1030300093420DD0183293420AD01832934207D0EF
:103040001832934204D01A6822F001021A6003E099
:103050001A6822F001021A6023681A6812F0010F40
:1030600018D0FEF74DFE431B052BF5D920236365D1
:10307000032384F83530012070BD00BF10000240EA
:1030800028000240085402581C5402583054025878
:10309000400002401A6881491140A268E06802437A
:1030A0002069024360690243A0690243E069024368
:1030B000206A02430A43616A042900F09080616833
:1030C000522900F296803F29C0F08E803F39744823
:1030D00020FA01F111F0010F01D042F480121A60C0
:1030E0002668756925F00705636A1D43042B08D11E
:1030F000A36A1D43E36A23B12046FFF731FE00288F
:103100007CD175612046FFF7D3FDE36D03F01F020C
:103110003F239340836023686249634A934218BF08
:103120008B4242D0183293423FD0183293423CD067
:103130001832934239D01832934236D01832934223
:1031400033D01832934230D002F5567293422CD0CD
:103150001832934229D01832934226D01832934223
:1031600023D01832934220D0183293421DD0183207
:1031700093421AD01832934217D04C4A934214D03B
:103180001432934211D0143293420ED0143293422F
:103190000BD01432934208D01432934205D014322B
:1031A000934202D01432934213D12046FFF722FEFD
:1031B000A368802B63D0236E22791A60636EA26E9F
:1031C0005A606368013B072B5CD90023E3662367E1
:1031D000636700206065012384F835304CE7E16ABD
:1031E000206B01430A436AE7293905293FF677AF87
:1031F00073E7743903293FF672AF6EE740236365C6
:10320000012084F8350037E7022284F835200022B7
:1032100084F8342019686FF31011A268402A2CD06A
:10322000802A27D00022E06842EAD002206942EAE0
:10323000D002606942EAD002A06942EAD002E069A5
:1032400042EAD002206A42EA10120A431A60226857
:10325000174B1344174AA2FB03231B099B00E3658A
:103260002046FFF725FDE26D02F01F0101228A4092
:10327000426050E74FF48042D5E71022D3E70023A5
:10328000636098E72046FFF70BFEE36E00221A60AA
:10329000236F626F5A609CE70120EDE63F8010FECD
:1032A0000F030F001000024028000240085402588B
:1032B000F8ABFDA7CDCCCCCC002800F03E8170B59A
:1032C000044690F83400012800F03981012084F888
:1032D000340094F83500C0B2012807D04FF40063E1
:1032E0006365002384F83430012070BD022084F827
:1032F0003500002060652068924E934DA84218BFAB
:10330000B0422FD01835A8422CD01835A84229D069
:103310001835A84226D01835A84223D01835A8421F
:1033200020D01835A8421DD005F55675A84219D0F1
:103330001835A84216D01835A84213D01835A8421F
:1033400010D01835A8420DD01835A8420AD018352B
:10335000A84207D01835A84204D0056825F0010519
:10336000056003E0056825F0010505602046FFF7CC
:10337000C5FB23687349744A934218BF8B4238D007
:103380001832934235D01832934232D018329342D9
:103390002FD0183293422CD01832934229D01832B1
:1033A000934226D002F55672934222D018329342AD
:1033B0001FD0183293421CD01832934219D01832C1
:1033C000934216D01832934213D01832934210D041
:1033D000183293420DD01A6822F00E0242F00A020F
:1033E0001A60236C93B12268136843F004031360DE
:1033F0000CE01A6822F01E0242F016021A60236CDA
:1034000023B12268136843F00803136023684D4911
:103410004D4A934218BF8B4242D0183293423FD05C
:10342000183293423CD01832934239D0183293422A
:1034300036D01832934233D01832934230D002F54E
:10344000567293422CD01832934229D018329342AC
:1034500026D01832934223D01832934220D018320B
:1034600093421DD0183293421AD01832934217D08B
:10347000364A934214D01432934211D014329342FC
:103480000ED0143293420BD01432934208D014322F
:10349000934205D01432934202D0143293420ED19B
:1034A000236E1A6812F4803F03D01A6842F48072C7
:1034B0001A60E36E1BB11A6842F480721A602368C6
:1034C0002049214A934218BF8B4230D01832934290
:1034D0002DD0183293422AD01832934227D0183276
:1034E000934224D01832934221D0183293421ED0F6
:1034F00002F5567293421AD01832934217D01832FE
:10350000934214D01832934211D0183293420ED005
:10351000183293420BD01832934208D0183293429B
:1035200005D01A6842F001021A600020DDE61A6830
:1035300042F001021A600020D7E601207047022005
:10354000D3E600BF10000240280002400854025891
:1035500070B50446FEF7D4FB002C00F091810546BF
:1035600094F83530DBB2022B06D08023636500234C
:1035700084F83430012070BD23688C498C4A934212
:1035800018BF8B4230D0183293422DD0183293425C
:103590002AD01832934227D01832934224D01832BE
:1035A000934221D0183293421ED002F556729342B4
:1035B0001AD01832934217D01832934214D01832CE
:1035C000934211D0183293420ED0183293420BD04E
:1035D0001832934208D01832934205D01A6822F06C
:1035E0000E021A60266809E01A6822F01E021A60AC
:1035F0002268536923F080035361266823686B496E
:103600006B4A934218BF8B4242D0183293423FD04C
:10361000183293423CD01832934239D01832934238
:1036200036D01832934233D01832934230D002F55C
:10363000567293422CD01832934229D018329342BA
:1036400026D01832934223D01832934220D0183219
:1036500093421DD0183293421AD01832934217D099
:10366000544A934214D01432934211D014329342EC
:103670000ED0143293420BD01432934208D014323D
:10368000934205D01432934202D01432934204D1B3
:10369000226E136823F48073136023684349444AFD
:1036A000934218BF8B422FD0183293422CD018323D
:1036B000934229D01832934226D01832934223D015
:1036C0001832934220D0183293421DD002F5567220
:1036D000934219D01832934216D01832934213D025
:1036E0001832934210D0183293420DD018329342C0
:1036F0000AD01832934207D01832934204D01A6885
:1037000022F001021A6003E01A6822F001021A6036
:10371000336813F0010F0ED0FEF7F2FA431B052BAE
:10372000F6D920236365032384F83530002384F819
:10373000343001201FE723681C491D4A934218BFFB
:103740008B4239D01832934236D01832934233D05C
:103750001832934230D0183293422DD0183293420F
:103760002AD01832934227D002F55672934223D0C2
:103770001832934220D0183293421DD0183293420F
:103780001AD01832934217D01832934214D01832FC
:10379000934211D0183293420ED0A16DE36D03F025
:1037A0001F02012393404B600DE000BF1000024058
:1037B0002800024008540258A16DE36D03F01F0277
:1037C0003F2393408B6023682E492F4A934218BFB2
:1037D0008B4242D0183293423FD0183293423CD0B1
:1037E0001832934239D01832934236D0183293426D
:1037F00033D01832934230D002F5567293422CD017
:103800001832934229D01832934226D0183293426C
:1038100023D01832934220D0183293421DD0183250
:1038200093421AD01832934217D0184A934214D0B8
:103830001432934211D0143293420ED01432934278
:103840000BD01432934208D01432934205D0143274
:10385000934202D0143293420BD1636EA26E5A602F
:10386000E36E33B11A6822F480721A60236F626FBC
:103870005A60012384F83530002084F834007AE659
:10388000012078E610000240280002400854025847
:10389000002800F0288108B5024690F83530DBB2E8
:1038A000022B03D080234365012008BD03689048A4
:1038B00090498B4218BF83420CBF0120002065D085
:1038C00018318B4262D018318B425FD018318B4255
:1038D0005CD018318B4259D018318B4256D01831F8
:1038E0008B4253D001F556718B424FD018318B4229
:1038F0004CD018318B4249D018318B4246D0183108
:103900008B4243D018318B4240D018318B423DD08E
:1039100018318B423AD0196821F00E0119601368F2
:10392000734874498B4218BF83426AD072498B42F4
:1039300067D018318B4264D018318B4261D0183176
:103940008B425ED018318B425BD018318B4258D0FD
:1039500001F556718B4254D018318B4251D0183139
:103960008B424ED018318B424BD018318B4248D00D
:1039700018318B4245D018318B4242D018318B42DE
:103980003FD0196821F0010119603EE0042182F85E
:10399000351080BB584A93422DD0183293422AD01A
:1039A0001832934227D01832934224D018329342CF
:1039B00021D0183293421ED002F5567293421AD08B
:1039C0001832934217D01832934214D018329342CF
:1039D00011D0183293420ED0183293420BD01832C5
:1039E000934208D01832934205D01A6822F001029F
:1039F0001A60002059E71A6822F001021A600020BC
:103A000053E7196821F001011960136838483949F2
:103A10008B4218BF834242D018318B423FD01831BD
:103A20008B423CD018318B4239D018318B4236D082
:103A300018318B4233D018318B4230D001F556719A
:103A40008B422CD018318B4229D018318B4226D092
:103A500018318B4223D018318B4220D018318B4241
:103A60001DD018318B421AD018318B4217D0234900
:103A70008B4214D014318B4211D014318B420ED0B2
:103A800014318B420BD014318B4208D014318B424D
:103A900005D014318B4202D014318B4217D1116EF4
:103AA0000B6823F480730B60906DD36D03F01F01DE
:103AB00001238B404360536E916E5960D36E33B1D6
:103AC000196821F480711960136F516F59600123D7
:103AD00082F83530002382F83430136D2BB1104654
:103AE00098470020E1E6012070470020DDE600BF96
:103AF00010000240280002404000024008540258D2
:103B0000F0B583B00446002301937D4B1D687D4BC7
:103B1000A3FB0535AD0A876D3E68D7F800C0036882
:103B200079497A48834218BF8B420CBF012000209C
:103B300061D0774A93425ED0183293425BD01832FC
:103B4000934258D01832934255D01832934252D0F3
:103B5000183293424FD002F5567293424BD018322E
:103B6000934248D01832934245D01832934242D003
:103B7000183293423FD0183293423CD018329342CD
:103B800039D01832934236D06249634A934218BF03
:103B90008B4212D0614A93420FD0143293420CD020
:103BA0001432934209D01432934206D01432934215
:103BB00003D01432934240F061821A68E16D01F043
:103BC0001F010420884010EA0C0F00F0A78212F0B9
:103BD000040F00F0A382786012F4004F00F05A82C4
:103BE00012F4803F40F05082A36C002B00F046821C
:103BF0002046984742E2E26D02F01F0108228A4007
:103C0000324241D070BB424A93422BD01832934289
:103C100028D01832934225D01832934222D018323D
:103C200093421FD0183293421CD002F55672934231
:103C300018D01832934215D01832934212D018324D
:103C400093420FD0183293420CD01832934209D0CD
:103C50001832934206D01832934203D01A68C2F346
:103C6000C00202E01A68C2F380026AB11A6822F048
:103C700004021A60E36D03F01F0208239340BB6047
:103C8000636D43F001036365E26D02F01F0226FAE3
:103C900002F313F0010F47D023681B481B498B42E6
:103CA00018BF83423CD018318B4239D018318B4237
:103CB00036D018318B4233D018318B4230D0183186
:103CC0008B422DD018318B422AD001F556718B4290
:103CD00026D018318B4223D018318B4220D0183196
:103CE0008B421DD018318B421AD018318B4217D01D
:103CF00018318B4214D018318B4211D01B6813E05D
:103D000004000024B5814E1B100002402800024030
:103D100040000240085402581C54025830540258C3
:103D20005B6913F0800F3BD1E36D03F01F030422A6
:103D300002FA03F333423FD02268964896498A42FA
:103D400018BF824234D018318A4231D018318A42A9
:103D50002ED018318A422BD018318A4228D01831FF
:103D60008A4225D018318A4222D001F556718A4202
:103D70001ED018318A421BD018318A4218D018310F
:103D80008A4215D018318A4212D018318A420FD097
:103D900018318A420CD018318A4209D013680BE0DE
:103DA00001239340BB60636D43F002036365BBE78F
:103DB000126812F0020F3DD1E36D03F01F031022D1
:103DC00002FA03F333425FD02268724872498A4292
:103DD00018BF824234D018318A4231D018318A4219
:103DE0002ED018318A422BD018318A4228D018316F
:103DF0008A4225D018318A4222D001F556718A4272
:103E00001ED018318A421BD018318A4218D018317E
:103E10008A4215D018318A4212D018318A420FD006
:103E200018318A420CD018318A4209D01268C2F384
:103E3000800208E0BB60636D43F004036365BBE789
:103E40001268C2F3C002FAB1BB6023681A6812F4A8
:103E5000802F0DD01B6813F4002F04D1236C9BB16D
:103E60002046984710E0A36C73B1204698470BE0BA
:103E70001A6812F4807F03D11A6822F008021A60CF
:103E8000236C0BB120469847E36D03F01F032022FB
:103E900002FA03F3334200F0938022683D483E4922
:103EA0008A4218BF82422ED018318A422BD0183154
:103EB0008A4228D018318A4225D018318A4222D02D
:103EC00018318A421FD018318A421CD001F5567130
:103ED0008A4218D018318A4215D018318A4212D03D
:103EE00018318A420FD018318A420CD018318A42D8
:103EF00009D018318A4206D018318A4203D012689C
:103F0000C2F3400202E01268C2F30012002A57D046
:103F1000BB6094F83530DBB2042B0ED023681A68EE
:103F200012F4802F3AD01B6813F4002F2DD1636C4C
:103F3000002B45D02046984742E02268136823F0C2
:103F4000160313602268536923F080035361236CC6
:103F5000BBB12268136823F008031360E36D03F01C
:103F60001F023F239340BB60012384F835300023B8
:103F700084F83430236D002B00F080802046984771
:103F80007CE0A36C002BE4D1E8E7E36BC3B12046EF
:103F9000984715E010000240280002401A6812F409
:103FA000807F09D11A6822F010021A60012384F878
:103FB0003530002384F83430E36B0BB1204698474A
:103FC000636D002B5AD0636D13F0010F52D00423A0
:103FD00084F8353023689649964A934218BF8B423D
:103FE0002FD0183293422CD01832934229D0183255
:103FF000934226D01832934223D01832934220D0D5
:10400000183293421DD002F55672934219D01832DD
:10401000934216D01832934213D01832934210D0E4
:10402000183293420DD0183293420AD0183293427C
:1040300007D01832934204D01A6822F001021A60A5
:1040400003E01A6822F001021A60019B0133019318
:10405000AB4204D823681B6813F0010FF5D1236825
:104060001B6813F0010F0BD0032384F835300023B5
:1040700084F83430E36C0BB12046984703B0F0BDB0
:10408000012384F83530F2E7236C002BF6D020466C
:104090009847F3E712F0200F3AD123686449654A44
:1040A000934218BF8B422FD0183293422CD0183233
:1040B000934229D01832934226D01832934223D00B
:1040C0001832934220D0183293421DD002F5567216
:1040D000934219D01832934216D01832934213D01B
:1040E0001832934210D0183293420DD018329342B6
:1040F0000AD01832934207D01832934204D01A687B
:1041000022F004021A6003E01A6822F008021A6022
:10411000236C002BB2D020469847AFE7022088409E
:1041200010EA0C0F60D012F0020F5DD0786012F42C
:10413000004F0ED012F4803F05D1636C002B9DD050
:10414000204698479AE7E36B002B97D02046984784
:1041500094E712F0200F40D123683549354A934245
:1041600018BF8B422FD0183293422CD01832934272
:1041700029D01832934226D01832934223D01832D5
:10418000934220D0183293421DD002F556729342CA
:1041900019D01832934216D01832934213D01832E5
:1041A000934210D0183293420DD0183293420AD065
:1041B0001832934207D01832934204D01A6822F082
:1041C0000A021A6003E01A6822F014021A6001233E
:1041D00084F83530002384F83430E36B002B3FF44F
:1041E0004DAF2046984749E7082000FA01F111EA4F
:1041F0000C0F3FF443AF12F0080F3FF43FAF1A68C3
:1042000022F00E021A60E36D03F01F03012202FA8E
:1042100003F37B60626584F83520002384F8343032
:10422000E36C002B3FF42AAF2046984726E700BFF7
:10423000100002402800024090F83500704700004E
:1042400070B40468264E274DAC4218BFB44233D038
:104250001835AC4230D01835AC422DD01835AC42B0
:104260002AD01835AC4227D01835AC4224D01835A6
:10427000AC4221D005F55675AC421DD01835AC4284
:104280001AD01835AC4217D01835AC4214D01835B6
:10429000AC4211D01835AC420ED01835AC420BD020
:1042A0001835AC4208D063608368402B13D0036894
:1042B00099600368DA6007E063608368402B05D08B
:1042C000036899600368DA6070BC704703689A609D
:1042D0000368D960F8E703689A600368D960F3E778
:1042E000100002402800024070B504468068802813
:1042F00011D094F83400012800F0B981012084F82D
:10430000340094F83500C0B2012809D04FF400639E
:104310006365012070BD4FF4807363650120F9E788
:10432000022084F83500002060652068724E734DCD
:10433000A84218BFB04239D01835A84236D0183537
:10434000A84233D01835A84230D01835A8422DD015
:104350001835A8422AD01835A84227D005F5567539
:10436000A84223D01835A84220D01835A8421DD025
:104370001835A8421AD01835A84217D01835A842C7
:1043800014D01835A84211D01835A8420ED00668AE
:1043900048F220053543056020680361A56DE36D93
:1043A00003F01F00012383406B600CE0056845F4B7
:1043B0008025056020680361A56DE36D03F01F0093
:1043C0003F238340AB60049B2046FFF739FF2368FF
:1043D00049494A4A934218BF8B4242D0183293420D
:1043E0003FD0183293423CD01832934239D0183221
:1043F000934236D01832934233D01832934230D0A1
:1044000002F5567293422CD01832934229D01832BA
:10441000934226D01832934223D01832934220D0B0
:10442000183293421DD0183293421AD01832934258
:1044300017D0334A934214D01432934211D014321D
:1044400093420ED0143293420BD01432934208D0D0
:104450001432934205D01432934202D01432934264
:1044600007D1636EA26E5A60E36E13B1236F626F61
:104470005A6023682049214A934218BF8B4241D099
:10448000183293423ED0183293423BD018329342B6
:1044900038D01832934235D01832934232D0183285
:1044A00093422FD002F5567293422BD0183293428A
:1044B00028D01832934225D01832934222D0183295
:1044C00093421FD0183293421CD01832934219D015
:1044D0001832934216D01A6822F00E0242F00A02F5
:1044E0001A60236C002B00F0B7802268136843F039
:1044F000040313601AE000BF1000024028000240CD
:10450000085402581A6822F01E0242F016021A607D
:104510002268536943F080035361236C002B00F041
:1045200096802268136843F008031360236851499A
:10453000514A934218BF8B4242D0183293423FD027
:10454000183293423CD01832934239D018329342F9
:1045500036D01832934233D01832934230D002F51D
:10456000567293422CD01832934229D0183293427B
:1045700026D01832934223D01832934220D01832DA
:1045800093421DD0183293421AD01832934217D05A
:104590003A4A934214D01432934211D014329342C7
:1045A0000ED0143293420BD01432934208D01432FE
:1045B000934205D01432934202D0143293420ED16A
:1045C000236E1A6812F4803F03D01A6842F4807296
:1045D0001A60E36E1BB11A6842F480721A60236895
:1045E0002449254A934218BF8B423AD0183293424D
:1045F00037D01832934234D01832934231D0183227
:1046000093422ED0183293422BD01832934228D0A6
:1046100002F55672934224D01832934221D01832B8
:1046200093421ED0183293421BD01832934218D0B6
:104630001832934215D01832934212D01832934256
:104640000FD01A6842F001021A60002062E6A36CE3
:10465000002B7FF466AF69E7A36C002B7FF445AFB6
:1046600064E71A6842F001021A60002052E6022054
:1046700050E600BF100002402800024008540258D3
:1046800030B4416B0468D4F884306F4A134043EA75
:104690008103C4F884300468D4F8843023F47F03A1
:1046A000856B43EA0543C4F88430836B0B4404688C
:1046B000D4F88810114041EA8301C4F888100468D6
:1046C000D4F8881021F4FE01C56B41EA0541C4F815
:1046D0008810C16B03EB41030468D4F8A0101140AB
:1046E00041EA8301C4F8A0100468D4F8A01021F4B2
:1046F000FE01056C41EA0541C4F8A010016C446C50
:1047000004FB01330468D4F8B010114041EA83017E
:10471000C4F8B0100468D4F8B01021F4FE01856C20
:1047200041EA0541C4F8B010816CC46C04FB01334C
:104730000468D4F8AC10114041EA8301C4F8AC100D
:10474000016D446D04FB01330468D4F8F01011408E
:1047500041EA8301C4F8F0100468D4F8F01021F4A1
:104760007C11856D41EA0541C4F8F010816D03EBC1
:1047700041030468D4F8C0100A4042EA8303C4F835
:10478000C0300268D2F8C03023F47C13C16D43EA14
:104790000143C2F8C0300268D2F8C03023F07C5325
:1047A000016E43EA0163C2F8C030436B274A1A44E2
:1047B0009200C266836B02EB83030367C16B03EB5A
:1047C000C1034367016C446C04FB01F103EB8103FB
:1047D0008367816CC46C04FB01F103EB8103C36745
:1047E000016D446D04FB01F103EB8103C0F88030DF
:1047F000816D03EBC103C0F88430816EC46D01FB91
:1048000004FC03EB8C03C0F88830046E04FB01F158
:1048100003EB8103C0F890300D498B420DD9D0F8DD
:104820009C3043F02003C0F89C30032380F898307C
:10483000012007E0002342F8043BD0F89030934277
:10484000F8D8002030BC70470300FFFF002B001099
:10485000FCD3004070B54C68FCB90D698C682543E9
:104860000C6845EA84450E6ACC6944EA06648E69A0
:1048700034434E693443CE6844EA0644D0F8846039
:10488000806E00FB03F306EB830E46F82350CEF850
:1048900004400EF1080E002019E00C698D682543D4
:1048A0000C68254345F08045DDE702EB000C9CF8E1
:1048B00003409CF802301B0443EA04639CF8014067
:1048C00043EA0423145C23434EF8043B0430CB68D2
:1048D000024CE35C8342E8D870BD00BF5C3B01083A
:1048E00030B595B004464C22A04901A8FBF70AFD5B
:1048F000002C00F0388123689D4A934220D094F820
:1049000098300BB32268936923F010039361FDF78D
:10491000F7F9054623689A6912F0080F1AD0FDF7D7
:10492000EFF9431B0A2BF5D9D4F89C3043F001036F
:10493000C4F89C30032384F89830012015B030BDB2
:1049400003F580736360DAE784F899302046FBF75B
:10495000EFFFD7E79A6942F001029A61FDF7D0F9BB
:10496000054623689A6912F0010F0FD1FDF7C8F9C7
:10497000401B0A28F5D9D4F89C3043F00103C4F851
:104980009C30032384F898300120D7E79A6942F0DD
:1049900002029A61237C012B40D02268936943F084
:1049A00040039361637C012B3ED02268936923F41A
:1049B00080439361A37C012B3CD02268936943F42C
:1049C000805393612268936923F44073A1680B4379
:1049D00093612268936923F0A403936122681369A9
:1049E00023F010031361E368012B29D0002B2CD096
:1049F000022B00F09B802268936943F0800393614F
:104A00002268136943F010031361E368032B1CD180
:104A10002268936943F02003936116E0226893694A
:104A200023F040039361BDE72268936943F4804318
:104A30009361BFE72268936923F480539361C1E7D0
:104A40002268936943F004039361A3695A1EE369E2
:104A5000013B1B0243EA4263226A013A1343626943
:104A6000013A216843EA0243CB61A368B3F5407F72
:104A700062D0236E33B12268D2F8C030616E0B432E
:104A8000C2F8C030E36D226ED3420DD02168D1F858
:104A9000C83023F00703A26E14A800EB820252F87C
:104AA0004C2C1343C1F8C830236C6BB12168D1F88A
:104AB000BC3023F00703626C14A800EB820252F8AA
:104AC0004C2C1343C1F8BC30A36C73B12168D1F8EE
:104AD000BC3023F07003E26C14A800EB820252F8A1
:104AE0004C2C43EA0213C1F8BC30236D73B121682A
:104AF000D1F8BC3023F4E063626D14A800EB8202AD
:104B000052F84C2C43EA0223C1F8BC302268184BFF
:104B10009A4222D00023C4F89430C4F89C30012378
:104B200084F898302046FFF7ABFD07E722689369C9
:104B300043F02003936188E7A36A013BE26A013AEC
:104B400043EA0223226B013A43EA0213626A013A02
:104B5000216843EA0243CB608BE76268936823F0E5
:104B600003039360D6E70120E8E600BF3839010867
:104B700000A0004090F89830013BDBB2012B07D930
:104B8000D0F89C3043F00203C0F89C3001207047FD
:104B90000B68DBB9CB68072B0ED08A68DB0643EACB
:104BA00082730A6943EA02434A691343C26E496841
:104BB00042F82130002070470A69CB691B0243EAA2
:104BC00002438A69134343F06053EFE710B4CA68A5
:104BD0000B6943EA4273072A0FD04A698C6842EA9C
:104BE0008472006F496800EBC10C40F83130CCF89A
:104BF000042000205DF8044B70478A69F1E790F8C3
:104C000098C05FFA8CFCBCF1010F07D0D0F89C3043
:104C100043F00403C0F89C3001207047920042EA40
:104C2000011242EA43030168009A1A43C1F8802046
:104C30000020704790F89830DBB2012B07D0D0F8F5
:104C40009C3043F00403C0F89C300120704751B9F8
:104C50000168D1F8F03023F07C5343EA0263C1F8D5
:104C6000F03000207047012909D00168D1F8B03038
:104C700023F0FE4343EA0263C1F8B030F1E7016874
:104C8000D1F8A03023F0FE4343EA0263C1F8A0301C
:104C9000E7E790F89830DBB2012B07D0D0F89C30D2
:104CA00043F00403C0F89C3001207047022380F8D1
:104CB00098300268936923F0010393610023C0F8E0
:104CC0009C301846704738B5044690F89830DBB2EF
:104CD000022B2BD10368D3F8C00010F07C5F0CD0FE
:104CE000D3F8C40010F4001F0FD0D4F89C3043F464
:104CF0000073C4F89C3001201FE0D4F89C3043F0CE
:104D00002003C4F89C30012017E0D3F8C450C5F349
:104D100004452B462046FFF79DFD22680123AB404A
:104D2000C2F8D030C4F89430002006E0D0F89C30AF
:104D300043F00803C0F89C30012038BD90F898C0BB
:104D40005FFA8CFCBCF1020F40F0DF8070B54029A7
:104D50000CD041293DD0046D8C426DD8D0F89C30E8
:104D600043F02003C0F89C300120C1E00468D4F86F
:104D7000A05015F4FE0F0CD0D4F8A45015F07F0FFE
:104D80000FD1D0F89C3043F48073C0F89C300120E0
:104D9000AEE0D0F89C3043F02003C0F89C300120F6
:104DA000A6E0D4F8A46016F0807604D0D4F8A05021
:104DB000002D0CDB0026D4F8A440C4F305242644BF
:104DC000456F446C06FB04F405EB840E3BE00126C2
:104DD000F1E70468D4F8B05015F4FE0F0CD0D4F805
:104DE000B45015F07F0F0FD1D0F89C3043F480738E
:104DF000C0F89C3001207BE0D0F89C3043F02003C9
:104E0000C0F89C30012073E0D4F8B46016F08076CE
:104E100004D0D4F8B050002D0CDB0026D4F8B440F8
:104E2000C4F305242644856FC46C06FB04F405EB2B
:104E3000840E08E00126F1E7C56F446D01FB04F420
:104E400005EB840E0026DEF8004004F08044546038
:104E500064BBDEF80040C4F38A441460DEF800400E
:104E600004F000549460DEF8004004F00044146143
:104E7000BEF80440D461BEF8064004F00F04D460CC
:104E8000DEF8044004F480145461DEF8044004F4B5
:104E9000001494619EF8074004F07F041462DEF869
:104EA0000440E40F54624FF0000C0CE0DEF80040C8
:104EB00024F060441460D1E70EEB0C04247A03F86C
:104EC0000C400CF1010CD468144D2C5D6445F3D8F2
:104ED000402909D041290CD01F290ED8026801238E
:104EE0008B40C2F8983002E00368C3F8A860002045
:104EF00070BD0368C3F8B860F9E701F01F010268EC
:104F000001238B40C2F89C30F1E7D0F89C3043F08D
:104F10000803C0F89C300120704700BF5C3B0108CB
:104F200090F89830013BDBB2012B07D9D0F89C30C8
:104F300043F00203C0F89C300120704710B40368AE
:104F40009C6D0C4224D1DC6D44F00104DC6511F44D
:104F5000007F05D00468D4F8E0301343C4F8E03093
:104F600011F4806F05D00468D4F8E4301343C4F81A
:104F7000E4300068436D0C4A0A40134343650B4A12
:104F8000536943EA9173536100205DF8044B704705
:104F90009C6D31EA040402D00324DC65D7E7DC6DA4
:104FA00044F00204DC65D2E7FFFFCF3F00A80040D9
:104FB0007047704770477047704770477047704739
:104FC0007047704770477047704770477047704729
:104FD0002DE9F04F83B00446904B1A695B6913408A
:104FE00001939B07009303681A6D02F4704A5A6D8F
:104FF0000AEA020A1A6D02F00F095A6D09EA02095B
:105000001A6D02F0F0085A6D08EA02081E6D06F0EB
:1050100071565A6D16401F6D07F060775A6D174034
:105020005D6DD3F850B015F4807F02D01BF4807F03
:1050300064D115F4806F02D01BF4806F67D1009BA0
:10504000002B74D1BAF1000F7ED1B9F1000F40F0FE
:105050008780B8F1000F40F08F8015F4006F03D007
:105060001BF4006F40F0948015F4007F03D01BF414
:10507000007F40F0988015F4002F03D01BF4002F20
:1050800040F0A18015F4803F03D01BF4803F40F036
:10509000A58015F4802F03D01BF4802F40F0A98049
:1050A00015F4003F0FD01BF4003F0CD023684FF4E1
:1050B00000321A65594B00221A61D4F89C3043F033
:1050C0008003C4F89C30002F40F09E804EB12368CE
:1050D0001E65B20F514B1A61D4F89C303343C4F8AB
:1050E0009C3022684E4B9A4200F09C80D4F89C3051
:1050F000002B40F0F98003B0BDE8F08F4FF48072D0
:105100001A65464B00221A61FFF75BFF91E723689F
:10511000D3F8DC10D3F8E4204FF4806018653F4BDF
:105120000020186111402046FFF747FF87E72368FA
:1051300000221A65019B03F00303384A13610099AA
:105140002046FFF735FF7DE72368C3F850A04FEAFC
:105150009A72324B1A6151462046FFF72AFF74E7D4
:105160002368C3F850904FEA99722C4B1A61494654
:1051700020460AF001FC6CE72368C3F850804FEA30
:105180009872264B1A6141462046FFF713FF64E7E9
:1051900023684FF400621A65204B00221A612046F2
:1051A000FFF709FF60E72368D3F8D810D3F8E020B1
:1051B0004FF400701865194B00201861114020460B
:1051C000FFF7FAFE57E723684FF400221A65134BE6
:1051D00000221A612046FFF7F1FE53E723684FF4DF
:1051E00080321A650D4B00221A612046FFF7E7FE58
:1051F0004FE723684FF480221A65084B00221A619A
:105200002046FFF7DDFE4BE723681F65BA0F034B0F
:105210001A6139462046FFF7D6FE57E700A800403E
:1052200000A0004063689A6812F0030F3FF45EAF7D
:10523000196A01F00F015A6A186A00F03008586ABA
:1052400008EA00081F6A07F4C077586A07401E6A18
:1052500006F4FC46586A06401D6A05F4F025586AB3
:105260000540D3F82490D3F820A011401CD1B8F108
:10527000000F1ED119F0400F02D01AF0400F20D1BC
:105280005FBB36B163681E62D4F89C303343C4F808
:105290009C30002D3FF42AAF63681D62D4F89C3027
:1052A0002B43C4F89C3021E719622046FFF78CFE9F
:1052B000DDE76368C3F8208041462046FFF785FE9E
:1052C000D8E76368D96BDA6B4020186202F03F02BE
:1052D000090C2046FFF77AFED2E763681F62394661
:1052E0002046FFF774FECCE72046FFF76BFE02E78F
:1052F000F0B583B000236BE085685E000324B44002
:1053000025EA0405CC68B4402C438460456825EA4E
:105310000C054C68C4F300149C402C43446069E0C5
:10532000DD08083550F8254003F0070C4FEA8C0CD7
:105330004FF00F0E0EFA0CFE24EA0E0E0C6904FA62
:105340000CF444EA0E0440F825406BE0092400E028
:10535000002404FA0EF42C430CF1020C664D45F8BF
:105360002C404FF0B0442568D44325EA02064F682C
:1053700017F4801F01D042EA05064FF0B0452E60B9
:105380006D6804EA05064F6817F4001F01D042EA71
:1053900005064FF0B0456E60D5F8845004EA050666
:1053A0004F6817F4003F01D042EA05064FF0B045C0
:1053B000C5F88460D5F880502C404E6816F4803FC4
:1053C00001D042EA05044FF0B042C2F880400133F8
:1053D0000A6832FA03F400F08C804FF0010C0CFAEA
:1053E00003FC1CEA0202F2D04C6804F00304013C06
:1053F000012C81D94C6804F00304032C0CD0C46840
:105400005D004FF0030C0CFA05FC24EA0C0C8C68D0
:10541000AC4044EA0C04C4604C6804F00304022C61
:105420003FF47EAF04684FEA430E4FF0030C0CFAD2
:105430000EFC24EA0C0C4C6804F0030404FA0EF48D
:1054400044EA0C0404604C6814F4403FBFD02B4C79
:10545000D4F8F45045F00205C4F8F450D4F8F44000
:1054600004F002040194019C4FEA930C0CF1020534
:10547000214C54F8255003F0030E4FEA8E0E0F24F2
:1054800004FA0EF425EA04051D4CA0423FF460AF77
:1054900004F58064A0421ED004F58064A0421CD0B4
:1054A00004F58064A0421AD004F58064A04218D0AC
:1054B00004F58064A04216D004F58064A04214D0A4
:1054C00004F58064A04212D004F50064A0423FF4C9
:1054D0003DAF0A243DE701243BE7022439E70324DA
:1054E00037E7042435E7052433E7062431E70724AA
:1054F0002FE703B0F0BD00BF00040058004402587D
:10550000000002580AB18161704709048161704747
:1055100008B54FF0B043D3F88830034200D108BD3E
:105520004FF0B043C3F888000AF01AFDF7E72DE901
:10553000F04383B0D0F8008001EBC10300EB83039C
:105540009A6A5B6A9A4254D807460C469B1A01EB4A
:10555000C10200EB8202D2699A4200D31A4602F1DC
:1055600003094FEA990915E006F103094FEA990981
:10557000BB7904EBC40507EB8505296A0093B3B238
:10558000E2B2404605F0ADFF2B6A33442B62AB6AB2
:105590003344AB6208EB441303F510639B699BB281
:1055A0004B4512D304EBC40307EB83039A6A5B6A8F
:1055B0009A420AD24BB19B1A04EBC40207EB820257
:1055C000D6699E42D0D31E46CEE704EBC40307EB58
:1055D00083077A6ABB6A9A420FD804F00F0401224B
:1055E000A240D8F8343823EA0203C8F8343800203F
:1055F00000E0012003B0BDE8F0830020FAE730B5F9
:1056000083B000287AD0044690F89534ABB10323D8
:1056100084F89534206805F01BFD237C8DF800305C
:10562000231D0ECB206805F049FC58B1022384F8F5
:1056300095340125284603B030BD80F8943409F034
:105640006DFBE4E70021206806F05BF9024608B92B
:10565000034617E0022384F895340125EAE703EBBB
:10566000C30104EB8101012048750B75CB85002037
:105670000876C861086203EBC30104EB810148624C
:105680000133DBB220799842E9D816E002EBC2037D
:1056900004EB8303002183F8551283F8542283F826
:1056A0005812C3F85C12C3F8601202EBC20304EB99
:1056B0008303C3F864120132D2B29042E6D8237C4D
:1056C0008DF80030231D0ECB206805F017FD054630
:1056D00058B900236374012384F89534237B012B8C
:1056E00008D0206806F0CCF8A4E7022384F89534AB
:1056F00001259FE7204600F073FDF2E7012599E7B9
:10570000036890F89424012A1AD010B504460122A7
:1057100080F89424DA6812F0400F02D0427B012A0C
:1057200009D0206805F08EFC206806F09BF8002068
:1057300084F8940410BD9A6B42F480329A63F0E7C7
:105740000220704770B504460D460068066C00EBF9
:10575000411303F530639A68A179012911D03849C2
:105760008E4256D03DB905EBC50304EB8303D3F855
:105770006432002B5ED0E9B2204609F011FB002014
:1057800070BD12F0080F09D02E498E42F7D912F4DD
:10579000004FF4D04FF400429A60F0E712F0200F6F
:1057A00002D020229A60EAE712F0280FE7D12549BB
:1057B0008E4206D912F4004F03D04FF400429A6093
:1057C000DDE705EBC50204EB8202D2F874121B6917
:1057D000C3F31203CB1AC2F868327DB905EBC502D8
:1057E00004EB8202D2F864226AB105EBC50204EB35
:1057F0008202D2F860121944C2F86012E9B220465F
:1058000009F0CEFABBE704F29C42012106F0B8F899
:10581000F4E712F4004F03D04FF400429A60AEE771
:1058200012F0200F01D020229A60E9B2204609F040
:10583000B7FAA4E704F29C42002106F0A1F89AE727
:105840000A31544F0A30544F38B5044603681D6C72
:1058500003EB4113D3F8081B0E4A954207D903F511
:10586000306311F4004F02D04FF400429A6020469A
:1058700009F08EFA074B9D4202D9A379012B01D082
:10588000002038BD04F29C420121206806F078F81F
:10589000F6E700BF0A30544F90F89434012B0CD037
:1058A00010B50446012380F894344174006805F073
:1058B000C9FF002084F8940410BD0220704738B559
:1058C00005468C4611F0800F29D101F00F0E0EEB2A
:1058D000CE04A40004F514740444211D0EEBCE0E76
:1058E00000EB8E0E00208EF855020CF00F0C81F8A4
:1058F00000C08A600B714A780AB1A1F81AC0022B65
:105900001CD095F89434012B1BD0012385F89434D6
:10591000286805F0CBFC002085F8940438BD01F020
:105920000F0000EBC001890010312944043100EB65
:10593000C00005EB800001244475D6E700234B71BD
:10594000DFE70220EAE710B504460A4611F0800FAF
:1059500020D101F00F0000EBC0039B0003F514738E
:105960002344191D00EBC00004EB8000002380F8E5
:10597000553202F00F020A7094F89434012B18D0BB
:10598000012384F89434206805F0DCFC002084F8BE
:10599000940410BD01F00F0000EBC0039B00103316
:1059A0002344191D00EBC00004EB80000123437564
:1059B000DFE70220EDE710B5144601F00F0C0CEB09
:1059C000CC01890001F51471014404310CEBCC0EBB
:1059D00000EB8E0ECEF86022CEF864320023CEF8B3
:1059E00068328EF855328EF854C28279012A04D07A
:1059F000006805F08DFD002010BDCEF87042F7E77D
:105A000001F00F0101EBC10100EB8100D0F8680249
:105A1000704710B5144601F00F0C0CEBCC01890057
:105A20001031014404310CEBCC0E00EB8E0ECEF89D
:105A30002020CEF824300023CEF8283001238EF821
:105A400015308EF814C082799A4204D0006805F0AF
:105A50005FFD002010BDCEF83040F7E738B501F00B
:105A60000F050279AA4238D304460B4611F0800F85
:105A70001FD101EBC101890001F51471014404310A
:105A800003EBC30300EB8303002283F855220123B9
:105A90008B700D7094F89434012B20D0012384F87E
:105AA0009434206805F073FE85B1002084F89404D6
:105AB00038BD05EBC501890010310144043105EB07
:105AC000C50300EB830301225A75E0E704F29C4210
:105AD000A179206805F054FFE7E70120E8E70220FC
