:020000040800F2
:1000000000000524010B0008F1090008F3090008AD
:10001000F5090008F7090008F909000800000000C8
:100020000000000000000000000000005131000846
:10003000FB09000800000000F1310008972E0008BD
:10004000510B0008510B0008510B0008510B000820
:10005000510B0008510B0008510B0008510B000810
:10006000510B0008510B0008510B0008510B000800
:10007000510B0008510B0008510B0008510B0008F0
:10008000510B0008510B0008510B0008510B0008E0
:10009000510B0008510B0008510B0008510B0008D0
:1000A000510B0008FD090008510B0008510B000816
:1000B000510B0008510B0008510B0008510B0008B0
:1000C000510B0008510B0008510B0008510B0008A0
:1000D000510B0008510B0008510B0008510B000890
:1000E000510B0008510B000800000000510B0008E4
:1000F000510B0008510B0008510B0008510B000870
:10010000510B0008510B0008510B0008510B00085F
:10011000510B0008510B0008510B0008510B00084F
:10012000510B0008510B0008510B0008510B00083F
:10013000510B0008510B0008510B0008510B00082F
:1001400000000000000000000000000000000000AF
:10015000510B0008510B0008510B0008510B00080F
:10016000510B0008510B0008510B0008510B0008FF
:10017000510B0008510B0008510B00080000000053
:10018000510B0008510B0008510B0008510B0008DF
:10019000510B0008510B0008510B0008510B0008CF
:1001A000510B0008510B0008510B00080000000023
:1001B000510B0008510B0008510B0008510B0008AF
:1001C000510B0008510B0008000000000000000067
:1001D0000000000000000000510B000800000000BB
:1001E000000000000000000000000000000000000F
:1001F0000000000000000000510B0008510B000837
:10020000510B0008510B000800000000510B0008C2
:10021000510B0008510B0008510B0008510B00084E
:10022000510B000800000000510B00080000000006
:10023000510B0008510B000800000000510B000892
:10024000510B0008510B0008510B0008510B00081E
:10025000510B0008510B0008510B0008510B00080E
:10026000510B0008510B0008510B0008510B0008FE
:10027000510B0008510B0008510B00080000000052
:10028000510B0008510B0008510B0008510B0008DE
:1002900000000000510B0008510B00080000000096
:1002A00000000000510B0008510B0008510B000822
:1002B000510B0008510B0008510B0008510B0008AE
:0C02C000510B0008510B0008510B000806
:1002D000844641EA000313F003036DD1403A41D351
:1002E00051F8043B40F8043B51F8043B40F8043B10
:1002F00051F8043B40F8043B51F8043B40F8043B00
:1003000051F8043B40F8043B51F8043B40F8043BEF
:1003100051F8043B40F8043B51F8043B40F8043BDF
:1003200051F8043B40F8043B51F8043B40F8043BCF
:1003300051F8043B40F8043B51F8043B40F8043BBF
:1003400051F8043B40F8043B51F8043B40F8043BAF
:1003500051F8043B40F8043B51F8043B40F8043B9F
:10036000403ABDD2303211D351F8043B40F8043B3F
:1003700051F8043B40F8043B51F8043B40F8043B7F
:1003800051F8043B40F8043B103AEDD20C3205D34F
:1003900051F8043B40F8043B043AF9D2043208D047
:1003A000D2071CBF11F8013B00F8013B01D30B88B9
:1003B00003806046704700BF082A13D38B078DD097
:1003C00010F003038AD0C3F10403D21ADB071CBF69
:1003D00011F8013B00F8013B80D331F8023B20F8D3
:1003E000023B7BE7043AD9D3013A11F8013B00F80C
:1003F000013BF9D20B7803704B7843708B78837094
:10040000604670470348044B834202D0034B03B15C
:100410001847704770050024700500240000000094
:100420000548064B1B1AD90F01EBA301491002D056
:10043000034B03B118477047700500247005002472
:100440000000000010B5064C237843B9FFF7DAFF2F
:10045000044B13B10448AFF300800123237010BD97
:1004600070050024000000003451000808B5054B59
:100470001BB105490548AFF30080BDE80840FFF710
:10048000CFBF00BF000000007405002434510008F5
:1004900010B51648164B036000228260C26001232B
:1004A0000374427483744361142181613B24C461E9
:1004B00001624362022484620D23C36204634263C7
:1004C00004238363C3630821016443648164C364B8
:1004D000046543658165C16501664266836600F017
:1004E000C9FC00B910BD00F0B7F9FBE7D006002445
:1004F00000A0004010B51648164B03600022826031
:10050000C2600123037442748374436114218161C6
:100510003B24C46101624362022484620D23C362EE
:100520000463426304238363C36308210164436457
:100530008164C364046543658165C1650166426683
:10054000836600F097FC00B910BD00F085F9FBE769
:100550003006002400A4004010B51648164B036076
:1005600000228260C2600123037442748374436179
:10057000142181613B24C4610162436202248462CC
:100580000D23C3620463426304238363C3630821AE
:10059000016443648164C364046543658165C16526
:1005A00001664266836600F065FC00B910BD00F08C
:1005B00053F9FBE79005002400D4004010B5BAB011
:1005C0000446002135913691379138913991B822FE
:1005D00006A804F00DFB2368634A934207D0634AE0
:1005E000934243D0624A93427FD03AB010BD4FF459
:1005F00000420023CDE906234FF08053219306A843
:1006000001F054FD08BB5B4A136801331360012BF2
:100610001ED0594BD3F8E02042F00102C3F8E0208D
:10062000D3F8E03003F001030193019B4FF4C05372
:100630003593022336930023379338930923399354
:1006400035A94E4800F060FDCFE700F005F9DAE784
:10065000494BD3F8EC2042F48072C3F8EC20D3F875
:10066000EC3003F480730093009BD2E74FF4004218
:100670000023CDE906234FF08053219306A801F013
:1006800015FD08BB3B4A136801331360012B1ED0D4
:10069000394BD3F8E02042F00202C3F8E020D3F84F
:1006A000E03003F002030393039B4FF44053359370
:1006B000022336930023379338930923399335A9BE
:1006C0002F4800F021FD90E700F0C6F8DAE72A4B4A
:1006D000D3F8EC2042F48072C3F8EC20D3F8EC306D
:1006E00003F480730293029BD2E74FF4004200238D
:1006F000CDE906234FF08053219306A801F0D6FCE4
:1007000008BB1C4A136801331360012B1ED01A4B1F
:10071000D3F8E02042F00802C3F8E020D3F8E0303C
:1007200003F008030593059B4FF4405335930223D0
:1007300036930023379338930523399335A911480D
:1007400000F0E2FC51E700F087F8DAE70A4BD3F853
:10075000EC2042F48072C3F8EC20D3F8EC3003F4C0
:1007600080730493049BD2E700A0004000A40040E3
:1007700000D400408C0500240044025800000258B8
:1007800000040258000C025808B5012002F01DFCBC
:10079000FBE708B5012002F018FCFBE708B5074AA3
:1007A0000021074802F0B2FB064B1860064A002100
:1007B000064802F0ABFB064B186008BDE851000884
:1007C0008907000874070024C45100089307000833
:1007D0007007002484B0194BD3F8E02042F0800267
:1007E000C3F8E020D3F8E02002F080020092009AE3
:1007F000D3F8E02042F00202C3F8E020D3F8E02072
:1008000002F002020192019AD3F8E02042F00802BD
:10081000C3F8E020D3F8E02002F008020292029A26
:10082000D3F8E02042F00102C3F8E020D3F8E03032
:1008300003F001030393039B04B070470044025884
:1008400008B50268034B9A4200D008BD00F0B0F929
:10085000FBE700BF0000014072B6FEE700B59DB0A7
:100860004C22002109A804F0C3F92022002101A88C
:1008700004F0BEF9022000F051FD00230093204B4C
:100880009A6922F440429A619B6903F440430093C1
:10089000009B1B4B9B6913F4005FFAD00122099265
:1008A0004FF480330A930223129313931493282155
:1008B000159116920622179218930C231993002370
:1008C0001A931B9309A800F053FDA8B93F23019385
:1008D00003210291002303930823049340230593EB
:1008E00006934FF480620792089301A801F02EF955
:1008F00020B91DB05DF804FBFFF7AEFFFFF7ACFFBA
:100900000048025808B500F025F9FFF7A7FFFFF7E8
:1009100061FFFFF7BDFDFFF7EDFDFFF71DFE02F0E4
:10092000C7FAFFF73BFF02F0D5FAFEE700B583B048
:100930000A4BD3F8F42042F00202C3F8F420D3F8B3
:10094000F43003F002030193019B00220F216FF0AA
:10095000010000F091F903B05DF804FB0044025877
:100960000F2801D90120704710B58AB00446002233
:100970000146192000F080F9192000F08DF9174B7D
:100980001C60174BD3F8F02042F00102C3F8F020AE
:10099000D3F8F03003F001030093009B01A902A8F3
:1009A00001F052FA01F03EFA43000E4AA2FB032383
:1009B0009B0C013B0C480D4A026040F2E732C260DA
:1009C000436000230361836002F032FA10B101201A
:1009D0000AB010BD044802F081F8F9E70C000024C9
:1009E0000044025883DE1B437807002400000140C6
:1009F000FEE7FEE7FEE7FEE7FEE7704708B50248C0
:100A000002F0C0F808BD00BF7807002410B5034607
:100A10000C4A0D490D48006840B10C480068034479
:100A2000521A934206D8094A136010BD0748084C71
:100A30000460F2E704F064F90C2303604FF0FF3028
:100A4000F3E700BF0000052400040000C4070024F1
:100A5000B0560024224AD2F8883043F47003C2F81A
:100A60008830204B1B6803F00F03062B06D81D4A65
:100A7000136823F00F0343F0070313601A4B1A683F
:100A800042F001021A6000221A611968174A0A40EE
:100A90001A60144B1B6813F0080F06D0114A136834
:100AA00023F00F0343F0070313600F4B00229A61FA
:100AB000DA611A620E4999620E49D9620E491963C8
:100AC0005A639963DA6319645A64196821F48021BE
:100AD00019601A66094B43F2D2021A60704700BFD0
:100AE00000ED00E000200052004402587FEDF6EADD
:100AF000000202020000FF018002010100400052DA
:100B0000DFF834D0FFF7A6FF0C480D490D4A00234B
:100B100002E0D458C4500433C4188C42F9D30A4AB2
:100B20000A4C002301E013600432A242FBD304F01C
:100B3000EDF8FFF7E7FE70470000052400000024F1
:100B4000700500243052000870050024AC560024C3
:100B5000FEE7000010B5032000F07CF800F0FAFE7C
:100B60000F498B69C3F303230E4AD35C03F01F03C1
:100B7000D8408B6903F00F03D35C03F01F0320FA06
:100B800003F3094A1360094B18600F20FFF7E8FED2
:100B900010B10124204610BD0446FFF7C7FEF9E757
:100BA000004402580C5200080000002404000024F5
:100BB000034B1B78034A11680B441360704700BF56
:100BC00008000024C8070024014B1868704700BFC4
:100BD000C8070024002807DB00F01F02400901239A
:100BE0009340024A42F82030704700BF00E100E025
:100BF000002804DB0901C9B2044B1954704700F006
:100C00000F000901C9B2024B1954704700E400E01B
:100C100014ED00E000B500F00700C0F1070CBCF1D6
:100C2000040F28BF4FF0040C031D062B0FD9C31E61
:100C30004FF0FF3E0EFA0CF021EA000199400EFA47
:100C400003FE22EA0E0241EA02005DF804FB0023E3
:100C5000EEE700000649CB6823F4E0631B041B0C9D
:100C6000000200F4E0600343024A1A43CA6070477E
:100C700000ED00E00000FA0510B50446054BD86809
:100C8000C0F30220FFF7C6FF01462046FFF7B0FF82
:100C900010BD00BF00ED00E008B5FFF79BFF08BDE9
:100CA00030B4416B0468D4F884306F4A134043EA8F
:100CB0008103C4F884300468D4F8843023F47F03BB
:100CC000856B43EA0543C4F88430836B0B440468A6
:100CD000D4F88810114041EA8301C4F888100468F0
:100CE000D4F8881021F4FE01C56B41EA0541C4F82F
:100CF0008810C16B03EB41030468D4F8A0101140C5
:100D000041EA8301C4F8A0100468D4F8A01021F4CB
:100D1000FE01056C41EA0541C4F8A010016C446C69
:100D200004FB01330468D4F8B010114041EA830198
:100D3000C4F8B0100468D4F8B01021F4FE01856C3A
:100D400041EA0541C4F8B010816CC46C04FB013366
:100D50000468D4F8AC10114041EA8301C4F8AC1027
:100D6000016D446D04FB01330468D4F8F0101140A8
:100D700041EA8301C4F8F0100468D4F8F01021F4BB
:100D80007C11856D41EA0541C4F8F010816D03EBDB
:100D900041030468D4F8C0100A4042EA8303C4F84F
:100DA000C0300268D2F8C03023F47C13C16D43EA2E
:100DB0000143C2F8C0300268D2F8C03023F07C533F
:100DC000016E43EA0163C2F8C030436B274A1A44FC
:100DD0009200C266836B02EB83030367C16B03EB74
:100DE000C1034367016C446C04FB01F103EB810315
:100DF0008367816CC46C04FB01F103EB8103C3675F
:100E0000016D446D04FB01F103EB8103C0F88030F8
:100E1000816D03EBC103C0F88430816EC46D01FBAA
:100E200004FC03EB8C03C0F88830046E04FB01F172
:100E300003EB8103C0F890300D498B420DD9D0F8F7
:100E40009C3043F02003C0F89C30032380F8983096
:100E5000012007E0002342F8043BD0F89030934291
:100E6000F8D8002030BC70470300FFFF002B0010B3
:100E7000FCD3004030B595B004464C22A04901A8EF
:100E8000FFF726FA002C00F0388123689D4A934230
:100E900020D094F898300BB32268936923F01003A4
:100EA0009361FFF791FE054623689A6912F0080FD7
:100EB0001AD0FFF789FE431B0A2BF5D9D4F89C30D2
:100EC00043F00103C4F89C30032384F898300120D8
:100ED00015B030BD03F580736360DAE784F89930AC
:100EE0002046FFF76BFBD7E79A6942F001029A614F
:100EF000FFF76AFE054623689A6912F0010F0FD1C9
:100F0000FFF762FE401B0A28F5D9D4F89C3043F065
:100F10000103C4F89C30032384F898300120D7E7FC
:100F20009A6942F002029A61237C012B40D0226828
:100F3000936943F040039361637C012B3ED02268A8
:100F4000936923F480439361A37C012B3CD02268F6
:100F5000936943F4805393612268936923F4407347
:100F6000A1680B4393612268936923F0A403936102
:100F70002268136923F010031361E368012B29D061
:100F8000002B2CD0022B00F09B802268936943F049
:100F9000800393612268136943F010031361E368CF
:100FA000032B1CD12268936943F02003936116E060
:100FB0002268936923F040039361BDE72268936937
:100FC00043F480439361BFE72268936923F480531D
:100FD0009361C1E72268936943F004039361A369B5
:100FE0005A1EE369013B1B0243EA4263226A013A4B
:100FF00013436269013A216843EA0243CB61A36863
:10100000B3F5407F62D0236E33B12268D2F8C0308E
:10101000616E0B43C2F8C030E36D226ED3420DD037
:101020002168D1F8C83023F00703A26E14A800EBA2
:10103000820252F84C2C1343C1F8C830236C6BB1B8
:101040002168D1F8BC3023F00703626C14A800EBD0
:10105000820252F84C2C1343C1F8BC30A36C73B11C
:101060002168D1F8BC3023F07003E26C14A800EBC7
:10107000820252F84C2C43EA0213C1F8BC30236DB3
:1010800073B12168D1F8BC3023F4E063626D14A819
:1010900000EB820252F84C2C43EA0223C1F8BC3028
:1010A0002268184B9A4222D00023C4F89430C4F826
:1010B0009C30012384F898302046FFF7F1FD07E7C4
:1010C0002268936943F02003936188E7A36A013B98
:1010D000E26A013A43EA0223226B013A43EA02132D
:1010E000626A013A216843EA0243CB608BE7626897
:1010F000936823F003039360D6E70120E8E600BF7E
:101100004C51000800A00040F0B583B000236BE014
:1011100085685E000324B44025EA0405CC68B44029
:101120002C438460456825EA0C054C68C4F3001420
:101130009C402C43446069E0DD08083550F82540A8
:1011400003F0070C4FEA8C0C4FF00F0E0EFA0CFE5A
:1011500024EA0E0E0C6904FA0CF444EA0E0440F87A
:1011600025406BE0092400E0002404FA0EF42C432F
:101170000CF1020C664D45F82C404FF0B044256848
:10118000D44325EA02064F6817F4801F01D042EAD3
:1011900005064FF0B0452E606D6804EA05064F68FD
:1011A00017F4001F01D042EA05064FF0B0456E600B
:1011B000D5F8845004EA05064F6817F4003F01D0C3
:1011C00042EA05064FF0B045C5F88460D5F8805076
:1011D0002C404E6816F4803F01D042EA05044FF0DF
:1011E000B042C2F8804001330A6832FA03F400F0DA
:1011F0008C804FF0010C0CFA03FC1CEA0202F2D0C6
:101200004C6804F00304013C012C81D94C6804F0C3
:101210000304032C0CD0C4685D004FF0030C0CFADF
:1012200005FC24EA0C0C8C68AC4044EA0C04C46055
:101230004C6804F00304022C3FF47EAF04684FEACC
:10124000430E4FF0030C0CFA0EFC24EA0C0C4C6815
:1012500004F0030404FA0EF444EA0C0404604C683D
:1012600014F4403FBFD02B4CD4F8F45045F00205A5
:10127000C4F8F450D4F8F44004F002040194019C42
:101280004FEA930C0CF10205214C54F8255003F061
:10129000030E4FEA8E0E0F2404FA0EF425EA04051D
:1012A0001D4CA0423FF460AF04F58064A0421ED004
:1012B00004F58064A0421CD004F58064A0421AD0DA
:1012C00004F58064A04218D004F58064A04216D0D2
:1012D00004F58064A04214D004F58064A04212D0CA
:1012E00004F50064A0423FF43DAF0A243DE7012429
:1012F0003BE7022439E7032437E7042435E70524D4
:1013000033E7062431E707242FE703B0F0BD00BF21
:10131000000400580044025800000258134BDB68D8
:1013200013F0040F07D1114BDB6803F0070383426E
:101330001AD00120704710B50C4AD36823F0070378
:101340000343D360FFF740FC0446084B5B6813F48B
:10135000005F07D1FFF738FC001BB0F57A7FF4D9A6
:10136000012000E0002010BD002070470048025816
:10137000002800F0D58238B50446036813F0010F49
:1013800025D0A04A136903F03803926A102B15D0B8
:10139000182B0FD06368B3F5803F3FD0002B53D19B
:1013A000984B1A6822F480321A601A6822F480225C
:1013B0001A6038E002F00302022AEBD1914B1B685D
:1013C00013F4003F03D06368002B00F0AB82236866
:1013D00013F0020F00F088808A4A1369926A13F0B2
:1013E00038035AD0182B55D0E368002B00F0A980A1
:1013F00084490A6822F0190213430B60FFF7E4FBEB
:101400000546804B1B6813F0040F40F09180FFF7F6
:10141000DBFB401B0228F4D903208AE2794A1368D7
:1014200043F48033136063682BB3FFF7CDFB0546AD
:10143000744B1B6813F4003FC9D1FFF7C5FB401B79
:101440006428F5D9032074E2B3F5A02F09D06D4BC1
:101450001A6822F480321A601A6822F480221A6014
:10146000E1E7684B1A6842F480221A601A6842F475
:1014700080321A60D7E7FFF7A7FB0546614B1B6870
:1014800013F4003FA3D0FFF79FFB401B6428F5D95E
:1014900003204EE212F0030FA6D15A4B1B6813F043
:1014A000040F03D0E368002B00F03E82554A136816
:1014B00023F01903E1680B431360FFF785FB054632
:1014C000504B1B6813F0040F06D1FFF77DFB401B48
:1014D0000228F5D903202CE24A4A536823F0FE4340
:1014E000216943EA01635360236813F0100F51D060
:1014F000444A136903F03803926A082B39D0182B39
:1015000033D0E369002B69D03E4A136843F080036F
:101510001360FFF759FB05463A4B1B6813F4807FB5
:1015200053D1FFF751FB401B0228F5D9032000E2FD
:10153000344A536823F0FE43216943EA0163536050
:10154000D2E7304A136823F001031360FFF73CFB36
:1015500005462C4B1B6813F0040FC5D0FFF734FB76
:10156000401B0228F5D90320E3E102F00302012A1F
:10157000C7D1244B1B6813F4807F03D0E369802B11
:1015800040F0D4811F4AD36823F07C53216A43EA98
:101590000163D360236813F0080F49D06369002BFF
:1015A00032D0184A536F43F001035367FFF70CFB27
:1015B0000546144B5B6F13F0020F39D1FFF704FBA4
:1015C000401B0228F5D90320B3E10E4AD36823F06B
:1015D0007C53216A43EA0163D360DBE7094A13685D
:1015E00023F080031360FFF7EFFA0546054B1B68F5
:1015F00013F4807FCED0FFF7E7FA401B0228F5D91D
:10160000032096E1004402589D4A536F23F00103E2
:101610005367FFF7D9FA0546994B5B6F13F0020F3A
:1016200006D0FFF7D1FA401B0228F5D9032080E14C
:10163000236813F0200F29D0A3699BB1904A136847
:1016400043F480531360FFF7BFFA05468C4B1B68C9
:1016500013F4005F1AD1FFF7B7FA401B0228F5D93F
:10166000032066E1864A136823F480531360FFF772
:10167000ABFA0546824B1B6813F4005F06D0FFF7F8
:10168000A3FA401B0228F5D9032052E1236813F086
:10169000040F21D1636A002B00F04A81784A126955
:1016A00002F03802182A00F0F180022B75D0744A3B
:1016B000136823F080731360FFF786FA0446704BBB
:1016C0001B6813F0007F00F0D880FFF77DFA001B45
:1016D0000228F4D903202CE16A4A136843F480738A
:1016E0001360FFF771FA0546664B1B6813F4807FA1
:1016F00006D1FFF769FA401B6428F5D9032018E1E9
:10170000A368012B0AD00BBB5D4B1A6F22F00102BC
:101710001A671A6F22F004021A6704E0584A136F1E
:1017200043F001031367A36833B3FFF74DFA05468F
:10173000534B1B6F13F0020FACD1FFF745FA401B60
:1017400041F288339842F3D90320F2E0052B09D007
:101750004B4B1A6F22F001021A671A6F22F0040233
:101760001A67E0E7464B1A6F42F004021A671A6FD5
:1017700042F001021A67D6E7FFF726FA0546404B0A
:101780001B6F13F0020F85D0FFF71EFA401B41F2CA
:1017900088339842F3D90320CBE0394A136823F009
:1017A00080731360FFF710FA0546354B1B6813F082
:1017B000007F06D0FFF708FA401B0228F5D9032066
:1017C000B7E02F4B996A304A0A40A16AE06A41EAC1
:1017D00000110A439A62226B013AC2F30802616B5C
:1017E0000139490289B20A43A16B0139090401F4A4
:1017F000FE010A43E16B0139090601F0FE410A438B
:101800001A63DA6A22F00102DA625A6B6FF3CF02CE
:10181000A16C42EAC1025A63DA6A22F00C02216C1E
:101820000A43DA62DA6A22F00202616C0A43DA627F
:10183000DA6A42F48032DA62DA6A42F40032DA6258
:10184000DA6A42F48022DA62DA6A42F00102DA628B
:101850001A6842F080721A60FFF7B6F90446084B26
:101860001B6813F0007F06D1FFF7AEF9001B0228BA
:10187000F5D903205DE000205BE0002059E000BFC7
:1018800000440258004802580CFCFFFF30498A6AA5
:10189000086B012B4ED002F00303A16A8B424BD19F
:1018A000C2F30512E36A9A4248D1C0F30802236BDF
:1018B000013B9A4244D1C0F34622636B013B9A42FA
:1018C00040D1C0F30642A36B013B9A423CD1C0F326
:1018D0000660E36B013B984238D11D4B5B6BC3F351
:1018E000CC03A26C9A4201D1002022E0184AD36AAC
:1018F00023F00103D362FFF767F90546FFF764F9A8
:10190000A842FBD0124A536B6FF3CF03A16C43EA9A
:10191000C1035363D36A43F00103D362002008E09C
:1019200001207047012004E0012002E0012000E0D6
:10193000002038BD0120FCE70120FAE70120F8E78C
:101940000120F6E70120F4E70120F2E70120F0E7AB
:1019500000440258754B1B6903F03803102B00F04C
:10196000DE80182B0FD0002B40F0DB806F4B1B6804
:1019700013F0200F00F0D7806C4B1B68C3F3C1033A
:101980006B48D840704710B4684B9A6A02F0030263
:101990009C6AC4F30510D96A01F001015B6BC3F3C3
:1019A000CC0301FB03F307EE903AF8EE677A14F4E8
:1019B0007C7F77D0012A4AD0022A76D0002A40F0D4
:1019C00091805A4B1B6813F0200F23D057490A68A7
:1019D000C2F3C102564BD34007EE103AF8EE476A05
:1019E00007EE100AB8EE476A86EE867A0B6BC3F3F1
:1019F000080306EE903AF8EE666A9FED4E6A67EECF
:101A0000867A76EEA77AF7EE006A77EEA67A27EE68
:101A1000277A38E007EE100AF8EE476A9FED466A2B
:101A200086EE267A414B1B6BC3F3080306EE903A11
:101A3000F8EE666A9FED3F6A67EE867A76EEA77AE1
:101A4000F7EE006A77EEA67A27EE277A1BE007EE1C
:101A5000100AF8EE476A9FED396A86EE267A334B14
:101A60001B6BC3F3080306EE903AF8EE666A9FED2F
:101A7000316A67EE867A76EEA77AF7EE006A77EE3D
:101A8000A67A27EE277A294B1B6BC3F34623013333
:101A900007EE903AF8EE677AC7EE276AFCEEE67A30
:101AA00017EE900A5DF8044B704707EE100AF8EE47
:101AB000476A9FED236A86EE267A1C4B1B6BC3F3A5
:101AC000080306EE903AF8EE666A9FED1A6A67EE32
:101AD000867A76EEA77AF7EE006A77EEA67A27EE98
:101AE000277AD0E707EE100AF8EE476A9FED136AEF
:101AF00086EE267A0D4B1B6BC3F3080306EE903A75
:101B0000F8EE666A9FED0B6A67EE867A76EEA77A44
:101B1000F7EE006A77EEA67A27EE277AB3E7094850
:101B20007047094870470248704700BF0044025898
:101B30000090D003000000390024744C0024744A43
:101B4000001BB74B00366E0100093D00002800F075
:101B5000328170B50D4604469B4B1B6803F00F03A2
:101B60008B420BD2984A136823F00F030B43136088
:101B7000136803F00F038B4240F01F81236813F0BA
:101B8000040F0CD02269914B9B6903F070039A42B9
:101B900005D98E498B6923F070031A438A61236843
:101BA00013F0080F0CD06269884BDB6903F07003F7
:101BB0009A4205D98549CB6923F070031A43CA615B
:101BC000236813F0100F0CD0A269804BDB6903F47B
:101BD000E0639A4205D97D49CB6923F4E0631A4357
:101BE000CA61236813F0200F0CD0E269774B1B6A9F
:101BF00003F070039A4205D974490B6A23F070030D
:101C00001A430A62236813F0020F0CD0E2686F4B8C
:101C10009B6903F00F039A4205D96C498B6923F045
:101C20000F031A438A61236813F0010F41D0674AFA
:101C3000936923F47063A1680B4393616368022B7B
:101C40000AD0032B27D0012B2CD0604A126812F047
:101C5000040F06D10120ADE0126812F4003F00F03D
:101C6000AE805A490A6922F0070213430B61FEF75E
:101C7000ABFF0646554B1B6903F038036268B3EBB4
:101C8000C20F16D0FEF7A0FF801B41F288339842A6
:101C9000F0D903208EE04D4A126812F0007FE0D1A7
:101CA000012087E0494A126812F4807FD9D10120CF
:101CB00080E0236813F0020F0CD0E268434B9B696D
:101CC00003F00F039A4205D240498B6923F00F03BA
:101CD0001A438A613C4B1B6803F00F03AB420AD9DD
:101CE000394A136823F00F032B431360136803F082
:101CF0000F03AB4265D1236813F0040F0CD02269A7
:101D0000324B9B6903F070039A4205D22F498B69CD
:101D100023F070031A438A61236813F0080F0CD074
:101D200062692A4BDB6903F070039A4205D22749A6
:101D3000CB6923F070031A43CA61236813F0100FB4
:101D40000CD0A269214BDB6903F4E0639A4205D20F
:101D50001E49CB6923F4E0631A43CA61236813F078
:101D6000200F0CD0E269194B1B6A03F070039A42F2
:101D700005D216490B6A23F070031A430A62FFF773
:101D8000E9FD12498B69C3F30323114AD35C03F0C5
:101D90001F03D8408B6903F00F03D35C03F01F03CC
:101DA00020FA03F30B4A13600B4B18600B4B1868B7
:101DB000FEF7D6FD70BD012070470120FAE7012033
:101DC000F8E70120F6E700BF002000520044025867
:101DD0000C52000800000024040000240C00002421
:101DE00008B5FFF7B7FD0B4A9369C3F303230A490C
:101DF000CB5C03F01F0320FA03F3926902F00F0299
:101E0000885C00F01F0023FA00F0044A1060044AC6
:101E1000136008BD004402580C5200080000002462
:101E20000400002408B5FFF7DBFF054BDB69C3F3B3
:101E30000223044AD35C03F01F03D84008BD00BF4F
:101E4000004402580C5200083F230360114B1A69EA
:101E500002F0070242609A6902F4706282609A6935
:101E600002F00F02C2609A6902F070020261DA6940
:101E700002F070024261DA6902F4E06282611B6A78
:101E800003F07003C361044B1B6803F00F030B6086
:101E9000704700BF0044025800200052404B9B6A2C
:101EA00003F00303032B79D070B505460E463C4A78
:101EB000136823F080631360FEF786FE0446384BF8
:101EC0001B6813F0006F06D0FEF77EFE031B022B8B
:101ED000F5D9032070BD324B9A6A22F47C3229680E
:101EE00042EA01329A626A68013AC2F30802A968BA
:101EF0000139490289B20A43E9680139090401F448
:101F0000FE010A4329690139090601F0FE410A432D
:101F10009A63DA6A22F0C00269690A43DA62DA6A0D
:101F200022F02002A9690A43DA62DA6A22F010027A
:101F3000DA62DA6B6FF3CF02E96942EAC102DA636F
:101F4000DA6A42F01002DA62C6B91A46DB6A43F472
:101F50000023D362124A136843F080631360FEF7D4
:101F600033FE04460E4B1B6813F0006F14D1FEF7CE
:101F70002BFE001B0228F5D90320ABE7012E05D06C
:101F8000074AD36A43F40013D362E3E7044AD36AEF
:101F900043F48013D362DDE700209BE70120704704
:101FA00000440258404B9B6A03F00303032B79D093
:101FB00070B505460E463C4A136823F08053136003
:101FC000FEF702FE0446384B1B6813F0005F06D094
:101FD000FEF7FAFD031B022BF5D9032070BD324B2F
:101FE0009A6A22F07C72296842EA01529A626A680F
:101FF000013AC2F30802A9680139490289B20A43C9
:10200000E9680139090401F4FE010A43296901392B
:10201000090601F0FE410A431A64DA6A22F44062BA
:1020200069690A43DA62DA6A22F40072A9690A432A
:10203000DA62DA6A22F48072DA625A6C6FF3CF02E3
:10204000E96942EAC1025A64DA6A42F48072DA62E9
:10205000C6B91A46DB6A43F48003D362124A136896
:1020600043F080531360FEF7AFFD04460E4B1B6830
:1020700013F0005F14D1FEF7A7FD001B0228F5D96D
:102080000320ABE7012E05D0074AD36A43F08073E3
:10209000D362E3E7044AD36A43F40003D362DDE783
:1020A00000209BE70120704700440258F8B5044621
:1020B000036813F0006F2FD0436EB3F5001F25D0D7
:1020C00015D8E3B1B3F5801F0ED102210830FFF718
:1020D000E5FE054675BB934A136D23F44013616E0C
:1020E0000B431365002619E00126354616E0B3F5CB
:1020F000401F01D10025EEE7012635460EE0894A52
:10210000D36A43F40033D3620025E4E70221283088
:10211000FFF748FF0546DDE700263546236813F440
:10212000807F29D0A36D042B22D8DFE803F00513AC
:102130001A0A0A002E46F1E77A4AD36A43F40033BA
:10214000D362C5B9774A136D23F00703A16D0B4322
:10215000136511E0002104F10800FFF79FFE05461A
:10216000EFE7002104F12800FFF71CFF0546E8E730
:102170000126354600E02E46236813F4806F2DD0EB
:10218000D4F8A430B3F5800F3DD00DD8C3B1B3F56A
:10219000001F06D1002104F10800FFF77FFE05466D
:1021A00013E00126354619E0B3F5000F0DD0B3F565
:1021B000200F0AD0B3F5C00F07D0012635460DE039
:1021C000584AD36A43F40033D3621DBB554A936D1A
:1021D00023F46003D4F8A4100B439365236813F42D
:1021E000006F37D0D4F8A830B3F1007F5ED016D896
:1021F0000BB3B3F1807F0FD1002104F10800FFF78A
:102200004DFE05461CE0002104F12800FFF7CAFE40
:102210000546DAE72E46E1E7012635461AE0B3F136
:10222000806F0DD0B3F1A06F0AD0B3F1407F07D01B
:10223000012635460EE03B4AD36A43F40033D362AD
:10224000002D3AD1374A936D23F0E063D4F8A810FB
:102250000B439365236813F0007F13D0E36C202BAE
:1022600035D02FD833B1102B29D12E4AD36A43F45D
:102270000033D36295BB2B4AD36C23F03003E16C5F
:102280000B43D364236813F4805F4ED0E36DB3F542
:10229000005F3FD027D87BB3B3F5805F20D100210A
:1022A00004F10800FFF7FAFD05462AE0002104F1D9
:1022B0002800FFF777FE0546C2E72E46CAE701264B
:1022C0003546DFE7302BD5D001263546DAE7022147
:1022D00004F10800FFF7E2FD0546CBE72E46D1E703
:1022E0000126354621E0B3F5405F0AD0B3F5804FB3
:1022F00007D00126354618E00A4AD36A43F4003372
:10230000D3628DB9074A136D23F4E043E16D0B43AB
:1023100013650AE0002104F12800FFF743FE05469B
:10232000EFE700BF004402582E46236813F4005F15
:1023300017D0236EB3F5003F4FD042D843B1B3F569
:10234000803F3BD1012104F10800FFF7A7FD0546BE
:10235000002D49D1924A136D23F4E023216E0B43E3
:102360001365236813F4804F19D0D4F8AC30B3F15F
:10237000005F4AD03DD843B1B3F1805F36D101212F
:1023800004F10800FFF78AFD0546002D44D1844A78
:10239000936D23F0E043D4F8AC100B4393652368AE
:1023A00013F4004F47D0E36EB3F1805F36D0B3F142
:1023B000005F4BD0BBB3012635463CE001263546D5
:1023C000CFE7B3F5802FC3D0B3F5A02FC0D0B3F5BE
:1023D000403FBDD001263546C3E7012104F1280066
:1023E000FFF7E0FD0546B3E72E46BAE7012635467E
:1023F000D5E7B3F1804FC8D0B3F1A04FC5D0B3F14A
:10240000405FC2D001263546C9E7012104F128000A
:10241000FFF7C8FD0546B8E72E46C0E7604AD36A15
:1024200043F40033D362C5B95D4A136D23F04053C2
:10243000E16E0B431365236813F0807F1CD0A36CFF
:10244000032B44D8DFE803F0100B3C10012104F10A
:102450000800FFF723FD0546E5E72E46EBE7504A67
:10246000D36A43F40033D362A5BB4D4AD36C23F047
:102470000303A16C0B43D364236813F4800F2BD1A7
:10248000236813F0010F00F0A980A36F282B00F23E
:10249000A380DFE803F091A1A1A1A1A1A1A18BA13B
:1024A000A1A1A1A1A1A19AA1A1A1A1A1A1A191A133
:1024B000A1A1A1A1A1A191A1A1A1A1A1A1A19100CD
:1024C000022104F10800FFF7E9FC0546CCE70126EC
:1024D0003546D1E72E46CFE7324A136843F480737E
:1024E0001360FEF771FB07462E4B1B6813F4807FC9
:1024F00005D1FEF769FBC01B6428F5D90325002D23
:102500004AD1274B1B6FD4F8B020534013F4407FBF
:102510000CD0234B1A6F22F44072196F41F48031B2
:102520001967196F21F4803119671A67D4F8B03030
:10253000B3F5807F15D08DBBD4F8B03003F4407272
:10254000B2F5407F1ED0164A136923F47C53136101
:1025500013490B6FD4F8B020C2F30B0213430B677F
:102560008EE7FEF731FB07460D4B1B6F13F0020F92
:10257000E1D1FEF729FBC01B41F288339842F3D921
:102580000325D8E70648026922F47C52064901EA8D
:10259000131313430361DBE72E4671E72E466FE703
:1025A0000044025800480258CFFFFF00012104F107
:1025B0000800FFF773FC0546E5B9B14A536D23F0F7
:1025C0003803A16F0B43536508E0012104F1280093
:1025D000FFF7E8FC0546EFE701263546236813F0D0
:1025E000020F17D0636F052B29D8DFE803F00B0526
:1025F000210B0B0B2E46F1E7012104F10800FFF738
:102600004DFC0546F5B99E4A536D23F00703616FF3
:102610000B435365236813F0040F26D0D4F8903091
:10262000052B00F2D680DFE803F0150FCD15151548
:10263000012104F12800FFF7B5FC0546E2E7012679
:102640003546E7E72E46E5E7012104F10800FFF7EC
:1026500025FC0546002D40F0BF80894A936D23F08C
:102660000703D4F890100B439365236813F0200FF1
:102670001DD0D4F88C30B3F1005F00F0C18000F2BF
:10268000B0804BB1B3F1805F40F0A880002104F12D
:102690000800FFF703FC0546002D40F0B880784A9B
:1026A000536D23F0E043D4F88C100B43536523683B
:1026B00013F0400F1DD0D4F89830B3F5006F00F040
:1026C000BA8000F2A9804BB1B3F5806F40F0A180D1
:1026D000002104F10800FFF7E1FB0546002D40F062
:1026E000B180674A936D23F4E053D4F898100B43FC
:1026F0009365236813F0800F1DD0D4F89C30B3F598
:10270000804F00F0B38000F2A2804BB1B3F5005FC0
:1027100040F09A80002104F10800FFF7BFFB054656
:10272000002D40F0AA80564A936D23F46043D4F8FC
:102730009C100B439365236813F0080F0DD0D4F859
:102740008030B3F5805F00F09D804D4A536D23F4D7
:102750004053D4F880100B435365236813F0100FD7
:102760000DD0D4F89430B3F5807F00F09580444AC2
:10277000936D23F44073D4F894100B43936523684E
:1027800013F4002F00F09D80D4F8A030B3F5803F03
:1027900000F08C80B3F5003F08D0002B40F08D8016
:1027A000002104F10800FFF779FB0546002D40F0F9
:1027B0008780334A936D23F44033D4F8A0100B4341
:1027C00093657EE0012104F12800FFF7EBFB05464D
:1027D00040E70126354648E72E4646E701263546BE
:1027E00065E7B3F1804F3FF457AFB3F1A04F3FF42B
:1027F00053AFB3F1405F3FF44FAF0126354656E784
:10280000022104F12800FFF7CDFB054644E72E46E0
:102810004DE7012635466CE7B3F5805F3FF45EAFC8
:10282000B3F5A05F3FF45AAFB3F5406F3FF456AF36
:10283000012635465DE7022104F12800FFF7B2FBCF
:1028400005464BE72E4654E70126354673E7B3F5B8
:10285000004F3FF465AFB3F5204F3FF461AFB3F5E0
:10286000C04F3FF45DAF0126354664E7022104F115
:102870002800FFF797FB054652E72E465BE700BFAF
:1028800000440258022104F12800FFF78BFB0028C6
:102890003FF45BAF012658E7022104F12800FFF75F
:1028A00081FB00283FF463AF012660E7022104F1B9
:1028B0002800FFF777FB054678E70126354600E05C
:1028C0002E46236813F4802F24D0D4F88430B3F537
:1028D000001F14D0B3F5401F07D0B3F5801F15D1EA
:1028E0007C4AD36A43F40033D36295B9794A536D75
:1028F00023F44013D4F884100B4353650AE00121FC
:1029000004F12800FFF74EFB0546EEE701263546A9
:1029100000E02E46236813F4803F06D0236DCBB130
:10292000B3F5803F24D001263546236813F0005FBD
:1029300027D1236813F4003F3DD0E36FB3F5807FC8
:102940002BD027D9B3F5007F2CD0B3F5407F29D009
:10295000012630E05F4AD36A43F40033D36275B98D
:102960005C4AD36C23F48033216D0B43D364DCE7E2
:10297000022104F10800FFF791FA0546EFE72E4621
:10298000D3E7022104F12800FFF70CFB0028D0D088
:102990000126CEE733B101260DE04E4AD36A43F457
:1029A0000033D362002D5CD14A4A536D23F4407347
:1029B000E16F0B435365236813F4801F06D0454A2B
:1029C000136D23F00043216F0B431365236813F449
:1029D000001F06D03F4A136D23F08073A16E0B4396
:1029E0001365236813F0804F09D03A4B1A6922F41B
:1029F00000421A611A69D4F8B4100A431A612368B4
:102A0000002B06DA334AD36C23F04053616D0B433D
:102A1000D364236813F4000F07D02E4A536D23F4B8
:102A20004003D4F888100B435365636813F0010F1B
:102A300019D1636813F0020F1ED1636813F0040FFD
:102A400023D1636813F0080F28D1636813F0100FC7
:102A50002DD1636813F0200F32D106B10126304624
:102A6000F8BD2E46A7E7002104F10800FFF716FA8B
:102A70000028DED00646DCE7012104F10800FFF75C
:102A80000DFA0028D9D00646D7E7022104F1080044
:102A9000FFF704FA0028D4D00646D2E7002104F15B
:102AA0002800FFF77FFA0028CFD00646CDE70121A6
:102AB00004F12800FFF776FA0028CAD00646C8E7D6
:102AC000022104F12800FFF76DFA0028C5D0012685
:102AD000C5E700BF004402587047000090F83D3041
:102AE000DBB2012B42D1022380F83D300268D3686B
:102AF00043F00103D36003681E4AB3F1804F18BF4F
:102B0000934225D0A2F57C42934221D002F5806207
:102B100093421DD002F58062934219D002F57842AB
:102B2000934215D0A2F56C42934211D002F5943233
:102B300093420DD0A2F5C042934209D002F58062C3
:102B4000934205D01A6842F001021A6000207047D3
:102B50009968094A0A40062A18BFB2F5803F07D093
:102B60001A6842F001021A60002070470120704785
:102B700000207047000001400700010070477047C7
:102B80007047704770B504460368DE681D6915F02C
:102B9000020F10D016F0020F0DD06FF002021A6172
:102BA0000123037703689B6913F0030F64D0FFF7D9
:102BB000E6FF0023237715F0040F12D016F0040F60
:102BC0000FD023686FF004021A6102232377236871
:102BD0009B6913F4407F55D02046FFF7D0FF0023B8
:102BE000237715F0080F12D016F0080F0FD02368C6
:102BF0006FF008021A61042323772368DB6913F05E
:102C0000030F46D02046FFF7BAFF0023237715F0C5
:102C1000100F12D016F0100F0FD023686FF01002B3
:102C20001A61082323772368DB6913F4407F37D0C8
:102C30002046FFF7A4FF0023237715F0010F02D0F1
:102C400016F0010F33D115F4025F02D016F0800F99
:102C500035D115F4807F02D016F0800F37D115F0F2
:102C6000400F02D016F0400F39D115F0200F02D0DE
:102C700016F0200F3BD170BDFFF780FF2046FFF715
:102C80007FFF96E72046FFF779FF2046FFF778FFA2
:102C9000A5E72046FFF772FF2046FFF771FFB4E774
:102CA0002046FFF76BFF2046FFF76AFFC3E7236864
:102CB0006FF001021A612046FDF7C2FDC3E72368E9
:102CC0006FF402521A61204600F0E3F8C1E723686E
:102CD0006FF480721A61204600F0DCF8BFE72368C9
:102CE0006FF040021A612046FFF74BFFBDE72368F3
:102CF0006FF020021A61204600F0CAF8BBE700001E
:102D000030B50368424A904214BF4FF0000E4FF0B6
:102D1000010EB0F1804F14BF72464EF00102AAB905
:102D20003C4CA04214BF002401243B4DA8420DD0CE
:102D300064B904F1804404F58234A04214BF002435
:102D4000012405F50065A84200D01CB123F07003F2
:102D50004C68234362BB2F4A904214BF00220122D9
:102D60002D4CA04224D01ABB02F1804202F58232DF
:102D7000904214BF0022012204F50064A04217D043
:102D8000B2B9264A904214BF0022012204F59A34B7
:102D9000A0420DD062B9224A904214BF0022012203
:102DA00004F50064A04203D012B91E4A904204D137
:102DB00023F4407CCB6843EA0C0323F080034A6988
:102DC000134303608A68C2620A688262164A9042AC
:102DD00014BF73464EF0010363B9104B984214BF01
:102DE0000023012302F57052904203D013B90F4B18
:102DF000984201D10B69036301234361036913F016
:102E0000010F03D0036923F00103036130BD00BF4C
:102E10000000014000080040000400400044014060
:102E200000E0004000E40040000401400048014090
:102E300060B310B5044690F83D3013B3022384F814
:102E40003D30214651F8040BFFF75AFF012384F867
:102E5000483084F83E3084F83F3084F8403084F8BD
:102E6000413084F8423084F8433084F8443084F8A8
:102E7000453084F8463084F8473084F83D300020EF
:102E800010BD80F83C30FFF727FED7E701207047E0
:102E900070477047704708B54FF0E0231B6901F099
:102EA0001FFC012800D108BD00F0D4F9FBE70000A9
:102EB000EFF305832BB9064B186828B901221A6075
:102EC00070476FF0050070474FF0FF30704700BF4C
:102ED00010110024EFF3058373B90A4B1B68012B13
:102EE0000DD110B50024084BDC77064B02221A6086
:102EF00001F044F9204610BD6FF0050070474FF017
:102F0000FF3070471011002400ED00E0F0B587B0ED
:102F100000240594EFF305847CBB70B32AB31568D5
:102F2000936903B918235C1E372C4AD8546814F0EF
:102F3000010F48D1566976B14FEA960C946834B1C6
:102F4000D768B7F5D07F02D3176907B1C6B92CB1DE
:102F50004FF0FF340EE04FF0800CEFE7D4688CB9EF
:102F6000146994B14FF0FF3404E01546002418238F
:102F70004FF0800C012C0AD0ACB1059807B0F0BD21
:102F80000124F7E74FF0FF34F4E70024F2E7146977
:102F900092680292019400930B466246294601F022
:102FA0007DF80590E9E705AA019200930B461FFA08
:102FB0008CF2294601F0AFF80128DED000230593FA
:102FC000DBE70020DAE70020D8E708B5EFF3058358
:102FD00033B908B9002008BD01F03CFA0020FAE737
:102FE0006FF00500F7E70000034B0360034B0B6035
:102FF00080231360704700BF700F0024700D002401
:10300000034B0360034B0B604FF4807313607047F6
:10301000D00B0024CC07002400F1080343604FF0DC
:10302000FF328260C36003610023036070470023A6
:103030000361704743684B609A688A605160996089
:103040000861036801330360704730B40D68B5F15F
:10305000FF3F11D000F108031C465B681A68AA42C2
:10306000FAD963684B6099608C606160086103689D
:103070000133036030BC70470469F2E703694168BB
:1030800082688A60416851605A68824206D0002294
:1030900002611A68013A1A601868704782685A60BB
:1030A000F5E7000082B0002301930D4B1B68B3F1DC
:1030B000FF3F08D04FF0500383F31188BFF36F8FA9
:1030C000BFF34F8FFEE74FF0500383F31188BFF338
:1030D0006F8FBFF34F8F019B002BFCD002B0704766
:1030E0001000002408480068006880F308884FF04A
:1030F000000080F3148862B661B6BFF34F8FBFF350
:103100006F8F00DF00BF000008ED00E0DFF80C006B
:10311000016841F4700101607047000088ED00E033
:103120004FF0807340F8043C21F0010140F8081C86
:10313000054B40F80C3C40F8202C6FF0020340F89F
:10314000243C4438704700BFA53000080000000050
:10315000074B19680868B0E8F04F80F30988BFF39F
:103160006F8F4FF0000080F311887047AFF300803D
:10317000785200244FF0500383F31188BFF36F8F10
:10318000BFF34F8F0B4A136801331360012B00D03C
:1031900070474FF0E023D3F8043D13F0FF0FF7D052
:1031A0004FF0500383F31188BFF36F8FBFF34F8F3E
:1031B000FEE700BF10000024094B1B6843B94FF025
:1031C000500383F31188BFF36F8FBFF34F8FFEE778
:1031D000013B034A13600BB983F31188704700BFAA
:1031E00010000024000000000000000000000000AB
:1031F000EFF30980BFF36F8F154B1A681EF0100FA5
:1032000008BF20ED108A20E9F04F10602DE9090079
:103210004FF0500080F31188BFF34F8FBFF36F8FD3
:1032200001F03EF94FF0000080F3118809BC1968E5
:103230000868B0E8F04F1EF0100F08BFB0EC108A1D
:1032400080F30988BFF36F8F704700BFAFF3008032
:103250007852002408B54FF0500383F31188BFF370
:103260006F8FBFF34F8F00F0EDFF28B14FF0E023D9
:103270004FF08052C3F8042D002383F3118808BD5A
:103280004FF0E022002313619361054B1B68054951
:10329000A1FB03139B09013B536107231361704793
:1032A00004000024D34D62104FF0E023D3F8002D2A
:1032B0003D4B9A421CD04FF0E023D3F8002D3B4BFE
:1032C0009A421ED030B583B0394B1A78D2B20192EF
:1032D000FF221A701B78DBB28DF803309DF80330A3
:1032E00003F05003334A1370334B07221A601BE07C
:1032F0004FF0500383F31188BFF36F8FBFF34F8FED
:10330000FEE74FF0500383F31188BFF36F8FBFF3D5
:103310004F8FFEE7284A1368013B13609DF8033086
:103320005B00DBB28DF803309DF8033013F0800FA3
:10333000F0D1214B1B68032B08D04FF0500383F3CF
:103340001188BFF36F8FBFF34F8FFEE71B021A4A3E
:10335000136003F4E0631360019BDBB2144A137043
:103360004FF0E024D4F8203D43F47003C4F8203D2E
:10337000D4F8203D43F07043C4F8203DFFF780FFB0
:1033800000250E4B1D60FFF7C1FED4F8343F43F01B
:103390004043C4F8343FFFF7A5FE01F081F8FFF782
:1033A00081FE284603B030BD71C20F4170C20F418B
:1033B00000E400E01811002414110024100000247F
:1033C000EFF305830F2B0FD9114A9B5CDBB2114A37
:1033D00012789A4208D94FF0500383F31188BFF353
:1033E0006F8FBFF34F8FFEE74FF0E023D3F80C3D14
:1033F00003F4E063084A1268934208D94FF050037F
:1034000083F31188BFF36F8FBFF34F8FFEE77047D1
:10341000F0E300E01811002414110024124A12F005
:10342000070F1ED0D11D21F00701C1F570531344C1
:103430000A460E480260002141601344083B23F015
:1034400007030B48036059601960991A51601360B3
:10345000084B1960084B1960084B4FF000421A6086
:1034600070474FF47053E4E73C11002434110024FA
:1034700030110024281100242C1100241C110024D8
:10348000164B1A461B688342FBD3516802EB010CB2
:10349000844509D0416800EB010C634509D0036005
:1034A000904219D010607047406801445160104646
:1034B000F0E710B40A4C2468A3420BD05B681944AF
:1034C000416013681B680360904200D010605DF893
:1034D000044B70470460F7E7704700BF34110024C5
:1034E0003011002438B5044600F09EFE384B1B68AE
:1034F000B3B1384B1B681C4250D1002C50D004F1A2
:10350000080214F0070F02D022F007020832002A46
:1035100055D0314B1B68934253D330490C6804E0BB
:10352000FFF77CFFE5E721461C466368934202D221
:103530002368002BF7D1264B1B68A34243D00D68AC
:10354000083523680B6063689B1A102B10D9A018EC
:1035500010F0070F08D04FF0500383F31188BFF32A
:103560006F8FBFF34F8FFEE743606260FFF788FF06
:10357000626819490B689B1A0B60194909688B42EC
:1035800001D217490B60134B1B6813436360002380
:103590002360144A13680133136002E0002500E041
:1035A000002500F0DBFE15F0070F0ED04FF05003A2
:1035B00083F31188BFF36F8FBFF34F8FFEE70025B2
:1035C000EFE70025EDE70025EBE7284638BD00BF13
:1035D000301100241C1100242C110024341100246B
:1035E0002811002424110024002834D038B50446C2
:1035F000A0F1080550F8043C174A1268134208D19C
:103600004FF0500383F31188BFF36F8FBFF34F8FD9
:10361000FEE750F8081C41B14FF0500383F31188C6
:10362000BFF36F8FBFF34F8FFEE723EA020340F82B
:10363000043C00F0F9FD54F8041C084A13680B44DC
:1036400013602846FFF71CFF054A13680133136017
:1036500000F084FE38BD70471C1100242C1100249A
:103660002011002410B50446FFF784FDA26BE36B24
:103670009A4204D00024FFF79FFD204610BD01248C
:10368000F9E710B50446FFF775FDA36B23B90124D4
:10369000FFF792FD204610BD0024F9E770B50446FF
:1036A0001546866B026C5AB903681BB100200136BF
:1036B000A66370BD806801F023F80023A360F6E7DD
:1036C0006DB94068FCF704FE6368226C13446360C4
:1036D000A268934219D3236863602846E7E7C0686D
:1036E000FCF7F6FDE368226C51429B1AE360226806
:1036F000934202D2A3680B44E360022D01D0002064
:10370000D5E726B1013E0020D1E72846CFE70020CB
:10371000CDE70346026C6AB110B50846D96811447A
:10372000D9609C68A14201D31968D960D968FCF7B7
:10373000CFFD10BD704738B50546FFF71BFD95F866
:10374000454064B201E0013C64B2002C0ADD6B6AC2
:1037500043B105F1240000F029FF0028F3D000F068
:10376000B9FFF0E7FF2385F84530FFF725FDFFF7A8
:1037700001FD95F8444064B201E0013C64B2002CC4
:103780000ADD2B6943B105F1100000F00FFF00289E
:10379000F3D000F09FFFF0E7FF2385F84430FFF7F8
:1037A0000BFD38BD38B5E0B10D460446FFF7E2FC2D
:1037B0002368E26B216C01FB0230A0600020A06353
:1037C0006360013A02FB0133E360FF2384F8443075
:1037D00084F84530FDB9236963B9FFF7EDFC01209A
:1037E00038BD4FF0500383F31188BFF36F8FBFF3E1
:1037F0004F8FFEE704F1100000F0D8FE0028ECD057
:103800004FF0E0234FF08052C3F8042DBFF34F8FE9
:10381000BFF36F8FE1E704F11000FFF7FDFB04F148
:103820002400FFF7F9FBD8E738B51D46049C0B468A
:1038300049B92460E063236401212046FFF7B2FF09
:1038400084F84C5038BD2260F4E740B94FF0500383
:1038500083F31188BFF36F8FBFF34F8FFEE710B56F
:1038600084B01C4683B10B1E18BF0123002A08BF79
:1038700043F001038BB94FF0500383F31188BFF37A
:103880006F8FBFF34F8FFEE74FF0500383F3118824
:10389000BFF36F8FBFF34F8FFEE7B1FA81F35B0980
:1038A000002A18BF43F0010343B94FF0500383F3DC
:1038B0001188BFF36F8FBFF34F8FFEE75023039341
:1038C000039B502B08D04FF0500383F31188BFF3B4
:1038D0006F8FBFF34F8FFEE7039B012384F84630C1
:1038E00000949DF81830FFF79FFF204604B010BDEC
:1038F000F0B585B0019288B10F461D460446B1B1BE
:10390000022D20D1E36B012B1DD04FF0500383F328
:103910001188BFF36F8FBFF34F8FFEE74FF0500357
:1039200083F31188BFF36F8FBFF34F8FFEE7036CF4
:10393000002BE5D04FF0500383F31188BFF36F8F56
:10394000BFF34F8FFEE700F0CBFE064658B9019B50
:10395000002B48D04FF0500383F31188BFF36F8FD3
:10396000BFF34F8FFEE700263DE02A46394620464A
:10397000FFF794FE636A7BB948B14FF0E0234FF044
:103980008052C3F8042DBFF34F8FBFF36F8FFFF743
:1039900013FC012005B0F0BD04F1240000F006FE88
:1039A0000028F4D04FF0E0234FF08052C3F8042DEC
:1039B000BFF34F8FBFF36F8FE9E7FFF7FDFB0020E9
:1039C000E8E702A800F038FE012619E0002384F899
:1039D000443021E0002384F8453023E02046FFF7FF
:1039E000AAFE00F0BBFCFFF7C5FBA26BE36B9A429B
:1039F000BBD3022DB9D0019B002BDED0002EE0D02E
:103A0000FFF7DAFB00F010FCFFF7B4FB94F844205A
:103A100052B2B2F1FF3FD9D094F8452052B2B2F180
:103A2000FF3FD7D0FFF7C8FB01A902A800F010FEA6
:103A3000D8B92046FFF716FE0028CFD0019904F12F
:103A4000100000F07FFD2046FFF775FE00F086FCB9
:103A50000028C8D14FF0E0234FF08052C3F8042D66
:103A6000BFF34F8FBFF36F8FBDE72046FFF763FEB5
:103A700000F074FC00208DE72DE9F84390B10F466B
:103A800016461C460546B1B1022C20D1EB6B012B2A
:103A90001DD04FF0500383F31188BFF36F8FBFF336
:103AA0004F8FFEE74FF0500383F31188BFF36F8F02
:103AB000BFF34F8FFEE7036C002BE5D04FF05003B0
:103AC00083F31188BFF36F8FBFF34F8FFEE7FFF7CC
:103AD00077FCEFF311884FF0500383F31188BFF3A5
:103AE0006F8FBFF34F8FAA6BEB6B9A4206D3022CFA
:103AF00004D0002088F31188BDE8F88395F845903C
:103B00004FFA89F9AB6B224639462846FFF7C6FDC6
:103B1000B9F1FF3F06D009F101035BB285F84530EA
:103B20000120E7E76B6A0BB90120E3E705F1240008
:103B300000F03CFD18B126B101203060DAE7012029
:103B4000D8E70120D6E7F0B585B0019290B10F46D5
:103B50000446C1B100F0C4FD064600BB019B002B2A
:103B60005ED04FF0500383F31188BFF36F8FBFF324
:103B70004F8FFEE74FF0500383F31188BFF36F8F31
:103B8000BFF34F8FFEE7036C002BE3D04FF05003E1
:103B900083F31188BFF36F8FBFF34F8FFEE70026CB
:103BA0003EE039462046FFF7B4FD013DA563236999
:103BB00023B9FFF701FB012005B0F0BD04F11000AF
:103BC00000F0F4FC0028F4D04FF0E0234FF08052D6
:103BD000C3F8042DBFF34F8FBFF36F8FE9E7FFF7F3
:103BE000EBFA0020E8E702A800F026FD012621E01C
:103BF000002384F8443029E0002384F845302BE08A
:103C00002046FFF798FD00F0A9FB09E02046FFF7EA
:103C100092FD00F0A3FB2046FFF733FD00283FD1C3
:103C2000FFF7A8FAA56B002DBBD1019B002BD6D0C6
:103C3000002ED8D0FFF7C0FA00F0F6FAFFF79AFA94
:103C400094F844305BB2B3F1FF3FD1D094F84530E3
:103C50005BB2B3F1FF3FCFD0FFF7AEFA01A902A8E4
:103C600000F0F6FC0028D1D12046FFF70AFD00281D
:103C7000C6D0019904F1240000F064FC2046FFF74F
:103C80005AFD00F06BFB0028CAD14FF0E0234FF043
:103C90008052C3F8042DBFF34F8FBFF36F8FBFE780
:103CA000002089E70023072B0CD8074A52F833205D
:103CB0000AB10133F7E7044A42F8331002EBC302BA
:103CC00050607047704700BF3C4D002470B50446FB
:103CD0000D461646FFF74EFA94F844305BB2B3F146
:103CE000FF3F0DD094F845305BB2B3F1FF3F0BD0EE
:103CF000FFF762FAA36B5BB12046FFF71CFD70BDB6
:103D0000002384F84430EDE7002384F84530EFE7E2
:103D10003246294604F1240000F02CFCECE70000B8
:103D2000084B1B681B6823B9074B4FF0FF321A6022
:103D30007047044B1B68DB68DB685A68024B1A60EB
:103D4000704700BFEC4D0024844D00242DE9F0475E
:103D500080460D4617469946089EDDF824A00A9C29
:103D60009200A521206B00F043FF236B6FF04042CF
:103D70003A4403EB820727F00707002D61D04FF08C
:103D8000000CBCF10F0F09D815F80C3004EB0C0235
:103D900082F8343013B10CF1010CF2E7002384F8FF
:103DA0004330372E00D93726E662E66400252565C4
:103DB000201DFFF73CF904F11800FFF738F92461E2
:103DC000C6F13806A6616462C4F8985184F89C5123
:103DD0004FF4A072294604F1580000F009FF1B4B74
:103DE000E36503F168022266D03363660122002393
:103DF000C4E93C2343F20E33A4F8F8304AF6CD333D
:103E0000A4F8FA3041F23423A4F8FC304EF26D638A
:103E1000A4F8FE304DF6EC63A4F800310523A4F8B5
:103E200002310B23A4F804314A4641463846FFF7D5
:103E300077F92060BAF1000F01D0CAF80040BDE860
:103E4000F087002384F83430ABE700BFA853002488
:103E500038B5002407E004EB840293000E481844B0
:103E6000FFF7DAF80134372CF5D90C4D2846FFF767
:103E7000D3F80B4C2046FFF7CFF80A48FFF7CCF8F1
:103E80000948FFF7C9F80948FFF7C6F8084B1D6055
:103E9000084B1C6038BD00BF184E0024044E00249F
:103EA000F04D0024D44D0024C04D0024A84D002422
:103EB000EC4D0024E84D002410B50446FFF75AF9F4
:103EC000224A136801331360214B1B685BB1214BFD
:103ED0001B686BB91E4B1B68DA6AE36A9A4207D803
:103EE0001B4B1C6004E01A4B1C601368012B29D08B
:103EF000194A1368013313606364E06A174B1B6847
:103F0000984201D9154B186000EB8000211D144B1D
:103F100003EB8000FFF78EF8FFF74EF90D4B1B689F
:103F20007BB10B4B1B68DA6AE36A9A4209D24FF005
:103F3000E0234FF08052C3F8042DBFF34F8FBFF33F
:103F40006F8F10BDFFF784FFD2E700BFA44D0024A0
:103F500078520024984D0024884D00249C4D002464
:103F6000184E002410B50446583000F093FE94F823
:103F70009D3163B1012B11D0022B0ED04FF05003B5
:103F800083F31188BFF36F8FBFF34F8FFEE7206B72
:103F9000FFF72AFB2046FFF727FB10BD2046FFF75F
:103FA00023FBFAE70F4B1B68D3B110B5FFF7E2F81C
:103FB0000D4BDB68DC68201DFFF760F80B4A1368C7
:103FC000013B1360074A1368013B1360FFF7F4F8E5
:103FD0002046FFF7C7FF034B1B68002BE6D110BD3F
:103FE000704700BFBC4D0024C04D0024A44D0024E8
:103FF00008B5FFF7D7FF074B1B68012BF9D94FF026
:10400000E0234FF08052C3F8042DBFF34F8FBFF36E
:104010006F8FEEE7184E002470B504460D46194B1D
:104020001E68194B18680430FFF728F8B4F1FF3FF9
:1040300014BF00230123002D08BF00236BB93444B3
:10404000114B1B685C60A6420ED9104B18680E4BD2
:1040500019680431FEF7F9FF70BD0B4B1968043184
:104060000B48FEF7E7FFF7E70A4B1868064B19689D
:104070000431FEF7EAFF084B1B68A342ECD9064B5C
:104080001C60E9E7A04D002478520024E84D00248C
:10409000A84D0024EC4D0024844D002430B587B099
:1040A0000B9C8CB10C9DC5B14FF4D0750495049D4B
:1040B000B5F5D07F1AD04FF0500383F31188BFF3CA
:1040C0006F8FBFF34F8FFEE74FF0500383F31188DC
:1040D000BFF36F8FBFF34F8FFEE74FF0500383F3B3
:1040E0001188BFF36F8FBFF34F8FFEE7049D0C9DC8
:1040F0002C63022485F89D4100240394029505ACAD
:1041000001940A9C0094FFF721FE0C98FFF7D4FE5F
:10411000059807B030BD2DE9F04385B007468846C5
:1041200014461E469000FFF7DDF910B381464FF4A8
:10413000D070FFF7D7F90546A8B1C0F8309000233A
:1041400080F89D31039302900D9B01930C9B00938B
:104150003346224641463846FFF7F8FD2846FFF72A
:10416000ABFE012007E04846FFF73EFA4FF0FF3074
:1041700001E04FF0FF3005B0BDE8F08310B588B026
:1041800000240594069407AA06A905A8FEF72CFFAB
:10419000059B0293069B019300942346079A1A49B4
:1041A0001A48FFF77BFF1A4B1860E8B100F060FB7C
:1041B00001281AD14FF0500383F31188BFF36F8F9A
:1041C000BFF34F8F134B1B685833134A1360134BC5
:1041D0004FF0FF321A60124B01221A60114B00227D
:1041E0001A60FFF761F803E00020B0F1FF3F01D053
:1041F00008B010BD4FF0500383F31188BFF36F8FE9
:10420000BFF34F8FFEE700BFAC510008F13F00083D
:10421000804D00247852002414000024844D002492
:10422000984D0024A04D0024024A13680133136006
:10423000704700BF7C4D0024014B1868704700BFD9
:10424000A04D0024F8B53A4B1B68002B69D1394BBF
:104250001D6801351D60C5B9374B1B681B6843B12C
:104260004FF0500383F31188BFF36F8FBFF34F8F6D
:10427000FEE7314A1168314B186810601960304A06
:10428000136801331360FFF74BFD2E4B1B68AB42E5
:104290003DD900272C4B1B68DB6A03EB83039A0094
:1042A0002A4B9B58012B00D90127294B1B68002B57
:1042B0003CD001273AE001271F4B1B681B6843B322
:1042C0001D4B1B68DB68DC6863689D4226D3261D96
:1042D0003046FEF7D3FEA36A1BB104F11800FEF7C7
:1042E000CDFEE36A1B4A1268934201D9194A136052
:1042F00003EB83039A00314614481044FEF79AFEFC
:10430000E26A114B1B68DB6A9A42D4D2D4E70027D9
:10431000D2E70C4B4FF0FF321A60BBE7094A13603B
:10432000B8E70D4A13680133136000273846F8BD1B
:104330007C4D0024A04D0024EC4D0024E84D0024C9
:104340008C4D0024844D002478520024184E002403
:10435000904D00249C4D0024944D002438B5354BDD
:104360001B6843B94FF0500383F31188BFF36F8F7D
:10437000BFF34F8FFEE7FEF7FDFE2E4B1A68013AA2
:104380001A601B68002B4FD12B4B1B680BB9002404
:104390004BE00024294B1B681BB3284BDB68DC680F
:1043A00004F11800FEF76AFE251D2846FEF766FE9A
:1043B000E06A234B1B68984201D9214B186000EB3F
:1043C000800029461F4B03EB8000FEF733FEE26AB4
:1043D0001D4B1B68DB6A9A42DCD31C4B01221A601E
:1043E000D8E70CB1FFF79CFC194B1C6884B9174B3C
:1043F0001C68D4B14FF0E0234FF08052C3F8042D75
:10440000BFF34F8FBFF36F8F01240EE0013C07D045
:10441000FFF718FF0028F9D00C4B01221A60F5E7CE
:104420000B4B00221A60E2E70024FEF7C5FE20468F
:1044300038BD00BF7C4D0024A44D0024D44D002481
:104440009C4D0024184E002478520024904D0024E6
:10445000944D002410B5A8B10446104B1B6843B11D
:104460004FF0500383F31188BFF36F8FBFF34F8F6B
:10447000FEE7FFF7D9FE00212046FFF7CDFDFFF74D
:104480006DFF48B94FF0E0234FF08052C3F8042D80
:10449000BFF34F8FBFF36F8F10BD00BF7C4D002463
:1044A000224B1B681BB1224B01221A607047204B24
:1044B00000221A601F4B1B6803EB83018A001E4910
:1044C0008A585AB90BB1013BF6E74FF0500383F31A
:1044D0001188BFF36F8FBFF34F8FFEE7084603EBE2
:1044E00083018A00024451684968516003EB830CE0
:1044F0004FEA8C020832024491420FD003EB830250
:1045000091000D4A0A445268D1680C4A1160094969
:104510000B60136858330A4A136070474868624654
:104520009100054A0A445060E8E700BF7C4D002432
:10453000904D00249C4D0024184E002478520024F5
:104540001400002458B110B50C46094A11681831FE
:10455000FEF77BFD01212046FFF75EFD10BD4FF009
:10456000500383F31188BFF36F8FBFF34F8FFEE7C4
:104570007852002438B570B10D4614460A4A1168C5
:104580001831FEF757FD0CB14FF0FF352146284694
:10459000FFF742FD38BD4FF0500383F31188BFF39E
:1045A0006F8FBFF34F8FFEE77852002438B5C36892
:1045B000DC6824B304F118052846FEF75FFD184BAC
:1045C0001B682BBB251D2846FEF758FDE06A154BDE
:1045D0001B68984201D9134B186000EB80002946F4
:1045E000114B03EB8000FEF725FDE26A0F4B1B68C1
:1045F000DB6A9A4211D901200D4B186038BD4FF08B
:10460000500383F31188BFF36F8FBFF34F8FFEE723
:1046100029460848FEF70EFDE7E70020EEE700BF59
:104620007C4D00249C4D0024184E00247852002418
:10463000904D0024D44D0024034B1B680360034BB2
:104640001B684360704700BF8C4D0024A04D0024C0
:10465000F8B5C8B10C460546F9B1FEF78BFD1B4B0A
:1046600019686B68C81A2268B2F1FF3F26D0184E4D
:1046700036682F68B74201D08B4224D9824215D8C0
:104680000023236001241AE04FF0500383F31188C4
:10469000BFF36F8FBFF34F8FFEE74FF0500383F3ED
:1046A0001188BFF36F8FBFF34F8FFEE75B1A134480
:1046B00023602846FFF7C0FF002400E00024FEF737
:1046C0007BFD2046F8BD0124F9E700BFA04D002482
:1046D0008C4D0024014B01221A607047904D00243C
:1046E000054B1B6833B1054B1B680BB100207047AD
:1046F0000220704701207047984D00247C4D002413
:1047000000283BD038B504461E4B1B68834208D0B6
:104710004FF0500383F31188BFF36F8FBFF34F8FB8
:10472000FEE7036D43B94FF0500383F31188BFF3E5
:104730006F8FBFF34F8FFEE7013B0365C16AC26C09
:1047400091421DD00BB1002038BD051D2846FEF753
:1047500095FCE06CE062C0F13803A3610A4B1B6872
:10476000984201D9084B186000EB80002946074B9E
:1047700003EB8000FEF75EFC0120E5E700207047B8
:104780000020E1E7785200249C4D0024184E0024BC
:10479000064B1A6813682BB90123036023B9D36849
:1047A000186870470023F8E7002070477C53002406
:1047B00008B54160006191420CD8D21A83699A42CF
:1047C00001D3012008BD011D0B4B1868FEF73DFC0D
:1047D0000020F7E79A422CBF00220122994238BFFD
:1047E00000220AB10120EDE7011D044B1868FEF715
:1047F0002CFC0020E6E700BF785300247C53002403
:1048000030B583B0FEF7B6FC114B1B681BB1FEF749
:10481000D3FC03B030BD0F4D2846FEF7FDFB0E4C18
:104820002046FEF7F9FB0D4B1D600D4B1C6000236D
:1048300000930C4B0C4A10210A20FFF706F8044B9A
:1048400018600028E3D00949FFF72CFADFE700BF22
:104850007453002494530024805300247C53002478
:10486000785300247C520024CC520024B451000818
:1048700010B588B0FFF7C4FF124B1B68CBB1002402
:104880000594069407AA06A905A8FEF7B9FB059B9F
:104890000293069B0193022300932346079A0A4939
:1048A0000A48FFF7FBFB0A4B186010B1012008B063
:1048B00010BD4FF0500383F31188BFF36F8FBFF328
:1048C0004F8FFEE774530024BC510008D94B0008F9
:1048D00070530024B8B19C4603461848006858B38A
:1048E00000B585B000910192029305291CDCFFF709
:1048F000F7FE022810D000231A4669460F480068C8
:10490000FEF7F6FF15E04FF0500383F31188BFF375
:104910006F8FBFF34F8FFEE70023069A6946074863
:104920000068FEF7E5FF04E0002362466946FFF7F2
:10493000A3F805B05DF804FB002070477453002411
:1049400070B582B01B4B1B681A6862B3DB681E68C7
:10495000DC68251D2846FEF791FB236A2046984710
:1049600094F8283013F0040FECD0A36933449E422E
:1049700007D26360246129460E4B1868FEF765FB79
:10498000E0E7002100910B4632462046FFF7A2FFE8
:104990000028D7D14FF0500383F31188BFF36F8FF6
:1049A000BFF34F8FFEE7044A1068024908601360A6
:1049B00002B070BD7C5300247853002438B50546FE
:1049C000FFF73AFC0446074B1B68834205D80023D7
:1049D0002B60044B1C60204638BDFFF7B1FF01235C
:1049E0002B60F6E76C53002470B582B006460D4686
:1049F00017490968C968CC68201DFEF73FFB94F889
:104A000028C01CF0040F08D12CF0010C84F828C039
:104A1000236A2046984702B070BDA16933462A46F2
:104A200031442046FFF7C4FE0028F1D00021009158
:104A30000B4632462046FFF74DFF0028E8D14FF0E5
:104A4000500383F31188BFF36F8FBFF34F8FFEE7DF
:104A50007C53002470B582B006460C46FFF7E4FB99
:104A600001A8FFF7ABFF019B3BBB0546B04228BF47
:104A7000002C19D024B1134A12681268DAB9012443
:104A80002246711B104B1868FFF720F9FFF766FCF0
:104A9000A8B94FF0E0234FF08052C3F8042DBFF3C4
:104AA0004F8FBFF36F8F0AE0FFF758FC294630465F
:104AB000FFF79AFF03E01C46E2E7FFF74FFC02B066
:104AC00070BD00BF785300247453002410B588B023
:104AD00002E0049B002B0FDA002204A93D4B18686A
:104AE000FFF731F8002873D0049B002BF1DA079907
:104AF0000698059B9847ECE7069C636913B1201D57
:104B0000FEF7BCFA03A8FFF759FF049B092BE3D873
:104B1000DFE803F00505053037500505303794F818
:104B2000283043F0010384F82830059BA169024630
:104B300019442046FFF73CFE0028CDD0236A2046CA
:104B4000984794F8283013F0040FC5D0A2690021CB
:104B500000910B46059802442046FFF7BBFE002853
:104B6000BAD14FF0500383F31188BFF36F8FBFF3B7
:104B70004F8FFEE794F8283023F0010384F82830A3
:104B8000AAE794F8283043F0010384F82830059907
:104B9000A16131B10346024601442046FFF708FEF9
:104BA0009AE74FF0500383F31188BFF36F8FBFF381
:104BB0004F8FFEE794F8283013F0020F04D023F053
:104BC000010384F8283087E72046FEF70DFD83E7D0
:104BD00008B010BD7453002400B583B001A8FFF7DE
:104BE000D7FD0199FFF736FFFFF770FFF6E70000EA
:104BF000830730B547D0541E002A3ED0CAB20346C0
:104C000001E0013C39D303F8012B9D07F9D1032CB6
:104C10002CD9CDB205EB05250F2C05EB054535D973
:104C2000A4F1100222F00F0C03F1100EE6444FEA3B
:104C3000121C1A46C2E90055C2E9025510327245EB
:104C4000F8D10CF1010214F00C0F03EB021204F086
:104C50000F0C13D0ACF1040323F00303043313440B
:104C600042F8045B9342FBD10CF003042CB1C9B2AF
:104C70001C4403F8011BA342FBD130BD644613461C
:104C8000002CF4D1F9E703461446C0E71A46A446BF
:104C9000E0E700BF194B1B6883422ED0416C70B512
:104CA000054681B100268C593CB12146246828462E
:104CB00000F0C4F8002CF8D1696C0436802EF2D1D3
:104CC000284600F0BBF8A96B11B1284600F0B6F8F1
:104CD0002C6C34B121462468284600F0AFF8002C33
:104CE000F8D1E96C11B1284600F0A8F86B6B1BB144
:104CF0002846BDE87040184770BD70471400002476
:104D0000014B1868704700BF1400002470B50F4BAA
:104D10000F4DAB42A3EB050607D0B610002455F8A3
:104D2000043B01349847A642F9D800F003FA094D34
:104D3000094B5E1BAB424FEAA60606D0002455F88D
:104D4000043B01349847A642F9D870BD24520008AC
:104D500024520008245200082C520008704700BF5B
:104D6000704700BF024B13B1024800F005B870470E
:104D70000000000071500008002301461A46184642
:104D800000F098B92DE9F84306460820894600F05E
:104D900083F9DFF8A4800546304600F04BF9D8F8D7
:104DA00008305F6827F00307A7F11104A4EB09049A
:104DB0002C44B4FBF5F4013C05FB04F4A54208DCEB
:104DC0000021304600F042F9D8F808303B449842C0
:104DD00005D0304600F034F90020BDE8F883614288
:104DE000304600F033F901300FD0114AD8F80830BE
:104DF0003F1B47F001075F60136830461B1B1360C1
:104E000000F01EF90120BDE8F8830021304600F0D3
:104E10001DF9D8F80820831A0F2BDADD43F00103BF
:104E20005360044B02491B68C01A0860D1E700BFF9
:104E3000F05400245C0100246801002400297CD087
:104E40002DE9F0410C46804600F0F4F854F8043C9B
:104E5000754FA4F1080523F001016818BE68426887
:104E6000864222F0030200F08380DE07426000EBFE
:104E7000020C33D454F8084CDCF804302D1B2144C8
:104E8000AC6807F1080C644503F0010364D0D5F861
:104E90000CE0C4F80CE0CEF80840002B00F0818054
:104EA00041F001036B600160B1F5007F22D27868A8
:104EB000CB080122490901338A40024357F83310D5
:104EC0007A6007EBC302083AC5E9021247F833508B
:104ED000CD604046BDE8F04100F0B2B8DCF80430E7
:104EE000DB072BD541F00103B1F5007F44F8043C0A
:104EF0000160DCD3B1F5206F4FEA512353D28B0907
:104F000003F1390003F13802C300F818FB580838E0
:104F1000984203D161E09B68984204D05A6822F01D
:104F200003028A42F7D8D868C5E902308560DD609F
:104F30004046BDE8F04100F083B87047114407F1E6
:104F4000080C836863453FD0C268DA60936041F023
:104F500001036B606950A7E7002B5FD10A44D0E9D9
:104F60000213CB60996042F001036B60AA50B0E776
:104F7000DB070A4407D454F8083CED1A1A44D5E973
:104F80000213CB60996042F001036B60274BBD6058
:104F90001B6893429DD8264B40461968FFF7F2FEE6
:104FA00097E71144CDE7142B08D9542B1DD80B0BD0
:104FB00003F16F0003F16E02C300A6E703F15C008A
:104FC00003F15B02C300A0E741F00103C7E9045508
:104FD000C5E902CC6B6069507BE7796892100124C7
:104FE00004FA02F20A437A609EE7B3F5AA7F06D874
:104FF000CB0B03F1780003F17702C30085E740F2A1
:105000005452934206D88B0C03F17D0003F17C02CD
:10501000C3007AE74FF47E737E2276E741F0010306
:105020006B60016055E700BF680100246001002447
:10503000185500240148FFF791BE00BFE454002436
:105040000148FFF78DBE00BFE454002438B5074D7A
:105050000022044608462A60FBF7D8FC431C00D017
:1050600038BD2B68002BFBD0236038BDE0540024F2
:1050700038B5074D074C2C1BA41005D0013C55F842
:10508000043D9847002CF9D1BDE8384000F058B8ED
:10509000305200082C520008082802D14FF48050EA
:1050A000704708B5FFF72CFE162303604FF0FF3062
:1050B00008BD00BF2DE9F8431B4D064628689846F9
:1050C0000F469146FFF74AFE184B1C681CB3286830
:1050D00065681F2D22DC4EB96B1C0235636044F8F5
:1050E0002570FFF73DFE0020BDE8F88304EB850145
:1050F0000123C1F88890D4F88821AB401A43022ECE
:10510000C4F88821C1F80881E6D1D4F88C211A436B
:10511000C4F88C21E0E7064C1C60D8E7FFF720FEBE
:105120004FF0FF30E0E700BF58010024EC540024AA
:105130001C550024F8B500BFF8BC08BC9E4670475B
:0C514000F8B500BFF8BC08BC9E467047E4
:10514C000000000000000000000000000000000053
:10515C00000000000100000002000000030000003D
:10516C00040000000000000005000000000000002A
:10517C00000000000000000006000000000000001D
:10518C000000000000000000070000006C6F675476
:10519C0061736B0064656661756C745461736B004C
:1051AC0049444C4500000000546D72510000000051
:1051BC00546D722053766300985100080000000073
:1051CC0000000000000000000000000000020000D1
:1051DC00080000000000000000000000A0510008C2
:1051EC0000000000000000000000000000000000B3
:1051FC000002000018000000000000000000000089
:10520C000000000001020304010203040607080960
:08521C00B4B0FF7F01000000A7
:08522400654D00086D0400084F
:04522C00450400082D
:105230000090D0030090D003010000001000000097
:10524000AAAAAAAA1800002400000000A85300245B
:1052500010540024785400240000000000000000D6
:10526000000000000000000000000000000000003E
:10527000000000000000000000000000000000002E
:10528000000000000000000000000000000000001E
:10529000000000000000000000000000000000000E
:1052A00000000000000000000000000000000000FE
:1052B00000000000000000000000000000000000EE
:1052C00000000000000000000000000000000000DE
:1052D00000000000000000000000000000000000CE
:1052E00001000000000000000E33CDAB34126DE66B
:1052F000ECDE05000B0000000000000000000000D4
:10530000000000000000000000000000000000009D
:10531000000000000000000000000000000000008D
:10532000000000000000000000000000000000007D
:10533000000000000000000000000000000000006D
:10534000000000000000000000000000000000005D
:10535000000000000000000000000000000000004D
:10536000000000000000000000000000000000003D
:10537000000000000000000000000000000000002D
:105380000000000000000000E8540024FFFFFFFFC1
:10539000000002000000000000000000000000000B
:1053A00068010024680100247001002470010024B9
:1053B0007801002478010024800100248001002469
:1053C0008801002488010024900100249001002419
:1053D0009801002498010024A0010024A0010024C9
:1053E000A8010024A8010024B0010024B001002479
:1053F000B8010024B8010024C0010024C001002429
:10540000C8010024C8010024D0010024D0010024D8
:10541000D8010024D8010024E0010024E001002488
:10542000E8010024E8010024F0010024F001002438
:10543000F8010024F80100240002002400020024E6
:105440000802002408020024100200241002002494
:105450001802002418020024200200242002002444
:1054600028020024280200243002002430020024F4
:1054700038020024380200244002002440020024A4
:105480004802002448020024500200245002002454
:105490005802002458020024600200246002002404
:1054A00068020024680200247002002470020024B4
:1054B0007802002478020024800200248002002464
:1054C0008802002488020024900200249002002414
:1054D0009802002498020024A0020024A0020024C4
:1054E000A8020024A8020024B0020024B002002474
:1054F000B8020024B8020024C0020024C002002424
:10550000C8020024C8020024D0020024D0020024D3
:10551000D8020024D8020024E0020024E002002483
:10552000E8020024E8020024F0020024F002002433
:10553000F8020024F80200240003002400030024E1
:10554000080300240803002410030024100300248F
:10555000180300241803002420030024200300243F
:1055600028030024280300243003002430030024EF
:10557000380300243803002440030024400300249F
:10558000480300244803002450030024500300244F
:1055900058030024580300246003002460030024FF
:1055A00068030024680300247003002470030024AF
:1055B000780300247803002480030024800300245F
:1055C000880300248803002490030024900300240F
:1055D0009803002498030024A0030024A0030024BF
:1055E000A8030024A8030024B0030024B00300246F
:1055F000B8030024B8030024C0030024C00300241F
:10560000C8030024C8030024D0030024D0030024CE
:10561000D8030024D8030024E0030024E00300247E
:10562000E8030024E8030024F0030024F00300242E
:10563000F8030024F80300240004002400040024DC
:10564000080400240804002410040024100400248A
:10565000180400241804002420040024200400243A
:1056600028040024280400243004002430040024EA
:10567000380400243804002440040024400400249A
:10568000480400244804002450040024500400244A
:1056900058040024580400246004002460040024FA
:1056A00068040024680400247004002470040024AA
:1056B000780400247804002480040024800400245A
:1056C000880400248804002490040024900400240A
:1056D0009804002498040024A0040024A0040024BA
:1056E000A8040024A8040024B0040024B00400246A
:1056F000B8040024B8040024C0040024C00400241A
:10570000C8040024C8040024D0040024D0040024C9
:10571000D8040024D8040024E0040024E004002479
:10572000E8040024E8040024F0040024F004002429
:10573000F8040024F80400240005002400050024D7
:105740000805002408050024100500241005002485
:105750001805002418050024200500242005002435
:1057600028050024280500243005002430050024E5
:105770003805002438050024400500244005002495
:105780004805002448050024500500245005002445
:1057900058050024580500246005002460050024F5
:0400000508000B01E3
:00000001FF
