:020000040800F2
:1000000000000524D50F0008C50D0008C70D000825
:10001000C90D0008CB0D0008CD0D00080000000040
:10002000000000000000000000000000F163000874
:10003000CF0D000800000000916400082F61000847
:1000400025100008251000082510000825100008BC
:1000500025100008251000082510000825100008AC
:10006000251000082510000825100008251000089C
:10007000251000082510000825100008251000088C
:10008000251000082510000825100008251000087C
:10009000251000082510000825100008251000086C
:1000A00025100008D10D00082510000825100008B3
:1000B000251000082510000825100008251000084C
:1000C000251000082510000825100008251000083C
:1000D000251000082510000825100008251000082C
:1000E0002510000825100008000000002510000859
:1000F000251000082510000825100008251000080C
:1001000025100008251000082510000825100008FB
:1001100025100008251000082510000825100008EB
:1001200025100008251000082510000825100008DB
:1001300025100008251000082510000825100008CB
:1001400000000000000000000000000000000000AF
:1001500025100008251000082510000825100008AB
:10016000251000082510000825100008251000089B
:1001700025100008251000082510000800000000C8
:10018000251000082510000825100008251000087B
:10019000251000082510000825100008251000086B
:1001A0002510000825100008251000080000000098
:1001B000251000082510000825100008251000084B
:1001C00025100008251000080000000000000000B5
:1001D00000000000000000002510000800000000E2
:1001E000000000000000000000000000000000000F
:1001F0000000000000000000251000082510000885
:100200002510000825100008000000002510000837
:1002100025100008251000082510000825100008EA
:100220002510000800000000251000080000000054
:100230002510000825100008000000002510000807
:1002400025100008251000082510000825100008BA
:1002500025100008251000082510000825100008AA
:10026000251000082510000825100008251000089A
:1002700025100008251000082510000800000000C7
:10028000251000082510000825100008251000087A
:1002900000000000251000082510000800000000E4
:1002A0000000000025100008251000082510000897
:1002B000251000082510000825100008251000084A
:0C02C0002510000825100008251000087B
:1002D00053B94AB9002908BF00281CBF4FF0FF31AD
:1002E0004FF0FF3000F00CB8ADF1080C6DE904CE12
:1002F00007F0FEFEDDF804E0DDE9022304B07047FC
:10030000704700BF844641EA000313F003036DD138
:10031000403A41D351F8043B40F8043B51F8043BC8
:1003200040F8043B51F8043B40F8043B51F8043BCF
:1003300040F8043B51F8043B40F8043B51F8043BBF
:1003400040F8043B51F8043B40F8043B51F8043BAF
:1003500040F8043B51F8043B40F8043B51F8043B9F
:1003600040F8043B51F8043B40F8043B51F8043B8F
:1003700040F8043B51F8043B40F8043B51F8043B7F
:1003800040F8043B51F8043B40F8043B51F8043B6F
:1003900040F8043B403ABDD2303211D351F8043B0F
:1003A00040F8043B51F8043B40F8043B51F8043B4F
:1003B00040F8043B51F8043B40F8043B103AEDD2BE
:1003C0000C3205D351F8043B40F8043B043AF9D20F
:1003D000043208D0D2071CBF11F8013B00F8013BE2
:1003E00001D30B8803806046704700BF082A13D3EF
:1003F0008B078DD010F003038AD0C3F10403D21A07
:10040000DB071CBF11F8013B00F8013B80D331F83A
:10041000023B20F8023B7BE7043AD9D3013A11F8BA
:10042000013B00F8013BF9D20B7803704B78437025
:100430008B788370604670470348044B834202D038
:10044000034B03B118477047780500247805002452
:10045000000000000548064B1B1AD90F01EBA30151
:10046000491002D0034B03B11847704778050024A8
:10047000780500240000000010B5064C237843B92D
:10048000FFF7DAFF044B13B10448AFF300800123F8
:10049000237010BD7805002400000000F0880008DB
:1004A00008B5054B1BB105490548AFF30080BDE811
:1004B0000840FFF7CFBF00BF000000007C0500240C
:1004C000F088000810B58CB0002409940A940B94AD
:1004D00024222146684607F069FF2648264B036020
:1004E0004FF41013436084600123036104224261CE
:1004F000047643760222C26180F820408462C4629E
:100500000463C463046480F84440836401F04CFCD9
:1005100020BB0023099309A9164801F0ADFD00BBDB
:10052000164B0093062301930423029340F2FF72BB
:1005300003920493002305938DF8213069460D48FA
:1005400000F0F4FE80B90E4B00930C230193694632
:10055000084800F0EBFE50B90CB010BD00F0A8FA4E
:10056000D7E700F0A5FADBE700F0A2FAEBE700F02E
:100570009FFAF1E704060024002002401000C0109A
:100580000000B84F00B58BB02422002101A807F06D
:100590000DFF1E481E4B03604FF4002343600823E9
:1005A00083600023C36003610422426103764376C3
:1005B0000122C26180F820308362C36280F8383043
:1005C00043630363C363036480F84430836401F0CE
:1005D000EBFBA8B90F4B0193062302930723039368
:1005E00040F2FF73049304230593002306930893BA
:1005F00001A9064800F09AFE28B90BB05DF804FB8B
:1006000000F056FAE6E700F053FAF6E79405002406
:1006100000600258000052C710B58AB0002305934D
:1006200006930793089309930368264A934204D0DC
:10063000254A934238D00AB010BD244BD3F8D820B5
:1006400042F02002C3F8D820D3F8D82002F02002CC
:100650000192019AD3F8E02042F00102C3F8E020B1
:10066000D3F8E02002F001020292029AD3F8E020CF
:1006700042F00402C3F8E020D3F8E03003F00403B2
:100680000393039B202305930324069405A9104894
:1006900002F034F81023059306940023079305A96C
:1006A0000C4802F02BF8C6E7084BD3F8E02042F0E4
:1006B0008072C3F8E020D3F8E03003F08073049335
:1006C000049BB8E700200240006002580044025832
:1006D000000002580008025810B51648164B036077
:1006E00000228260C26001230374427483744361F8
:1006F000142181613B24C46101624362022484624B
:100700000D23C3620463426304238363C36308212C
:10071000016443648164C364046543658165C165A4
:1007200001664266836601F09FFE00B910BD00F0CD
:10073000BFF9FBE7B807002400A0004010B5164839
:10074000164B036000228260C2600123037442746E
:1007500083744361142181613B24C461016243625B
:10076000022484620D23C36204634263042383630F
:10077000C3630821016443648164C3640465436501
:100780008165C16501664266836601F06DFE00B950
:1007900010BD00F08DF9FBE71807002400A400400D
:1007A00010B51648164B036000228260C260012318
:1007B0000374427483744361142181613B24C461D6
:1007C00001624362022484620D23C36204634263B4
:1007D00004238363C3630821016443648164C364A5
:1007E000046543658165C16501664266836601F003
:1007F0003BFE00B910BD00F05BF9FBE77806002472
:1008000000D4004010B5BAB00446002135913691AD
:10081000379138913991B82206A807F0C7FD2368AF
:10082000634A934207D0634A934243D0624A934259
:100830007FD03AB010BD4FF400420023CDE906232B
:100840004FF08053219306A802F03CFF08BB5B4A9F
:10085000136801331360012B1ED0594BD3F8E020ED
:1008600042F00102C3F8E020D3F8E03003F00103C6
:100870000193019B4FF4C053359302233693002319
:10088000379338930923399335A94E4801F036FF41
:10089000CFE700F00DF9DAE7494BD3F8EC2042F44A
:1008A0008072C3F8EC20D3F8EC3003F4807300932B
:1008B000009BD2E74FF400420023CDE906234FF01E
:1008C0008053219306A802F0FDFE08BB3B4A136843
:1008D00001331360012B1ED0394BD3F8E02042F0D6
:1008E0000202C3F8E020D3F8E03003F002030393E0
:1008F000039B4FF4405335930223369300233793E1
:1009000038930923399335A92F4801F0F7FE90E772
:1009100000F0CEF8DAE72A4BD3F8EC2042F48072EC
:10092000C3F8EC20D3F8EC3003F480730293029BFD
:10093000D2E74FF400420023CDE906234FF0805365
:10094000219306A802F0BEFE08BB1C4A13680133BF
:100950001360012B1ED01A4BD3F8E02042F008029E
:10096000C3F8E020D3F8E03003F008030593059BBB
:100970004FF4405335930223369300233793389333
:100980000523399335A9114801F0B8FE51E700F06D
:100990008FF8DAE70A4BD3F8EC2042F48072C3F800
:1009A000EC20D3F8EC3003F480730493049BD2E77B
:1009B00000A0004000A4004000D4004074060024C1
:1009C000004402580000025800040258000C02586B
:1009D00008B5012005F045FCFBE7000008B5074A13
:1009E0000021074805F0DEFB064B1860064A00218F
:1009F000064805F0D7FB064B186008BDA48900081F
:100A0000D10900085C08002480890008917E000854
:100A10005808002486B01F4BD3F8E02042F0800233
:100A2000C3F8E020D3F8E02002F080020192019A9E
:100A3000D3F8E02042F00102C3F8E020D3F8E02030
:100A400002F001020292029AD3F8E02042F004027E
:100A5000C3F8E020D3F8E02002F004020392039AE6
:100A6000D3F8E02042F00202C3F8E020D3F8E020FF
:100A700002F002020492049AD3F8E02042F0080245
:100A8000C3F8E020D3F8E03003F008030593059B9A
:100A900006B070470044025808B50268034B9A42FA
:100AA00000D008BD00F0EEFAFBE700BF00000140F7
:100AB00072B6FEE700B59DB04C22002109A807F0F0
:100AC00075FC2022002101A807F070FC022001F033
:100AD0001FFF00230093204B9A6922F440429A6141
:100AE0009B6903F440430093009B1B4B9B6913F4E9
:100AF000005FFAD0012209924FF480330A93022357
:100B0000129313931493282115911692042217928D
:100B100018930C23199300231A931B9309A801F02F
:100B200021FFA8B93F2301930321029100230393DE
:100B3000082304934023059306934FF480620792A1
:100B4000089301A802F0FCFA20B91DB05DF804FB7F
:100B5000FFF7AEFFFFF7ACFF0048025800B5AFB09B
:100B6000B8220021684607F021FC4FF40022002340
:100B7000CDE90023022302931022039204930593EC
:100B80000693C0230793684602F09CFD10B92FB06E
:100B90005DF804FBFFF78CFF08B500F045FAFFF79E
:100BA00089FFFFF7DBFFFFF735FFFFF795FDFFF745
:100BB000C5FDFFF7F5FD00F00DF800F08BF9FFF72C
:100BC00081FCFFF7DFFC05F0BFFAFFF707FF05F038
:100BD000CDFAFEE708B51448144B03604FF48003C8
:100BE00043604FF4003383600323C3600023036139
:100BF00043614FF080628261C3610362436283623A
:100C0000C3624FF0804242638363C36303644364FF
:100C10008364C36403654365836504F013F900B915
:100C200008BDFFF745FFFBE76008002400140058EB
:100C300070B5B8B0044600213391349135913691A6
:100C40003791B82204A807F0B1FB2268284B9A42DA
:100C500001D038B070BD4FF480420023CDE90423A9
:100C600004A802F02FFD00283FD1224BD3F8F42036
:100C700042F02002C3F8F420D3F8F42002F020025E
:100C80000192019AD3F8E02042F00102C3F8E0207B
:100C9000D3F8E02002F001020292029AD3F8E02099
:100CA00042F00402C3F8E020D3F8E03003F004037C
:100CB0000393039B802333930226349600253595B6
:100CC000032436940823379333A90B4801F016FD0B
:100CD0004FF48053339334963595369405233793E8
:100CE00033A9064801F00AFDB3E7FFF7E1FEBCE7D0
:100CF000001400580044025800000258000802582E
:100D000000B583B00A4BD3F8F42042F00202C3F8D6
:100D1000F420D3F8F43003F002030193019B002286
:100D20000F216FF0010001F0A1FA03B05DF804FBA0
:100D3000004402580F2801D90120704710B58AB02D
:100D4000044600220146192001F090FA192001F012
:100D50009DFA174B1C60174BD3F8F02042F00102AC
:100D6000C3F8F020D3F8F03003F001030093009BA8
:100D700001A902A802F074FB02F060FB43000E4AD6
:100D8000A2FB03239B0C013B0C480D4A026040F27E
:100D9000E732C260436000230361836004F026FCF5
:100DA00010B101200AB010BD044804F075FAF9E74B
:100DB0000C0000240044025883DE1B43E808002492
:100DC00000000140FEE7FEE7FEE7FEE7FEE77047B2
:100DD00008B5024804F0B4FA08BD00BFE8080024D2
:100DE00010B503460C4A0D490D48006840B10C4847
:100DF00000680344521A934206D8094A136010BD92
:100E00000748084C0460F2E707F058FB0C23036026
:100E10004FF0FF30F3E700BF00000524000400009E
:100E200034090024D8580024224AD2F8883043F4E8
:100E30007003C2F88830204B1B6803F00F03062BA9
:100E400006D81D4A136823F00F0343F0070313600D
:100E50001A4B1A6842F001021A6000221A611968DE
:100E6000174A0A401A60144B1B6813F0080F06D08B
:100E7000114A136823F00F0343F0070313600F4B6D
:100E800000229A61DA611A620E4999620E49D962AA
:100E90000E4919635A639963DA6319645A641968CD
:100EA00021F4802119601A66094B43F2D2021A60BC
:100EB000704700BF00ED00E00020005200440258DF
:100EC0007FEDF6EA000202020000FF01800201014C
:100ED0000040005208B51748174B03604FF46123D8
:100EE000436000238360C36003610C22426183611D
:100EF000C36103624362836205F057F870B9002151
:100F00000C4805F0CAF860B900210A4805F0EAF873
:100F100050B9084805F0A2F848B908BDFFF7C8FD68
:100F2000EDE7FFF7C5FDEFE7FFF7C2FDF1E7FFF7DC
:100F3000BFFDF2E7380900240010014010B5B6B03B
:100F40000446002131913291339134913591B82288
:100F500002A807F02BFA22681B4B9A4201D036B048
:100F600010BD01220023CDE9022302A802F0AAFB52
:100F700038BB164BD3F8F02042F01002C3F8F02033
:100F8000D3F8F02002F010020092009AD3F8E0208B
:100F900042F00202C3F8E020D3F8E03003F002038D
:100FA0000193019B4FF4404331930223329300237A
:100FB000339334930423359331A9054801F09EFB04
:100FC000CDE7FFF775FDD4E700100140004402585B
:100FD00000040258DFF834D0FFF726FF0C480D4913
:100FE0000D4A002302E0D458C4500433C4188C4284
:100FF000F9D30A4A0A4C002301E013600432A242EA
:10100000FBD307F061FAFFF7C7FD70470000052426
:101010000000002478050024148A000878050024C4
:10102000D8580024FEE7000010B5032001F00CF9A9
:1010300001F08AFF0F498B69C3F303230E4AD35C87
:1010400003F01F03D8408B6903F00F03D35C03F058
:101050001F0320FA03F3094A1360094B18600F209D
:10106000FFF768FE10B10124204610BD0446FFF7CB
:1010700047FEF9E700440258C88900080000002430
:1010800004000024034B1B78034A11680B441360CF
:10109000704700BF08000024CC090024014B1868E9
:1010A000704700BFCC09002438B50446FFF7F6FFAF
:1010B0000546B4F1FF3F02D0044B1B781C44FFF7F8
:1010C000EDFF401BA042FAD338BD00BF080000244A
:1010D00010B400F1600C0D4CA0420CD05CF8210063
:1010E00000F0004002F0F842134303434CF8213073
:1010F0005DF8044B70475CF8210002F0F84213439E
:1011000043F000434CF82130F2E700BF0060025882
:1011100000F1600C094B984207D05CF8213023F0B5
:1011200000431A434CF8212070475CF8213023F02B
:10113000004313434CF82130704700BF0060025851
:1011400010B430300B0A9B0003F00C03C45801F0BC
:101150001F014FF01F0C0CFA01FC24EA0C0CC2F327
:1011600084628A404CEA0202C2505DF8044B704728
:1011700010B414304B0E9B0003F00403C458C1F3A9
:1011800004514FF0070C0CFA01FC24EA0C0C8A40C5
:101190004CEA0202C2505DF8044B7047134B984270
:1011A00011D0D0F8C030C1F3130C23EA0C0C02F0BC
:1011B00018020F4BD3401940C1F313014CEA01014F
:1011C000C0F8C0107047D0F8B030C1F3130C23EA58
:1011D0000C0C02F01802064BD3400B40C3F3130370
:1011E0004CEA0303C0F8B030704700BF00600258FB
:1011F000FFFF0F002DE9F04104460E460368464903
:10120000464A934218BF8B4233D102F50072976869
:1012100007F01F076569082D0CD0092F31D840F25F
:101220002121F94011F0010F2BD0DB6813F0010FE1
:1012300021D10425FFF732FF804623681A682A422D
:101240002BD1B6F1FF3FF8D0FFF728FFA0EB080045
:10125000B04201D8002EF0D123681B682B42ECD19C
:10126000236E43F004032366002384F85C300320DC
:101270004DE02B4ACBE7236E43F020032366012089
:1012800045E0936813F4404F01D10425D2E7236E63
:1012900043F020032366012039E0226E42F40072FD
:1012A0002266DA6812F4406F11D1627E7AB91A6848
:1012B00012F0080F0BD0226E22F480722266226E8A
:1012C00012F4805F03D1226E42F001022266134ABB
:1012D000934214D01A46934207D0092F12D840F2F5
:1012E0002121F94011F0010F0CD0DA68082D0BD044
:1012F00012F4804F0DD10C221A60002007E0A2F5F5
:101300008072E8E7D268F1E708221A600020BDE8A1
:10131000F0810020FBE700BF0020024000210240D6
:10132000006302580368186C7047000070B582B003
:101330000023019390F85C30012B00F0A882044652
:101340000D46012380F85C3001688B6813F0040FB0
:1013500009D0036E43F0200303660120002384F8C4
:101360005C3002B070BD2B68002B0CDBA74A9142A9
:1013700009D0C3F3130272BBC3F3846301229A4002
:10138000CB691343CB612A6869682068FFF7D8FEF0
:101390002068836813F0040300D00123826812F0F0
:1013A000080200D0012252EA030620D02068836898
:1013B00013F0010F40F06782EA682968FFF7EEFE3C
:1013C000EA68934B9A4200F036812B68002BC0F2FA
:1013D000E1810020C2E793FAA3F333B1B3FA83F3B8
:1013E00003F01F0301229A40CAE72023F8E7AA6806
:1013F0002968FFF7BDFE2068844B984211D0854BC9
:101400001B6803F07043B3F1805F3DD0C36813F0F5
:10141000100F40D16B69C268C2F382025200934040
:1014200005E06B69C268C2F3C102520093402969AA
:10143000042938D1754B98427FD0036E03F0F843EE
:101440002A68B3EB826F00F0E7802268536E03F0E6
:10145000F8432968B3EB816F00F0E3802268936E54
:1014600003F0F8432968B3EB816F00F0DF80226856
:10147000D36E03F0F8432968B3EB816F96D1D36E36
:1014800023F00043D36691E76B69C268C2F382021E
:1014900052009340CBE76B69C268920802F00402E5
:1014A00052009340C3E72A68FFF712FE2368574AA9
:1014B00093421CD0286995F82120012A37D0314663
:1014C000603353F8202022F000420A4343F82020E2
:1014D00021682A692B7E012B2CD00B6923F4F04361
:1014E00002F01F0206FA02F213430B615EE728695D
:1014F000EA69603353F8201021F080710A4343F801
:1015000020202368296995F82020012A0CD03F4A21
:1015100093427FF44BAF603353F8212022F00072E6
:10152000324343F8212041E74FF00076EFE74FF0D8
:101530000041C5E74FF40066CFE7036E026EC2F3C9
:1015400084622B68C3F3130181BBC3F384639A42A3
:1015500034D02068436E426EC2F384622B68C3F3BA
:10156000130181BBC3F384639A4234D02068836E35
:10157000826EC2F384622B68C3F3130181BBC3F391
:1015800084639A4234D02068C36EC26EC2F3846210
:101590002B68C3F3130181BBC3F384639A427FF4C6
:1015A00005AF00220321FFF7B3FDFFE693FAA3F393
:1015B00013B1B3FA83F3CAE72023C8E70022114628
:1015C000FFF7A6FDC5E793FAA3F313B1B3FA83F3CC
:1015D000CAE72023C8E700220121FFF799FDC5E7EC
:1015E00093FAA3F313B1B3FA83F3CAE72023C8E74E
:1015F00000220221FFF78CFDC5E793FAA3F313B194
:10160000B3FA83F3CAE72023C8E700BF006002589B
:101610000000FF470010005C036E23F000430366E8
:1016200013E7536E23F00043536617E7936E23F0DE
:10163000004393661BE720682B68C3F313063EBB89
:101640009A0E013202F01F02092A8CBF00220122E9
:10165000002A55D05EBB990E0131890601F0F84190
:101660008EBB4FEA936C0CF1010C0CF01F0C0122A5
:1016700002FA0CF21143AEBB9B0E013303F01F03C1
:1016800003EB43031B051943AA68FFF771FD9CE6B2
:1016900093FAA3F24AB1B2FA82F2013202F01F02C7
:1016A000092A8CBF00220122D2E72022F5E793FA13
:1016B000A3F131B1B1FA81F10131890601F0F841AC
:1016C000CEE72021F8E793FAA3F24AB1B2FA82F208
:1016D000013202F01F024FF0010C0CFA02F2C9E7CE
:1016E0002022F5E793FAA3F343B1B3FA83F301336E
:1016F00003F01F0303EB43031B05C4E72023F6E7B6
:10170000E6B9990E0131890601F0F84116BB4FEA9E
:10171000936C0CF1010C0CF01F0C012202FA0CF27C
:10172000114336BB9B0E013303F01F0303EB43034E
:101730001E3B1B0543F000731943A5E793FAA3F181
:1017400031B1B1FA81F10131890601F0F841DDE7EB
:101750002021F8E793FAA3F24AB1B2FA82F20132F9
:1017600002F01F024FF0010C0CFA02F2D8E720221F
:10177000F5E793FAA3F35BB1B3FA83F3013303F014
:101780001F0303EB43031E3B1B0543F00073D3E72A
:101790002023F3E722683F493F48824218BF8A422C
:1017A0000CBF0121002118D13C4EB56805F0E07C4A
:1017B000A9B13849886810F0010000D001203649ED
:1017C000896811F0010100D0012101430CD0236E82
:1017D00043F0200323660120C0E5314EE5E731499F
:1017E000896811F0010FF2D12F498B4207D02F49A0
:1017F0008B4226D02E498B4234D00020AEE515F422
:10180000000FF4D1274B9A4201D00020A6E54CF4FA
:101810000003B26822F0E0721343B360254B1B68EB
:101820009B09254AA2FB03239B0901335B0001931B
:1018300002E0019B013B0193019B002BF9D10020A9
:101840008CE515F0807FD5D1164B9A4201D000204F
:1018500084E54CF08073B26822F0E0721343B36009
:1018600000207BE515F4800F0FD10E4B9A4201D07A
:10187000002073E54CF48003B26822F0E072134359
:10188000B36000206AE5002068E5002066E50220DC
:1018900067E500BF00200240002102400023024013
:1018A0000063025800600258000052C7000021C3C4
:1018B000000084CB04000024632D3E0570B504466F
:1018C0000068826812F0040200D00122836813F0DD
:1018D000080300D00123134369D0C36813F0007FCD
:1018E00004D0228B40F201139A424AD0022910D030
:1018F00023689A6812F0040F09D09A6812F0020F58
:1019000005D198682B4A024042F010029A600129E2
:1019100045D023689A6812F0080F09D09A6812F02F
:10192000020F05D19868234A024042F020029A60D3
:10193000022936D0032936D10C25FFF7AFFB064626
:1019400023689B682B4230D0FFF7A8FB831B052B35
:10195000F6D923689B682B42F2D0236E43F0100324
:101960002366636E43F001036366012020E0236E6B
:1019700043F010032366636E43F0010363660120A6
:1019800016E00023026812F0400F04D10A4A934285
:10199000EDD80133F6E7402303600121A8E70425D1
:1019A000CBE70825C9E70425C7E7002000E00020B1
:1019B00070BD00BFC0FFFF7FFFDB0C0038B50368C0
:1019C0009A6812F0010F56D1044699682B4A1142C9
:1019D00009D0036E43F010030366436E43F0010326
:1019E0004366012048E09968254A0A4042F0010216
:1019F0009A60FFF753FB054623682249224A934227
:101A000018BF8B420DD102F50072926802F01F02DE
:101A10001D498B4207D01946994207D032B10020A8
:101A20002AE01A4AF1E7A1F58071F5E723681A6800
:101A300012F0010F1DD19A6812F0010F05D19968BB
:101A40000F4A0A4042F001029A60FFF727FB401B51
:101A50000228EBD923681B6813F0010FE6D1236E2F
:101A600043F010032366636E43F0010363660120B5
:101A700002E0002000E0002038BD00BF3F000080F1
:101A8000C0FFFF7F00200240002102400063025897
:101A900038B5044603683E493E4A934218BF8B421C
:101AA00054D102F50072956805F01F059B6813F08C
:101AB000040F69D194F85C30012B67D0012384F8BE
:101AC0005C302046FFF77AFF002859D1226EA0F63D
:101AD0000273134043F48073236623682D4A9342B4
:101AE00036D01A46934200D01DB9226E22F48012DD
:101AF0002266226E12F4805F2DD0626E22F0060202
:101B000062661C221A60002384F85C302368214A34
:101B1000934223D01A46934207D0092D21D840F290
:101B20002121E94011F0010F1BD0DA6812F0007F8B
:101B300005D0226E22F4405242F480522266996807
:101B4000154A0A4042F004029A601EE0134AAAE7CE
:101B5000A2F58072C6E700226266D2E7A2F5807223
:101B6000D9E7236E43F480132366D36813F0007F14
:101B70000BD0236E23F4405343F48053236604E0D8
:101B8000002384F85C3000E0022038BD0220FCE72E
:101B90000020024000210240C0FFFF7F0063025886
:101BA00038B504460268936813F0020300D001239D
:101BB000916811F0010F37D0002B37D1936803F0F3
:101BC0000D03012B09D0236E43F010032366636ECF
:101BD00043F001036366012027E09168144B0B403A
:101BE00043F002039360236803221A60FFF756FA5A
:101BF000054623689B6813F0010F13D0FFF74EFAD8
:101C0000401B0228F5D923689B6813F0010FF0D020
:101C1000236E43F010032366636E43F00103636693
:101C2000012002E0002000E0002038BD0020FCE799
:101C3000C0FFFF7F90F85C30012B18D010B5044630
:101C4000012380F85C300321FFF738FE18B1002330
:101C500084F85C3010BD2046FFF7A2FF0028F6D1C3
:101C6000226E044B134043F001032366EFE702208A
:101C7000704700BFFEEEFFFF10B5044603684349FE
:101C8000434A934218BF8B421FD1424B9B6813F4C7
:101C9000403F14BF012300230BB301F09BFB63689B
:101CA000B3F5003F05D0B3F5403F16D0B3F5803F04
:101CB00002D11B0CB0FBF3F0374B984249D8226895
:101CC000936823F44073936010BD344B9B6813F406
:101CD000403F14BF01230023DEE78008ECE74FF408
:101CE0000020002102F016FD6368B3F5101F2CD010
:101CF00021D8B3F5E01F26D004D9B3F5001FDBD1FE
:101D00004009D9E7B3F5801F10D009D8B3F5002FEB
:101D10000CD0B3F5402F09D0B3F5802F06D0CBE718
:101D2000B3F5A01F02D0B3F5C01FC5D19B0C5B005B
:101D3000B0FBF3F0C0E7B3F5201F08D0B3F5301FB8
:101D4000BAD1000AB8E70009B6E78009B4E7C009CC
:101D5000B2E7134B984207D82268936823F4407384
:101D600043F480739360AFE70E4B984207D8226824
:101D7000936823F4407343F400739360A4E72268EC
:101D8000936843F4407393609EE700BF00200240D5
:101D9000002102400023024021BCBE000063025823
:101DA00041787D0181F0FA0230B583B000230193C0
:101DB000002800F043810446036EEBB123689A6863
:101DC00012F0005F03D099689D4A0A409A60236828
:101DD0009A6812F0805F1CD199689A4A0A4042F0D2
:101DE00080529A60984B1B689B09984AA2FB032378
:101DF0009B090133019309E0FEF70EFC00236366A3
:101E000084F85C30DAE7019B013B0193019B002BD6
:101E1000F9D123689A6812F0805F40F09F80226EAB
:101E200042F010022266626E42F0010262660125F3
:101E30009A6812F0040200D00122216E11F0100FF6
:101E400040F0F480002A40F0F180216E21F481718D
:101E500041F002012166996811F0010F1ED17C4802
:101E60007C498B4218BF83420CBF0123002377D1EA
:101E7000806810F0010000D001207649896811F0D7
:101E8000010100D00121014308D1002B6ED072481E
:101E90006368816821F47C110B43836021686F4B78
:101EA000994265D0627EE36B43EA4233A2681343F2
:101EB00094F8202043EA024394F82020012A6FD0AE
:101EC000A26A22B102F47872E06A02431343634AC1
:101ED00091426AD0C868624A02401A43CA602168C7
:101EE0008A6812F0040200D001228B6813F0080304
:101EF00000D00123134322D1584B994262D0237E54
:101F0000226B42EA8332C868564B03401343CB60CE
:101F100094F84430012B5CD02268136923F001034C
:101F200013612268136923F07043216C0B43136122
:101F300022684A4B9A4202D02046FFF79DFE236951
:101F4000012B6AD02268136B23F00F031363236EF7
:101F500023F0030343F0010323666CE0002567E7E9
:101F60003E49896811F0010F98D18EE73E488FE70E
:101F7000607EE36B43EA4033E0680343A0681828BF
:101F800004D01C2808D00C2808D10820034394F85A
:101F9000202043EA02438FE71020F7E71046F5E7D9
:101FA000626A013A43EA42438AE7C8682F4A02401C
:101FB0001A43CA602268136923F04063616B0B43C4
:101FC00013618CE7237E94F83820520042EA833272
:101FD00099E72168214B994210D00A69244B13409C
:101FE000A26C501EE26C42EA0042206D0243606D1A
:101FF0000243134343F001030B6192E70A691D4B4F
:102000001340A26CE06C0243206D0243606D0243FA
:10201000134343F001030B6183E721680B6B23F04B
:102020000F03E269013A13430B6390E7236E43F019
:10203000100323660125284603B030BD0125FAE7C9
:10204000C0FFFF5FC0FFFF6F04000024632D3E054B
:10205000002002400021024000230240006002589C
:1020600003C0F0FFFCBFFFFF006302580740F0FF12
:102070001EF800FC1FF800FC90F85C20012A00F01C
:10208000968030B49CB00346012280F85C20002288
:10209000189219920068474A904236D00022009266
:1020A000009A002A35D0926812F0040200D0012272
:1020B000846814F0040F6BD1002A69D13D4C3E4A6C
:1020C000904218BFA0422DD102F500720868002886
:1020D00039D0906820F440404C68204390601868E4
:1020E000344D354CA04218BFA8421DD1AC6814F045
:1020F000010400D001243048806810F0010000D0B5
:102100000120204315D0002047E002F580720092A4
:10211000C6E71A6E42F020021A66002283F85C209D
:1021200001203DE0254AD1E72548806810F0010FE5
:1021300039D19468234820400C68896821430843BA
:102140009060002029E0916821F440419160196875
:10215000184C1948814218BFA1420ED1A06810F056
:10216000010000D001201449896811F0010100D05C
:102170000121014306D000200FE01149896811F0C8
:10218000010F12D190680F4901409160002004E0D6
:102190001A6E42F020021A660120002283F85C20A9
:1021A0001CB030BC70470020F7E70020F5E70220A4
:1021B000704700BF00200240002102400063025827
:1021C00000600258E0F0FFFF002807DB00F01F026C
:1021D000400901239340024A42F82030704700BF73
:1021E00000E100E0002804DB0901C9B2044B1954E6
:1021F000704700F00F000901C9B2024B1954704733
:1022000000E400E014ED00E000B500F00700C0F1CC
:10221000070CBCF1040F28BF4FF0040C031D062B64
:102220000FD9C31E4FF0FF3E0EFA0CF021EA000159
:1022300099400EFA03FE22EA0E0241EA02005DF81E
:1022400004FB0023EEE700000649CB6823F4E063BB
:102250001B041B0C000200F4E0600343024A1A4313
:10226000CA60704700ED00E00000FA0510B50446B2
:10227000054BD868C0F30220FFF7C6FF0146204691
:10228000FFF7B0FF10BD00BF00ED00E008B5FFF79D
:102290009BFF08BD30B4416B0468D4F884306F4AAA
:1022A000134043EA8103C4F884300468D4F88430CE
:1022B00023F47F03856B43EA0543C4F88430836BC2
:1022C0000B440468D4F88810114041EA8301C4F833
:1022D00088100468D4F8881021F4FE01C56B41EA27
:1022E0000541C4F88810C16B03EB41030468D4F8BE
:1022F000A010114041EA8301C4F8A0100468D4F88A
:10230000A01021F4FE01056C41EA0541C4F8A010BB
:10231000016C446C04FB01330468D4F8B010114024
:1023200041EA8301C4F8B0100468D4F8B01021F475
:10233000FE01856C41EA0541C4F8B010816CC46CA3
:1023400004FB01330468D4F8AC10114041EA830166
:10235000C4F8AC10016D446D04FB01330468D4F87B
:10236000F010114041EA8301C4F8F0100468D4F879
:10237000F01021F47C11856D41EA0541C4F8F0109C
:10238000816D03EB41030468D4F8C0100A4042EAAF
:102390008303C4F8C0300268D2F8C03023F47C1341
:1023A000C16D43EA0143C2F8C0300268D2F8C030C0
:1023B00023F07C53016E43EA0163C2F8C030436BE3
:1023C000274A1A449200C266836B02EB83030367B9
:1023D000C16B03EBC1034367016C446C04FB01F167
:1023E00003EB81038367816CC46C04FB01F103EB95
:1023F0008103C367016D446D04FB01F103EB8103AD
:10240000C0F88030816D03EBC103C0F88430816E69
:10241000C46D01FB04FC03EB8C03C0F88830046E30
:1024200004FB01F103EB8103C0F890300D498B42AE
:102430000DD9D0F89C3043F02003C0F89C30032322
:1024400080F89830012007E0002342F8043BD0F8E0
:1024500090309342F8D8002030BC70470300FFFF53
:10246000002B0010FCD3004030B595B004464C2240
:10247000A04901A8FDF746FF002C00F03881236831
:102480009D4A934220D094F898300BB32268936908
:1024900023F010039361FEF701FE054623689A6955
:1024A00012F0080F1AD0FEF7F9FD431B0A2BF5D9DD
:1024B000D4F89C3043F00103C4F89C30032384F823
:1024C0009830012015B030BD03F580736360DAE702
:1024D00084F899302046FEF795F9D7E79A6942F0DB
:1024E00001029A61FEF7DAFD054623689A6912F047
:1024F000010F0FD1FEF7D2FD401B0A28F5D9D4F801
:102500009C3043F00103C4F89C30032384F89830D6
:102510000120D7E79A6942F002029A61237C012BDD
:1025200040D02268936943F040039361637C012BA0
:102530003ED02268936923F480439361A37C012BEE
:102540003CD02268936943F4805393612268936975
:1025500023F44073A1680B4393612268936923F0CD
:10256000A40393612268136923F010031361E368E5
:10257000012B29D0002B2CD0022B00F09B8022684D
:10258000936943F0800393612268136943F0100359
:102590001361E368032B1CD12268936943F0200385
:1025A000936116E02268936923F040039361BDE7CD
:1025B0002268936943F480439361BFE7226893697B
:1025C00023F480539361C1E72268936943F00403C5
:1025D0009361A3695A1EE369013B1B0243EA42630C
:1025E000226A013A13436269013A216843EA0243CD
:1025F000CB61A368B3F5407F62D0236E33B122680C
:10260000D2F8C030616E0B43C2F8C030E36D226E69
:10261000D3420DD02168D1F8C83023F00703A26E51
:1026200014A800EB820252F84C2C1343C1F8C830B6
:10263000236C6BB12168D1F8BC3023F00703626CC6
:1026400014A800EB820252F84C2C1343C1F8BC30A2
:10265000A36C73B12168D1F8BC3023F07003E26C35
:1026600014A800EB820252F84C2C43EA0213C1F882
:10267000BC30236D73B12168D1F8BC3023F4E06322
:10268000626D14A800EB820252F84C2C43EA02233C
:10269000C1F8BC302268184B9A4222D00023C4F8FB
:1026A0009430C4F89C30012384F898302046FFF71A
:1026B000F1FD07E72268936943F02003936188E7FF
:1026C000A36A013BE26A013A43EA0223226B013A20
:1026D00043EA0213626A013A216843EA0243CB608B
:1026E0008BE76268936823F003039360D6E70120C9
:1026F000E8E600BF0889000800A00040F0B583B0FC
:1027000000236BE085685E000324B44025EA0405DD
:10271000CC68B4402C438460456825EA0C054C68BD
:10272000C4F300149C402C43446069E0DD08083584
:1027300050F8254003F0070C4FEA8C0C4FF00F0EB9
:102740000EFA0CFE24EA0E0E0C6904FA0CF444EAAC
:102750000E0440F825406BE0092400E0002404FA50
:102760000EF42C430CF1020C664D45F82C404FF052
:10277000B0442568D44325EA02064F6817F4801F49
:1027800001D042EA05064FF0B0452E606D6804EABC
:1027900005064F6817F4001F01D042EA05064FF006
:1027A000B0456E60D5F8845004EA05064F6817F40A
:1027B000003F01D042EA05064FF0B045C5F88460FD
:1027C000D5F880502C404E6816F4803F01D042EA84
:1027D00005044FF0B042C2F8804001330A6832FA73
:1027E00003F400F08C804FF0010C0CFA03FC1CEA9F
:1027F0000202F2D04C6804F00304013C012C81D9A0
:102800004C6804F00304032C0CD0C4685D004FF046
:10281000030C0CFA05FC24EA0C0C8C68AC4044EA6E
:102820000C04C4604C6804F00304022C3FF47EAF37
:1028300004684FEA430E4FF0030C0CFA0EFC24EA36
:102840000C0C4C6804F0030404FA0EF444EA0C0483
:1028500004604C6814F4403FBFD02B4CD4F8F450C3
:1028600045F00205C4F8F450D4F8F44004F0020432
:102870000194019C4FEA930C0CF10205214C54F891
:10288000255003F0030E4FEA8E0E0F2404FA0EF4C7
:1028900025EA04051D4CA0423FF460AF04F58064B6
:1028A000A0421ED004F58064A0421CD004F58064D0
:1028B000A0421AD004F58064A04218D004F58064C8
:1028C000A04216D004F58064A04214D004F58064C0
:1028D000A04212D004F50064A0423FF43DAF0A24A8
:1028E0003DE701243BE7022439E7032437E70424CA
:1028F00035E7052433E7062431E707242FE703B043
:10290000F0BD00BF00040058004402580000025807
:10291000134BDB6813F0040F07D1114BDB6803F096
:10292000070383421AD00120704710B50C4AD368C0
:1029300023F007030343D360FEF7B0FB0446084BC4
:102940005B6813F4005F07D1FEF7A8FB001BB0F52E
:102950007A7FF4D9012000E0002010BD00207047EC
:1029600000480258002800F0D58238B504460368B4
:1029700013F0010F25D0A04A136903F03803926ABF
:10298000102B15D0182B0FD06368B3F5803F3FD0C4
:10299000002B53D1984B1A6822F480321A601A68BF
:1029A00022F480221A6038E002F00302022AEBD1FE
:1029B000914B1B6813F4003F03D06368002B00F0B9
:1029C000AB82236813F0020F00F088808A4A1369F3
:1029D000926A13F038035AD0182B55D0E368002BB5
:1029E00000F0A98084490A6822F0190213430B60A1
:1029F000FEF754FB0546804B1B6813F0040F40F0B4
:102A00009180FEF74BFB401B0228F4D903208AE299
:102A1000794A136843F48033136063682BB3FEF77D
:102A20003DFB0546744B1B6813F4003FC9D1FEF70C
:102A300035FB401B6428F5D9032074E2B3F5A02FC1
:102A400009D06D4B1A6822F480321A601A6822F499
:102A500080221A60E1E7684B1A6842F480221A600B
:102A60001A6842F480321A60D7E7FEF717FB054672
:102A7000614B1B6813F4003FA3D0FEF70FFB401B14
:102A80006428F5D903204EE212F0030FA6D15A4B69
:102A90001B6813F0040F03D0E368002B00F03E82A4
:102AA000554A136823F01903E1680B431360FEF7DE
:102AB000F5FA0546504B1B6813F0040F06D1FEF7DC
:102AC000EDFA401B0228F5D903202CE24A4A53684C
:102AD00023F0FE43216943EA01635360236813F046
:102AE000100F51D0444A136903F03803926A082B3F
:102AF00039D0182B33D0E369002B69D03E4A1368D4
:102B000043F080031360FEF7C9FA05463A4B1B6891
:102B100013F4807F53D1FEF7C1FA401B0228F5D988
:102B2000032000E2344A536823F0FE43216943EA5C
:102B300001635360D2E7304A136823F00103136046
:102B4000FEF7ACFA05462C4B1B6813F0040FC5D0FA
:102B5000FEF7A4FA401B0228F5D90320E3E102F0B6
:102B60000302012AC7D1244B1B6813F4807F03D0D2
:102B7000E369802B40F0D4811F4AD36823F07C5353
:102B8000216A43EA0163D360236813F0080F49D038
:102B90006369002B32D0184A536F43F00103536727
:102BA000FEF77CFA0546144B5B6F13F0020F39D128
:102BB000FEF774FA401B0228F5D90320B3E10E4A50
:102BC000D36823F07C53216A43EA0163D360DBE7D7
:102BD000094A136823F080031360FEF75FFA054685
:102BE000054B1B6813F4807FCED0FEF757FA401BCD
:102BF0000228F5D9032096E1004402589D4A536FFC
:102C000023F001035367FEF749FA0546994B5B6FC2
:102C100013F0020F06D0FEF741FA401B0228F5D947
:102C2000032080E1236813F0200F29D0A3699BB112
:102C3000904A136843F480531360FEF72FFA054659
:102C40008C4B1B6813F4005F1AD1FEF727FA401B68
:102C50000228F5D9032066E1864A136823F48053DD
:102C60001360FEF71BFA0546824B1B6813F4005FE6
:102C700006D0FEF713FA401B0228F5D9032052E1D3
:102C8000236813F0040F21D1636A002B00F04A81FE
:102C9000784A126902F03802182A00F0F180022BFB
:102CA00075D0744A136823F080731360FEF7F6F949
:102CB0000446704B1B6813F0007F00F0D880FEF7CD
:102CC000EDF9001B0228F4D903202CE16A4A1368AD
:102CD00043F480731360FEF7E1F90546664B1B6809
:102CE00013F4807F06D1FEF7D9F9401B6428F5D98B
:102CF000032018E1A368012B0AD00BBB5D4B1A6FB0
:102D000022F001021A671A6F22F004021A6704E027
:102D1000584A136F43F001031367A36833B3FEF7F8
:102D2000BDF90546534B1B6F13F0020FACD1FEF7F4
:102D3000B5F9401B41F288339842F3D90320F2E001
:102D4000052B09D04B4B1A6F22F001021A671A6F3C
:102D500022F004021A67E0E7464B1A6F42F00402C1
:102D60001A671A6F42F001021A67D6E7FEF796F962
:102D70000546404B1B6F13F0020F85D0FEF78EF90E
:102D8000401B41F288339842F3D90320CBE0394A03
:102D9000136823F080731360FEF780F90546354B06
:102DA0001B6813F0007F06D0FEF778F9401B02285D
:102DB000F5D90320B7E02F4B996A304A0A40A16A3F
:102DC000E06A41EA00110A439A62226B013AC2F3B7
:102DD0000802616B0139490289B20A43A16B0139CA
:102DE000090401F4FE010A43E16B0139090601F00F
:102DF000FE410A431A63DA6A22F00102DA625A6B70
:102E00006FF3CF02A16C42EAC1025A63DA6A22F080
:102E10000C02216C0A43DA62DA6A22F00202616C67
:102E20000A43DA62DA6A42F48032DA62DA6A42F437
:102E30000032DA62DA6A42F48022DA62DA6A42F056
:102E40000102DA621A6842F080721A60FEF726F90F
:102E50000446084B1B6813F0007F06D1FEF71EF9ED
:102E6000001B0228F5D903205DE000205BE0002074
:102E700059E000BF00440258004802580CFCFFFF14
:102E800030498A6A086B012B4ED002F00303A16A15
:102E90008B424BD1C2F30512E36A9A4248D1C0F388
:102EA0000802236B013B9A4244D1C0F34622636B74
:102EB000013B9A4240D1C0F30642A36B013B9A42C8
:102EC0003CD1C0F30660E36B013B984238D11D4B07
:102ED0005B6BC3F3CC03A26C9A4201D1002022E0C9
:102EE000184AD36A23F00103D362FEF7D7F80546E8
:102EF000FEF7D4F8A842FBD0124A536B6FF3CF030E
:102F0000A16C43EAC1035363D36A43F00103D36264
:102F1000002008E001207047012004E0012002E0C9
:102F2000012000E0002038BD0120FCE70120FAE785
:102F30000120F8E70120F6E70120F4E70120F2E79D
:102F40000120F0E700440258754B1B6903F0380379
:102F5000102B00F0DE80182B0FD0002B40F0DB8010
:102F60006F4B1B6813F0200F00F0D7806C4B1B6871
:102F7000C3F3C1036B48D840704710B4684B9A6ADA
:102F800002F003029C6AC4F30510D96A01F0010142
:102F90005B6BC3F3CC0301FB03F307EE903AF8EE4F
:102FA000677A14F47C7F77D0012A4AD0022A76D03F
:102FB000002A40F091805A4B1B6813F0200F23D059
:102FC00057490A68C2F3C102564BD34007EE103A84
:102FD000F8EE476A07EE100AB8EE476A86EE867A80
:102FE0000B6BC3F3080306EE903AF8EE666A9FEDAA
:102FF0004E6A67EE867A76EEA77AF7EE006A77EE8B
:10300000A67A27EE277A38E007EE100AF8EE476A2C
:103010009FED466A86EE267A414B1B6BC3F308038D
:1030200006EE903AF8EE666A9FED3F6A67EE867AA2
:1030300076EEA77AF7EE006A77EEA67A27EE277A81
:103040001BE007EE100AF8EE476A9FED396A86EE3C
:10305000267A334B1B6BC3F3080306EE903AF8EE67
:10306000666A9FED316A67EE867A76EEA77AF7EEAA
:10307000006A77EEA67A27EE277A294B1B6BC3F3FB
:103080004623013307EE903AF8EE677AC7EE276AD7
:10309000FCEEE67A17EE900A5DF8044B704707EEF7
:1030A000100AF8EE476A9FED236A86EE267A1C4BDB
:1030B0001B6BC3F3080306EE903AF8EE666A9FEDC9
:1030C0001A6A67EE867A76EEA77AF7EE006A77EEEE
:1030D000A67A27EE277AD0E707EE100AF8EE476ABD
:1030E0009FED136A86EE267A0D4B1B6BC3F3080324
:1030F00006EE903AF8EE666A9FED0B6A67EE867A06
:1031000076EEA77AF7EE006A77EEA67A27EE277AB0
:10311000B3E709487047094870470248704700BF45
:10312000004402580090D003000000390024744C81
:103130000024744A001BB74B00366E0100093D00A5
:10314000002800F0328170B50D4604469B4B1B6889
:1031500003F00F038B420BD2984A136823F00F033E
:103160000B431360136803F00F038B4240F01F8181
:10317000236813F0040F0CD02269914B9B6903F074
:1031800070039A4205D98E498B6923F070031A4364
:103190008A61236813F0080F0CD06269884BDB69E1
:1031A00003F070039A4205D98549CB6923F0700377
:1031B0001A43CA61236813F0100F0CD0A269804B28
:1031C000DB6903F4E0639A4205D97D49CB6923F4B6
:1031D000E0631A43CA61236813F0200F0CD0E26940
:1031E000774B1B6A03F070039A4205D974490B6A46
:1031F00023F070031A430A62236813F0020F0CD005
:10320000E2686F4B9B6903F00F039A4205D96C4942
:103210008B6923F00F031A438A61236813F0010FAF
:1032200041D0674A936923F47063A1680B439361AB
:103230006368022B0AD0032B27D0012B2CD0604AC5
:10324000126812F0040F06D10120ADE0126812F4EA
:10325000003F00F0AE805A490A6922F0070213438A
:103260000B61FDF71BFF0646554B1B6903F0380346
:103270006268B3EBC20F16D0FDF710FF801B41F25E
:1032800088339842F0D903208EE04D4A126812F03C
:10329000007FE0D1012087E0494A126812F4807F64
:1032A000D9D1012080E0236813F0020F0CD0E2682E
:1032B000434B9B6903F00F039A4205D240498B6947
:1032C00023F00F031A438A613C4B1B6803F00F0382
:1032D000AB420AD9394A136823F00F032B4313601A
:1032E000136803F00F03AB4265D1236813F0040F9A
:1032F0000CD02269324B9B6903F070039A4205D2CD
:103300002F498B6923F070031A438A61236813F0F5
:10331000080F0CD062692A4BDB6903F070039A42F4
:1033200005D22749CB6923F070031A43CA61236889
:1033300013F0100F0CD0A269214BDB6903F4E0639A
:103340009A4205D21E49CB6923F4E0631A43CA614D
:10335000236813F0200F0CD0E269194B1B6A03F0AD
:1033600070039A4205D216490B6A23F070031A4380
:103370000A62FFF7E9FD12498B69C3F30323114A7F
:10338000D35C03F01F03D8408B6903F00F03D35CB9
:1033900003F01F0320FA03F30B4A13600B4B186072
:1033A0000B4B1868FDF7C6FC70BD0120704701206B
:1033B000FAE70120F8E70120F6E700BF00200052FD
:1033C00000440258C88900080000002404000024BA
:1033D0000C00002408B5FFF7B7FD0B4A9369C3F34F
:1033E00003230A49CB5C03F01F0320FA03F392691D
:1033F00002F00F02885C00F01F0023FA00F0044A7C
:103400001060044A136008BD00440258C8890008CF
:10341000000000240400002408B5FFF7DBFF054B83
:10342000DB69C3F30213044AD35C03F01F03D840E3
:1034300008BD00BF00440258C889000808B5FFF75E
:10344000C9FF054BDB69C3F30223044AD35C03F0D5
:103450001F03D84008BD00BF00440258C8890008B7
:103460003F230360114B1A6902F0070242609A6918
:1034700002F4706282609A6902F00F02C2609A6977
:1034800002F070020261DA6902F070024261DA69E8
:1034900002F4E06282611B6A03F07003C361044BB3
:1034A0001B6803F00F030B60704700BF0044025815
:1034B00000200052404B9B6A03F00303032B79D09A
:1034C00070B505460E463C4A136823F080631360CE
:1034D000FDF7E4FD0446384B1B6813F0006F06D07F
:1034E000FDF7DCFD031B022BF5D9032070BD324B29
:1034F0009A6A22F47C32296842EA01329A626A6846
:10350000013AC2F30802A9680139490289B20A43A3
:10351000E9680139090401F4FE010A432969013906
:10352000090601F0FE410A439A63DA6A22F0C002FA
:1035300069690A43DA62DA6A22F02002A9690A4359
:10354000DA62DA6A22F01002DA62DA6B6FF3CF0223
:10355000E96942EAC102DA63DA6A42F01002DA6229
:10356000C6B91A46DB6A43F40023D362124A1368D1
:1035700043F080631360FDF791FD04460E4B1B681A
:1035800013F0006F14D1FDF789FD001B0228F5D957
:103590000320ABE7012E05D0074AD36A43F400139A
:1035A000D362E3E7044AD36A43F48013D362DDE7CE
:1035B00000209BE70120704700440258404B9B6A63
:1035C00003F00303032B79D070B505460E463C4A41
:1035D000136823F080531360FDF760FD0446384BF9
:1035E0001B6813F0005F06D0FDF758FD031B022B8C
:1035F000F5D9032070BD324B9A6A22F07C7229689B
:1036000042EA01529A626A68013AC2F30802A96862
:103610000139490289B20A43E9680139090401F410
:10362000FE010A4329690139090601F0FE410A43F6
:103630001A64DA6A22F4406269690A43DA62DA6A71
:1036400022F40072A9690A43DA62DA6A22F480720B
:10365000DA625A6C6FF3CF02E96942EAC1025A6436
:10366000DA6A42F48072DA62C6B91A46DB6A43F457
:103670008003D362124A136843F080531360FDF74E
:103680000DFD04460E4B1B6813F0005F14D1FDF7CF
:1036900005FD001B0228F5D90320ABE7012E05D05C
:1036A000074AD36A43F08073D362E3E7044AD36ADC
:1036B00043F40003D362DDE700209BE7012070475D
:1036C00000440258F8B50446036813F0006F2FD089
:1036D000436EB3F5001F25D015D8E3B1B3F5801FB5
:1036E0000ED102210830FFF7E5FE054675BB934A6F
:1036F000136D23F44013616E0B431365002619E02C
:103700000126354616E0B3F5401F01D10025EEE74E
:10371000012635460EE0894AD36A43F40033D3626A
:103720000025E4E702212830FFF748FF0546DDE7E2
:1037300000263546236813F4807F29D0A36D042B1F
:1037400022D8DFE803F005131A0A0A002E46F1E733
:103750007A4AD36A43F40033D362C5B9774A136D0A
:1037600023F00703A16D0B43136511E0002104F161
:103770000800FFF79FFE0546EFE7002104F128004F
:10378000FFF71CFF0546E8E70126354600E02E4618
:10379000236813F4806F2DD0D4F8A430B3F5800FD4
:1037A0003DD00DD8C3B1B3F5001F06D1002104F1FF
:1037B0000800FFF77FFE054613E00126354619E0B5
:1037C000B3F5000F0DD0B3F5200F0AD0B3F5C00F3D
:1037D00007D0012635460DE0584AD36A43F400333A
:1037E000D3621DBB554A936D23F46003D4F8A41033
:1037F0000B439365236813F4006F37D0D4F8A830D7
:10380000B3F1007F5ED016D80BB3B3F1807F0FD138
:10381000002104F10800FFF74DFE05461CE00021E1
:1038200004F12800FFF7CAFE0546DAE72E46E1E775
:10383000012635461AE0B3F1806F0DD0B3F1A06FC9
:103840000AD0B3F1407F07D0012635460EE03B4A4F
:10385000D36A43F40033D362002D3AD1374A936DD3
:1038600023F0E063D4F8A8100B439365236813F0AA
:10387000007F13D0E36C202B35D02FD833B1102B21
:1038800029D12E4AD36A43F40033D36295BB2B4A25
:10389000D36C23F03003E16C0B43D364236813F43F
:1038A000805F4ED0E36DB3F5005F3FD027D87BB388
:1038B000B3F5805F20D1002104F10800FFF7FAFD85
:1038C00005462AE0002104F12800FFF777FE0546AF
:1038D000C2E72E46CAE701263546DFE7302BD5D0B2
:1038E00001263546DAE7022104F10800FFF7E2FD80
:1038F0000546CBE72E46D1E70126354621E0B3F554
:10390000405F0AD0B3F5804F07D00126354618E056
:103910000A4AD36A43F40033D3628DB9074A136D60
:1039200023F4E043E16D0B4313650AE0002104F149
:103930002800FFF743FE0546EFE700BF00440258AA
:103940002E46236813F4005F17D0236EB3F5003FB3
:103950004FD042D843B1B3F5803F3BD1012104F1B0
:103960000800FFF7A7FD0546002D49D1924A136DC7
:1039700023F4E023216E0B431365236813F4804F77
:1039800019D0D4F8AC30B3F1005F4AD03DD843B180
:10399000B3F1805F36D1012104F10800FFF78AFD01
:1039A0000546002D44D1844A936D23F0E043D4F8BA
:1039B000AC100B439365236813F4004F47D0E36EBC
:1039C000B3F1805F36D0B3F1005F4BD0BBB30126BB
:1039D00035463CE001263546CFE7B3F5802FC3D00E
:1039E000B3F5A02FC0D0B3F5403FBDD0012635467A
:1039F000C3E7012104F12800FFF7E0FD0546B3E726
:103A00002E46BAE701263546D5E7B3F1804FC8D038
:103A1000B3F1A04FC5D0B3F1405FC2D00126354607
:103A2000C9E7012104F12800FFF7C8FD0546B8E702
:103A30002E46C0E7604AD36A43F40033D362C5B967
:103A40005D4A136D23F04053E16E0B431365236809
:103A500013F0807F1CD0A36C032B44D8DFE803F065
:103A6000100B3C10012104F10800FFF723FD05466F
:103A7000E5E72E46EBE7504AD36A43F40033D362BE
:103A8000A5BB4D4AD36C23F00303A16C0B43D36455
:103A9000236813F4800F2BD1236813F0010F00F07B
:103AA000A980A36F282B00F2A380DFE803F091A187
:103AB000A1A1A1A1A1A18BA1A1A1A1A1A1A19AA113
:103AC000A1A1A1A1A1A191A1A1A1A1A1A1A191A106
:103AD000A1A1A1A1A1A19100022104F10800FFF779
:103AE000E9FC0546CCE701263546D1E72E46CFE76F
:103AF000324A136843F480731360FDF7CFFA074628
:103B00002E4B1B6813F4807F05D1FDF7C7FAC01B4D
:103B10006428F5D90325002D4AD1274B1B6FD4F813
:103B2000B020534013F4407F0CD0234B1A6F22F483
:103B30004072196F41F480311967196F21F4803197
:103B400019671A67D4F8B030B3F5807F15D08DBBF4
:103B5000D4F8B03003F44072B2F5407F1ED0164A5C
:103B6000136923F47C53136113490B6FD4F8B0200D
:103B7000C2F30B0213430B678EE7FDF78FFA07467C
:103B80000D4B1B6F13F0020FE1D1FDF787FAC01B3D
:103B900041F288339842F3D90325D8E706480269F1
:103BA00022F47C52064901EA131313430361DBE755
:103BB0002E4671E72E466FE700440258004802582F
:103BC000CFFFFF00012104F10800FFF773FC054659
:103BD000E5B9B14A536D23F03803A16F0B43536528
:103BE00008E0012104F12800FFF7E8FC0546EFE7B3
:103BF00001263546236813F0020F17D0636F052B9B
:103C000029D8DFE803F00B05210B0B0B2E46F1E75B
:103C1000012104F10800FFF74DFC0546F5B99E4A65
:103C2000536D23F00703616F0B435365236813F053
:103C3000040F26D0D4F89030052B00F2D680DFE8B0
:103C400003F0150FCD151515012104F12800FFF71C
:103C5000B5FC0546E2E701263546E7E72E46E5E7EF
:103C6000012104F10800FFF725FC0546002D40F076
:103C7000BF80894A936D23F00703D4F890100B435B
:103C80009365236813F0200F1DD0D4F88C30B3F166
:103C9000005F00F0C18000F2B0804BB1B3F1805FF3
:103CA00040F0A880002104F10800FFF703FC05465E
:103CB000002D40F0B880784A536D23F0E043D4F8EB
:103CC0008C100B435365236813F0400F1DD0D4F8BC
:103CD0009830B3F5006F00F0BA8000F2A9804BB1C4
:103CE000B3F5806F40F0A180002104F10800FFF7D8
:103CF000E1FB0546002D40F0B180674A936D23F447
:103D0000E053D4F898100B439365236813F0800FA9
:103D10001DD0D4F89C30B3F5804F00F0B38000F292
:103D2000A2804BB1B3F5005F40F09A80002104F10E
:103D30000800FFF7BFFB0546002D40F0AA80564A59
:103D4000936D23F46043D4F89C100B439365236870
:103D500013F0080F0DD0D4F88030B3F5805F00F079
:103D60009D804D4A536D23F44053D4F880100B438B
:103D70005365236813F0100F0DD0D4F89430B3F5C9
:103D8000807F00F09580444A936D23F44073D4F80B
:103D900094100B439365236813F4002F00F09D806B
:103DA000D4F8A030B3F5803F00F08C80B3F5003F2D
:103DB00008D0002B40F08D80002104F10800FFF7AF
:103DC00079FB0546002D40F08780334A936D23F43C
:103DD0004033D4F8A0100B4393657EE0012104F139
:103DE0002800FFF7EBFB054640E70126354648E78C
:103DF0002E4646E70126354665E7B3F1804F3FF48E
:103E000057AFB3F1A04F3FF453AFB3F1405F3FF46E
:103E10004FAF0126354656E7022104F12800FFF78F
:103E2000CDFB054644E72E464DE7012635466CE7B7
:103E3000B3F5805F3FF45EAFB3F5A05F3FF45AAFD8
:103E4000B3F5406F3FF456AF012635465DE70221DA
:103E500004F12800FFF7B2FB05464BE72E4654E776
:103E60000126354673E7B3F5004F3FF465AFB3F570
:103E7000204F3FF461AFB3F5C04F3FF45DAF012673
:103E8000354664E7022104F12800FFF797FB054659
:103E900052E72E465BE700BF00440258022104F1BE
:103EA0002800FFF78BFB00283FF45BAF012658E7A3
:103EB000022104F12800FFF781FB00283FF463AFE3
:103EC000012660E7022104F12800FFF777FB054691
:103ED00078E70126354600E02E46236813F4802F4C
:103EE00024D0D4F88430B3F5001F14D0B3F5401FAC
:103EF00007D0B3F5801F15D17C4AD36A43F4003351
:103F0000D36295B9794A536D23F44013D4F88410E1
:103F10000B4353650AE0012104F12800FFF74EFB33
:103F20000546EEE70126354600E02E46236813F4E9
:103F3000803F06D0236DCBB1B3F5803F24D001265E
:103F40003546236813F0005F27D1236813F4003F40
:103F50003DD0E36FB3F5807F2BD027D9B3F5007F39
:103F60002CD0B3F5407F29D0012630E05F4AD36AD8
:103F700043F40033D36275B95C4AD36C23F48033C5
:103F8000216D0B43D364DCE7022104F10800FFF745
:103F900091FA0546EFE72E46D3E7022104F1280007
:103FA000FFF70CFB0028D0D00126CEE733B1012665
:103FB0000DE04E4AD36A43F40033D362002D5CD146
:103FC0004A4A536D23F44073E16F0B4353652368F2
:103FD00013F4801F06D0454A136D23F00043216F70
:103FE0000B431365236813F4001F06D03F4A136D7B
:103FF00023F08073A16E0B431365236813F0804F89
:1040000009D03A4B1A6922F400421A611A69D4F8AD
:10401000B4100A431A612368002B06DA334AD36CC2
:1040200023F04053616D0B43D364236813F4000FF6
:1040300007D02E4A536D23F44003D4F888100B4365
:104040005365636813F0010F19D1636813F0020F11
:104050001ED1636813F0040F23D1636813F0080FB7
:1040600028D1636813F0100F2DD1636813F0200F6F
:1040700032D106B101263046F8BD2E46A7E7002111
:1040800004F10800FFF716FA0028DED00646DCE748
:10409000012104F10800FFF70DFA0028D9D00646E7
:1040A000D7E7022104F10800FFF704FA0028D4D072
:1040B0000646D2E7002104F12800FFF77FFA002826
:1040C000CFD00646CDE7012104F12800FFF776FAAC
:1040D0000028CAD00646C8E7022104F12800FFF7ED
:1040E0006DFA0028C5D00126C5E700BF004402587C
:1040F00008B5FFF76FF9054B1B6AC3F30213044AB7
:10410000D35C03F01F03D84008BD00BF0044025831
:10411000C889000810B4794B9A6A9C6AC4F3053CBC
:10412000D96AC1F30011DB6BC3F3CC0301FB03F3CA
:1041300014F47C3F00F0DD8002F0030207EE903AB9
:10414000F8EE677A012A4BD0022A00F09880002A04
:1041500040F0B280694B1B6813F0200F23D06749F1
:104160000A68C2F3C102664BD34007EE103AF8EE7C
:10417000476A07EE10CAB8EE476A86EE867A8B6BFE
:10418000C3F3080306EE903AF8EE666A9FED5D6AA7
:1041900067EE867A76EEA77AF7EE006A77EEA67A71
:1041A00027EE277A38E007EE10CAF8EE476A9FED4F
:1041B000566A86EE267A514B9B6BC3F3080306EED4
:1041C000903AF8EE666A9FED4F6A67EE867A76EE71
:1041D000A77AF7EE006A77EEA67A27EE277A1BE039
:1041E00007EE10CAF8EE476A9FED486A86EE267A17
:1041F000424B9B6BC3F3080306EE903AF8EE666AF7
:104200009FED406A67EE867A76EEA77AF7EE006A4F
:1042100077EEA67A27EE277A384A936BC3F34623C4
:1042200007EE903AF8EE677AF7EE006A77EEA67A34
:1042300087EE276ABCEEC66A80ED006A936BC3F313
:10424000064307EE903AF8EE677A77EEA67A87EEA5
:10425000276ABCEEC66A80ED016A936BC3F30663FE
:1042600007EE903AF8EE677A77EEA67AC7EE276AFD
:10427000FCEEE66AC0ED026A5DF8044B704707EE9B
:1042800010CAF8EE476A9FED226A86EE267A1B4B2B
:104290009B6BC3F3080306EE903AF8EE666A9FED57
:1042A000196A67EE867A76EEA77AF7EE006A77EEFD
:1042B000A67A27EE277AAFE707EE10CAF8EE476A2C
:1042C0009FED126A86EE267A0C4B9B6BC3F30803B4
:1042D00006EE903AF8EE666A9FED0A6A67EE867A15
:1042E00076EEA77AF7EE006A77EEA67A27EE277ABF
:1042F00092E70023036043608360BDE700440258F7
:104300000090D003000000390024744C0024744A4B
:10431000001BB74B10B4794B9A6A9C6AC4F3055CD6
:10432000D96AC1F300215B6CC3F3CC0301FB03F337
:1043300014F07C7F00F0DD8002F0030207EE903A7B
:10434000F8EE677A012A4BD0022A00F09880002A02
:1043500040F0B280694B1B6813F0200F23D06749EF
:104360000A68C2F3C102664BD34007EE103AF8EE7A
:10437000476A07EE10CAB8EE476A86EE867A0B6C7B
:10438000C3F3080306EE903AF8EE666A9FED5D6AA5
:1043900067EE867A76EEA77AF7EE006A77EEA67A6F
:1043A00027EE277A38E007EE10CAF8EE476A9FED4D
:1043B000566A86EE267A514B1B6CC3F3080306EE51
:1043C000903AF8EE666A9FED4F6A67EE867A76EE6F
:1043D000A77AF7EE006A77EEA67A27EE277A1BE037
:1043E00007EE10CAF8EE476A9FED486A86EE267A15
:1043F000424B1B6CC3F3080306EE903AF8EE666A74
:104400009FED406A67EE867A76EEA77AF7EE006A4D
:1044100077EEA67A27EE277A384A136CC3F3462341
:1044200007EE903AF8EE677AF7EE006A77EEA67A32
:1044300087EE276ABCEEC66A80ED006A136CC3F390
:10444000064307EE903AF8EE677A77EEA67A87EEA3
:10445000276ABCEEC66A80ED016A136CC3F306637B
:1044600007EE903AF8EE677A77EEA67AC7EE276AFB
:10447000FCEEE66AC0ED026A5DF8044B704707EE99
:1044800010CAF8EE476A9FED226A86EE267A1B4B29
:104490001B6CC3F3080306EE903AF8EE666A9FEDD4
:1044A000196A67EE867A76EEA77AF7EE006A77EEFB
:1044B000A67A27EE277AAFE707EE10CAF8EE476A2A
:1044C0009FED126A86EE267A0C4B1B6CC3F3080331
:1044D00006EE903AF8EE666A9FED0A6A67EE867A13
:1044E00076EEA77AF7EE006A77EEA67A27EE277ABD
:1044F00092E70023036043608360BDE700440258F5
:104500000090D003000000390024744C0024744A49
:10451000001BB74B10B4794B9A6A9C6AC4F3051C14
:10452000D96A01F001015B6BC3F3CC0301FB03F318
:1045300014F47C7F00F0DD8002F0030207EE903A75
:10454000F8EE677A012A4BD0022A00F09880002A00
:1045500040F0B280694B1B6813F0200F23D06749ED
:104560000A68C2F3C102664BD34007EE103AF8EE78
:10457000476A07EE10CAB8EE476A86EE867A0B6B7A
:10458000C3F3080306EE903AF8EE666A9FED5D6AA3
:1045900067EE867A76EEA77AF7EE006A77EEA67A6D
:1045A00027EE277A38E007EE10CAF8EE476A9FED4B
:1045B000566A86EE267A514B1B6BC3F3080306EE50
:1045C000903AF8EE666A9FED4F6A67EE867A76EE6D
:1045D000A77AF7EE006A77EEA67A27EE277A1BE035
:1045E00007EE10CAF8EE476A9FED486A86EE267A13
:1045F000424B1B6BC3F3080306EE903AF8EE666A73
:104600009FED406A67EE867A76EEA77AF7EE006A4B
:1046100077EEA67A27EE277A384A136BC3F3462340
:1046200007EE903AF8EE677AF7EE006A77EEA67A30
:1046300087EE276ABCEEC66A80ED006A136BC3F38F
:10464000064307EE903AF8EE677A77EEA67A87EEA1
:10465000276ABCEEC66A80ED016A136BC3F306637A
:1046600007EE903AF8EE677A77EEA67AC7EE276AF9
:10467000FCEEE66AC0ED026A5DF8044B704707EE97
:1046800010CAF8EE476A9FED226A86EE267A1B4B27
:104690001B6BC3F3080306EE903AF8EE666A9FEDD3
:1046A000196A67EE867A76EEA77AF7EE006A77EEF9
:1046B000A67A27EE277AAFE707EE10CAF8EE476A28
:1046C0009FED116A86EE267A0C4B1B6BC3F3080331
:1046D00006EE903AF8EE666A9FED0A6A67EE867A11
:1046E00076EEA77AF7EE006A77EEA67A27EE277ABB
:1046F00092E70023036043608360BDE700440258F3
:104700000090D003000000390024744C0024744A47
:10471000001BB74B00B58BB0A0F580730B4328D0BE
:10472000A0F580630B4377D0A0F500630B4300F046
:10473000CE80A0F580530B4300F02681A0F50053F6
:104740000B4300F08581A0F500230B4300F0CE81E0
:10475000A0F580330B4300F01182A0F580430B439A
:1047600000F02A82A0F50040084300F07B82002080
:104770000CE0954B1B6D03F00703042B00F29C82A9
:10478000DFE803F007111B03250090480BB05DF82C
:1047900004FB8D4B186810F00070F7D007A8FFF7E6
:1047A000B9FE0898F2E7884B186810F00060EDD069
:1047B00004A8FFF7AFFC0498E8E7834B186810F0F3
:1047C0000050E3D001A8FFF7A5FD0198DEE77E4A7F
:1047D000D36C03F04053126812F0040F07D033B9C2
:1047E000794B1B68C3F3C1037948D840CEE7764ABA
:1047F000126812F4807F03D0B3F1805F00F05E8214
:10480000714A126812F4003F00F05A82B3F1005F5F
:1048100000F058820020B9E76B4B9B6D03F46003F6
:10482000B3F5800F33D016D9B3F5C00F00F04C822A
:10483000B3F5000F1FD1644AD36C03F040531268E4
:1048400012F0040F2ED06BBB5F4B1B68C3F3C10388
:104850005F48D8409AE783B1B3F5001F09D15A4B9E
:10486000186810F0006091D004A8FFF753FC04987A
:104870008CE700208AE7002088E7534B186810F087
:10488000007083D007A8FFF745FE08987EE74E4BDF
:10489000186810F000503FF479AF01A8FFF73AFD17
:1048A000019873E7484A126812F4807F03D0B3F18D
:1048B000805F00F00B82444A126812F4003F00F05F
:1048C0000782B3F1005F00F0058200205EE73E4BF7
:1048D0009B6D03F0E063B3F1007F35D016D9B3F1DF
:1048E000407F00F0F981B3F1806F20D1364AD36C5C
:1048F00003F04053126812F0040F30D07BBB324BF0
:104900001B68C3F3C1033248D8403FE78BB1B3F112
:10491000807F0AD12C4B186810F000603FF436AF4E
:1049200004A8FFF7F7FB049830E700202EE70020EB
:104930002CE7254B186810F000703FF427AF07A84C
:10494000FFF7E8FD089821E71F4B186810F00050AA
:104950003FF41CAF01A8FFF7DDFC019816E71A4AE7
:10496000126812F4807F03D0B3F1805F00F0B6814B
:10497000154A126812F4003F00F0B281B3F1005FF3
:1049800000F0B081002001E70F4B1B6D03F4E04302
:10499000B3F5005F3CD01DD9B3F5405F00F0A481B2
:1049A000B3F5804F27D1084AD36C03F04053126807
:1049B00012F0040F37D0002B35D1034B1B68C3F323
:1049C000C1030348D840E1E6004402580080BB0020
:1049D0000090D0038BB1B3F5805F0AD19D4B18686E
:1049E00010F000603FF4D2AE04A8FFF793FB0498E8
:1049F000CCE60020CAE60020C8E6964B186810F006
:104A000000703FF4C3AE07A8FFF784FD0898BDE629
:104A1000904B186810F000503FF4B8AE01A8FFF7B3
:104A200079FC0198B2E68B4A126812F4807F03D0B9
:104A3000B3F1805F00F05A81864A126812F4003F99
:104A400000F05681B3F1005F00F0548100209DE634
:104A5000804B1B6D03F4E023B3F5403F32D00BD8FD
:104A6000B3F5803F18D0B3F5003F20D013B9FEF75F
:104A7000D3FC8BE6002089E6B3F5802F2ED0B3F56A
:104A8000A02F07D1734B186810F400303FF47EAEAE
:104A900071487BE6002079E66E4B186810F00060E4
:104AA0003FF474AE04A8FFF735FB05986EE6694B3A
:104AB000186810F000503FF469AE01A8FFF72AFC17
:104AC000029863E6634B186810F004003FF45EAE92
:104AD0001B68C3F3C1036148D84057E65D4B1868B3
:104AE00010F480703FF452AE5D484FE6594B9B6D19
:104AF00003F44033B3F5803F10D0B3F5003F18D036
:104B0000002B40F0F980534B186810F000603FF420
:104B10003DAE04A8FFF7FEFA049837E64D4B18683F
:104B200010F000503FF432AE01A8FFF7F3FB0398FA
:104B30002CE6484AD36C03F04053126812F0040F7D
:104B400007D033B9434B1B68C3F3C1034348D84074
:104B50001CE6404A126812F4807F03D0B3F1805FF4
:104B600000F0CC803B4A126812F4003F00F0C8808D
:104B7000B3F1005F00F0C680002007E6354BDB6C28
:104B800013F4803302D063B90020FFE5314B18687D
:104B900010F000703FF4FAAD07A8FFF7BBFC0898CF
:104BA000F4E52C4B186810F000603FF4EFAD04A85A
:104BB000FFF7B0FA0698E9E5264B9B6D03F0E0435A
:104BC000B3F1405F32D00BD8B3F1805F18D0B3F1AE
:104BD000005F20D013B9FFF78BFAD7E50020D5E5A9
:104BE000B3F1804F2ED0B3F1A04F07D1194B186805
:104BF00010F400303FF4CAAD1748C7E50020C5E502
:104C0000144B186810F000603FF4C0AD04A8FFF723
:104C100081FA0598BAE50F4B186810F000503FF480
:104C2000B5AD01A8FFF776FB0298AFE5094B186810
:104C300010F004003FF4AAAD1B68C3F3C10307489A
:104C4000D840A3E5034B186810F480703FF49EAD84
:104C500003489BE50044025800366E010090D003E3
:104C600000093D00294B1B6D03F04053B3F1805FF9
:104C70000CD0B3F1005F14D0002B45D1234B186842
:104C800010F400303FF482AD21487FE51F4B1868D7
:104C900010F000703FF47AAD07A8FFF73BFC0898CE
:104CA00074E51A4B186810F000603FF46FAD04A86B
:104CB000FFF730FA059869E5002067E5154865E5D6
:104CC000002063E5124861E513485FE511485DE5A2
:104CD00000205BE50E4859E50F4857E50D4855E5BE
:104CE000002053E50A4851E50B484FE509484DE5DA
:104CF00000204BE5064849E5002047E5054845E525
:104D0000002043E5024841E500203FE50044025809
:104D100000366E0100093D000080BB0010B402683F
:104D20005369916941F00801916101688A6942F013
:104D300010028A6101680A6822F001020A600168B3
:104D40000C69294A22400A6101688A6822F44042BB
:104D50008A6090F88120D2B2042A0DD013F0200F7F
:104D60000AD0D0F8842042F08002C0F88420016884
:104D70008A6942F020028A6190F88120D2B2032A27
:104D80000DD013F0400F0AD0D0F8842042F0040276
:104D9000C0F8842001688A6942F040028A6113F4F5
:104DA000007F0AD0D0F8842042F00102C0F88420AD
:104DB00001688A6942F400728A6113F4807F0AD024
:104DC000D0F8843043F00803C0F884300268936957
:104DD00043F4807393610023A0F86230A0F86A3036
:104DE0005DF8044B704700BF90FCFFFFC36B5B098D
:104DF000C0680830C00803FB000070472DE9F84385
:104E000080460F4616461D46DDF8209000E0BDB1F5
:104E1000D8F800305C6937EA04040CBF0123002392
:104E2000B3420AD1FCF73AF9A0EB0900A842EED34D
:104E3000B5F1FF3FEBD0032000E00020BDE8F88390
:104E40000320FBE7002800F0B78070B5044600237C
:104E5000836205685C4B5D4E9D4218BFB54214BF2E
:104E60000126002607D0A3F574439D4203D0C368F2
:104E70000F2B00F2A3802046FFF7B8FF2EB1544B52
:104E80009D4202D0082800F29B804F4A4F4B9D4222
:104E900018BF954203D003F580639D4202D11028CC
:104EA00000F2908094F88130F3B1022384F88130CD
:104EB0002268136823F00103136023689A6802F4E0
:104EC000F812A169B1F1806F14D0636813F4800FF8
:104ED00023D0E368062B20D921680B6823F4807364
:104EE000206D03430B601DE084F880302046FBF703
:104EF0009FFEDAE76168B1F5800F06D00029E4D1A2
:104F0000A16BB1F1805FE0D102E0A06B0028F5D188
:104F1000196841F480511960D7E721680B6823F4C0
:104F200080730B60E369A16A0B431343E26B134385
:104F3000E16822680B439360636B626A1343A26B60
:104F40001343A26913432269134362691343226A1C
:104F5000134362681343E26C1343A2681343A26CC9
:104F60001343A16D22680B43D36063686BB9226859
:104F7000936823F4C05343F40063936022689368FA
:104F800023F4C06343F4806393602268136D23F0BD
:104F900001031365636813F4800F06D02268D36899
:104FA00023F00043616D0B43D3600020C4F88400FC
:104FB000012384F8813070BD012070470120FAE799
:104FC0000120F8E70120F6E70030014000380040FA
:104FD000003C00402DE9F04782B004468A469146E5
:104FE0001D46D0F80080FCF759F894F88160F6B2BD
:104FF000012E40F048810746B9F1000F18BFBAF101
:10500000000F00F0418194F88030012B00F04081C6
:10501000012384F88030032384F881300023C4F80E
:105020008430C4F85CA0A4F86090A4F86290636631
:10503000A4F86830A4F86A3063672367A368B3F5FF
:10504000C02F1CD02268D36823F4C02343F400335C
:10505000D360226853686FF30F0349EA0303536078
:105060002268136843F0010313606368B3F5800F8F
:105070000BD0E3680F2B1BD8072B4DD8ACE0226870
:10508000136843F400631360E3E72268136843F492
:1050900000731360EDE7E26D12681A62E36D04338A
:1050A000E365B4F8622092B2013A92B2A4F86220A9
:1050B000B4F862309BB2002B00F0C98023685A69B3
:1050C00012F0020FE7D1FBF7E9FFC01BA84202D3A1
:1050D000B5F1FF3F01D1002DEAD12046FFF71EFEBA
:1050E000D4F8843043F48073C4F88430012384F806
:1050F0008130002384F880300326C5E0E36D1B88EF
:10510000A8F82030E36D0233E365B4F862309BB257
:10511000013B9BB2A4F86230B4F862309BB2002B22
:1051200000F095802268536913F0020F15D0B4F88F
:1051300062309BB2012BE1D9E36B002BDED0E36D33
:105140001B681362E36D0433E365B4F862309BB20D
:10515000023B9BB2A4F86230DEE7FBF79FFFC01B67
:10516000A84202D3B5F1FF3F01D1002DD4D1204692
:10517000FFF7D4FDD4F8843043F48073C4F884304E
:10518000012384F88130002384F8803003267BE0FB
:10519000B4F862309BB2012B10D9E36B73B1E36DAD
:1051A0001B88A8F82030E36D0233E365B4F8623061
:1051B0009BB2023B9BB2A4F862300DE0E36D1B781A
:1051C00082F82030E36D0133E365B4F862309BB2BE
:1051D000013B9BB2A4F86230B4F862309BB2002B62
:1051E00035D02268536913F0020F15D0B4F862303D
:1051F0009BB2032BCCD9E36B402BC9D9E36D1B6861
:105200001362E36D0433E365B4F862309BB2043B90
:105210009BB2A4F86230DFE7FBF740FFC01BA84257
:1052200002D3B5F1FF3F01D1002DD5D12046FFF7C4
:1052300075FDD4F8843043F48073C4F884300123BE
:1052400084F88130002384F8803003261CE0009726
:105250002B46002208212046FFF7D0FD28B1D4F8C4
:10526000843043F02003C4F884302046FFF756FD15
:10527000012384F88130002384F88030D4F884300E
:1052800013B9002600E00226304602B0BDE8F087E0
:105290000226F9E77047000090F83D30DBB2012BA1
:1052A00042D1022380F83D300268D36843F0010305
:1052B000D36003681E4AB3F1804F18BF934225D0D4
:1052C000A2F57C42934221D002F5806293421DD028
:1052D00002F58062934219D002F57842934215D0CC
:1052E000A2F56C42934211D002F5943293420DD054
:1052F000A2F5C042934209D002F58062934205D0E4
:105300001A6842F001021A60002070479968094A41
:105310000A40062A18BFB2F5803F07D01A6842F04B
:1053200001021A600020704701207047002070477A
:105330000000014007000100704770477047704748
:1053400070B504460368DE681D6915F0020F10D0C1
:1053500016F0020F0DD06FF002021A6101230377DD
:1053600003689B6913F0030F64D0FFF7E6FF002387
:10537000237715F0040F12D016F0040F0FD0236816
:105380006FF004021A610223237723689B6913F4E8
:10539000407F55D02046FFF7D0FF0023237715F03C
:1053A000080F12D016F0080F0FD023686FF0080214
:1053B0001A61042323772368DB6913F0030F46D0B7
:1053C0002046FFF7BAFF0023237715F0100F12D005
:1053D00016F0100F0FD023686FF010021A61082327
:1053E00023772368DB6913F4407F37D02046FFF72B
:1053F000A4FF0023237715F0010F02D016F0010F50
:1054000033D115F4025F02D016F0800F35D115F4B8
:10541000807F02D016F0800F37D115F0400F02D0F8
:1054200016F0400F39D115F0200F02D016F0200FE2
:105430003BD170BDFFF780FF2046FFF77FFF96E767
:105440002046FFF779FF2046FFF778FFA5E72046C3
:10545000FFF772FF2046FFF771FFB4E72046FFF722
:105460006BFF2046FFF76AFFC3E723686FF0010276
:105470001A612046FBF710FBC3E723686FF4025262
:105480001A61204600F0E3F8C1E723686FF48072E8
:105490001A61204600F0DCF8BFE723686FF0400295
:1054A0001A612046FFF74BFFBDE723686FF020022B
:1054B0001A61204600F0CAF8BBE7000030B5036867
:1054C000424A904214BF4FF0000E4FF0010EB0F16F
:1054D000804F14BF72464EF00102AAB93C4CA04264
:1054E00014BF002401243B4DA8420DD064B904F13F
:1054F000804404F58234A04214BF0024012405F541
:105500000065A84200D01CB123F070034C6823430F
:1055100062BB2F4A904214BF002201222D4CA042B0
:1055200024D01ABB02F1804202F58232904214BFAD
:105530000022012204F50064A04217D0B2B9264A25
:10554000904214BF0022012204F59A34A0420DD0EB
:1055500062B9224A904214BF0022012204F500647D
:10556000A04203D012B91E4A904204D123F4407CD9
:10557000CB6843EA0C0323F080034A6913430360BA
:105580008A68C2620A688262164A904214BF7346F1
:105590004EF0010363B9104B984214BF002301235E
:1055A00002F57052904203D013B90F4B984201D1CB
:1055B0000B69036301234361036913F0010F03D0F7
:1055C000036923F00103036130BD00BF0000014007
:1055D00000080040000400400044014000E000409A
:1055E00000E40040000401400048014060B310B5F1
:1055F000044690F83D3013B3022384F83D30214631
:1056000051F8040BFFF75AFF012384F8483084F85F
:105610003E3084F83F3084F8403084F8413084F8DC
:10562000423084F8433084F8443084F8453084F8BC
:10563000463084F8473084F83D30002010BD80F8B3
:105640003C30FFF727FED7E70120704770477047CF
:1056500070470000026852E8003F23F4907342E86C
:1056600000310029F6D1026802F1080353E8001F57
:105670000D4B0B40083242E800310029F3D1C36ED4
:10568000012B06D02023C0F88C300023C36643676B
:105690007047026852E8003F23F0100342E80031EF
:1056A0000029F6D1EEE700BFFEFFFFEF70B586B030
:1056B000044683680269134342691343C269134372
:1056C00001680868904A02401A430A6022685368D9
:1056D00023F44053E1680B435360A16922688B4B6C
:1056E0009A4201D0236A19439068894B03400B43C7
:1056F00093602268D36A23F00F03616A0B43D3627D
:105700002368844A934229D0834A934200F09480CC
:10571000824A934200F0AA80814A934200F0C080FE
:10572000804A934200F0D6807F4A934200F008817D
:105730007E4A934200F02D817D4A934200F04081E1
:105740007C4A934200F053817B4A934200F0788177
:105750006E4A934200F09D81802233E0774A526D79
:1057600002F03802282A65D8DFE812F02900640028
:10577000640064006400640064006400AB016400C1
:105780006400640064006400640064002B00640032
:105790006400640064006400640064005E006400EF
:1057A00064006400640064006400640060006400DD
:1057B000640064006400640064006400620001220C
:1057C00000E0082251498B4200F09481E069B0F575
:1057D000004F00F00A82202A00F26182202A00F2A3
:1057E000AE82DFE812F063027D02AC02AC028002FE
:1057F000AC02AC02AC028502AC02AC02AC02AC0260
:10580000AC02AC02AC028A02AC02AC02AC02AC024A
:10581000AC02AC02AC02AC02AC02AC02AC02AC0218
:10582000AC02AC02AC0296021022CBE72022C9E700
:105830004022C7E78022C5E7404A526D02F00702C6
:10584000052A11D8DFE812F006003F0108000A001F
:105850000C000E000022B5E70822B3E71022B1E7E2
:105860002022AFE74022ADE78022ABE7334A526DFA
:1058700002F00702052A11D8DFE812F0060027011E
:1058800008000A000C000E0000229BE7082299E79E
:10589000102297E7202295E7402293E7802291E7A4
:1058A000264A526D02F00702052A11D8DFE812F0ED
:1058B00006000F0108000A000C000E00002281E71C
:1058C00008227FE710227DE720227BE7402279E74C
:1058D000802277E7194A526D02F00702052A11D893
:1058E000DFE812F00600F70008000A000C000E00C6
:1058F000002267E7082265E7102263E7202261E7BC
:1059000040225FE780225DE7F369FFCF000C00587B
:10591000FFF4FF1100100140004400400048004027
:10592000004C00400050004000140140007800404E
:10593000007C004000180140001C01400044025857
:10594000694A526D02F03802282A20D8DFE802F0B6
:10595000151F1F1F1F1F1F1FC31F1F1F1F1F1F1FBD
:10596000171F1F1F1F1F1F1F191F1F1F1F1F1F1F55
:105970001B1F1F1F1F1F1F1F1D00012222E70822C0
:1059800020E710221EE720221CE740221AE780228F
:1059900018E7554A526D02F00702052A0ED8DFE8D3
:1059A00002F0039C0507090B00220BE7082209E718
:1059B000102207E7202205E7402203E7802201E7C3
:1059C000494A526D02F00702052A0ED8DFE802F0BC
:1059D00003870507090B0022F4E60822F2E61022ED
:1059E000F0E62022EEE64022ECE68022EAE63E4A9D
:1059F000526D02F03802282A20D8DFE802F0151F85
:105A00001F1F1F1F1F1F721F1F1F1F1F1F1F171F5B
:105A10001F1F1F1F1F1F191F1F1F1F1F1F1F1B1FA0
:105A20001F1F1F1F1F1F1D000122CBE60822C9E6F2
:105A30001022C7E62022C5E64022C3E68022C1E646
:105A4000294A526D02F03802282A20D8DFE802F0F5
:105A5000151F1F1F1F1F1F1F4E1F1F1F1F1F1F1F31
:105A6000171F1F1F1F1F1F1F191F1F1F1F1F1F1F54
:105A70001B1F1F1F1F1F1F1F1D000122A2E6082240
:105A8000A0E610229EE620229CE640229AE6802292
:105A900098E602F50E32926D02F00702052A0ED842
:105AA000DFE802F003260507090B02228AE6082236
:105AB00088E6102286E6202284E6402282E68022C2
:105AC00080E604227EE604227CE604227AE60422B2
:105AD00078E6042276E6042274E6042272E60422C2
