:020000040800F2
:1000000000000524B919000855110008571100080F
:10001000591100085B1100085D1100080000000084
:1000200000000000000000000000000061950008D2
:100030005F110008000000000196000825910008EB
:10004000091A0008091A0008091A0008091A000804
:10005000091A0008091A0008091A0008091A0008F4
:10006000091A0008091A0008091A00086111000895
:10007000711100088111000891110008A1110008F8
:10008000B1110008C1110008091A0008091A000876
:10009000091A0008091A0008091A0008091A0008B4
:1000A000091A0008D1110008091A0008091A0008E5
:1000B000091A0008091A0008091A0008091A000894
:1000C000091A0008091A0008091A0008091A000884
:1000D000E1110008F1110008091A0008091A0008C6
:1000E00001120008091A000800000000091A00089F
:1000F000091A0008091A0008091A00081512000850
:10010000091A0008091A0008091A0008091A000843
:10011000091A0008091A0008091A0008091A000833
:10012000091A0008091A0008091A0008091A000823
:10013000091A0008091A0008091A0008091A000813
:1001400000000000000000000000000000000000AF
:10015000091A0008091A0008091A0008091A0008F3
:10016000091A0008091A0008091A0008091A0008E3
:10017000091A0008091A0008091A000800000000FE
:10018000091A0008091A000825120008091A0008AF
:10019000091A0008091A0008091A0008091A0008B3
:1001A000091A0008091A0008091A000800000000CE
:1001B000091A0008091A0008091A0008091A000893
:1001C000091A0008091A00080000000000000000D9
:1001D0000000000000000000091A000800000000F4
:1001E000000000000000000000000000000000000F
:1001F0000000000000000000091A0008091A0008A9
:10020000091A0008091A000800000000091A00086D
:10021000091A0008091A0008091A0008091A000832
:10022000091A000800000000091A00080000000078
:10023000091A0008091A000800000000091A00083D
:10024000091A0008091A0008091A0008091A000802
:10025000091A0008091A0008091A0008091A0008F2
:10026000091A0008091A0008091A0008091A0008E2
:10027000091A0008091A0008091A000800000000FD
:10028000091A0008091A0008091A0008091A0008C2
:1002900000000000091A0008091A00080000000008
:1002A00000000000091A0008091A0008091A0008CD
:1002B00035120008091A0008091A0008091A00086E
:0C02C000091A0008091A0008091A0008B1
:1002D00053B94AB9002908BF00281CBF4FF0FF31AD
:1002E0004FF0FF3000F00CB8ADF1080C6DE904CE12
:1002F0000BF0EEFCDDF804E0DDE9022304B070470A
:10030000704700BF844641EA000313F003036DD138
:10031000403A41D351F8043B40F8043B51F8043BC8
:1003200040F8043B51F8043B40F8043B51F8043BCF
:1003300040F8043B51F8043B40F8043B51F8043BBF
:1003400040F8043B51F8043B40F8043B51F8043BAF
:1003500040F8043B51F8043B40F8043B51F8043B9F
:1003600040F8043B51F8043B40F8043B51F8043B8F
:1003700040F8043B51F8043B40F8043B51F8043B7F
:1003800040F8043B51F8043B40F8043B51F8043B6F
:1003900040F8043B403ABDD2303211D351F8043B0F
:1003A00040F8043B51F8043B40F8043B51F8043B4F
:1003B00040F8043B51F8043B40F8043B103AEDD2BE
:1003C0000C3205D351F8043B40F8043B043AF9D20F
:1003D000043208D0D2071CBF11F8013B00F8013BE2
:1003E00001D30B8803806046704700BF082A13D3EF
:1003F0008B078DD010F003038AD0C3F10403D21A07
:10040000DB071CBF11F8013B00F8013B80D331F83A
:10041000023B20F8023B7BE7043AD9D3013A11F8BA
:10042000013B00F8013BF9D20B7803704B78437025
:100430008B788370604670470348044B834202D038
:10044000034B03B118477047800500248005002442
:10045000000000000548064B1B1AD90F01EBA30151
:10046000491002D0034B03B11847704780050024A0
:10047000800500240000000010B5064C237843B925
:10048000FFF7DAFF044B13B10448AFF300800123F8
:10049000237010BD8005002400000000D0C40008B7
:1004A00008B5054B1BB105490548AFF30080BDE811
:1004B0000840FFF7CFBF00BF000000008405002404
:1004C000D0C4000810B58CB0002409940A940B9491
:1004D0002422214668460BF059FD2648264B03602E
:1004E0004FF41013436084600123036104224261CE
:1004F000047643760222C26180F820408462C4629E
:100500000463C463046480F84440836402F03EF9E9
:1005100020BB0023099309A9164802F09FFA00BBEB
:10052000164B0093062301930423029340F2FF72BB
:1005300003920493002305938DF8213069460D48FA
:1005400001F0E6FB80B90E4B00930C230193694642
:10055000084801F0DDFB50B90CB010BD00F096FB6F
:10056000D7E700F093FBDBE700F090FBEBE700F050
:100570008DFBF1E70C060024002002401000C010A3
:100580000000B84F00B58BB02422002101A80BF069
:10059000FDFC1E481E4B03604FF4002343600823FC
:1005A00083600023C36003610422426103764376C3
:1005B0000122C26180F820308362C36280F8383043
:1005C00043630363C363036480F84430836402F0CD
:1005D000DDF8A8B90F4B0193062302930723039379
:1005E00040F2FF73049304230593002306930893BA
:1005F00001A9064801F08CFB28B90BB05DF804FB9B
:1006000000F044FBE6E700F041FBF6E79C05002420
:1006100000600258000052C710B58AB0002305934D
:1006200006930793089309930368264A934204D0DC
:10063000254A934238D00AB010BD244BD3F8D820B5
:1006400042F02002C3F8D820D3F8D82002F02002CC
:100650000192019AD3F8E02042F00102C3F8E020B1
:10066000D3F8E02002F001020292029AD3F8E020CF
:1006700042F00402C3F8E020D3F8E03003F00403B2
:100680000393039B202305930324069405A9104894
:1006900003F01AFF1023059306940023079305A97E
:1006A0000C4803F011FFC6E7084BD3F8E02042F0F6
:1006B0008072C3F8E020D3F8E03003F08073049335
:1006C000049BB8E700200240006002580044025832
:1006D000000002580008025808B50848084B03609B
:1006E000002303714371436183610123036202F0BC
:1006F000C3FA00B908BD00F0C9FAFBE77C06002484
:10070000004C025802680A4B9A4200D0704782B0EF
:10071000A3F50063D3F8E02042F40022C3F8E02000
:10072000D3F8E03003F400230193019B02B070473B
:10073000004C025800B583B0274BD3F8D82042F0C4
:100740000102C3F8D820D3F8D83003F00103019395
:10075000019B002205210B2002F07AFA0B2002F007
:1007600087FA002205210C2002F072FA0C2002F018
:100770007FFA002205210D2002F06AFA0D2002F016
:1007800077FA002205210E2002F062FA0E2002F014
:100790006FFA002205210F2002F05AFA0F2002F012
:1007A00067FA00220521102002F052FA102002F010
:1007B0005FFA00220521112002F04AFA112002F00E
:1007C00057FA002205212F2002F042FA2F2002F0D2
:1007D0004FFA03B05DF804FB0044025810B5164808
:1007E000164B036000228260C260012303744274CE
:1007F00083744361142181613B24C46101624362BB
:10080000022484620D23C36204634263042383636E
:10081000C3630821016443648164C3640465436560
:100820008165C16501664266836603F003FD00B918
:1008300010BD00F02BFAFBE7E407002400A0004005
:1008400010B51648164B036000228260C260012377
:100850000374427483744361142181613B24C46135
:1008600001624362022484620D23C3620463426313
:1008700004238363C3630821016443648164C36404
:10088000046543658165C16501664266836603F060
:10089000D1FC00B910BD00F0F9F9FBE744070024D2
:1008A00000A4004010B51648164B03600022826079
:1008B000C260012303744274837443611421816113
:1008C0003B24C46101624362022484620D23C3623B
:1008D0000463426304238363C363082101644364A4
:1008E0008164C364046543658165C16501664266D0
:1008F000836603F09FFC00B910BD00F0C7F9FBE769
:10090000A406002400D4004010B5BAB0044600216B
:1009100035913691379138913991B82206A80BF06C
:1009200035FB2368634A934207D0634A934243D01E
:10093000624A93427ED03AB010BD4FF40042002389
:10094000CDE906234FF08053219306A804F0B6FDAD
:1009500008BB5B4A136801331360012B1ED0594B4F
:10096000D3F8E02042F00102C3F8E020D3F8E030F1
:1009700003F001030193019B4FF4C053359302230D
:1009800036930023379338930923399335A94E487A
:1009900003F09AFDCFE700F079F9DAE7494BD3F895
:1009A000EC2042F48072C3F8EC20D3F8EC3003F46E
:1009B00080730093009BD2E74FF400420023CDE9FF
:1009C00006234FF08053219306A804F077FD00BB67
:1009D0003B4A136801331360012B1DD0394BD3F808
:1009E000E02042F00202C3F8E020D3F8E03003F048
:1009F00002030393039B6023359302233693002362
:100A0000379338930923399335A9304803F05CFDB7
:100A100091E700F03BF9DBE72A4BD3F8EC2042F4F6
:100A20008072C3F8EC20D3F8EC3003F480730293A7
:100A3000029BD3E74FF400420023CDE906234FF099
:100A40008053219306A804F039FD08BB1C4A1368A3
:100A500001331360012B1ED01A4BD3F8E02042F073
:100A60000802C3F8E020D3F8E03003F00803059350
:100A7000059B4FF44053359302233693002337935D
:100A800038930523399335A9114803F01DFD52E72A
:100A900000F0FCF8DAE70B4BD3F8EC2042F480725C
:100AA000C3F8EC20D3F8EC3003F480730493049B78
:100AB000D2E700BF00A0004000A4004000D40040E6
:100AC000A006002400440258000002580004025806
:100AD000000C025808B5012008F0BDFBFBE7000040
:100AE00008B5124A0121084608F0C3FB104B1860F4
:100AF000104A0021104808F04FFB104B1860104AB4
:100B00000021104808F048FB0F4B18600F4A0021E5
:100B10000F4808F041FB0F4B18600F4A00210F48A7
:100B200008F03AFB0E4B186008BD00BF80C50008F6
:100B300084080024FCC50008D50A00089408002495
:100B4000D8C50008DDB5000890080024B4C5000829
:100B5000C7B500088C08002490C5000895B50008AA
:100B60008808002470B58CB0002407940894099478
:100B70000A940B943C4BD3F8E02042F01002C3F8E7
:100B8000E020D3F8E02002F010020192019AD3F89D
:100B9000E02042F00402C3F8E020D3F8E02002F0A5
:100BA00004020292029AD3F8E02042F08002C3F8D5
:100BB000E020D3F8E02002F080020392039AD3F8F9
:100BC000E02042F00102C3F8E020D3F8E02002F078
:100BD00001020492049AD3F8E02042F00202C3F822
:100BE000E020D3F8E02002F002020592059AD3F843
:100BF000E02042F00802C3F8E020D3F8E03003F030
:100C000008030693069B194D012248F20901284664
:100C100003F064FD4FF400430793012608960994FE
:100C20000A9407A9284603F04FFC09230793089666
:100C3000099403230A9307A9284603F045FC4FF4BF
:100C4000A05307934FF488130893099407A9084801
:100C500003F03AFC22460521282001F0F9FF282064
:100C600002F006F80CB070BD0044025800080258AB
:100C70000010025808B50268034B9A4200D008BD24
:100C800000F0F2FEFBE700BF0000014072B6FEE795
:100C900000B59DB04C22002109A80BF077F9202265
:100CA000002101A80BF072F9022003F02DFD0023B2
:100CB0000093204B9A6922F440429A619B6903F4A5
:100CC00040430093009B1B4B9B6913F4005FFAD0D9
:100CD000012209924FF480330A9302231293139353
:100CE00014932821159116920622179218930C231B
:100CF000199300231A931B9309A803F02FFDA8B999
:100D00003F230193032102910023039308230493BB
:100D10004023059306934FF480620792089301A83D
:100D200004F00AF920B91DB05DF804FBFFF7AEFF2F
:100D3000FFF7ACFF0048025800B5AFB0B822002161
:100D400068460BF023F94FF400220023CDE900237D
:100D50000223029310220392049305930693C02367
:100D60000793684604F0AAFB10B92FB05DF804FBA6
:100D7000FFF78CFF08B500F049FEFFF789FFFFF78A
:100D8000DBFFFFF7EFFEFFF7D5FCFFF727FDFFF7CF
:100D900057FDFFF787FD00F04BF800F0FFFBFFF772
:100DA00091FBFFF7EFFB00F081FBFFF795FC00F0F4
:100DB000C1FB00F027FC00F009F800F033FB08F05D
:100DC000BDF9FFF78DFE08F0CBF9FEE708B5164830
:100DD000164B03604FF480034360002383600722B7
:100DE000C2604FF0007202614FF0807242614FF0BA
:100DF000806282614FF04052C2610362436283624B
:100E0000C3624FF0804242638363C36303644364FD
:100E10008364C36403654365836505F00FFF00B910
:100E200008BDFFF733FFFBE7100A0024003800403D
:100E300008B51448144B03604FF4800343604FF42B
:100E4000003383600323C3600023036143614FF0D9
:100E500080628261C361036243628362C3624FF056
:100E6000804242638363C363036443648364C364F3
:100E700003654365836505F0E1FE00B908BDFFF732
:100E800005FFFBE78809002400140058F0B5BBB04B
:100E90000446002135913691379138913991B82225
:100EA00006A80BF073F823686F4A934205D06F4A87
:100EB000934200F08B803BB0F0BD4FF48052002392
:100EC000CDE9062306A804F0F9FA002875D1684B8D
:100ED000D3F8E82042F48042C3F8E820D3F8E820B1
:100EE00002F480420092009AD3F8E02042F004021B
:100EF000C3F8E020D3F8E02002F004020192019A46
:100F0000D3F8E02042F00202C3F8E020D3F8E0304A
:100F100003F002030293029B0623359302273697C0
:100F20000025379538950526399635A9514803F09F
:100F3000CBFA4FF400533593369737953895399659
:100F400035A94D4803F0C0FA4C484D4B03602823A7
:100F5000436040238360C5604FF480630361456153
:100F60008561C5614FF400330362456202F036F8D3
:100F700030BB424BA3679C634248434B036027232B
:100F8000436000238360C3604FF480620261436169
:100F90008361C3614FF440320262436202F01EF883
:100FA00088B9384BE3679C6300220521242001F0B7
:100FB0004FFE242001F05CFE7DE7FFF767FE86E729
:100FC000FFF764FED5E7FFF761FEEAE74FF48042E2
:100FD0000023CDE9062306A804F070FA00283FD1CB
:100FE000234BD3F8F42042F02002C3F8F420D3F8C6
:100FF000F42002F020020392039AD3F8E02042F09A
:101000000102C3F8E020D3F8E02002F001020492CC
:10101000049AD3F8E02042F00402C3F8E020D3F8A9
:10102000E03003F004030593059B802335930226EB
:10103000369600253795032438940823399335A92B
:10104000124803F041FA4FF48053359336963795A2
:1010500038940523399335A9064803F035FA2AE771
:10106000FFF714FEBCE700BF003800400014005832
:1010700000440258000802580004025810090024D5
:10108000A000024098080024B80002400000025866
:1010900000B583B00A4BD3F8F42042F00202C3F843
:1010A000F420D3F8F43003F002030193019B0022F3
:1010B0000F216FF0010001F0CBFD03B05DF804FBE0
:1010C000004402580F2801D90120704710B58AB09A
:1010D000044600220146192001F0BAFD192001F052
:1010E000C7FD174B1C60174BD3F8F02042F00102EC
:1010F000C3F8F020D3F8F03003F001030093009B15
:1011000001A902A804F0A8F804F094F843000E4ADC
:10111000A2FB03239B0C013B0C480D4A026040F2EA
:10112000E732C260436000230361836006F01EFE65
:1011300010B101200AB010BD044806F06DFCF9E7BB
:101140000C0000240044025883DE1B43980A00244C
:1011500000000140FEE7FEE7FEE7FEE7FEE770471E
:1011600008B5024802F0E0FB08BD00BFE80C00240F
:1011700008B5024802F0D8FB08BD00BF700C00247F
:1011800008B5024802F0D0FB08BD00BFD80D00240E
:1011900008B5024802F0C8FB08BD00BF600D00247E
:1011A00008B5024802F0C0FB08BD00BFF80B0024E0
:1011B00008B5024802F0B8FB08BD00BF800B002450
:1011C00008B5024802F0B0FB08BD00BF10090024BA
:1011D00008B5024806F074FC08BD00BF980A002458
:1011E00008B5024806F0ACF908BD00BF100A00249B
:1011F00008B5024807F078F808BD00BFE40E0024E7
:1012000008B54FF4806003F06FFA4FF4805003F09C
:101210006BFA08BD08B5024802F086FB08BD00BFA6
:101220009808002408B5024807F05EF808BD00BF22
:10123000780F002408B5024807F056F808BD00BF33
:10124000500E002410B503460C4A0D490D480068A5
:1012500040B10C4800680344521A934206D8094A28
:10126000136010BD0748084C0460F2E70AF016FF4F
:101270000C2303604FF0FF30F3E700BF00000524AC
:1012800000040000E40A0024405F0024224AD2F84F
:10129000883043F47003C2F88830204B1B6803F099
:1012A0000F03062B06D81D4A136823F00F0343F0E3
:1012B000070313601A4B1A6842F001021A600022F9
:1012C0001A611968174A0A401A60144B1B6813F018
:1012D000080F06D0114A136823F00F0343F00703E9
:1012E00013600F4B00229A61DA611A620E4999620B
:1012F0000E49D9620E4919635A639963DA63196416
:101300005A64196821F4802119601A66094B43F266
:10131000D2021A60704700BF00ED00E000200052CA
:10132000004402587FEDF6EA000202020000FF01CD
:10133000800201010040005282B00368114A9342CA
:1013400004D0114A93420FD002B070470F4BD3F82C
:10135000E82042F00202C3F8E820D3F8E83003F0B6
:1013600002030093009BEFE7084BD3F8E82042F01C
:101370004002C3F8E820D3F8E83003F040030193BB
:10138000019BE1E7000400400018004000440258BF
:1013900000B589B000230393049305930693079344
:1013A00003681C4A934205D01B4A934218D009B0E7
:1013B0005DF804FB194BD3F8E02042F00202C3F8B9
:1013C000E020D3F8E03003F002030193019B0223F5
:1013D00003930493079303A9114803F075F8E6E714
:1013E0000E4BD3F8E02042F00202C3F8E020D3F81D
:1013F000E03003F002030293029B4FF40043039397
:10140000022304930693079303A9054803F05CF8AD
:10141000CDE700BF0004004000180040004402581F
:101420000004025800B58BB000230793089309937A
:101430000093019302930393049305930693194831
:10144000194A026017224260836042F20F72C26042
:1014500003618023836106F0B9FCC8B900230793B8
:10146000099307A90F4806F097FEA0B960230093DF
:1014700000230193029304930C226946094806F065
:101480001FFD58B90748FFF783FF0BB05DF804FB59
:10149000FFF7FCFBE2E7FFF7F9FBE7E7FFF7F6FBF7
:1014A000F0E700BF340B00240004004000B58BB00F
:1014B00000230793089309930093019302930393E6
:1014C0000493059306931948194A02601722426053
:1014D000836040F2CF72C2600361836106F076FCE4
:1014E000D8B900230793099307A9104806F054FEC2
:1014F000B0B9602300934FF47A73019300230293F1
:10150000049304226946094806F0DAFC58B90748F2
:10151000FFF73EFF0BB05DF804FBFFF7B7FBE0E71A
:10152000FFF7B4FBE5E7FFF7B1FBF0E7E80A0024BB
:101530000018004008B51748174B03604FF4E1331B
:10154000436000238360C36003610C2242618361B6
:10155000C36103624362836207F01FFD70B900211B
:101560000C4807F095FD60B900210A4807F0B5FD69
:1015700050B9084807F06DFD48B908BDFFF786FB74
:10158000EDE7FFF783FBEFE7FFF780FBF1E7FFF7FE
:101590007DFBF2E7780F00240078004008B517487B
:1015A000174B03604FF46123436000238360C360E3
:1015B00003610C2242618361C361036243628362FF
:1015C00007F0EBFC70B900210C4807F061FD60B931
:1015D00000210A4807F081FD50B9084807F039FD9D
:1015E00048B908BDFFF752FBEDE7FFF74FFBEFE708
:1015F000FFF74CFBF1E7FFF749FBF2E7E40E0024AD
:101600000010014008B51748174B03604FF4E13351
:10161000436000238360C36003610C2242618361E5
:10162000C36103624362836207F0B7FC70B90021B3
:101630000C4807F02DFD60B900210A4807F04DFD68
:1016400050B9084807F005FD48B908BDFFF71EFB73
:10165000EDE7FFF71BFBEFE7FFF718FBF1E7FFF7FD
:1016600015FBF2E7500E0024001C0140F0B5BBB0A2
:101670000446002135913691379138913991B8223D
:1016800006A80AF083FC2368784A934208D0784A77
:10169000934278D0774A934200F004813BB0F0BD8A
:1016A00002220023CDE9062306A803F007FF002845
:1016B00060D1714BD3F8E82042F08042C3F8E820B3
:1016C000D3F8E82002F080420092009AD3F8E0209C
:1016D00042F01002C3F8E020D3F8E03003F010032A
:1016E0000193019B4FF4C073359302233693002579
:1016F000379538950723399335A9604802F0E4FE01
:101700005F48604B03604F2343608560C5604FF4C2
:101710008063036145618561C5614FF440330362B5
:10172000456201F05BFC40BB554BC4F880309C63C4
:101730005548564B03605023436040238360002389
:10174000C3604FF48062026143618361C3614FF4FF
:1017500040320262436201F041FC88B94A4BE367C0
:101760009C6300220521522001F072FA522001F000
:101770007FFA93E7FFF78AFA9BE7FFF787FAD3E749
:10178000FFF784FAEAE701220023CDE9062306A841
:1017900003F094FE002860D1374BD3F8F02042F0DC
:1017A0001002C3F8F020D3F8F02002F010020292E9
:1017B000029AD3F8E02042F00102C3F8E020D3F807
:1017C000E03003F001030393039B4FF4C0633593B0
:1017D000022336930025379538950723399335A989
:1017E0002B4802F071FE2B482B4B036029234360EA
:1017F0008560C5604FF48063036145618561C561A3
:101800004FF440330362456201F0E8FB40BB214BDB
:10181000C4F880309C632148214B03602A23436035
:10182000402383600023C3604FF480620261436100
:101830008361C3614FF440320262436201F0CEFB28
:1018400088B9164BE3679C6300220521252001F02F
:10185000FFF9252001F00CFA20E7FFF717FA9BE7C4
:10186000FFF714FAD3E7FFF711FAEAE70078004030
:1018700000100140001C01400044025800100258B2
:10188000D80D002440000240600D002458000240A2
:1018900000000258E80C002410000240700C0024E4
:1018A0002800024001220023CDE9062306A803F008
:1018B00005FE00286AD13A4BD3F8F02042F08002AE
:1018C000C3F8F020D3F8F02002F080020492049ACA
:1018D000D3F8E02042F01002C3F8E020D3F8E03063
:1018E00003F010030593059B0423359302273697D5
:1018F00000253795389539932A4E35A9304602F0A0
:10190000E3FD082335933697379538950B233993A4
:1019100035A9304602F0D8FD2348244B03607623D6
:1019200043608560C5604FF48063036145618561F4
:10193000C5614FF440330362456201F04FFB40BB89
:10194000194BC4F880309C6319481A4B0360772305
:101950004360402383600023C3604FF480620261D0
:1019600043618361C3614FF440320262436201F01C
:1019700035FB88B90E4BE3679C63002205219C2050
:1019800001F066F99C2001F073F987E6FFF77EF914
:1019900091E7FFF77BF9D3E7FFF778F9EAE700BFB4
:1019A0000044025800100258F80B00247000024056
:1019B000800B002488000240DFF834D0FFF766FC7B
:1019C0000C480D490D4A002302E0D458C45004339A
:1019D000C4188C42F9D30A4A0A4C002301E0136070
:1019E0000432A242FBD30AF05FFBFFF7C3F9704752
:1019F0000000052400000024800500249CC6000887
:101A000080050024405F0024FEE7000010B503209D
:101A100001F00CF903F094F90F498B69C3F3032328
:101A20000E4AD35C03F01F03D8408B6903F00F0309
:101A3000D35C03F01F0320FA03F3094A1360094B38
:101A400018600F20FFF73EFB10B10124204610BDA7
:101A50000446FFF71DFBF9E70044025820C60008C2
:101A60000000002404000024034B1B78034A116883
:101A70000B441360704700BF080000240C100024C2
:101A8000014B1868704700BF0C10002438B504469D
:101A9000FFF7F6FF0546B4F1FF3F02D0044B1B7879
:101AA0001C44FFF7EDFF401BA042FAD338BD00BF36
:101AB0000800002410B400F1600C0D4CA0420CD0C2
:101AC0005CF8210000F0004002F0F84213430343A9
:101AD0004CF821305DF8044B70475CF8210002F0AF
:101AE000F842134343F000434CF82130F2E700BFC3
:101AF0000060025800F1600C094B984207D05CF876
:101B0000213023F000431A434CF8212070475CF841
:101B1000213023F0004313434CF82130704700BFBD
:101B20000060025810B430300B0A9B0003F00C0325
:101B3000C45801F01F014FF01F0C0CFA01FC24EAFD
:101B40000C0CC2F384628A404CEA0202C2505DF877
:101B5000044B704710B414304B0E9B0003F0040389
:101B6000C458C1F304514FF0070C0CFA01FC24EAED
:101B70000C0C8A404CEA0202C2505DF8044B7047DC
:101B8000134B984211D0D0F8C030C1F3130C23EAA4
:101B90000C0C02F018020F4BD3401940C1F3130193
:101BA0004CEA0101C0F8C0107047D0F8B030C1F362
:101BB000130C23EA0C0C02F01802064BD3400B4026
:101BC000C3F313034CEA0303C0F8B030704700BFFF
:101BD00000600258FFFF0F002DE9F04104460E4659
:101BE00003684649464A934218BF8B4233D102F5F7
:101BF0000072976807F01F076569082D0CD0092F40
:101C000031D840F22121F94011F0010F2BD0DB68CF
:101C100013F0010F21D10425FFF732FF804623681E
:101C20001A682A422BD1B6F1FF3FF8D0FFF728FF00
:101C3000A0EB0800B04201D8002EF0D123681B6849
:101C40002B42ECD1236E43F004032366002384F877
:101C50005C3003204DE02B4ACBE7236E43F020039A
:101C60002366012045E0936813F4404F01D1042519
:101C7000D2E7236E43F020032366012039E0226E71
:101C800042F400722266DA6812F4406F11D1627E6B
:101C90007AB91A6812F0080F0BD0226E22F4807203
:101CA0002266226E12F4805F03D1226E42F001029E
:101CB0002266134A934214D01A46934207D0092F42
:101CC00012D840F22121F94011F0010F0CD0DA684E
:101CD000082D0BD012F4804F0DD10C221A60002079
:101CE00007E0A2F58072E8E7D268F1E708221A60FF
:101CF0000020BDE8F0810020FBE700BF002002408B
:101D000000210240006302580368186C704700000D
:101D100070B582B00023019390F85C30012B00F085
:101D2000A88204460D46012380F85C3001688B6868
:101D300013F0040F09D0036E43F020030366012063
:101D4000002384F85C3002B070BD2B68002B0CDBE4
:101D5000A74A914209D0C3F3130272BBC3F3846351
:101D600001229A40CB691343CB612A6869682068D5
:101D7000FFF7D8FE2068836813F0040300D0012326
:101D8000826812F0080200D0012252EA030620D035
:101D90002068836813F0010F40F06782EA682968C1
:101DA000FFF7EEFEEA68934B9A4200F036812B680B
:101DB000002BC0F2E1810020C2E793FAA3F333B114
:101DC000B3FA83F303F01F0301229A40CAE72023EA
:101DD000F8E7AA682968FFF7BDFE2068844B98429F
:101DE00011D0854B1B6803F07043B3F1805F3DD089
:101DF000C36813F0100F40D16B69C268C2F382024E
:101E00005200934005E06B69C268C2F3C102520000
:101E100093402969042938D1754B98427FD0036ECD
:101E200003F0F8432A68B3EB826F00F0E780226882
:101E3000536E03F0F8432968B3EB816F00F0E38041
:101E40002268936E03F0F8432968B3EB816F00F0CA
:101E5000DF802268D36E03F0F8432968B3EB816F0B
:101E600096D1D36E23F00043D36691E76B69C268C5
:101E7000C2F3820252009340CBE76B69C2689208BA
:101E800002F0040252009340C3E72A68FFF712FEF3
:101E90002368574A93421CD0286995F82120012ACB
:101EA00037D03146603353F8202022F000420A43F5
:101EB00043F8202021682A692B7E012B2CD00B6946
:101EC00023F4F04302F01F0206FA02F213430B61FF
:101ED0005EE72869EA69603353F8201021F08071C9
:101EE0000A4343F820202368296995F82020012A15
:101EF0000CD03F4A93427FF44BAF603353F821201C
:101F000022F00072324343F8212041E74FF000767F
:101F1000EFE74FF00041C5E74FF40066CFE7036EEF
:101F2000026EC2F384622B68C3F3130181BBC3F357
:101F300084639A4234D02068436E426EC2F3846256
:101F40002B68C3F3130181BBC3F384639A4234D07B
:101F50002068836E826EC2F384622B68C3F3130120
:101F600081BBC3F384639A4234D02068C36EC26ECF
:101F7000C2F384622B68C3F3130181BBC3F3846390
:101F80009A427FF405AF00220321FFF7B3FDFFE67D
:101F900093FAA3F313B1B3FA83F3CAE72023C8E794
:101FA00000221146FFF7A6FDC5E793FAA3F313B18C
:101FB000B3FA83F3CAE72023C8E700220121FFF721
:101FC00099FDC5E793FAA3F313B1B3FA83F3CAE714
:101FD0002023C8E700220221FFF78CFDC5E793FA12
:101FE000A3F313B1B3FA83F3CAE72023C8E700BF12
:101FF000006002580000FF470010005C036E23F0F1
:102000000043036613E7536E23F00043536617E75C
:10201000936E23F0004393661BE720682B68C3F39D
:1020200013063EBB9A0E013202F01F02092A8CBF32
:1020300000220122002A55D05EBB990E013189068B
:1020400001F0F8418EBB4FEA936C0CF1010C0CF0DF
:102050001F0C012202FA0CF21143AEBB9B0E01339E
:1020600003F01F0303EB43031B051943AA68FFF7A3
:1020700071FD9CE693FAA3F24AB1B2FA82F2013200
:1020800002F01F02092A8CBF00220122D2E720227F
:10209000F5E793FAA3F131B1B1FA81F10131890683
:1020A00001F0F841CEE72021F8E793FAA3F24AB114
:1020B000B2FA82F2013202F01F024FF0010C0CFA68
:1020C00002F2C9E72022F5E793FAA3F343B1B3FA8A
:1020D00083F3013303F01F0303EB43031B05C4E742
:1020E0002023F6E7E6B9990E0131890601F0F8419F
:1020F00016BB4FEA936C0CF1010C0CF01F0C012283
:1021000002FA0CF2114336BB9B0E013303F01F039E
:1021100003EB43031E3B1B0543F000731943A5E784
:1021200093FAA3F131B1B1FA81F10131890601F0DD
:10213000F841DDE72021F8E793FAA3F24AB1B2FAB9
:1021400082F2013202F01F024FF0010C0CFA02F28F
:10215000D8E72022F5E793FAA3F35BB1B3FA83F350
:10216000013303F01F0303EB43031E3B1B0543F046
:102170000073D3E72023F3E722683F493F488242B8
:1021800018BF8A420CBF0121002118D13C4EB5680E
:1021900005F0E07CA9B13849886810F0010000D052
:1021A00001203649896811F0010100D00121014365
:1021B0000CD0236E43F0200323660120C0E5314E8E
:1021C000E5E73149896811F0010FF2D12F498B42BF
:1021D00007D02F498B4226D02E498B4234D0002085
:1021E000AEE515F4000FF4D1274B9A4201D0002040
:1021F000A6E54CF40003B26822F0E0721343B3602A
:10220000254B1B689B09254AA2FB03239B0901332D
:102210005B00019302E0019B013B0193019B002BBA
:10222000F9D100208CE515F0807FD5D1164B9A426C
:1022300001D0002084E54CF08073B26822F0E07297
:102240001343B36000207BE515F4800F0FD10E4BD4
:102250009A4201D0002073E54CF48003B26822F06A
:10226000E0721343B36000206AE5002068E50020B7
:1022700066E5022067E500BF002002400021024021
:10228000002302400063025800600258000052C759
:10229000000021C3000084CB04000024632D3E0510
:1022A00070B504460068826812F0040200D0012272
:1022B000836813F0080300D00123134369D0C36877
:1022C00013F0007F04D0228B40F201139A424AD0CF
:1022D000022910D023689A6812F0040F09D09A6876
:1022E00012F0020F05D198682B4A024042F010020A
:1022F0009A60012945D023689A6812F0080F09D026
:102300009A6812F0020F05D19868234A024042F001
:1023100020029A60022936D0032936D10C25FFF716
:10232000AFFB064623689B682B4230D0FFF7A8FB23
:10233000831B052BF6D923689B682B42F2D0236EB2
:1023400043F010032366636E43F0010363660120CC
:1023500020E0236E43F010032366636E43F0010315
:102360006366012016E00023026812F0400F04D1DA
:102370000A4A9342EDD80133F6E740230360012176
:10238000A8E70425CBE70825C9E70425C7E700200F
:1023900000E0002070BD00BFC0FFFF7FFFDB0C002E
:1023A00038B503689A6812F0010F56D1044699684F
:1023B0002B4A114209D0036E43F010030366436EAB
:1023C00043F001034366012048E09968254A0A402A
:1023D00042F001029A60FFF753FB05462368224949
:1023E000224A934218BF8B420DD102F500729268C7
:1023F00002F01F021D498B4207D01946994207D0AF
:1024000032B100202AE01A4AF1E7A1F58071F5E720
:1024100023681A6812F0010F1DD19A6812F0010F9B
:1024200005D199680F4A0A4042F001029A60FFF70D
:1024300027FB401B0228EBD923681B6813F0010F10
:10244000E6D1236E43F010032366636E43F001036D
:102450006366012002E0002000E0002038BD00BFDC
:102460003F000080C0FFFF7F0020024000210240AB
:102470000063025838B5044603683E493E4A934219
:1024800018BF8B4254D102F50072956805F01F0504
:102490009B6813F0040F69D194F85C30012B67D06E
:1024A000012384F85C302046FFF77AFF002859D1D9
:1024B000226EA0F60273134043F4807323662368F0
:1024C0002D4A934236D01A46934200D01DB9226E4F
:1024D00022F480122266226E12F4805F2DD0626E8A
:1024E00022F0060262661C221A60002384F85C3027
:1024F0002368214A934223D01A46934207D0092DDC
:1025000021D840F22121E94011F0010F1BD0DA68F7
:1025100012F0007F05D0226E22F4405242F4805225
:1025200022669968154A0A4042F004029A601EE049
:10253000134AAAE7A2F58072C6E700226266D2E7D4
:10254000A2F58072D9E7236E43F480132366D36823
:1025500013F0007F0BD0236E23F4405343F48053D9
:10256000236604E0002384F85C3000E0022038BDDC
:102570000220FCE70020024000210240C0FFFF7F54
:102580000063025838B504460268936813F00203EA
:1025900000D00123916811F0010F37D0002B37D103
:1025A000936803F00D03012B09D0236E43F0100351
:1025B0002366636E43F001036366012027E09168A0
:1025C000144B0B4043F002039360236803221A600C
:1025D000FFF756FA054623689B6813F0010F13D0E6
:1025E000FFF74EFA401B0228F5D923689B6813F0C9
:1025F000010FF0D0236E43F010032366636E43F0A7
:1026000001036366012002E0002000E0002038BDE5
:102610000020FCE7C0FFFF7F90F85C30012B18D052
:1026200010B50446012380F85C300321FFF738FE23
:1026300018B1002384F85C3010BD2046FFF7A2FFDC
:102640000028F6D1226E044B134043F001032366A9
:10265000EFE70220704700BFFEEEFFFF10B5044613
:1026600003684349434A934218BF8B421FD1424BF0
:102670009B6813F4403F14BF012300230BB302F007
:10268000A5FD6368B3F5003F05D0B3F5403F16D014
:10269000B3F5803F02D11B0CB0FBF3F0374B9842EF
:1026A00049D82268936823F44073936010BD344B7B
:1026B0009B6813F4403F14BF01230023DEE780082A
:1026C000ECE74FF40020002103F020FF6368B3F52E
:1026D000101F2CD021D8B3F5E01F26D004D9B3F5B4
:1026E000001FDBD14009D9E7B3F5801F10D009D80E
:1026F000B3F5002F0CD0B3F5402F09D0B3F5802FE0
:1027000006D0CBE7B3F5A01F02D0B3F5C01FC5D1EB
:102710009B0C5B00B0FBF3F0C0E7B3F5201F08D0C3
:10272000B3F5301FBAD1000AB8E70009B6E780094F
:10273000B4E7C009B2E7134B984207D82268936800
:1027400023F4407343F480739360AFE70E4B9842D9
:1027500007D82268936823F4407343F400739360AE
:10276000A4E72268936843F4407393609EE700BF38
:1027700000200240002102400023024021BCBE0094
:102780000063025841787D0181F0FA0230B583B0D0
:1027900000230193002800F043810446036EEBB14F
:1027A00023689A6812F0005F03D099689D4A0A4036
:1027B0009A6023689A6812F0805F1CD199689A4ADF
:1027C0000A4042F080529A60984B1B689B09984AD5
:1027D000A2FB03239B090133019309E0FDF71CFFD2
:1027E0000023636684F85C30DAE7019B013B0193C8
:1027F000019B002BF9D123689A6812F0805F40F0AA
:102800009F80226E42F010022266626E42F0010248
:10281000626601259A6812F0040200D00122216E3E
:1028200011F0100F40F0F480002A40F0F180216E8A
:1028300021F4817141F002012166996811F0010FC4
:102840001ED17C487C498B4218BF83420CBF0123B8
:10285000002377D1806810F0010000D00120764974
:10286000896811F0010100D00121014308D1002B3A
:102870006ED072486368816821F47C110B438360D9
:1028800021686F4B994265D0627EE36B43EA423325
:10289000A268134394F8202043EA024394F82020CE
:1028A000012A6FD0A26A22B102F47872E06A024370
:1028B0001343634A91426AD0C868624A02401A438D
:1028C000CA6021688A6812F0040200D001228B6875
:1028D00013F0080300D00123134322D1584B99422F
:1028E00062D0237E226B42EA8332C868564B034093
:1028F0001343CB6094F84430012B5CD022681369F9
:1029000023F0010313612268136923F07043216CE3
:102910000B43136122684A4B9A4202D02046FFF7CC
:102920009DFE2369012B6AD02268136B23F00F03ED
:102930001363236E23F0030343F0010323666CE06B
:10294000002567E73E49896811F0010F98D18EE7AD
:102950003E488FE7607EE36B43EA4033E068034321
:10296000A068182804D01C2808D00C2808D10820FA
:10297000034394F8202043EA02438FE71020F7E74F
:102980001046F5E7626A013A43EA42438AE7C868BB
:102990002F4A02401A43CA602268136923F0406339
:1029A000616B0B4313618CE7237E94F8382052004F
:1029B00042EA833299E72168214B994210D00A6993
:1029C000244B1340A26C501EE26C42EA0042206D80
:1029D0000243606D0243134343F001030B6192E72E
:1029E0000A691D4B1340A26CE06C0243206D024348
:1029F000606D0243134343F001030B6183E72168D9
:102A00000B6B23F00F03E269013A13430B6390E76A
:102A1000236E43F0100323660125284603B030BD22
:102A20000125FAE7C0FFFF5FC0FFFF6F040000242D
:102A3000632D3E0500200240002102400023024099
:102A40000060025803C0F0FFFCBFFFFF00630258A4
:102A50000740F0FF1EF800FC1FF800FC90F85C2017
:102A6000012A00F0968030B49CB00346012280F821
:102A70005C200022189219920068474A904236D092
:102A800000220092009A002A35D0926812F00402C7
:102A900000D00122846814F0040F6BD1002A69D1A0
:102AA0003D4C3E4A904218BFA0422DD102F5007223
:102AB0000868002839D0906820F440404C682043D2
:102AC00090601868344D354CA04218BFA8421DD103
:102AD000AC6814F0010400D001243048806810F084
:102AE000010000D00120204315D0002047E002F56E
:102AF00080720092C6E71A6E42F020021A66002227
:102B000083F85C2001203DE0254AD1E72548806814
:102B100010F0010F39D19468234820400C6889686F
:102B2000214308439060002029E0916821F440414E
:102B300091601968184C1948814218BFA1420ED102
:102B4000A06810F0010000D001201449896811F03C
:102B5000010100D00121014306D000200FE01149FE
:102B6000896811F0010F12D190680F4901409160FE
:102B7000002004E01A6E42F020021A6601200022B2
:102B800083F85C201CB030BC70470020F7E70020C1
:102B9000F5E70220704700BF0020024000210240FC
:102BA0000063025800600258E0F0FFFF002807DBD6
:102BB00000F01F02400901239340024A42F82030EE
:102BC000704700BF00E100E0002804DB0901C9B242
:102BD000044B1954704700F00F000901C9B2024BB1
:102BE0001954704700E400E014ED00E000B500F077
:102BF0000700C0F1070CBCF1040F28BF4FF0040C14
:102C0000031D062B0FD9C31E4FF0FF3E0EFA0CF02A
:102C100021EA000199400EFA03FE22EA0E0241EA7F
:102C200002005DF804FB0023EEE700000649CB68D4
:102C300023F4E0631B041B0C000200F4E060034378
:102C4000024A1A43CA60704700ED00E00000FA052E
:102C500010B50446054BD868C0F30220FFF7C6FF45
:102C600001462046FFF7B0FF10BD00BF00ED00E0B9
:102C700008B5FFF79BFF08BD002838D010B5044603
:102C8000437F1BB30223637723791BBB2368194A55
:102C90005A612268936823F018039360637913BB29
:102CA00023684FF0FF321A612268936823F06003B3
:102CB00061690B4393602268936823F08003A169E4
:102CC0000B43936001236377002010BD0377FDF76A
:102CD00019FDD7E7E268A168204600F00DF800284A
:102CE000DCD00120F1E7236822691A61DCE70120CA
:102CF000704700BFB71DC10411F0010F30D010B4F0
:102D00001F231C46013B34B103F01F0C21FA0CFCBD
:102D10001CF0010FF5D0182A24D8DFE802F00F23A9
:102D20002323232323231D23232323232323192383
:102D30002323232323230D00062B17D8036859616F
:102D400001688B6823F0180313438B6000200AE0AE
:102D5000072BF3D9012006E00F2BEFD9012002E069
:102D60000120704701205DF8044B70470120FAE70D
:102D700003682749274A934218BF8B422FD0183245
:102D800093422CD01832934229D01832934226D045
:102D90001832934223D01832934220D018329342F3
:102DA0001DD002F55672934219D01832934216D0B4
:102DB0001832934213D01832934210D018329342F3
:102DC0000DD0183293420AD01832934207D01832ED
:102DD000934204D023F0FF038365806D704710B4E5
:102DE000D9B210390C4AA2FB0142C2F302120B4CB9
:102DF000A25CC2655F2907D96FF3090304338365B9
:102E0000806D5DF8044B70476FF309038365F7E746
:102E10001000024028000240ABAAAAAA30C600084F
:102E200083699BB9836A012B0AD0022B02D00BB1B4
:102E300000207047C36A13F0807F2AD100207047BA
:102E4000C36AB3F1C07F26D000207047B3F5005F9E
:102E50000AD0836A022B26D9032B26D1C36A13F02A
:102E6000807F24D100207047836A032B03D8DFE8DA
:102E700003F01404140A00207047C36A13F0807F23
:102E80000DD100207047C36AB3F1C07F09D0002084
:102E900070470120704701207047012070470120D2
:102EA00070470120704701207047002070470120C3
:102EB0007047000003682149214A934218BF8B42A2
:102EC00027D01432934224D01432934221D01432AA
:102ED00093421ED0143293421BD01432934218D026
:102EE0001432934215D0DAB2103A1649A1FB0212FD
:102EF000120915491944A8291ED9144B13449B00E3
:102F00000366134B436602F01F020123934083665E
:102F10007047DBB2083B0F4AA2FB03230E4A02EBC9
:102F20001312920002660D4A4266C3F30413012293
:102F300002FA03F3836670470832DEE7085402584A
:102F40001C540258ABAAAAAAF0FBFDBF00820010D5
:102F500080080240CDCCCCCC009600168058025898
:102F600001794A1E072A2BD830B40368154D164C38
:102F7000A34218BFAB4218D01434A34215D0143466
:102F8000A34212D01434A3420FD01434A3420CD065
:102F90001434A34209D01434A34206D00B4B0B4483
:102FA0009B00C3660A4B036705E00A4B0B449B007A
:102FB000C366094B036701239340436730BC7047E6
:102FC000704700BF085402581C5402583F8200103A
:102FD000400902403F9600164059025870B5044619
:102FE000FEF74EFD002C00F0B781054623685349DB
:102FF000534A934218BF8B420CBF0121002150D08D
:10300000183293424DD0183293424AD0183293422C
:1030100047D01832934244D01832934241D01832EC
:1030200093423ED002F5567293423AD01832934200
:1030300037D01832934234D01832934231D01832FC
:1030400093422ED0183293422BD01832934228D07C
:103050001832934225D03B493B4A934218BF8B42DA
:1030600000F03281394A934200F02E8114329342AB
:1030700000F02A811432934200F0268114329342E8
:1030800000F022811432934200F01E8114329342E8
:1030900000F01A8140236365032384F83530012052
:1030A0004AE0022284F83520002284F8342079BBDB
:1030B000274A93422CD01832934229D01832934297
:1030C00026D01832934223D01832934220D018329F
:1030D00093421DD002F55672934219D01832934292
:1030E00016D01832934213D01832934210D01832AF
:1030F00093420DD0183293420AD01832934207D02F
:103100001832934204D01A6822F001021A6003E0D8
:103110001A6822F001021A6023681A6812F0010F7F
:1031200018D0FEF7ADFC431B052BF5D920236365B2
:10313000032384F83530012070BD00BF1000024029
:1031400028000240085402581C54025830540258B7
:10315000400002401A6881491140A268E0680243B9
:103160002069024360690243A0690243E0690243A7
:10317000206A02430A43616A042900F09080616872
:10318000522900F296803F29C0F08E803F39744862
:1031900020FA01F111F0010F01D042F480121A60FF
:1031A0002668756925F00705636A1D43042B08D15D
:1031B000A36A1D43E36A23B12046FFF731FE0028CE
:1031C0007CD175612046FFF7D3FDE36D03F01F024C
:1031D0003F239340836023686249634A934218BF48
:1031E0008B4242D0183293423FD0183293423CD0A7
:1031F0001832934239D01832934236D01832934263
:1032000033D01832934230D002F5567293422CD00C
:103210001832934229D01832934226D01832934262
:1032200023D01832934220D0183293421DD0183246
:1032300093421AD01832934217D04C4A934214D07A
:103240001432934211D0143293420ED0143293426E
:103250000BD01432934208D01432934205D014326A
:10326000934202D01432934213D12046FFF722FE3C
:10327000A368802B63D0236E22791A60636EA26EDE
:103280005A606368013B072B5CD90023E366236720
:10329000636700206065012384F835304CE7E16AFC
:1032A000206B01430A436AE7293905293FF677AFC6
:1032B00073E7743903293FF672AF6EE74023636505
:1032C000012084F8350037E7022284F835200022F7
:1032D00084F8342019686FF31011A268402A2CD0AA
:1032E000802A27D00022E06842EAD002206942EA20
:1032F000D002606942EAD002A06942EAD002E069E5
:1033000042EAD002206A42EA10120A431A60226896
:10331000174B1344174AA2FB03231B099B00E365C9
:103320002046FFF725FDE26D02F01F0101228A40D1
:10333000426050E74FF48042D5E71022D3E70023E4
:10334000636098E72046FFF70BFEE36E00221A60E9
:10335000236F626F5A609CE70120EDE63F8010FE0C
:103360000F030F00100002402800024008540258CA
:10337000F8ABFDA7CDCCCCCC70B50446FEF780FBF6
:10338000002C00F09181054694F83530DBB2022B19
:1033900006D080236365002384F83430012070BD9B
:1033A00023688C498C4A934218BF8B4230D0183224
:1033B00093422DD0183293422AD01832934227D00C
:1033C0001832934224D01832934221D018329342BB
:1033D0001ED002F5567293421AD01832934217D07B
:1033E0001832934214D01832934211D018329342BB
:1033F0000ED0183293420BD01832934208D01832B4
:10340000934205D01A6822F00E021A60266809E07D
:103410001A6822F01E021A602268536923F08003A2
:103420005361266823686B496B4A934218BF8B42ED
:1034300042D0183293423FD0183293423CD01832D7
:10344000934239D01832934236D01832934233D057
:103450001832934230D002F5567293422CD0183273
:10346000934229D01832934226D01832934223D067
:103470001832934220D0183293421DD01832934212
:103480001AD01832934217D0544A934214D01432AF
:10349000934211D0143293420ED0143293420BD087
:1034A0001432934208D01432934205D0143293421E
:1034B00002D01432934204D1226E136823F4807335
:1034C000136023684349444A934218BF8B422FD06C
:1034D000183293422CD01832934229D0183293429A
:1034E00026D01832934223D01832934220D018327B
:1034F00093421DD002F55672934219D0183293426E
:1035000016D01832934213D01832934210D018328A
:1035100093420DD0183293420AD01832934207D00A
:103520001832934204D01A6822F001021A6003E0B4
:103530001A6822F001021A60336813F0010F0ED0EE
:10354000FEF79EFA431B052BF6D920236365032360
:1035500084F83530002384F8343001201FE72368D5
:103560001C491D4A934218BF8B4239D018329342EE
:1035700036D01832934233D01832934230D01832BA
:1035800093422DD0183293422AD01832934227D03A
:1035900002F55672934223D01832934220D018324B
:1035A00093421DD0183293421AD01832934217D04A
:1035B0001832934214D01832934211D018329342E9
:1035C0000ED0A16DE36D03F01F02012393404B6009
:1035D0000DE000BF100002402800024008540258CD
:1035E000A16DE36D03F01F023F2393408B602368BE
:1035F0002E492F4A934218BF8B4242D01832934231
:103600003FD0183293423CD01832934239D018320E
:10361000934236D01832934233D01832934230D08E
:1036200002F5567293422CD01832934229D01832A8
:10363000934226D01832934223D01832934220D09E
:10364000183293421DD0183293421AD01832934246
:1036500017D0184A934214D01432934211D0143226
:1036600093420ED0143293420BD01432934208D0BE
:103670001432934205D01432934202D01432934252
:103680000BD1636EA26E5A60E36E33B11A6822F4F6
:1036900080721A60236F626F5A60012384F835309C
:1036A000002084F834007AE6012078E61000024019
:1036B0002800024008540258002800F0288108B56C
:1036C000024690F83530DBB2022B03D080234365ED
:1036D000012008BD0368904890498B4218BF83427F
:1036E0000CBF0120002065D018318B4262D0183108
:1036F0008B425FD018318B425CD018318B4259D04D
:1037000018318B4256D018318B4253D001F5567187
:103710008B424FD018318B424CD018318B4249D05C
:1037200018318B4246D018318B4243D018318B422E
:1037300040D018318B423DD018318B423AD01968B5
:1037400021F00E0119601368734874498B4218BF49
:1037500083426AD072498B4267D018318B4264D061
:1037600018318B4261D018318B425ED018318B42B8
:103770005BD018318B4258D001F556718B4254D032
:1037800018318B4251D018318B424ED018318B42B8
:103790004BD018318B4248D018318B4245D018316C
:1037A0008B4242D018318B423FD0196821F0010181
:1037B00019603EE0042182F8351080BB584A9342DC
:1037C0002DD0183293422AD01832934227D0183283
:1037D000934224D01832934221D0183293421ED003
:1037E00002F5567293421AD01832934217D018320B
:1037F000934214D01832934211D0183293420ED013
:10380000183293420BD01832934208D018329342A8
:1038100005D01A6822F001021A60002059E71A68E0
:1038200022F001021A60002053E7196821F001011B
:1038300019601368384839498B4218BF834242D017
:1038400018318B423FD018318B423CD018318B421B
:1038500039D018318B4236D018318B4233D01831E1
:103860008B4230D001F556718B422CD018318B42EF
:1038700029D018318B4226D018318B4223D01831F1
:103880008B4220D018318B421DD018318B421AD078
:1038900018318B4217D023498B4214D014318B42FC
:1038A00011D014318B420ED014318B420BD0143115
:1038B0008B4208D014318B4205D014318B4202D098
:1038C00014318B4217D1116E0B6823F480730B6097
:1038D000906DD36D03F01F0101238B404360536E45
:1038E000916E5960D36E33B1196821F480711960FB
:1038F000136F516F5960012382F83530002382F82D
:103900003430136D2BB1104698470020E1E60120BA
:1039100070470020DDE600BF100002402800024092
:103920004000024008540258F0B583B0044600231A
:1039300001937D4B1D687D4BA3FB0535AD0A876D5B
:103940003E68D7F800C0036879497A48834218BFB7
:103950008B420CBF0120002061D0774A93425ED099
:10396000183293425BD01832934258D018329342A7
:1039700055D01832934252D0183293424FD002F5AC
:10398000567293424BD01832934248D01832934229
:1039900045D01832934242D0183293423FD0183269
:1039A00093423CD01832934239D01832934236D0E9
:1039B0006249634A934218BF8B4212D0614A9342D4
:1039C0000FD0143293420CD01432934209D01432E7
:1039D000934206D01432934203D01432934240F003
:1039E00061821A68E16D01F01F010420884010EA2D
:1039F0000C0F00F0A78212F0040F00F0A382786091
:103A000012F4004F00F05A8212F4803F40F05082CE
:103A1000A36C002B00F046822046984742E2E26DFC
:103A200002F01F0108228A40324241D070BB424A54
:103A300093422BD01832934228D01832934225D08B
:103A40001832934222D0183293421FD01832934238
:103A50001CD002F55672934218D01832934215D0FA
:103A60001832934212D0183293420FD01832934238
:103A70000CD01832934209D01832934206D0183233
:103A8000934203D01A68C2F3C00202E01A68C2F37C
:103A900080026AB11A6822F004021A60E36D03F032
:103AA0001F0208239340BB60636D43F0010363650D
:103AB000E26D02F01F0226FA02F313F0010F47D065
:103AC00023681B481B498B4218BF83423CD01831E6
:103AD0008B4239D018318B4236D018318B4233D0DB
:103AE00018318B4230D018318B422DD018318B4297
:103AF0002AD001F556718B4226D018318B4223D043
:103B000018318B4220D018318B421DD018318B4296
:103B10001AD018318B4217D018318B4214D018317B
:103B20008B4211D01B6813E004000024B5814E1BAA
:103B30001000024028000240400002400854025891
:103B40001C540258305402585B6913F0800F3BD16B
:103B5000E36D03F01F03042202FA03F333423FD064
:103B60002268964896498A4218BF824234D018315A
:103B70008A4231D018318A422ED018318A422BD055
:103B800018318A4228D018318A4225D018318A4209
:103B900022D001F556718A421ED018318A421BD0BC
:103BA00018318A4218D018318A4215D018318A4209
:103BB00012D018318A420FD018318A420CD01831F5
:103BC0008A4209D013680BE001239340BB60636D08
:103BD00043F002036365BBE7126812F0020F3DD1A8
:103BE000E36D03F01F03102202FA03F333425FD0A8
:103BF0002268724872498A4218BF824234D0183112
:103C00008A4231D018318A422ED018318A422BD0C4
:103C100018318A4228D018318A4225D018318A4278
:103C200022D001F556718A421ED018318A421BD02B
:103C300018318A4218D018318A4215D018318A4278
:103C400012D018318A420FD018318A420CD0183164
:103C50008A4209D01268C2F3800208E0BB60636D3B
:103C600043F004036365BBE71268C2F3C002FAB114
:103C7000BB6023681A6812F4802F0DD01B6813F400
:103C8000002F04D1236C9BB12046984710E0A36C11
:103C900073B1204698470BE01A6812F4807F03D175
:103CA0001A6822F008021A60236C0BB1204698476C
:103CB000E36D03F01F03202202FA03F3334200F006
:103CC000938022683D483E498A4218BF82422ED0E6
:103CD00018318A422BD018318A4228D018318A42B2
:103CE00025D018318A4222D018318A421FD018318B
:103CF0008A421CD001F556718A4218D018318A4286
:103D000015D018318A4212D018318A420FD018319A
:103D10008A420CD018318A4209D018318A4206D022
:103D200018318A4203D01268C2F3400202E01268DE
:103D3000C2F30012002A57D0BB6094F83530DBB2D2
:103D4000042B0ED023681A6812F4802F3AD01B6817
:103D500013F4002F2DD1636C002B45D020469847DB
:103D600042E02268136823F0160313602268536947
:103D700023F080035361236CBBB12268136823F0E6
:103D800008031360E36D03F01F023F239340BB6001
:103D9000012384F83530002384F83430236D002B60
:103DA00000F08080204698477CE0A36C002BE4D193
:103DB000E8E7E36BC3B12046984715E010000240E6
:103DC000280002401A6812F4807F09D11A6822F094
:103DD00010021A60012384F83530002384F834304F
:103DE000E36B0BB120469847636D002B5AD0636D8F
:103DF00013F0010F52D0042384F83530236896491C
:103E0000964A934218BF8B422FD0183293422CD03F
:103E10001832934229D01832934226D01832934256
:103E200023D01832934220D0183293421DD002F58D
:103E30005672934219D01832934216D018329342D8
:103E400013D01832934210D0183293420DD018324A
:103E500093420AD01832934207D01832934204D0CA
:103E60001A6822F001021A6003E01A6822F00102C7
:103E70001A60019B01330193AB4204D823681B688D
:103E800013F0010FF5D123681B6813F0010F0BD05D
:103E9000032384F83530002384F83430E36C0BB10D
:103EA0002046984703B0F0BD012384F83530F2E78F
:103EB000236C002BF6D020469847F3E712F0200F32
:103EC0003AD123686449654A934218BF8B422FD088
:103ED000183293422CD01832934229D01832934290
:103EE00026D01832934223D01832934220D0183271
:103EF00093421DD002F55672934219D01832934264
:103F000016D01832934213D01832934210D0183280
:103F100093420DD0183293420AD01832934207D000
:103F20001832934204D01A6822F004021A6003E0A7
:103F30001A6822F008021A60236C002BB2D02046C7
:103F40009847AFE70220884010EA0C0F60D012F0CB
:103F5000020F5DD0786012F4004F0ED012F4803F53
:103F600005D1636C002B9DD0204698479AE7E36B00
:103F7000002B97D02046984794E712F0200F40D1AD
:103F800023683549354A934218BF8B422FD01832E7
:103F900093422CD01832934229D01832934226D023
:103FA0001832934223D01832934220D018329342D1
:103FB0001DD002F55672934219D01832934216D092
:103FC0001832934213D01832934210D018329342D1
:103FD0000DD0183293420AD01832934207D01832CB
:103FE000934204D01A6822F00A021A6003E01A68A9
:103FF00022F014021A60012384F83530002384F87B
:104000003430E36B002B3FF44DAF2046984749E72F
:10401000082000FA01F111EA0C0F3FF443AF12F04F
:10402000080F3FF43FAF1A6822F00E021A60E36DEA
:1040300003F01F03012202FA03F37B60626584F838
:104040003520002384F83430E36C002B3FF42AAF92
:104050002046984726E700BF100002402800024093
:1040600030B4416B0468D4F884306F4A134043EA9B
:104070008103C4F884300468D4F8843023F47F03C7
:10408000856B43EA0543C4F88430836B0B440468B2
:10409000D4F88810114041EA8301C4F888100468FC
:1040A000D4F8881021F4FE01C56B41EA0541C4F83B
:1040B0008810C16B03EB41030468D4F8A0101140D1
:1040C00041EA8301C4F8A0100468D4F8A01021F4D8
:1040D000FE01056C41EA0541C4F8A010016C446C76
:1040E00004FB01330468D4F8B010114041EA8301A5
:1040F000C4F8B0100468D4F8B01021F4FE01856C47
:1041000041EA0541C4F8B010816CC46C04FB013372
:104110000468D4F8AC10114041EA8301C4F8AC1033
:10412000016D446D04FB01330468D4F8F0101140B4
:1041300041EA8301C4F8F0100468D4F8F01021F4C7
:104140007C11856D41EA0541C4F8F010816D03EBE7
:1041500041030468D4F8C0100A4042EA8303C4F85B
:10416000C0300268D2F8C03023F47C13C16D43EA3A
:104170000143C2F8C0300268D2F8C03023F07C534B
:10418000016E43EA0163C2F8C030436B274A1A4408
:104190009200C266836B02EB83030367C16B03EB80
:1041A000C1034367016C446C04FB01F103EB810321
:1041B0008367816CC46C04FB01F103EB8103C3676B
:1041C000016D446D04FB01F103EB8103C0F8803005
:1041D000816D03EBC103C0F88430816EC46D01FBB7
:1041E00004FC03EB8C03C0F88830046E04FB01F17F
:1041F00003EB8103C0F890300D498B420DD9D0F804
:104200009C3043F02003C0F89C30032380F89830A2
:10421000012007E0002342F8043BD0F8903093429D
:10422000F8D8002030BC70470300FFFF002B0010BF
:10423000FCD3004030B595B004464C22A04901A8FB
:10424000FCF760F8002C00F0388123689D4A934207
:1042500020D094F898300BB32268936923F01003B0
:104260009361FDF70DFC054623689A6912F0080F6B
:104270001AD0FDF705FC431B0A2BF5D9D4F89C3066
:1042800043F00103C4F89C30032384F898300120E4
:1042900015B030BD03F580736360DAE784F89930B8
:1042A0002046FCF731FBD7E79A6942F001029A6198
:1042B000FDF7E6FB054623689A6912F0010F0FD15E
:1042C000FDF7DEFB401B0A28F5D9D4F89C3043F0FB
:1042D0000103C4F89C30032384F898300120D7E709
:1042E0009A6942F002029A61237C012B40D0226835
:1042F000936943F040039361637C012B3ED02268B5
:10430000936923F480439361A37C012B3CD0226802
:10431000936943F4805393612268936923F4407353
:10432000A1680B4393612268936923F0A40393610E
:104330002268136923F010031361E368012B29D06D
:10434000002B2CD0022B00F09B802268936943F055
:10435000800393612268136943F010031361E368DB
:10436000032B1CD12268936943F02003936116E06C
:104370002268936923F040039361BDE72268936943
:1043800043F480439361BFE72268936923F4805329
:104390009361C1E72268936943F004039361A369C1
:1043A0005A1EE369013B1B0243EA4263226A013A57
:1043B00013436269013A216843EA0243CB61A3686F
:1043C000B3F5407F62D0236E33B12268D2F8C0309B
:1043D000616E0B43C2F8C030E36D226ED3420DD044
:1043E0002168D1F8C83023F00703A26E14A800EBAF
:1043F000820252F84C2C1343C1F8C830236C6BB1C5
:104400002168D1F8BC3023F00703626C14A800EBDC
:10441000820252F84C2C1343C1F8BC30A36C73B128
:104420002168D1F8BC3023F07003E26C14A800EBD3
:10443000820252F84C2C43EA0213C1F8BC30236DBF
:1044400073B12168D1F8BC3023F4E063626D14A825
:1044500000EB820252F84C2C43EA0223C1F8BC3034
:104460002268184B9A4222D00023C4F89430C4F832
:104470009C30012384F898302046FFF7F1FD07E7D0
:104480002268936943F02003936188E7A36A013BA4
:10449000E26A013A43EA0223226B013A43EA021339
:1044A000626A013A216843EA0243CB608BE76268A3
:1044B000936823F003039360D6E70120E8E600BF8A
:1044C000E8C4000800A00040F0B583B000236BE012
:1044D00085685E000324B44025EA0405CC68B44036
:1044E0002C438460456825EA0C054C68C4F300142D
:1044F0009C402C43446069E0DD08083550F82540B5
:1045000003F0070C4FEA8C0C4FF00F0E0EFA0CFE66
:1045100024EA0E0E0C6904FA0CF444EA0E0440F886
:1045200025406BE0092400E0002404FA0EF42C433B
:104530000CF1020C664D45F82C404FF0B044256854
:10454000D44325EA02064F6817F4801F01D042EADF
:1045500005064FF0B0452E606D6804EA05064F6809
:1045600017F4001F01D042EA05064FF0B0456E6017
:10457000D5F8845004EA05064F6817F4003F01D0CF
:1045800042EA05064FF0B045C5F88460D5F8805082
:104590002C404E6816F4803F01D042EA05044FF0EB
:1045A000B042C2F8804001330A6832FA03F400F0E6
:1045B0008C804FF0010C0CFA03FC1CEA0202F2D0D2
:1045C0004C6804F00304013C012C81D94C6804F0D0
:1045D0000304032C0CD0C4685D004FF0030C0CFAEC
:1045E00005FC24EA0C0C8C68AC4044EA0C04C46062
:1045F0004C6804F00304022C3FF47EAF04684FEAD9
:10460000430E4FF0030C0CFA0EFC24EA0C0C4C6821
:1046100004F0030404FA0EF444EA0C0404604C6849
:1046200014F4403FBFD02B4CD4F8F45045F00205B1
:10463000C4F8F450D4F8F44004F002040194019C4E
:104640004FEA930C0CF10205214C54F8255003F06D
:10465000030E4FEA8E0E0F2404FA0EF425EA040529
:104660001D4CA0423FF460AF04F58064A0421ED010
:1046700004F58064A0421CD004F58064A0421AD0E6
:1046800004F58064A04218D004F58064A04216D0DE
:1046900004F58064A04214D004F58064A04212D0D6
:1046A00004F50064A0423FF43DAF0A243DE7012435
:1046B0003BE7022439E7032437E7042435E70524E0
:1046C00033E7062431E707242FE703B0F0BD00BF2E
:1046D0000004005800440258000002580AB18161E9
:1046E000704709048161704708B54FF0B043D3F8B3
:1046F0008830034200D108BD4FF0B043C3F88800B2
:1047000007F02AF8F7E70000134BDB6813F0040FFB
:1047100007D1114BDB6803F0070383421AD0012055
:10472000704710B50C4AD36823F007030343D360E6
:10473000FDF7A6F90446084B5B6813F4005F07D148
:10474000FDF79EF9001BB0F57A7FF4D9012000E057
:10475000002010BD0020704700480258002800F0DB
:10476000D58238B50446036813F0010F25D0A04A5E
:10477000136903F03803926A102B15D0182B0FD051
:104780006368B3F5803F3FD0002B53D1984B1A6834
:1047900022F480321A601A6822F480221A6038E00B
:1047A00002F00302022AEBD1914B1B6813F4003F85
:1047B00003D06368002B00F0AB82236813F0020F74
:1047C00000F088808A4A1369926A13F038035AD03D
:1047D000182B55D0E368002B00F0A98084490A68A3
:1047E00022F0190213430B60FDF74AF90546804B8E
:1047F0001B6813F0040F40F09180FDF741F9401B56
:104800000228F4D903208AE2794A136843F48033FA
:10481000136063682BB3FDF733F90546744B1B68CF
:1048200013F4003FC9D1FDF72BF9401B6428F5D9DB
:10483000032074E2B3F5A02F09D06D4B1A6822F45F
:1048400080321A601A6822F480221A60E1E7684B0D
:104850001A6842F480221A601A6842F480321A60A0
:10486000D7E7FDF70DF90546614B1B6813F4003FD0
:10487000A3D0FDF705F9401B6428F5D903204EE2CB
:1048800012F0030FA6D15A4B1B6813F0040F03D08C
:10489000E368002B00F03E82554A136823F01903A9
:1048A000E1680B431360FDF7EBF80546504B1B68BE
:1048B00013F0040F06D1FDF7E3F8401B0228F5D9E9
:1048C00003202CE24A4A536823F0FE43216943EA5D
:1048D00001635360236813F0100F51D0444A1369E9
:1048E00003F03803926A082B39D0182B33D0E369D0
:1048F000002B69D03E4A136843F080031360FDF734
:10490000BFF805463A4B1B6813F4807F53D1FDF77F
:10491000B7F8401B0228F5D9032000E2344A536857
:1049200023F0FE43216943EA01635360D2E7304A32
:10493000136823F001031360FDF7A2F805462C4B22
:104940001B6813F0040FC5D0FDF79AF8401B02282E
:10495000F5D90320E3E102F00302012AC7D1244B79
:104960001B6813F4807F03D0E369802B40F0D4816F
:104970001F4AD36823F07C53216A43EA0163D36062
:10498000236813F0080F49D06369002B32D0184A0E
:10499000536F43F001035367FDF772F80546144B5C
:1049A0005B6F13F0020F39D1FDF76AF8401B022844
:1049B000F5D90320B3E10E4AD36823F07C53216A72
:1049C00043EA0163D360DBE7094A136823F08003FD
:1049D0001360FDF755F80546054B1B6813F4807FFF
:1049E000CED0FDF74DF8401B0228F5D9032096E103
:1049F000004402589D4A536F23F001035367FDF7AB
:104A00003FF80546994B5B6F13F0020F06D0FDF798
:104A100037F8401B0228F5D9032080E1236813F002
:104A2000200F29D0A3699BB1904A136843F48053A7
:104A30001360FDF725F805468C4B1B6813F4005FE7
:104A40001AD1FDF71DF8401B0228F5D9032066E1B5
:104A5000864A136823F480531360FDF711F8054666
:104A6000824B1B6813F4005F06D0FDF709F8401B6A
:104A70000228F5D9032052E1236813F0040F21D155
:104A8000636A002B00F04A81784A126902F038020A
:104A9000182A00F0F180022B75D0744A136823F0B5
:104AA00080731360FCF7ECFF0446704B1B6813F037
:104AB000007F00F0D880FCF7E3FF001B0228F4D948
:104AC00003202CE16A4A136843F480731360FCF7F7
:104AD000D7FF0546664B1B6813F4807F06D1FCF7B1
:104AE000CFFF401B6428F5D9032018E1A368012BF0
:104AF0000AD00BBB5D4B1A6F22F001021A671A6FC6
:104B000022F004021A6704E0584A136F43F00103CD
:104B10001367A36833B3FCF7B3FF0546534B1B6F12
:104B200013F0020FACD1FCF7ABFF401B41F288330E
:104B30009842F3D90320F2E0052B09D04B4B1A6FB2
:104B400022F001021A671A6F22F004021A67E0E7E6
:104B5000464B1A6F42F004021A671A6F42F00102C4
:104B60001A67D6E7FCF78CFF0546404B1B6F13F026
:104B7000020F85D0FCF784FF401B41F28833984236
:104B8000F3D90320CBE0394A136823F08073136014
:104B9000FCF776FF0546354B1B6813F0007F06D007
:104BA000FCF76EFF401B0228F5D90320B7E02F4B1E
:104BB000996A304A0A40A16AE06A41EA00110A4350
:104BC0009A62226B013AC2F30802616B0139490211
:104BD00089B20A43A16B0139090401F4FE010A43B9
:104BE000E16B0139090601F0FE410A431A63DA6AF2
:104BF00022F00102DA625A6B6FF3CF02A16C42EA33
:104C0000C1025A63DA6A22F00C02216C0A43DA62AA
:104C1000DA6A22F00202616C0A43DA62DA6A42F46A
:104C20008032DA62DA6A42F40032DA62DA6A42F434
:104C30008022DA62DA6A42F00102DA621A6842F02D
:104C400080721A60FCF71CFF0446084B1B6813F0C7
:104C5000007F06D1FCF714FF001B0228F5D90320C2
:104C60005DE000205BE0002059E000BF00440258F6
:104C7000004802580CFCFFFF30498A6A086B012B80
:104C80004ED002F00303A16A8B424BD1C2F305124E
:104C9000E36A9A4248D1C0F30802236B013B9A426F
:104CA00044D1C0F34622636B013B9A4240D1C0F32A
:104CB0000642A36B013B9A423CD1C0F30660E36B12
:104CC000013B984238D11D4B5B6BC3F3CC03A26C04
:104CD0009A4201D1002022E0184AD36A23F001034E
:104CE000D362FCF7CDFE0546FCF7CAFEA842FBD016
:104CF000124A536B6FF3CF03A16C43EAC1035363B2
:104D0000D36A43F00103D362002008E0012070471A
:104D1000012004E0012002E0012000E0002038BD75
:104D20000120FCE70120FAE70120F8E70120F6E77F
:104D30000120F4E70120F2E70120F0E700440258E7
:104D4000754B1B6903F03803102B00F0DE80182B25
:104D50000FD0002B40F0DB806F4B1B6813F0200F4F
:104D600000F0D7806C4B1B68C3F3C1036B48D8407D
:104D7000704710B4684B9A6A02F003029C6AC4F34D
:104D80000510D96A01F001015B6BC3F3CC0301FB91
:104D900003F307EE903AF8EE677A14F47C7F77D04D
:104DA000012A4AD0022A76D0002A40F091805A4B3C
:104DB0001B6813F0200F23D057490A68C2F3C102C1
:104DC000564BD34007EE103AF8EE476A07EE100A4A
:104DD000B8EE476A86EE867A0B6BC3F3080306EEDD
:104DE000903AF8EE666A9FED4E6A67EE867A76EE46
:104DF000A77AF7EE006A77EEA67A27EE277A38E0F0
:104E000007EE100AF8EE476A9FED466A86EE267AAC
:104E1000414B1B6BC3F3080306EE903AF8EE666A4B
:104E20009FED3F6A67EE867A76EEA77AF7EE006A24
:104E300077EEA67A27EE277A1BE007EE100AF8EE47
:104E4000476A9FED396A86EE267A334B1B6BC3F3B4
:104E5000080306EE903AF8EE666A9FED316A67EE57
:104E6000867A76EEA77AF7EE006A77EEA67A27EED4
:104E7000277A294B1B6BC3F34623013307EE903A85
:104E8000F8EE677AC7EE276AFCEEE67A17EE900A2C
:104E90005DF8044B704707EE100AF8EE476A9FED85
:104EA000236A86EE267A1C4B1B6BC3F3080306EEBF
:104EB000903AF8EE666A9FED1A6A67EE867A76EEA9
:104EC000A77AF7EE006A77EEA67A27EE277AD0E780
:104ED00007EE100AF8EE476A9FED136A86EE267A0F
:104EE0000D4B1B6BC3F3080306EE903AF8EE666AAF
:104EF0009FED0B6A67EE867A76EEA77AF7EE006A88
:104F000077EEA67A27EE277AB3E709487047094873
:104F100070470248704700BF004402580090D00319
:104F2000000000390024744C0024744A001BB74B65
:104F300000366E0100093D00002800F0328170B596
:104F40000D4604469B4B1B6803F00F038B420BD2AC
:104F5000984A136823F00F030B431360136803F0A0
:104F60000F038B4240F01F81236813F0040F0CD015
:104F70002269914B9B6903F070039A4205D98E49CF
:104F80008B6923F070031A438A61236813F0080FBA
:104F90000CD06269884BDB6903F070039A4205D933
:104FA0008549CB6923F070031A43CA61236813F063
:104FB000100F0CD0A269804BDB6903F4E0639A42C6
:104FC00005D97D49CB6923F4E0631A43CA6123689C
:104FD00013F0200F0CD0E269774B1B6A03F07003CB
:104FE0009A4205D974490B6A23F070031A430A6286
:104FF000236813F0020F0CD0E2686F4B9B6903F03B
:105000000F039A4205D96C498B6923F00F031A43A9
:105010008A61236813F0010F41D0674A936923F432
:105020007063A1680B4393616368022B0AD0032B62
:1050300027D0012B2CD0604A126812F0040F06D141
:105040000120ADE0126812F4003F00F0AE805A4932
:105050000A6922F0070213430B61FCF711FD0646B3
:10506000554B1B6903F038036268B3EBC20F16D0CF
:10507000FCF706FD801B41F288339842F0D90320EB
:105080008EE04D4A126812F0007FE0D1012087E0E7
:10509000494A126812F4807FD9D1012080E0236848
:1050A00013F0020F0CD0E268434B9B6903F00F032F
:1050B0009A4205D240498B6923F00F031A438A6153
:1050C0003C4B1B6803F00F03AB420AD9394A136803
:1050D00023F00F032B431360136803F00F03AB425D
:1050E00065D1236813F0040F0CD02269324B9B6901
:1050F00003F070039A4205D22F498B6923F07003A5
:105100001A438A61236813F0080F0CD062692A4B96
:10511000DB6903F070039A4205D22749CB6923F07B
:1051200070031A43CA61236813F0100F0CD0A269F0
:10513000214BDB6903F4E0639A4205D21E49CB6937
:1051400023F4E0631A43CA61236813F0200F0CD0E4
:10515000E269194B1B6A03F070039A4205D21649A3
:105160000B6A23F070031A430A62FFF7E9FD124944
:105170008B69C3F30323114AD35C03F01F03D840A8
:105180008B6903F00F03D35C03F01F0320FA03F3D2
:105190000B4A13600B4B18600B4B1868FBF792FF20
:1051A00070BD012070470120FAE70120F8E70120D7
:1051B000F6E700BF002000520044025820C6000855
:1051C00000000024040000240C00002408B5FFF7B0
:1051D000B7FD0B4A9369C3F303230A49CB5C03F081
:1051E0001F0320FA03F3926902F00F02885C00F0BB
:1051F0001F0023FA00F0044A1060044A136008BD3F
:105200000044025820C600080000002404000024C6
:1052100008B5FFF7DBFF054BDB69C3F30213044A54
:10522000D35C03F01F03D84008BD00BF0044025800
:1052300020C6000808B5FFF7C9FF054BDB69C3F3BB
:105240000223044AD35C03F01F03D84008BD00BF0B
:105250000044025820C600083F230360114B1A691E
:1052600002F0070242609A6902F4706282609A69F1
:1052700002F00F02C2609A6902F070020261DA69FC
:1052800002F070024261DA6902F4E06282611B6A34
:1052900003F07003C361044B1B6803F00F030B6042
:1052A000704700BF0044025800200052404B9B6AE8
:1052B00003F00303032B79D070B505460E463C4A34
:1052C000136823F080631360FCF7DAFB0446384B65
:1052D0001B6813F0006F06D0FCF7D2FB031B022BF8
:1052E000F5D9032070BD324B9A6A22F47C322968CA
:1052F00042EA01329A626A68013AC2F30802A96876
:105300000139490289B20A43E9680139090401F403
:10531000FE010A4329690139090601F0FE410A43E9
:105320009A63DA6A22F0C00269690A43DA62DA6AC9
:1053300022F02002A9690A43DA62DA6A22F0100236
:10534000DA62DA6B6FF3CF02E96942EAC102DA632B
:10535000DA6A42F01002DA62C6B91A46DB6A43F42E
:105360000023D362124A136843F080631360FCF792
:1053700087FB04460E4B1B6813F0006F14D1FCF73B
:105380007FFB001B0228F5D90320ABE7012E05D0D7
:10539000074AD36A43F40013D362E3E7044AD36AAB
:1053A00043F48013D362DDE700209BE701207047C0
:1053B00000440258404B9B6A03F00303032B79D04F
:1053C00070B505460E463C4A136823F080531360BF
:1053D000FCF756FB0446384B1B6813F0005F06D001
:1053E000FCF74EFB031B022BF5D9032070BD324B9B
:1053F0009A6A22F07C72296842EA01529A626A68CB
:10540000013AC2F30802A9680139490289B20A4384
:10541000E9680139090401F4FE010A4329690139E7
:10542000090601F0FE410A431A64DA6A22F4406276
:1054300069690A43DA62DA6A22F40072A9690A43E6
:10544000DA62DA6A22F48072DA625A6C6FF3CF029F
:10545000E96942EAC1025A64DA6A42F48072DA62A5
:10546000C6B91A46DB6A43F48003D362124A136852
:1054700043F080531360FCF703FB04460E4B1B689C
:1054800013F0005F14D1FCF7FBFA001B0228F5D9DA
:105490000320ABE7012E05D0074AD36A43F080739F
:1054A000D362E3E7044AD36A43F40003D362DDE73F
:1054B00000209BE70120704700440258F8B50446DD
:1054C000036813F0006F2FD0436EB3F5001F25D093
:1054D00015D8E3B1B3F5801F0ED102210830FFF7D4
:1054E000E5FE054675BB934A136D23F44013616EC8
:1054F0000B431365002619E00126354616E0B3F587
:10550000401F01D10025EEE7012635460EE0894A0D
:10551000D36A43F40033D3620025E4E70221283044
:10552000FFF748FF0546DDE700263546236813F4FC
:10553000807F29D0A36D042B22D8DFE803F0051368
:105540001A0A0A002E46F1E77A4AD36A43F4003376
:10555000D362C5B9774A136D23F00703A16D0B43DE
:10556000136511E0002104F10800FFF79FFE0546D6
:10557000EFE7002104F12800FFF71CFF0546E8E7EC
:105580000126354600E02E46236813F4806F2DD0A7
:10559000D4F8A430B3F5800F3DD00DD8C3B1B3F526
:1055A000001F06D1002104F10800FFF77FFE054629
:1055B00013E00126354619E0B3F5000F0DD0B3F521
:1055C000200F0AD0B3F5C00F07D0012635460DE0F5
:1055D000584AD36A43F40033D3621DBB554A936DD6
:1055E00023F46003D4F8A4100B439365236813F4E9
:1055F000006F37D0D4F8A830B3F1007F5ED016D852
:105600000BB3B3F1807F0FD1002104F10800FFF745
:105610004DFE05461CE0002104F12800FFF7CAFEFC
:105620000546DAE72E46E1E7012635461AE0B3F1F2
:10563000806F0DD0B3F1A06F0AD0B3F1407F07D0D7
:10564000012635460EE03B4AD36A43F40033D36269
:10565000002D3AD1374A936D23F0E063D4F8A810B7
:105660000B439365236813F0007F13D0E36C202B6A
:1056700035D02FD833B1102B29D12E4AD36A43F419
:105680000033D36295BB2B4AD36C23F03003E16C1B
:105690000B43D364236813F4805F4ED0E36DB3F5FE
:1056A000005F3FD027D87BB3B3F5805F20D10021C6
:1056B00004F10800FFF7FAFD05462AE0002104F195
:1056C0002800FFF777FE0546C2E72E46CAE7012607
:1056D0003546DFE7302BD5D001263546DAE7022103
:1056E00004F10800FFF7E2FD0546CBE72E46D1E7BF
:1056F0000126354621E0B3F5405F0AD0B3F5804F6F
:1057000007D00126354618E00A4AD36A43F400332D
:10571000D3628DB9074A136D23F4E043E16D0B4367
:1057200013650AE0002104F12800FFF743FE054657
:10573000EFE700BF004402582E46236813F4005FD1
:1057400017D0236EB3F5003F4FD042D843B1B3F525
:10575000803F3BD1012104F10800FFF7A7FD05467A
:10576000002D49D1924A136D23F4E023216E0B439F
:105770001365236813F4804F19D0D4F8AC30B3F11B
:10578000005F4AD03DD843B1B3F1805F36D10121EB
:1057900004F10800FFF78AFD0546002D44D1844A34
:1057A000936D23F0E043D4F8AC100B43936523686A
:1057B00013F4004F47D0E36EB3F1805F36D0B3F1FE
:1057C000005F4BD0BBB3012635463CE00126354691
:1057D000CFE7B3F5802FC3D0B3F5A02FC0D0B3F57A
:1057E000403FBDD001263546C3E7012104F1280022
:1057F000FFF7E0FD0546B3E72E46BAE7012635463A
:10580000D5E7B3F1804FC8D0B3F1A04FC5D0B3F105
:10581000405FC2D001263546C9E7012104F12800C6
:10582000FFF7C8FD0546B8E72E46C0E7604AD36AD1
:1058300043F40033D362C5B95D4A136D23F040537E
:10584000E16E0B431365236813F0807F1CD0A36CBB
:10585000032B44D8DFE803F0100B3C10012104F1C6
:105860000800FFF723FD0546E5E72E46EBE7504A23
:10587000D36A43F40033D362A5BB4D4AD36C23F003
:105880000303A16C0B43D364236813F4800F2BD163
:10589000236813F0010F00F0A980A36F282B00F2FA
:1058A000A380DFE803F091A1A1A1A1A1A1A18BA1F7
:1058B000A1A1A1A1A1A19AA1A1A1A1A1A1A191A1EF
:1058C000A1A1A1A1A1A191A1A1A1A1A1A1A1910089
:1058D000022104F10800FFF7E9FC0546CCE70126A8
:1058E0003546D1E72E46CFE7324A136843F480733A
:1058F0001360FCF7C5F807462E4B1B6813F4807F36
:1059000005D1FCF7BDF8C01B6428F5D90325002D8F
:105910004AD1274B1B6FD4F8B020534013F4407F7B
:105920000CD0234B1A6F22F44072196F41F480316E
:105930001967196F21F4803119671A67D4F8B030EC
:10594000B3F5807F15D08DBBD4F8B03003F440722E
:10595000B2F5407F1ED0164A136923F47C531361BD
:1059600013490B6FD4F8B020C2F30B0213430B673B
:105970008EE7FCF785F807460D4B1B6F13F0020FFF
:10598000E1D1FCF77DF8C01B41F288339842F3D98E
:105990000325D8E70648026922F47C52064901EA49
:1059A000131313430361DBE72E4671E72E466FE7BF
:1059B0000044025800480258CFFFFF00012104F1C3
:1059C0000800FFF773FC0546E5B9B14A536D23F0B3
:1059D0003803A16F0B43536508E0012104F128004F
:1059E000FFF7E8FC0546EFE701263546236813F08C
:1059F000020F17D0636F052B29D8DFE803F00B05E2
:105A0000210B0B0B2E46F1E7012104F10800FFF7F3
:105A10004DFC0546F5B99E4A536D23F00703616FAF
:105A20000B435365236813F0040F26D0D4F890304D
:105A3000052B00F2D680DFE803F0150FCD15151504
:105A4000012104F12800FFF7B5FC0546E2E7012635
:105A50003546E7E72E46E5E7012104F10800FFF7A8
:105A600025FC0546002D40F0BF80894A936D23F048
:105A70000703D4F890100B439365236813F0200FAD
:105A80001DD0D4F88C30B3F1005F00F0C18000F27B
:105A9000B0804BB1B3F1805F40F0A880002104F1E9
:105AA0000800FFF703FC0546002D40F0B880784A57
:105AB000536D23F0E043D4F88C100B4353652368F7
:105AC00013F0400F1DD0D4F89830B3F5006F00F0FC
:105AD000BA8000F2A9804BB1B3F5806F40F0A1808D
