:020000040800F2
:1000000000000524BD230008191B00081B1B000865
:100010001D1B00081F1B0008211B0008000000001A
:10002000000000000000000000000000B1C800084F
:10003000231B00080000000051C900087BC4000811
:100040000D2400080D2400080D2400080D240008CC
:100050000D2400080D2400080D2400080D240008BC
:100060000D2400080D2400080D240008251B00089D
:10007000351B0008451B0008551B0008651B0008C0
:10008000751B0008851B00080D2400080D240008BE
:100090000D2400080D2400080D2400080D2400087C
:1000A0000D240008951B00080D2400080D240008ED
:1000B0000D2400080D2400080D2400080D2400085C
:1000C0000D2400080D2400080D2400080D2400084C
:1000D000A51B0008B51B00080D2400080D2400080E
:1000E000C51B00080D240008000000000D240008B6
:1000F0000D2400080D2400080D240008D91B000859
:100100000D2400080D2400080D2400080D2400080B
:100110000D2400080D2400080D2400080D240008FB
:100120000D2400080D2400080D2400080D240008EB
:100130000D2400080D2400080D2400080D240008DB
:1001400000000000000000000000000000000000AF
:100150000D2400080D2400080D2400080D240008BB
:100160000D2400080D2400080D2400080D240008AB
:100170000D240008E91B00080D2400080000000001
:100180000D2400080D240008F91B00080D240008A8
:100190000D2400080D2400080D2400080D2400087B
:1001A0000D2400080D2400080D24000800000000A4
:1001B0000D2400080D2400080D2400080D2400085B
:1001C0000D2400080D2400080000000000000000BD
:1001D00000000000000000000D24000800000000E6
:1001E000000000000000000000000000000000000F
:1001F00000000000000000000D2400080D2400088D
:100200000D2400080D240008000000000D24000843
:100210000D2400080D2400080D2400080D240008FA
:100220000D240008000000000D240008000000005C
:100230000D2400080D240008000000000D24000813
:100240000D2400080D2400080D2400080D240008CA
:100250000D2400080D2400080D2400080D240008BA
:100260000D2400080D2400080D2400080D240008AA
:100270000D2400080D2400080D24000800000000D3
:100280000D2400080D2400080D2400080D2400088A
:10029000000000000D2400080D24000800000000EC
:1002A000000000000D2400080D2400080D240008A3
:1002B000091C00080D2400080D2400080D24000866
:0C02C0000D2400080D2400080D24000887
:1002D00081F0004102E000BF83F0004330B54FEAF7
:1002E00041044FEA430594EA050F08BF90EA020F64
:1002F0001FBF54EA000C55EA020C7FEA645C7FEAF7
:10030000655C00F0E2804FEA5454D4EB5555B8BF19
:100310006D420CDD2C4480EA020281EA030382EA8A
:10032000000083EA010180EA020281EA0303362D1C
:1003300088BF30BD11F0004F4FEA01314FF4801CEF
:100340004CEA113102D0404261EB410113F0004F01
:100350004FEA03334CEA133302D0524263EB4303B8
:1003600094EA050F00F0A780A4F10104D5F1200E56
:100370000DDB02FA0EFC22FA05F2801841F10001B1
:1003800003FA0EF2801843FA05F359410EE0A5F185
:1003900020050EF1200E012A03FA0EFC28BF4CF0B6
:1003A000020C43FA05F3C01851EBE37101F000456C
:1003B00007D54FF0000EDCF1000C7EEB00006EEB79
:1003C0000101B1F5801F1BD3B1F5001F0CD3490803
:1003D0005FEA30004FEA3C0C04F101044FEA44525A
:1003E00012F5800F80F09A80BCF1004F08BF5FEAE1
:1003F000500C50F1000041EB045141EA050130BDC1
:100400005FEA4C0C404141EB0101013C28BFB1F5D2
:10041000801FE9D291F0000F04BF01460020B1FA1D
:1004200081F308BF2033A3F10B03B3F120020CDAF0
:100430000C3208DD02F1140CC2F10C0201FA0CF0CE
:1004400021FA02F10CE002F11402D8BFC2F1200C33
:1004500001FA02F120FA0CFCDCBF41EA0C019040E9
:10046000E41AA2BF01EB0451294330BD6FEA040432
:100470001F3C1CDA0C340EDC04F11404C4F120021D
:1004800020FA04F001FA02F340EA030021FA04F32F
:1004900045EA030130BDC4F10C04C4F1200220FA86
:1004A00002F001FA04F340EA0300294630BD21FAC4
:1004B00004F0294630BD94F0000F83F4801306BF8A
:1004C00081F480110134013D4EE77FEA645C18BF7E
:1004D0007FEA655C29D094EA050F08BF90EA020F15
:1004E00005D054EA000C04BF1946104630BD91EA0D
:1004F000030F1EBF0021002030BD5FEA545C05D110
:100500004000494128BF41F0004130BD14F580044E
:100510003CBF01F5801130BD01F0004545F0FE41C2
:1005200041F470014FF0000030BD7FEA645C1ABFF7
:10053000194610467FEA655C1CBF0B46024650EA2E
:10054000013406BF52EA033591EA030F41F400215A
:1005500030BD00BF90F0000F04BF0021704730B5E0
:100560004FF4806404F132044FF000054FF00001B5
:1005700050E700BF90F0000F04BF0021704730B576
:100580004FF4806404F1320410F0004548BF40424B
:100590004FF000013EE700BF42004FEAE2014FEAA0
:1005A00031014FEA02701FBF12F07F4393F07F4F7B
:1005B00081F06051704732F07F4208BF704793F07E
:1005C0007F4F04BF41F40021704730B54FF4607491
:1005D00001F0004521F000411CE700BF50EA010294
:1005E00008BF704730B54FF000050AE050EA01023D
:1005F00008BF704730B511F0004502D5404261EBAD
:1006000041014FF4806404F132045FEA915C3FF4ED
:10061000D8AE4FF003025FEADC0C18BF03325FEA8A
:10062000DC0C18BF033202EBDC02C2F1200300FA3B
:1006300003FC20FA02F001FA03FE40EA0E0021FA60
:1006400002F11444BDE600BF70B54FF0FF0C4CF44E
:10065000E06C1CEA11541DBF1CEA135594EA0C0F00
:1006600095EA0C0F00F0DEF82C4481EA030621EA3B
:100670004C5123EA4C5350EA013518BF52EA033576
:1006800041F4801143F4801338D0A0FB02CE4FF028
:100690000005E1FB02E506F00042E0FB03E54FF058
:1006A0000006E1FB03569CF0000F18BF4EF0010E50
:1006B000A4F1FF04B6F5007F64F5407404D25FEA4C
:1006C0004E0E6D4146EB060642EAC62141EA5551FF
:1006D0004FEAC52040EA5E504FEACE2EB4F1FD0C41
:1006E00088BFBCF5E06F1ED8BEF1004F08BF5FEABF
:1006F000500E50F1000041EB045170BD06F0004671
:1007000046EA010140EA020081EA0301B4EB5C041D
:10071000C2BFD4EB0C0541EA045170BD41F4801115
:100720004FF0000E013C00F3AB8014F1360FDEBF3A
:10073000002001F0004170BDC4F10004203C35DA16
:100740000C341BDC04F11404C4F1200500FA05F399
:1007500020FA04F001FA05F240EA020001F000423A
:1007600021F0004110EBD37021FA04F642EB0601B0
:100770005EEA430E08BF20EAD37070BDC4F10C04DA
:10078000C4F1200500FA04F320FA05F001FA04F29E
:1007900040EA020001F0004110EBD37041F100018A
:1007A0005EEA430E08BF20EAD37070BDC4F1200595
:1007B00000FA05F24EEA020E20FA04F301FA05F2FD
:1007C00043EA020321FA04F001F0004121FA04F2A5
:1007D00020EA020000EBD3705EEA430E08BF20EA75
:1007E000D37070BD94F0000F0FD101F000464000AF
:1007F00041EB010111F4801F08BF013CF7D041EA31
:10080000060195F0000F18BF704703F00046520034
:1008100043EB030313F4801F08BF013DF7D043EA05
:100820000603704794EA0C0F0CEA135518BF95EABB
:100830000C0F0CD050EA410618BF52EA4306D1D142
:1008400081EA030101F000414FF0000070BD50EA61
:10085000410606BF1046194652EA430619D094EAEB
:100860000C0F02D150EA013613D195EA0C0F05D1D5
:1008700052EA03361CBF104619460AD181EA030129
:1008800001F0004141F0FE4141F470014FF00000E1
:1008900070BD41F0FE4141F4780170BD70B54FF07C
:1008A000FF0C4CF4E06C1CEA11541DBF1CEA1355FC
:1008B00094EA0C0F95EA0C0F00F0A7F8A4EB0504DE
:1008C00081EA030E52EA03354FEA013100F08880D5
:1008D0004FEA03334FF0805545EA131343EA12639E
:1008E0004FEA022245EA111545EA10654FEA002653
:1008F0000EF000419D4208BF964244F1FD0404F50C
:10090000407402D25B084FEA3202B61A65EB030567
:100910005B084FEA32024FF480104FF4002CB6EB24
:10092000020E75EB030E22BFB61A754640EA0C00A4
:100930005B084FEA3202B6EB020E75EB030E22BFE4
:10094000B61A754640EA5C005B084FEA3202B6EB25
:10095000020E75EB030E22BFB61A754640EA9C00E4
:100960005B084FEA3202B6EB020E75EB030E22BFB4
:10097000B61A754640EADC0055EA060E18D04FEA72
:10098000051545EA16754FEA06164FEAC30343EA12
:1009900052734FEAC2025FEA1C1CC0D111F4801FDF
:1009A0000BD141EA00014FF000004FF0004CB6E7D8
:1009B00011F4801F04BF01430020B4F1FD0C88BF77
:1009C000BCF5E06F3FF6AFAEB5EB030C04BFB6EB82
:1009D000020C5FEA500C50F1000041EB045170BD75
:1009E0000EF0004E4EEA113114EB5C04C2BFD4EBA2
:1009F0000C0541EA045170BD41F480114FF0000E26
:100A0000013C90E645EA060E8DE60CEA135594EAA1
:100A10000C0F08BF95EA0C0F3FF43BAF94EA0C0FA4
:100A20000AD150EA01347FF434AF95EA0C0F7FF419
:100A300025AF104619462CE795EA0C0F06D152EA6D
:100A400003353FF4FDAE1046194622E750EA410651
:100A500018BF52EA43067FF4C5AE50EA41047FF462
:100A60000DAF52EA43057FF4EBAE12E74FEA4102C5
:100A7000B2F1E04324BFB3F5001CDCF1FE5C0DD9FC
:100A800001F0004C4FEAC0024CEA5070B2F1004F46
:100A900040EB830008BF20F00100704711F0804F49
:100AA00021D113F13872BCBF01F00040704741F40E
:100AB00080114FEA5252C2F11802C2F1200C10FA12
:100AC0000CF320FA02F018BF40F001004FEAC123F6
:100AD0004FEAD32303FA0CFC40EA0C0023FA02F39A
:100AE0004FEA4303CCE77FEA625307D150EA013370
:100AF0001EBF4FF0FE4040F44000704701F0004040
:100B000040F0FE4040F40000704700BF53B94AB9BE
:100B1000002908BF00281CBF4FF0FF314FF0FF3005
:100B200000F00CB8ADF1080C6DE904CE0EF0CCFD70
:100B3000DDF804E0DDE9022304B07047704700BF30
:100B4000844641EA000313F003036DD1403A41D3D8
:100B500051F8043B40F8043B51F8043B40F8043B97
:100B600051F8043B40F8043B51F8043B40F8043B87
:100B700051F8043B40F8043B51F8043B40F8043B77
:100B800051F8043B40F8043B51F8043B40F8043B67
:100B900051F8043B40F8043B51F8043B40F8043B57
:100BA00051F8043B40F8043B51F8043B40F8043B47
:100BB00051F8043B40F8043B51F8043B40F8043B37
:100BC00051F8043B40F8043B51F8043B40F8043B27
:100BD000403ABDD2303211D351F8043B40F8043BC7
:100BE00051F8043B40F8043B51F8043B40F8043B07
:100BF00051F8043B40F8043B103AEDD20C3205D3D7
:100C000051F8043B40F8043B043AF9D2043208D0CE
:100C1000D2071CBF11F8013B00F8013B01D30B8840
:100C200003806046704700BF082A13D38B078DD01E
:100C300010F003038AD0C3F10403D21ADB071CBFF0
:100C400011F8013B00F8013B80D331F8023B20F85A
:100C5000023B7BE7043AD9D3013A11F8013B00F893
:100C6000013BF9D20B7803704B7843708B7883701B
:100C7000604670474FF0FF3C06E000BF4FF0010CAC
:100C800002E000BF4FF0010C4DF804CD4FEA410CDB
:100C90007FEA6C5C4FEA430C18BF7FEA6C5C1BD0A8
:100CA00001B050EA410C0CBF52EA430C91EA030F29
:100CB00002BF90EA020F0020704710F1000F91EA86
:100CC000030F58BF994208BF90422CBFD8176FEA54
:100CD000E37040F0010070474FEA410C7FEA6C5C22
:100CE00002D150EA013C07D14FEA430C7FEA6C5C29
:100CF000D6D152EA033CD3D05DF8040B704700BF55
:100D00008446104662468C461946634600E000BFA2
:100D100001B5FFF7B7FF002848BF10F1000F01BD74
:100D20004DF808EDFFF7F4FF0CBF012000205DF83F
:100D300008FB00BF4DF808EDFFF7EAFF34BF0120C4
:100D400000205DF808FB00BF4DF808EDFFF7E0FF5D
:100D500094BF012000205DF808FB00BF4DF808EDAE
:100D6000FFF7CEFF94BF012000205DF808FB00BF15
:100D70004DF808EDFFF7C4FF34BF012000205DF8F7
:100D800008FB00BF4FEA410212F5001215D211D53F
:100D90006FF47873B3EB625212D94FEAC12343F078
:100DA000004343EA505311F0004F23FA02F018BFFA
:100DB000404270474FF00000704750EA013005D1C3
:100DC00011F0004008BF6FF0004070474FF0000086
:100DD000704700BF0348044B834202D0034B03B16A
:100DE00018477047700600247006002400000000B9
:100DF0000548064B1B1AD90F01EBA301491002D07D
:100E0000034B03B118477047700600247006002496
:100E10000000000010B5064C237843B9FFF7DAFF55
:100E2000044B13B10448AFF300800123237010BDBD
:100E30007006002400000000D011010808B5054B21
:100E40001BB105490548AFF30080BDE80840FFF736
:100E5000CFBF00BF0000000074060024D0110108BD
:100E600010B58CB0002409940A940B9424222146D6
:100E700068460EF087FD2648264B03604FF410139A
:100E80004360846001230361042242610476437657
:100E90000222C26180F820408462C4620463C46399
:100EA000046480F84440836402F072F920BB00239C
:100EB000099309A9164802F0D3FA00BB164B009318
:100EC000062301930423029340F2FF7203920493DA
:100ED000002305938DF8213069460D4801F01AFC76
:100EE00080B90E4B00930C2301936946084801F02A
:100EF00011FC50B90CB010BD00F0A6FBD7E700F014
:100F0000A3FBDBE700F0A0FBEBE700F09DFBF1E7C4
:100F1000FC060024002002401000C0100000B84F62
:100F200000B58BB02422002101A80EF02BFD1E4835
:100F30001E4B03604FF400234360082383600023AB
:100F4000C360036104224261037643760122C261D9
:100F500080F820308362C36280F8383043630363D3
:100F6000C363036480F84430836402F011F9A8B9C4
:100F70000F4B0193062302930723039340F2FF7361
:100F800004930423059300230693089301A90648BC
:100F900001F0C0FB28B90BB05DF804FB00F054FB76
:100FA000E6E700F051FBF6E78C06002400600258EB
:100FB000000052C710B58AB000230593069307932B
:100FC000089309930368264A934204D0254A934222
:100FD00038D00AB010BD244BD3F8D82042F02002FC
:100FE000C3F8D820D3F8D82002F020020192019A49
:100FF000D3F8E02042F00102C3F8E020D3F8E0206B
:1010000002F001020292029AD3F8E02042F00402B8
:10101000C3F8E020D3F8E03003F004030393039B0C
:10102000202305930324069405A9104803F04EFFDE
:101030001023059306940023079305A90C4803F099
:1010400045FFC6E7084BD3F8E02042F08072C3F8B2
:10105000E020D3F8E03003F080730493049BB8E7FA
:10106000002002400060025800440258000002586C
:101070000008025808B50848084B036000230371B4
:101080004371436183610123036202F0F7FA00B9FF
:1010900008BD00F0D9FAFBE76C070024004C0258A9
:1010A00002680A4B9A4200D0704782B0A3F50063F1
:1010B000D3F8E02042F40022C3F8E020D3F8E03077
:1010C00003F400230193019B02B07047004C0258C7
:1010D00000B583B0274BD3F8D82042F00102C3F803
:1010E000D820D3F8D83003F001030193019B0022EC
:1010F00005210B2002F0AEFA0B2002F0BBFA002211
:1011000005210C2002F0A6FA0C2002F0B3FA00220E
:1011100005210D2002F09EFA0D2002F0ABFA00220C
:1011200005210E2002F096FA0E2002F0A3FA00220A
:1011300005210F2002F08EFA0F2002F09BFA002208
:101140000521102002F086FA102002F093FA002206
:101150000521112002F07EFA112002F08BFA002204
:1011600005212F2002F076FA2F2002F083FA03B037
:101170005DF804FB0044025810B51648164B036096
:1011800000228260C260012303744274837443614D
:10119000142181613B24C4610162436202248462A0
:1011A0000D23C3620463426304238363C363082182
:1011B000016443648164C364046543658165C165FA
:1011C00001664266836603F037FD00B910BD00F08A
:1011D0003BFAFBE7D408002400A0004010B51648F5
:1011E000164B036000228260C260012303744274C4
:1011F00083744361142181613B24C46101624362B1
:10120000022484620D23C362046342630423836364
:10121000C3630821016443648164C3640465436556
:101220008165C16501664266836603F005FD00B90C
:1012300010BD00F009FAFBE73408002400A40040C8
:1012400010B51648164B036000228260C26001236D
:101250000374427483744361142181613B24C4612B
:1012600001624362022484620D23C3620463426309
:1012700004238363C3630821016443648164C364FA
:10128000046543658165C16501664266836603F056
:10129000D3FC00B910BD00F0D7F9FBE79407002498
:1012A00000D4004010B5BAB0044600213591369103
:1012B000379138913991B82206A80EF063FB236864
:1012C000624A934207D0624A934242D0614A9342B3
:1012D0007DD03AB010BD4FF400420023CDE9062383
:1012E0004FF08053219306A805F060FC00BB5A4ADA
:1012F000136801331360012B1DD0584BD3F8E02045
:1013000042F00802C3F8E020D3F8E03003F008030D
:101310000193019B032335930223369300233793D4
:1013200038930923399335A94D4803F0CFFDD0E711
:1013300000F08AF9DBE7494BD3F8EC2042F48072E5
:10134000C3F8EC20D3F8EC3003F480730093009BD7
:10135000D3E74FF400420023CDE906234FF080533A
:10136000219306A805F022FC00BB3B4A1368013319
:101370001360012B1DD0394BD3F8E02042F002025C
:10138000C3F8E020D3F8E03003F002030393039B9B
:101390006023359302233693002337933893092330
:1013A000399335A92F4803F091FD92E700F04CF9ED
:1013B000DBE72A4BD3F8EC2042F48072C3F8EC2030
:1013C000D3F8EC3003F480730293029BD3E74FF41D
:1013D00000420023CDE906234FF08053219306A855
:1013E00005F0E4FB08BB1C4A136801331360012BB2
:1013F0001ED01A4BD3F8E02042F00802C3F8E020D8
:10140000D3F8E03003F008030593059B4FF44053F5
:10141000359302233693002337933893052339936A
:1014200035A90F4803F052FD53E700F00DF9DAE754
:101430000A4BD3F8EC2042F48072C3F8EC20D3F8C6
:10144000EC3003F480730493049BD2E700A00040C7
:1014500000A4004000D4004090070024004402583B
:10146000000C02580004025808B50DF037FA0120AC
:101470000BF09DF8FBE7000008B5154A012108466E
:101480000BF0A3F8134B1860134A002113480BF01C
:101490002FF8134B1860134A002113480BF028F85B
:1014A000124B1860124A002112480BF021F8124B1F
:1014B0001860124A002112480BF01AF8114B1860FC
:1014C000114A002111480BF013F8114B186008BDA8
:1014D000D01201087409002470130108691400086F
:1014E000880900244C130108D5ED00088409002464
:1014F00028130108BFED0008800900240413010827
:101500008DED00087C090024E012010801EE0008BE
:101510007809002470B58CB00024079408940994CD
:101520000A940B943F4BD3F8E02042F01002C3F82A
:10153000E020D3F8E02002F010020192019AD3F8E3
:10154000E02042F00402C3F8E020D3F8E02002F0EB
:1015500004020292029AD3F8E02042F08002C3F81B
:10156000E020D3F8E02002F080020392039AD3F83F
:10157000E02042F00102C3F8E020D3F8E02002F0BE
:1015800001020492049AD3F8E02042F00202C3F868
:10159000E020D3F8E02002F002020592059AD3F889
:1015A000E02042F00802C3F8E020D3F8E03003F076
:1015B00008030693069B1C4D22464FF40041284623
:1015C00003F08EFD01220921284603F089FD4FF426
:1015D000004307930126089609940A9407A9284610
:1015E00003F074FC092307930896099403230A93D4
:1015F00007A9284603F06AFC4FF4A05307934FF461
:1016000088130893099407A9084803F05FFC224651
:101610000521282002F01EF8282002F02BF80CB03B
:1016200070BD00BF00440258000802580010025864
:1016300008B50268034B9A4200D008BD00F016FFBF
:10164000FBE700BF0000014072B6FEE700B59DB0A9
:101650004C22002109A80EF095F92022002101A8B2
:101660000EF090F9022004F0BFFB00230093214B01
:101670009A6922F440429A619B6903F440430093C3
:10168000009B1C4B9B6913F4005FFAD02123099344
:101690004FF480330A9301220F9202231293139383
:1016A00014932821159116920622179218930C2351
:1016B000199300231A931B9309A804F0C7FBA8B938
:1016C0003F230193032102910023039308230493F2
:1016D0004023059306934FF480620792089301A874
:1016E00004F0A2FF20B91DB05DF804FBFFF7ACFFCA
:1016F000FFF7AAFF0048025800B5AFB0B82200219A
:1017000068460EF03FF94FF400220023CDE9002394
:101710000223029310220392049305930693C0239D
:101720000793684605F042FA10B92FB05DF804FB44
:10173000FFF78AFF08B500F06BFEFFF787FFFFF7A2
:10174000DBFFFFF7E7FEFFF7C3FCFFF715FDFFF731
:1017500045FDFFF775FD00F04DF800F009FCFFF7BF
:101760007FFBFFF7DDFB00F08BFBFFF783FC00F056
:10177000CBFB00F031FC00F00BF800F03DFB0DF06E
:10178000ADF80AF087FEFFF777FE0AF095FEFEE758
:1017900008B51648164B03604FF4800343600023DE
:1017A00083600722C2604FF0007202614FF08072C6
:1017B00042614FF0806282614FF04052C261036229
:1017C00043628362C3624FF0804242638363C363B8
:1017D000036443648364C36403654365836506F0FF
:1017E000A5FD00B908BDFFF72FFFFBE7040B0024A0
:1017F0000038004008B51448144B03604FF48003D0
:1018000043604FF4003383600323C360002303610C
:1018100043614FF080628261C3610362436283620D
:10182000C3624FF0804242638363C36303644364D3
:101830008364C36403654365836506F077FD00B97F
:1018400008BDFFF701FFFBE77C0A002400140058E5
:10185000F0B5BBB0044600213591369137913891EF
:101860003991B82206A80EF08DF823686F4A93428A
:1018700005D06F4A934200F08B803BB0F0BD4FF42F
:1018800080520023CDE9062306A805F08FF9002831
:1018900075D1684BD3F8E82042F48042C3F8E820C1
:1018A000D3F8E82002F480420092009AD3F8E020B6
:1018B00042F00402C3F8E020D3F8E02002F0040272
:1018C0000192019AD3F8E02042F00202C3F8E0202E
:1018D000D3F8E03003F002030293029B0623359312
:1018E000022736970025379538950526399635A96C
:1018F000514803F0EBFA4FF4005335933697379580
:101900003895399635A94D4803F0E0FA4C484D4BCF
:1019100003602823436040238360C5604FF48063E5
:10192000036145618561C5614FF40033036245621F
:1019300002F056F830BB424BA3679C634248434BCE
:1019400003602723436000238360C3604FF48062F9
:10195000026143618361C3614FF4403202624362BA
:1019600002F03EF888B9384BE3679C6300220521FA
:10197000242001F06FFE242001F07CFE7DE7FFF7BC
:1019800063FE86E7FFF760FED5E7FFF75DFEEAE757
:101990004FF480420023CDE9062306A805F006F99E
:1019A00000283FD1234BD3F8F42042F02002C3F8A3
:1019B000F420D3F8F42002F020020392039AD3F823
:1019C000E02042F00102C3F8E020D3F8E02002F06A
:1019D00001020492049AD3F8E02042F00402C3F812
:1019E000E020D3F8E03003F004030593059B802347
:1019F000359302263696002537950324389408231C
:101A0000399335A9124803F061FA4FF480533593A6
:101A10003696379538940523399335A9064803F04F
:101A200055FA2AE7FFF710FEBCE700BF0038004078
:101A300000140058004402580008025800040258DC
:101A4000040A0024A00002408C090024B8000240CF
:101A50000000025800B583B00A4BD3F8F42042F0DE
:101A60000202C3F8F420D3F8F43003F00203019328
:101A7000019B00220F216FF0010001F0EBFD03B08C
:101A80005DF804FB004402580F2801D9012070477B
:101A900010B58AB0044600220146192001F0DAFD93
:101AA000192001F0E7FD174B1C60174BD3F8F0200D
:101AB00042F00102C3F8F020D3F8F03003F0010344
:101AC0000093009B01A902A804F03EFF04F02AFF46
:101AD00043000E4AA2FB03239B0C013B0C480D4A1A
:101AE000026040F2E732C26043600023036183601A
:101AF00007F0B4FC10B101200AB010BD044807F093
:101B000003FBF9E70C0000240044025883DE1B436A
:101B10008C0B002400000140FEE7FEE7FEE7FEE735
:101B2000FEE7704708B5024802F000FC08BD00BFA0
:101B3000DC0D002408B5024802F0F8FB08BD00BF28
:101B4000640D002408B5024802F0F0FB08BD00BF98
:101B5000CC0E002408B5024802F0E8FB08BD00BF27
:101B6000540E002408B5024802F0E0FB08BD00BF97
:101B7000EC0C002408B5024802F0D8FB08BD00BFF9
:101B8000740C002408B5024802F0D0FB08BD00BF69
:101B9000040A002408B5024807F00AFB08BD00BF8C
:101BA0008C0B002408B5024807F042F808BD00BFBE
:101BB000040B002408B5024807F00EFF08BD00BF63
:101BC000D80F002408B54FF4806003F08FFA4FF46B
:101BD000805003F08BFA08BD08B5024802F0A6FB5E
:101BE00008BD00BF8C09002408B5024803F0BBFD06
:101BF00008BD00BFDC73002408B5024807F0ECFE06
:101C000008BD00BF6C10002408B5024807F0E4FED0
:101C100008BD00BF440F002410B503460C4A0D490F
:101C20000D48006840B10C4800680344521A9342C2
:101C300006D8094A136010BD0748084C0460F2E753
:101C40000DF028FF0C2303604FF0FF30F3E700BFD7
:101C50000000052400040000D80B0024208000248C
:101C6000224AD2F8883043F47003C2F88830204BFF
:101C70001B6803F00F03062B06D81D4A136823F0D8
:101C80000F0343F0070313601A4B1A6842F0010276
:101C90001A6000221A611968174A0A401A60144B28
:101CA0001B6813F0080F06D0114A136823F00F03C6
:101CB00043F0070313600F4B00229A61DA611A6246
:101CC0000E4999620E49D9620E4919635A639963A4
:101CD000DA6319645A64196821F4802119601A665C
:101CE000094B43F2D2021A60704700BF00ED00E0DA
:101CF00000200052004402587FEDF6EA0002020282
:101D00000000FF01800201010040005282B0036820
:101D1000114A934204D0114A93420FD002B0704747
:101D20000F4BD3F8E82042F00202C3F8E820D3F8C2
:101D3000E83003F002030093009BEFE7084BD3F871
:101D4000E82042F04002C3F8E820D3F8E83003F07E
:101D500040030193019BE1E70004004000180040AC
:101D60000044025800B589B00023039304930593FF
:101D70000693079303681C4A934205D01B4A93427B
:101D800018D009B05DF804FB194BD3F8E02042F0FD
:101D90000202C3F8E020D3F8E03003F0020301931D
:101DA000019B022303930493079303A9114803F0B3
:101DB0008DF8E6E70E4BD3F8E02042F00202C3F8BC
:101DC000E020D3F8E03003F002030293029B4FF4CB
:101DD00000430393022304930693079303A9054842
:101DE00003F074F8CDE700BF000400400018004085
:101DF000004402580004025800B58BB0002307933A
:101E0000089309930093019302930393049305931A
:101E100006931948194A026017224260836042F211
:101E20000F72C26003618023836107F047FBC8B96A
:101E300000230793099307A90F4807F025FDA0B9D0
:101E40006023009300230193029304930C226946BC
:101E5000094807F0ADFB58B90748FFF783FF0BB0FF
:101E60005DF804FBFFF7F0FBE2E7FFF7EDFBE7E7C8
:101E7000FFF7EAFBF0E700BF280C00240004004055
:101E800000B58BB000230793089309930093019347
:101E9000029303930493059306931948194A026029
:101EA00017224260836040F2CF72C2600361836197
:101EB00007F004FBD8B900230793099307A910483A
:101EC00007F0E2FCB0B9602300934FF47A730193FA
:101ED00000230293049304226946094807F068FB33
:101EE00058B90748FFF73EFF0BB05DF804FBFFF75A
:101EF000ABFBE0E7FFF7A8FBE5E7FFF7A5FBF0E7A3
:101F0000DC0B00240018004008B51748174B03608D
:101F10004FF4E133436000238360C36003610C220C
:101F200042618361C36103624362836208F0ADFB77
:101F300070B900210C4808F023FC60B900210A4860
:101F400008F043FC50B9084808F0FBFB48B908BD4D
:101F5000FFF77AFBEDE7FFF777FBEFE7FFF774FB9F
:101F6000F1E7FFF771FBF2E76C1000240078004006
:101F700008B51748174B03604FF4612343600023F3
:101F80008360C36003610C2242618361C3610362A9
:101F90004362836208F079FB70B900210C4808F0B5
:101FA000EFFB60B900210A4808F00FFC50B908485F
:101FB00008F0C7FB48B908BDFFF746FBEDE7FFF7A0
:101FC00043FBEFE7FFF740FBF1E7FFF73DFBF2E7ED
:101FD000D80F00240010014008B51748174B0360C4
:101FE0004FF4E133436000238360C36003610C223C
:101FF00042618361C36103624362836208F045FB0F
:1020000070B900210C4808F0BBFB60B900210A48F8
:1020100008F0DBFB50B9084808F093FB48B908BD4D
:10202000FFF712FBEDE7FFF70FFBEFE7FFF70CFB06
:10203000F1E7FFF709FBF2E7440F0024001C014021
:10204000F0B5BDB0044600213791389139913A91ED
:102050003B91B82208A80DF095FC2368834A93426F
:1020600008D0834A934278D0824A934200F01C8180
:102070003DB0F0BD02220023CDE9082308A804F0FA
:1020800095FD002860D17C4BD3F8E82042F08042D7
:10209000C3F8E820D3F8E82002F080420192019AC8
:1020A000D3F8E02042F01002C3F8E020D3F8E0308B
:1020B00003F010030293029B4FF4C0733793022383
:1020C0003893002539953A9507233B9337A96B48F8
:1020D00002F0FCFE6A486B4B03604F23436085604F
:1020E000C5604FF48063036145618561C5614FF44C
:1020F00040330362456201F073FC40BB604BC4F89F
:1021000080309C636048614B0360502343604023F0
:1021100083600023C3604FF4806202614361836186
:10212000C3614FF440320262436201F059FC88B946
:10213000554BE3679C6300220521522001F08AFA87
:10214000522001F097FA93E7FFF77EFA9BE7FFF73B
:102150007BFAD3E7FFF778FAEAE701220023CDE91B
:10216000082308A804F022FD002876D1424BD3F8BA
:10217000F02042F01002C3F8F020D3F8F02002F073
:1021800010020392039AD3F8E02042F00102C3F850
:10219000E020D3F8E02002F001020492049AD3F880
:1021A000E02042F00202C3F8E020D3F8E03003F070
:1021B00002030593059B4FF400733793022738976A
:1021C000002539953A9507263B9637A9304802F005
:1021D0007DFE80233793389739953A953B9637A9FA
:1021E0002C4802F073FE2C482C4B036029234360DB
:1021F0008560C5604FF48063036145618561C56199
:102200004FF440330362456201F0EAFB40BB224BCE
:10221000C4F880309C632248224B03602A23436029
:10222000402383600023C3604FF4806202614361F6
:102230008361C3614FF440320262436201F0D0FB1C
:1022400088B9174BE3679C6300220521252001F024
:1022500001FA252001F00EFA0AE7FFF7F5F985E704
:10226000FFF7F2F9D3E7FFF7EFF9EAE7007800406C
:1022700000100140001C01400044025800100258A8
:10228000CC0E002440000240540E002458000240AE
:102290000000025800040258DC0D00241000024027
:1022A000640D00242800024001220023CDE9082308
:1022B00008A804F07BFC00286AD13A4BD3F8F02040
:1022C00042F08002C3F8F020D3F8F02002F0800240
:1022D0000692069AD3F8E02042F01002C3F8E020FC
:1022E000D3F8E03003F010030793079B04233793E0
:1022F00002273897002539953A953B932A4E37A9FE
:10230000304602F0E3FD08233793389739953A9524
:102310000B233B9337A9304602F0D8FD2348244BCA
:102320000360762343608560C5604FF4806303617A
:1023300045618561C5614FF440330362456201F038
:102340004FFB40BB194BC4F880309C6319481A4BB3
:10235000036077234360402383600023C3604FF40E
:102360008062026143618361C3614FF44032026263
:10237000436201F035FB88B90E4BE3679C63002292
:1023800005219C2001F066F99C2001F073F96FE6AD
:10239000FFF75AF991E7FFF757F9D3E7FFF754F939
:1023A000EAE700BF0044025800100258EC0C002479
:1023B00070000240740C002488000240DFF834D022
:1023C000FFF74EFC0C480D490D4A002302E0D4589B
:1023D000C4500433C4188C42F9D30A4A0A4C00236F
:1023E00001E013600432A242FBD30DF059FBFFF76A
:1023F000A1F97047000005240000002470060024A5
:10240000EC1501087006002420800024FEE700007F
:1024100010B5032001F00CF904F00AF80F498B699C
:10242000C3F303230E4AD35C03F01F03D8408B6928
:1024300003F00F03D35C03F01F0320FA03F3094AF0
:102440001360094B18600F20FFF71EFB10B1012429
:10245000204610BD0446FFF7FDFAF9E70044025894
:10246000941301080000002404000024034B1B788F
:10247000034A11680B441360704700BF0800002432
:1024800000110024014B1868704700BF00110024A0
:1024900038B50446FFF7F6FF0546B4F1FF3F02D01A
:1024A000044B1B781C44FFF7EDFF401BA042FAD3FE
:1024B00038BD00BF0800002410B400F1600C0D4CC2
:1024C000A0420CD05CF8210000F0004002F0F8427D
:1024D000134303434CF821305DF8044B70475CF81C
:1024E000210002F0F842134343F000434CF821303E
:1024F000F2E700BF0060025800F1600C094B9842FF
:1025000007D05CF8213023F000431A434CF8212017
:1025100070475CF8213023F0004313434CF821301E
:10252000704700BF0060025810B430300B0A9B00A7
:1025300003F00C03C45801F01F014FF01F0C0CFAFC
:1025400001FC24EA0C0CC2F384628A404CEA0202C9
:10255000C2505DF8044B704710B414304B0E9B0012
:1025600003F00403C458C1F304514FF0070C0CFAF4
:1025700001FC24EA0C0C8A404CEA0202C2505DF8CD
:10258000044B7047134B984211D0D0F8C030C1F3C0
:10259000130C23EA0C0C02F018020F4BD340194025
:1025A000C1F313014CEA0101C0F8C0107047D0F824
:1025B000B030C1F3130C23EA0C0C02F01802064BE6
:1025C000D3400B40C3F313034CEA0303C0F8B0300D
:1025D000704700BF00600258FFFF0F002DE9F04177
:1025E00004460E4603684649464A934218BF8B424A
:1025F00033D102F50072976807F01F076569082D4F
:102600000CD0092F31D840F22121F94011F0010FEF
:102610002BD0DB6813F0010F21D10425FFF732FF27
:10262000804623681A682A422BD1B6F1FF3FF8D0C2
:10263000FFF728FFA0EB0800B04201D8002EF0D130
:1026400023681B682B42ECD1236E43F004032366FE
:10265000002384F85C3003204DE02B4ACBE7236E47
:1026600043F020032366012045E0936813F4404FB4
:1026700001D10425D2E7236E43F020032366012015
:1026800039E0226E42F400722266DA6812F4406F7A
:1026900011D1627E7AB91A6812F0080F0BD0226E3F
:1026A00022F480722266226E12F4805F03D1226EC1
:1026B00042F001022266134A934214D01A46934212
:1026C00007D0092F12D840F22121F94011F0010F53
:1026D0000CD0DA68082D0BD012F4804F0DD10C22EB
:1026E0001A60002007E0A2F58072E8E7D268F1E7FF
:1026F00008221A600020BDE8F0810020FBE700BF3F
:102700000020024000210240006302580368186C58
:102710007047000070B582B00023019390F85C30E0
:10272000012B00F0A88204460D46012380F85C309E
:1027300001688B6813F0040F09D0036E43F0200387
:1027400003660120002384F85C3002B070BD2B6862
:10275000002B0CDBA74A914209D0C3F3130272BBD2
:10276000C3F3846301229A40CB691343CB612A6887
:1027700069682068FFF7D8FE2068836813F00403B7
:1027800000D00123826812F0080200D0012252EA30
:10279000030620D02068836813F0010F40F06782A1
:1027A000EA682968FFF7EEFEEA68934B9A4200F068
:1027B00036812B68002BC0F2E1810020C2E793FA3A
:1027C000A3F333B1B3FA83F303F01F0301229A405A
:1027D000CAE72023F8E7AA682968FFF7BDFE20684A
:1027E000844B984211D0854B1B6803F07043B3F1C2
:1027F000805F3DD0C36813F0100F40D16B69C26891
:10280000C2F382025200934005E06B69C268C2F3D2
:10281000C102520093402969042938D1754B98426E
:102820007FD0036E03F0F8432A68B3EB826F00F0A9
:10283000E7802268536E03F0F8432968B3EB816F99
:1028400000F0E3802268936E03F0F8432968B3EB4D
:10285000816F00F0DF802268D36E03F0F8432968AF
:10286000B3EB816F96D1D36E23F00043D36691E72B
:102870006B69C268C2F3820252009340CBE76B6976
:10288000C268920802F0040252009340C3E72A682B
:10289000FFF712FE2368574A93421CD0286995F827
:1028A0002120012A37D03146603353F8202022F00E
:1028B00000420A4343F8202021682A692B7E012B1D
:1028C0002CD00B6923F4F04302F01F0206FA02F247
:1028D00013430B615EE72869EA69603353F82010FF
:1028E00021F080710A4343F820202368296995F874
:1028F0002020012A0CD03F4A93427FF44BAF603333
:1029000053F8212022F00072324343F8212041E79E
:102910004FF00076EFE74FF00041C5E74FF4006657
:10292000CFE7036E026EC2F384622B68C3F3130118
:1029300081BBC3F384639A4234D02068436E426EF5
:10294000C2F384622B68C3F3130181BBC3F38463B6
:102950009A4234D02068836E826EC2F384622B6800
:10296000C3F3130181BBC3F384639A4234D020685C
:10297000C36EC26EC2F384622B68C3F3130181BBC2
:10298000C3F384639A427FF405AF00220321FFF76B
:10299000B3FDFFE693FAA3F313B1B3FA83F3CAE7E7
:1029A0002023C8E700221146FFF7A6FDC5E793FAEA
:1029B000A3F313B1B3FA83F3CAE72023C8E70022D5
:1029C0000121FFF799FDC5E793FAA3F313B1B3FA19
:1029D00083F3CAE72023C8E700220221FFF78CFD1A
:1029E000C5E793FAA3F313B1B3FA83F3CAE720233D
:1029F000C8E700BF006002580000FF470010005CFD
:102A0000036E23F00043036613E7536E23F0004385
:102A1000536617E7936E23F0004393661BE7206825
:102A20002B68C3F313063EBB9A0E013202F01F025D
:102A3000092A8CBF00220122002A55D05EBB990EC4
:102A40000131890601F0F8418EBB4FEA936C0CF11D
:102A5000010C0CF01F0C012202FA0CF21143AEBB68
:102A60009B0E013303F01F0303EB43031B051943C4
:102A7000AA68FFF771FD9CE693FAA3F24AB1B2FA95
:102A800082F2013202F01F02092A8CBF00220122C9
:102A9000D2E72022F5E793FAA3F131B1B1FA81F13F
:102AA0000131890601F0F841CEE72021F8E793FAD9
:102AB000A3F24AB1B2FA82F2013202F01F024FF0E1
:102AC000010C0CFA02F2C9E72022F5E793FAA3F30E
:102AD00043B1B3FA83F3013303F01F0303EB430362
:102AE0001B05C4E72023F6E7E6B9990E01318906F4
:102AF00001F0F84116BB4FEA936C0CF1010C0CF09D
:102B00001F0C012202FA0CF2114336BB9B0E01335B
:102B100003F01F0303EB43031E3B1B0543F000734D
:102B20001943A5E793FAA3F131B1B1FA81F101316B
:102B3000890601F0F841DDE72021F8E793FAA3F2D6
:102B40004AB1B2FA82F2013202F01F024FF0010CD8
:102B50000CFA02F2D8E72022F5E793FAA3F35BB16F
:102B6000B3FA83F3013303F01F0303EB43031E3B6C
:102B70001B0543F00073D3E72023F3E722683F49A6
:102B80003F48824218BF8A420CBF0121002118D160
:102B90003C4EB56805F0E07CA9B13849886810F072
:102BA000010000D001203649896811F0010100D0F0
:102BB000012101430CD0236E43F020032366012042
:102BC000C0E5314EE5E73149896811F0010FF2D1D6
:102BD0002F498B4207D02F498B4226D02E498B425A
:102BE00034D00020AEE515F4000FF4D1274B9A4203
:102BF00001D00020A6E54CF40003B26822F0E07298
:102C00001343B360254B1B689B09254AA2FB032392
:102C10009B0901335B00019302E0019B013B01939F
:102C2000019B002BF9D100208CE515F0807FD5D1D8
:102C3000164B9A4201D0002084E54CF08073B268B4
:102C400022F0E0721343B36000207BE515F4800F9F
:102C50000FD10E4B9A4201D0002073E54CF4800353
:102C6000B26822F0E0721343B36000206AE50020EE
:102C700068E5002066E5022067E500BF002002400D
:102C80000021024000230240006302580060025805
:102C9000000052C7000021C3000084CB04000024C0
:102CA000632D3E0570B504460068826812F0040288
:102CB00000D00122836813F0080300D001231343DE
:102CC00069D0C36813F0007F04D0228B40F2011357
:102CD0009A424AD0022910D023689A6812F0040F51
:102CE00009D09A6812F0020F05D198682B4A024069
:102CF00042F010029A60012945D023689A6812F0C8
:102D0000080F09D09A6812F0020F05D19868234A7B
:102D1000024042F020029A60022936D0032936D1BF
:102D20000C25FFF7AFFB064623689B682B4230D08B
:102D3000FFF7A8FB831B052BF6D923689B682B4262
:102D4000F2D0236E43F010032366636E43F0010359
:102D50006366012020E0236E43F010032366636E58
:102D600043F001036366012016E00023026812F0BD
:102D7000400F04D10A4A9342EDD80133F6E74023CD
:102D800003600121A8E70425CBE70825C9E704254E
:102D9000C7E7002000E0002070BD00BFC0FFFF7F3C
:102DA000FFDB0C0038B503689A6812F0010F56D1AA
:102DB000044699682B4A114209D0036E43F0100370
:102DC0000366436E43F001034366012048E09968BF
:102DD000254A0A4042F001029A60FFF753FB05467C
:102DE00023682249224A934218BF8B420DD102F533
:102DF0000072926802F01F021D498B4207D01946EB
:102E0000994207D032B100202AE01A4AF1E7A1F531
:102E10008071F5E723681A6812F0010F1DD19A68D6
:102E200012F0010F05D199680F4A0A4042F00102E1
:102E30009A60FFF727FB401B0228EBD923681B6829
:102E400013F0010FE6D1236E43F010032366636E87
:102E500043F001036366012002E0002000E000204F
:102E600038BD00BF3F000080C0FFFF7F0020024050
:102E7000002102400063025838B5044603683E4909
:102E80003E4A934218BF8B4254D102F500729568B6
:102E900005F01F059B6813F0040F69D194F85C30AE
:102EA000012B67D0012384F85C302046FFF77AFFBE
:102EB000002859D1226EA0F60273134043F48073A8
:102EC000236623682D4A934236D01A46934200D097
:102ED0001DB9226E22F480122266226E12F4805FE7
:102EE0002DD0626E22F0060262661C221A60002358
:102EF00084F85C302368214A934223D01A469342D7
:102F000007D0092D21D840F22121E94011F0010F0D
:102F10001BD0DA6812F0007F05D0226E22F44052F6
:102F200042F4805222669968154A0A4042F004022F
:102F30009A601EE0134AAAE7A2F58072C6E7002253
:102F40006266D2E7A2F58072D9E7236E43F480135C
:102F50002366D36813F0007F0BD0236E23F4405315
:102F600043F48053236604E0002384F85C3000E0DF
:102F7000022038BD0220FCE7002002400021024070
:102F8000C0FFFF7F0063025838B5044602689368AB
:102F900013F0020300D00123916811F0010F37D024
:102FA000002B37D1936803F00D03012B09D0236E5A
:102FB00043F010032366636E43F001036366012050
:102FC00027E09168144B0B4043F0020393602368A1
:102FD00003221A60FFF756FA054623689B6813F030
:102FE000010F13D0FFF74EFA401B0228F5D92368D2
:102FF0009B6813F0010FF0D0236E43F0100323669B
:10300000636E43F001036366012002E0002000E0EC
:10301000002038BD0020FCE7C0FFFF7F90F85C3047
:10302000012B18D010B50446012380F85C30032131
:10303000FFF738FE18B1002384F85C3010BD20463D
:10304000FFF7A2FF0028F6D1226E044B134043F095
:1030500001032366EFE70220704700BFFEEEFFFF8B
:1030600010B5044603684349434A934218BF8B4254
:103070001FD1424B9B6813F4403F14BF0123002330
:103080000BB303F01BFC6368B3F5003F05D0B3F549
:10309000403F16D0B3F5803F02D11B0CB0FBF3F0DC
:1030A000374B984249D82268936823F44073936061
:1030B00010BD344B9B6813F4403F14BF0123002321
:1030C000DEE78008ECE74FF40020002104F096FDD5
:1030D0006368B3F5101F2CD021D8B3F5E01F26D0BC
:1030E00004D9B3F5001FDBD14009D9E7B3F5801F40
:1030F00010D009D8B3F5002F0CD0B3F5402F09D06C
:10310000B3F5802F06D0CBE7B3F5A01F02D0B3F5FF
:10311000C01FC5D19B0C5B00B0FBF3F0C0E7B3F55B
:10312000201F08D0B3F5301FBAD1000AB8E7000954
:10313000B6E78009B4E7C009B2E7134B984207D855
:103140002268936823F4407343F480739360AFE77D
:103150000E4B984207D82268936823F4407343F4D7
:1031600000739360A4E72268936843F4407393600C
:103170009EE700BF002002400021024000230240E1
:1031800021BCBE000063025841787D0181F0FA0243
:1031900030B583B000230193002800F0438104463A
:1031A000036EEBB123689A6812F0005F03D0996850
:1031B0009D4A0A409A6023689A6812F0805F1CD189
:1031C00099689A4A0A4042F080529A60984B1B686C
:1031D0009B09984AA2FB03239B090133019309E051
:1031E000FDF7E8FE0023636684F85C30DAE7019BB4
:1031F000013B0193019B002BF9D123689A6812F0DF
:10320000805F40F09F80226E42F010022266626E64
:1032100042F00102626601259A6812F0040200D0B1
:103220000122216E11F0100F40F0F480002A40F0CE
:10323000F180216E21F4817141F0020121669968CB
:1032400011F0010F1ED17C487C498B4218BF83428C
:103250000CBF0123002377D1806810F0010000D05B
:1032600001207649896811F0010100D00121014354
:1032700008D1002B6ED072486368816821F47C11FC
:103280000B43836021686F4B994265D0627EE36B8C
:1032900043EA4233A268134394F8202043EA0243EE
:1032A00094F82020012A6FD0A26A22B102F4787229
:1032B000E06A02431343634A91426AD0C868624A93
:1032C00002401A43CA6021688A6812F0040200D0E2
:1032D00001228B6813F0080300D00123134322D18D
:1032E000584B994262D0237E226B42EA8332C868EF
:1032F000564B03401343CB6094F84430012B5CD011
:103300002268136923F0010313612268136923F013
:103310007043216C0B43136122684A4B9A4202D0DE
:103320002046FFF79DFE2369012B6AD02268136BAC
:1033300023F00F031363236E23F0030343F0010311
:1033400023666CE0002567E73E49896811F0010FAC
:1033500098D18EE73E488FE7607EE36B43EA4033C7
:10336000E0680343A068182804D01C2808D00C2863
:1033700008D10820034394F8202043EA02438FE752
:103380001020F7E71046F5E7626A013A43EA424344
:103390008AE7C8682F4A02401A43CA602268136944
:1033A00023F04063616B0B4313618CE7237E94F839
:1033B0003820520042EA833299E72168214B994232
:1033C00010D00A69244B1340A26C501EE26C42EAF2
:1033D0000042206D0243606D0243134343F001033A
:1033E0000B6192E70A691D4B1340A26CE06C02432B
:1033F000206D0243606D0243134343F001030B61F0
:1034000083E721680B6B23F00F03E269013A134352
:103410000B6390E7236E43F01003236601252846D3
:1034200003B030BD0125FAE7C0FFFF5FC0FFFF6FAB
:1034300004000024632D3E050020024000210240CC
:10344000002302400060025803C0F0FFFCBFFFFFF2
:10345000006302580740F0FF1EF800FC1FF800FC54
:1034600090F85C20012A00F0968030B49CB00346AE
:10347000012280F85C200022189219920068474AC5
:10348000904236D000220092009A002A35D09268ED
:1034900012F0040200D00122846814F0040F6BD1F2
:1034A000002A69D13D4C3E4A904218BFA0422DD11E
:1034B00002F500720868002839D0906820F4404076
:1034C0004C68204390601868344D354CA04218BFBA
:1034D000A8421DD1AC6814F0010400D0012430488A
:1034E000806810F0010000D00120204315D000209A
:1034F00047E002F580720092C6E71A6E42F02002A1
:103500001A66002283F85C2001203DE0254AD1E7BD
:103510002548806810F0010F39D194682348204075
:103520000C688968214308439060002029E0916875
:1035300021F4404191601968184C1948814218BF24
:10354000A1420ED1A06810F0010000D00120144962
:10355000896811F0010100D00121014306D000204B
:103560000FE01149896811F0010F12D190680F49DD
:1035700001409160002004E01A6E42F020021A66B9
:103580000120002283F85C201CB030BC7047002072
:10359000F7E70020F5E70220704700BF0020024057
:1035A000002102400063025800600258E0F0FFFF73
:1035B000002807DB00F01F02400901239340024A64
:1035C00042F82030704700BF00E100E0002804DB33
:1035D0000901C9B2044B1954704700F00F000901EA
:1035E000C9B2024B1954704700E400E014ED00E04A
:1035F00000B500F00700C0F1070CBCF1040F28BFB4
:103600004FF0040C031D062B0FD9C31E4FF0FF3ED5
:103610000EFA0CF021EA000199400EFA03FE22EAAC
:103620000E0241EA02005DF804FB0023EEE7000011
:103630000649CB6823F4E0631B041B0C000200F472
:10364000E0600343024A1A43CA60704700ED00E09D
:103650000000FA0510B50446054BD868C0F30220F7
:10366000FFF7C6FF01462046FFF7B0FF10BD00BFC1
:1036700000ED00E008B5FFF79BFF08BD002838D03B
:1036800010B50446437F1BB30223637723791BBB2A
:103690002368194A5A612268936823F018039360DB
:1036A000637913BB23684FF0FF321A612268936875
:1036B00023F0600361690B4393602268936823F0F1
:1036C0008003A1690B43936001236377002010BD41
:1036D0000377FDF7E5FCD7E7E268A168204600F034
:1036E0000DF80028DCD00120F1E7236822691A6177
:1036F000DCE70120704700BFB71DC10411F0010FC6
:1037000030D010B41F231C46013B34B103F01F0C12
:1037100021FA0CFC1CF0010FF5D0182A24D8DFE8A0
:1037200002F00F232323232323231D2323232323D7
:10373000232319232323232323230D00062B17D808
:103740000368596101688B6823F0180313438B6089
:1037500000200AE0072BF3D9012006E00F2BEFD958
:10376000012002E00120704701205DF8044B704702
:103770000120FAE703682749274A934218BF8B4282
:103780002FD0183293422CD01832934229D01832BD
:10379000934226D01832934223D01832934220D03D
:1037A000183293421DD002F55672934219D0183246
:1037B000934216D01832934213D01832934210D04D
:1037C000183293420DD0183293420AD018329342E5
:1037D00007D01832934204D023F0FF038365806D35
:1037E000704710B4D9B210390C4AA2FB0142C2F39F
:1037F00002120B4CA25CC2655F2907D96FF3090363
:1038000004338365806D5DF8044B70476FF30903E3
:103810008365F7E71000024028000240ABAAAAAA7D
:10382000A413010883699BB9836A012B0AD0022B78
:1038300002D00BB100207047C36A13F0807F2AD1F9
:1038400000207047C36AB3F1C07F26D000207047C4
:10385000B3F5005F0AD0836A022B26D9032B26D149
:10386000C36A13F0807F24D100207047836A032B42
:1038700003D8DFE803F01404140A00207047C36A79
:1038800013F0807F0DD100207047C36AB3F1C07F71
:1038900009D00020704701207047012070470120A7
:1038A00070470120704701207047012070470020B9
:1038B000704701207047000003682149214A934264
:1038C00018BF8B4227D01432934224D01432934233
:1038D00021D0143293421ED0143293421BD01432A2
:1038E000934218D01432934215D0DAB2103A1649E6
:1038F000A1FB0212120915491944A8291ED9144B1B
:1039000013449B000366134B436602F01F0201231E
:10391000934083667047DBB2083B0F4AA2FB032348
:103920000E4A02EB1312920002660D4A4266C3F37E
:103930000413012202FA03F3836670470832DEE7BC
:10394000085402581C540258ABAAAAAAF0FBFDBFA7
:103950000082001080080240CDCCCCCC009600162E
:103960008058025801794A1E072A2BD830B40368C0
:10397000154D164CA34218BFAB4218D01434A342C5
:1039800015D01434A34212D01434A3420FD01434EF
:10399000A3420CD01434A34209D01434A34206D05D
:1039A0000B4B0B449B00C3660A4B036705E00A4BB5
:1039B0000B449B00C366094B036701239340436795
:1039C00030BC7047704700BF085402581C5402585E
:1039D0003F820010400902403F96001640590258AD
:1039E00070B50446FEF74EFD002C00F0B781054689
:1039F00023685349534A934218BF8B420CBF01219D
:103A0000002150D0183293424DD0183293424AD000
:103A10001832934247D01832934244D0183293421E
:103A200041D0183293423ED002F5567293423AD0BA
:103A30001832934237D01832934234D0183293421E
:103A400031D0183293422ED0183293422BD01832F4
:103A5000934228D01832934225D03B493B4A9342A7
:103A600018BF8B4200F03281394A934200F02E8118
:103A70001432934200F02A811432934200F02681DE
:103A80001432934200F022811432934200F01E81DE
:103A90001432934200F01A8140236365032384F8B3
:103AA000353001204AE0022284F83520002284F8D3
:103AB000342079BB274A93422CD01832934229D024
:103AC0001832934226D01832934223D018329342B0
:103AD00020D0183293421DD002F55672934219D06D
:103AE0001832934216D01832934213D018329342B0
:103AF00010D0183293420DD0183293420AD01832A7
:103B0000934207D01832934204D01A6822F001027F
:103B10001A6003E01A6822F001021A6023681A682A
:103B200012F0010F18D0FEF7ADFC431B052BF5D9A1
:103B300020236365032384F83530012070BD00BF66
:103B40001000024028000240085402581C54025839
:103B500030540258400002401A6881491140A2685E
:103B6000E06802432069024360690243A06902439E
:103B7000E0690243206A02430A43616A042900F0B3
:103B800090806168522900F296803F29C0F08E80B3
:103B90003F39744820FA01F111F0010F01D042F4CD
:103BA00080121A602668756925F00705636A1D434F
:103BB000042B08D1A36A1D43E36A23B12046FFF713
:103BC00031FE00287CD175612046FFF7D3FDE36DFF
:103BD00003F01F023F239340836023686249634AD6
:103BE000934218BF8B4242D0183293423FD01832D2
:103BF00093423CD01832934239D01832934236D097
:103C00001832934233D01832934230D002F55672B4
:103C100093422CD01832934229D01832934226D0A6
:103C20001832934223D01832934220D01832934254
:103C30001DD0183293421AD01832934217D04C4AF2
:103C4000934214D01432934211D0143293420ED0C6
:103C5000143293420BD01432934208D01432934260
:103C600005D01432934202D01432934213D120462D
:103C7000FFF722FEA368802B63D0236E22791A609F
:103C8000636EA26E5A606368013B072B5CD9002308
:103C9000E3662367636700206065012384F835309D
:103CA0004CE7E16A206B01430A436AE72939052999
:103CB0003FF677AF73E7743903293FF672AF6EE7CB
:103CC00040236365012084F8350037E7022284F839
:103CD0003520002284F8342019686FF31011A2688F
:103CE000402A2CD0802A27D00022E06842EAD00265
:103CF000206942EAD002606942EAD002A06942EA41
:103D0000D002E06942EAD002206A42EA10120A4375
:103D10001A602268174B1344174AA2FB03231B099E
:103D20009B00E3652046FFF725FDE26D02F01F01D1
:103D300001228A40426050E74FF48042D5E71022CA
:103D4000D3E70023636098E72046FFF70BFEE36E9E
:103D500000221A60236F626F5A609CE70120EDE633
:103D60003F8010FE0F030F001000024028000240A9
:103D700008540258F8ABFDA7CDCCCCCC70B50446A6
:103D8000FEF780FB002C00F09181054694F8353059
:103D9000DBB2022B06D080236365002384F8343025
:103DA000012070BD23688C498C4A934218BF8B4216
:103DB00030D0183293422DD0183293422AD0183284
:103DC000934227D01832934224D01832934221D004
:103DD000183293421ED002F5567293421AD018320E
:103DE000934217D01832934214D01832934211D014
:103DF000183293420ED0183293420BD018329342AD
:103E000008D01832934205D01A6822F00E021A60C8
:103E1000266809E01A6822F01E021A6022685369B7
:103E200023F080035361266823686B496B4A9342F1
:103E300018BF8B4242D0183293423FD0183293427F
:103E40003CD01832934239D01832934236D01832CF
:103E5000934233D01832934230D002F556729342D7
:103E60002CD01832934229D01832934226D01832DF
:103E7000934223D01832934220D0183293421DD05F
:103E8000183293421AD01832934217D0544A9342B0
:103E900014D01432934211D0143293420ED0143203
:103EA00093420BD01432934208D01432934205D07F
:103EB0001432934202D01432934204D1226E13681A
:103EC00023F48073136023684349444A934218BF24
:103ED0008B422FD0183293422CD01832934229D0E3
:103EE0001832934226D01832934223D0183293428C
:103EF00020D0183293421DD002F55672934219D049
:103F00001832934216D01832934213D0183293428B
:103F100010D0183293420DD0183293420AD0183282
:103F2000934207D01832934204D01A6822F001025B
:103F30001A6003E01A6822F001021A60336813F075
:103F4000010F0ED0FEF79EFA431B052BF6D9202356
:103F50006365032384F83530002384F8343001206E
:103F60001FE723681C491D4A934218BF8B4239D072
:103F70001832934236D01832934233D018329342DB
:103F800030D0183293422DD0183293422AD01832B2
:103F9000934227D002F55672934223D018329342AF
:103FA00020D0183293421DD0183293421AD01832C2
:103FB000934217D01832934214D01832934211D042
:103FC000183293420ED0A16DE36D03F01F0201235E
:103FD00093404B600DE000BF1000024028000240FB
:103FE00008540258A16DE36D03F01F023F23934074
:103FF0008B6023682E492F4A934218BF8B4242D0D0
:10400000183293423FD0183293423CD01832934238
:1040100039D01832934236D01832934233D0183206
:10402000934230D002F5567293422CD0183293420C
:1040300029D01832934226D01832934223D0183216
:10404000934220D0183293421DD0183293421AD096
:104050001832934217D0184A934214D01432934224
:1040600011D0143293420ED0143293420BD014323A
:10407000934208D01432934205D01432934202D0B6
:10408000143293420BD1636EA26E5A60E36E33B169
:104090001A6822F480721A60236F626F5A600123DB
:1040A00084F83530002084F834007AE6012078E680
:1040B000100002402800024008540258002800F076
:1040C000288108B5024690F83530DBB2022B03D0C8
:1040D00080234365012008BD0368904890498B42C6
:1040E00018BF83420CBF0120002065D018318B42DD
:1040F00062D018318B425FD018318B425CD01831BE
:104100008B4259D018318B4256D018318B4253D044
:1041100001F556718B424FD018318B424CD018317B
:104120008B4249D018318B4246D018318B4243D054
:1041300018318B4240D018318B423DD018318B4220
:104140003AD0196821F00E01196013687348744958
:104150008B4218BF83426AD072498B4267D01831B4
:104160008B4264D018318B4261D018318B425ED0C3
:1041700018318B425BD018318B4258D001F5567103
:104180008B4254D018318B4251D018318B424ED0D3
:1041900018318B424BD018318B4248D018318B42AA
:1041A00045D018318B4242D018318B423FD019682C
:1041B00021F0010119603EE0042182F8351080BB36
:1041C000584A93422DD0183293422AD01832934243
:1041D00027D01832934224D01832934221D018327B
:1041E00093421ED002F5567293421AD0183293426F
:1041F00017D01832934214D01832934211D018328B
:1042000093420ED0183293420BD01832934208D00A
:104210001832934205D01A6822F001021A60002079
:1042200059E71A6822F001021A60002053E7196862
:1042300021F0010119601368384839498B4218BFD1
:10424000834242D018318B423FD018318B423CD050
:1042500018318B4239D018318B4236D018318B420D
:1042600033D018318B4230D001F556718B422CD0AF
:1042700018318B4229D018318B4226D018318B420D
:1042800023D018318B4220D018318B421DD01831E9
:104290008B421AD018318B4217D023498B4214D04D
:1042A00014318B4211D014318B420ED014318B4219
:1042B0000BD014318B4208D014318B4205D014310D
:1042C0008B4202D014318B4217D1116E0B6823F44C
:1042D00080730B60906DD36D03F01F0101238B4041
:1042E0004360536E916E5960D36E33B1196821F4F7
:1042F00080711960136F516F5960012382F8353056
:10430000002382F83430136D2BB1104698470020FB
:10431000E1E6012070470020DDE600BF100002400A
:10432000280002404000024008540258F0B583B013
:104330000446002301937D4B1D687D4BA3FB05358F
:10434000AD0A876D3E68D7F800C0036879497A489E
:10435000834218BF8B420CBF0120002061D0774AF6
:1043600093425ED0183293425BD01832934258D0B9
:104370001832934255D01832934252D01832934299
:104380004FD002F5567293424BD01832934248D028
:104390001832934245D01832934242D01832934299
:1043A0003FD0183293423CD01832934239D0183261
:1043B000934236D06249634A934218BF8B4212D06F
:1043C000614A93420FD0143293420CD0143293427C
:1043D00009D01432934206D01432934203D01432DF
:1043E000934240F061821A68E16D01F01F010420E0
:1043F000884010EA0C0F00F0A78212F0040F00F0C2
:10440000A382786012F4004F00F05A8212F4803FC9
:1044100040F05082A36C002B00F046822046984763
:1044200042E2E26D02F01F0108228A40324241D08E
:1044300070BB424A93422BD01832934228D0183294
:10444000934225D01832934222D0183293421FD083
:10445000183293421CD002F55672934218D018328B
:10446000934215D01832934212D0183293420FD093
:10447000183293420CD01832934209D0183293422A
:1044800006D01832934203D01A68C2F3C00202E089
:104490001A68C2F380026AB11A6822F004021A6034
:1044A000E36D03F01F0208239340BB60636D43F08C
:1044B00001036365E26D02F01F0226FA02F313F0B6
:1044C000010F47D023681B481B498B4218BF83420A
:1044D0003CD018318B4239D018318B4236D018314C
:1044E0008B4233D018318B4230D018318B422DD0D3
:1044F00018318B422AD001F556718B4226D01831E3
:104500008B4223D018318B4220D018318B421DD0E2
:1045100018318B421AD018318B4217D018318B4288
:1045200014D018318B4211D01B6813E00400002412
:10453000B5814E1B1000024028000240400002409E
:10454000085402581C540258305402585B6913F046
:10455000800F3BD1E36D03F01F03042202FA03F343
:1045600033423FD02268964896498A4218BF824219
:1045700034D018318A4231D018318A422ED01831C5
:104580008A422BD018318A4228D018318A4225D04D
:1045900018318A4222D001F556718A421ED0183154
:1045A0008A421BD018318A4218D018318A4215D05D
:1045B00018318A4212D018318A420FD018318A42FB
:1045C0000CD018318A4209D013680BE001239340C4
:1045D000BB60636D43F002036365BBE7126812F0D2
:1045E000020F3DD1E36D03F01F03102202FA03F323
:1045F00033425FD02268724872498A4218BF8242B1
:1046000034D018318A4231D018318A422ED0183134
:104610008A422BD018318A4228D018318A4225D0BC
:1046200018318A4222D001F556718A421ED01831C3
:104630008A421BD018318A4218D018318A4215D0CC
:1046400018318A4212D018318A420FD018318A426A
:104650000CD018318A4209D01268C2F3800208E0F7
:10466000BB60636D43F004036365BBE71268C2F38C
:10467000C002FAB1BB6023681A6812F4802F0DD013
:104680001B6813F4002F04D1236C9BB1204698477C
:1046900010E0A36C73B1204698470BE01A6812F43F
:1046A000807F03D11A6822F008021A60236C0BB1D4
:1046B00020469847E36D03F01F03202202FA03F31C
:1046C000334200F0938022683D483E498A4218BF39
:1046D00082422ED018318A422BD018318A4228D0FB
:1046E00018318A4225D018318A4222D018318A42A4
:1046F0001FD018318A421CD001F556718A4218D059
:1047000018318A4215D018318A4212D018318A42A3
:104710000FD018318A420CD018318A4209D0183192
:104720008A4206D018318A4203D01268C2F340028E
:1047300002E01268C2F30012002A57D0BB6094F85E
:104740003530DBB2042B0ED023681A6812F4802FA8
:104750003AD01B6813F4002F2DD1636C002B45D089
:104760002046984742E02268136823F0160313603E
:104770002268536923F080035361236CBBB1226824
:10478000136823F008031360E36D03F01F023F2357
:104790009340BB60012384F83530002384F8343023
:1047A000236D002B00F08080204698477CE0A36CAE
:1047B000002BE4D1E8E7E36BC3B12046984715E04E
:1047C00010000240280002401A6812F4807F09D1CC
:1047D0001A6822F010021A60012384F83530002391
:1047E00084F83430E36B0BB120469847636D002B9F
:1047F0005AD0636D13F0010F52D0042384F8353082
:1048000023689649964A934218BF8B422FD018329C
:1048100093422CD01832934229D01832934226D09A
:104820001832934223D01832934220D01832934248
:104830001DD002F55672934219D01832934216D009
:104840001832934213D01832934210D01832934248
:104850000DD0183293420AD01832934207D0183242
:10486000934204D01A6822F001021A6003E01A6829
:1048700022F001021A60019B01330193AB4204D87C
:1048800023681B6813F0010FF5D123681B6813F030
:10489000010F0BD0032384F83530002384F8343023
:1048A000E36C0BB12046984703B0F0BD012384F8B8
:1048B0003530F2E7236C002BF6D020469847F3E71B
:1048C00012F0200F3AD123686449654A934218BF19
:1048D0008B422FD0183293422CD01832934229D0D9
:1048E0001832934226D01832934223D01832934282
:1048F00020D0183293421DD002F55672934219D03F
:104900001832934216D01832934213D01832934281
:1049100010D0183293420DD0183293420AD0183278
:10492000934207D01832934204D01A6822F004024E
:104930001A6003E01A6822F008021A60236C002B48
:10494000B2D020469847AFE70220884010EA0C0F0B
:1049500060D012F0020F5DD0786012F4004F0ED0DC
:1049600012F4803F05D1636C002B9DD02046984700
:104970009AE7E36B002B97D02046984794E712F014
:10498000200F40D123683549354A934218BF8B42E6
:104990002FD0183293422CD01832934229D018329B
:1049A000934226D01832934223D01832934220D01B
:1049B000183293421DD002F55672934219D0183224
:1049C000934216D01832934213D01832934210D02B
:1049D000183293420DD0183293420AD018329342C3
:1049E00007D01832934204D01A6822F00A021A60E3
:1049F00003E01A6822F014021A60012384F83530AB
:104A0000002384F83430E36B002B3FF44DAF204695
:104A1000984749E7082000FA01F111EA0C0F3FF42A
:104A200043AF12F0080F3FF43FAF1A6822F00E02B6
:104A30001A60E36D03F01F03012202FA03F37B60A7
:104A4000626584F83520002384F83430E36C002B51
:104A50003FF42AAF2046984726E700BF10000240E7
:104A60002800024030B4416B0468D4F884306F4AA7
:104A7000134043EA8103C4F884300468D4F88430D6
:104A800023F47F03856B43EA0543C4F88430836BCA
:104A90000B440468D4F88810114041EA8301C4F83B
:104AA00088100468D4F8881021F4FE01C56B41EA2F
:104AB0000541C4F88810C16B03EB41030468D4F8C6
:104AC000A010114041EA8301C4F8A0100468D4F892
:104AD000A01021F4FE01056C41EA0541C4F8A010C4
:104AE000016C446C04FB01330468D4F8B01011402D
:104AF00041EA8301C4F8B0100468D4F8B01021F47E
:104B0000FE01856C41EA0541C4F8B010816CC46CAB
:104B100004FB01330468D4F8AC10114041EA83016E
:104B2000C4F8AC10016D446D04FB01330468D4F883
:104B3000F010114041EA8301C4F8F0100468D4F881
:104B4000F01021F47C11856D41EA0541C4F8F010A4
:104B5000816D03EB41030468D4F8C0100A4042EAB7
:104B60008303C4F8C0300268D2F8C03023F47C1349
:104B7000C16D43EA0143C2F8C0300268D2F8C030C8
:104B800023F07C53016E43EA0163C2F8C030436BEB
:104B9000274A1A449200C266836B02EB83030367C1
:104BA000C16B03EBC1034367016C446C04FB01F16F
:104BB00003EB81038367816CC46C04FB01F103EB9D
:104BC0008103C367016D446D04FB01F103EB8103B5
:104BD000C0F88030816D03EBC103C0F88430816E72
:104BE000C46D01FB04FC03EB8C03C0F88830046E39
:104BF00004FB01F103EB8103C0F890300D498B42B7
:104C00000DD9D0F89C3043F02003C0F89C3003232A
:104C100080F89830012007E0002342F8043BD0F8E8
:104C200090309342F8D8002030BC70470300FFFF5B
:104C3000002B0010FCD3004030B595B004464C2248
:104C4000A04901A8FBF77CFF002C00F03881236805
:104C50009D4A934220D094F898300BB32268936910
:104C600023F010039361FDF70DFC054623689A6954
:104C700012F0080F1AD0FDF705FC431B0A2BF5D9DB
:104C8000D4F89C3043F00103C4F89C30032384F82B
:104C90009830012015B030BD03F580736360DAE70A
:104CA00084F899302046FCF7FDFAD7E79A6942F07C
:104CB00001029A61FDF7E6FB054623689A6912F046
:104CC000010F0FD1FDF7DEFB401B0A28F5D9D4F800
:104CD0009C3043F00103C4F89C30032384F89830DF
:104CE0000120D7E79A6942F002029A61237C012BE6
:104CF00040D02268936943F040039361637C012BA9
:104D00003ED02268936923F480439361A37C012BF6
:104D10003CD02268936943F480539361226893697D
:104D200023F44073A1680B4393612268936923F0D5
:104D3000A40393612268136923F010031361E368ED
:104D4000012B29D0002B2CD0022B00F09B80226855
:104D5000936943F0800393612268136943F0100361
:104D60001361E368032B1CD12268936943F020038D
:104D7000936116E02268936923F040039361BDE7D5
:104D80002268936943F480439361BFE72268936983
:104D900023F480539361C1E72268936943F00403CD
:104DA0009361A3695A1EE369013B1B0243EA426314
:104DB000226A013A13436269013A216843EA0243D5
:104DC000CB61A368B3F5407F62D0236E33B1226814
:104DD000D2F8C030616E0B43C2F8C030E36D226E72
:104DE000D3420DD02168D1F8C83023F00703A26E5A
:104DF00014A800EB820252F84C2C1343C1F8C830BF
:104E0000236C6BB12168D1F8BC3023F00703626CCE
:104E100014A800EB820252F84C2C1343C1F8BC30AA
:104E2000A36C73B12168D1F8BC3023F07003E26C3D
:104E300014A800EB820252F84C2C43EA0213C1F88A
:104E4000BC30236D73B12168D1F8BC3023F4E0632A
:104E5000626D14A800EB820252F84C2C43EA022344
:104E6000C1F8BC302268184B9A4222D00023C4F803
:104E70009430C4F89C30012384F898302046FFF722
:104E8000F1FD07E72268936943F02003936188E707
:104E9000A36A013BE26A013A43EA0223226B013A28
:104EA00043EA0213626A013A216843EA0243CB6093
:104EB0008BE76268936823F003039360D6E70120D1
:104EC000E8E600BFE811010800A00040F0B583B09B
:104ED00000236BE085685E000324B44025EA0405E6
:104EE000CC68B4402C438460456825EA0C054C68C6
:104EF000C4F300149C402C43446069E0DD0808358D
:104F000050F8254003F0070C4FEA8C0C4FF00F0EC1
:104F10000EFA0CFE24EA0E0E0C6904FA0CF444EAB4
:104F20000E0440F825406BE0092400E0002404FA58
:104F30000EF42C430CF1020C664D45F82C404FF05A
:104F4000B0442568D44325EA02064F6817F4801F51
:104F500001D042EA05064FF0B0452E606D6804EAC4
:104F600005064F6817F4001F01D042EA05064FF00E
:104F7000B0456E60D5F8845004EA05064F6817F412
:104F8000003F01D042EA05064FF0B045C5F8846005
:104F9000D5F880502C404E6816F4803F01D042EA8C
:104FA00005044FF0B042C2F8804001330A6832FA7B
:104FB00003F400F08C804FF0010C0CFA03FC1CEAA7
:104FC0000202F2D04C6804F00304013C012C81D9A8
:104FD0004C6804F00304032C0CD0C4685D004FF04F
:104FE000030C0CFA05FC24EA0C0C8C68AC4044EA77
:104FF0000C04C4604C6804F00304022C3FF47EAF40
:1050000004684FEA430E4FF0030C0CFA0EFC24EA3E
:105010000C0C4C6804F0030404FA0EF444EA0C048B
:1050200004604C6814F4403FBFD02B4CD4F8F450CB
:1050300045F00205C4F8F450D4F8F44004F002043A
:105040000194019C4FEA930C0CF10205214C54F899
:10505000255003F0030E4FEA8E0E0F2404FA0EF4CF
:1050600025EA04051D4CA0423FF460AF04F58064BE
:10507000A0421ED004F58064A0421CD004F58064D8
:10508000A0421AD004F58064A04218D004F58064D0
:10509000A04216D004F58064A04214D004F58064C8
:1050A000A04212D004F50064A0423FF43DAF0A24B0
:1050B0003DE701243BE7022439E7032437E70424D2
:1050C00035E7052433E7062431E707242FE703B04B
:1050D000F0BD00BF00040058004402580000025810
:1050E0000AB18161704709048161704708B54FF0CA
:1050F000B043D3F88830034200D108BD4FF0B0432D
:10510000C3F8880009F028FFF7E72DE9F04383B0E2
:10511000D0F8008001EBC10300EB83039A6A5B6A5D
:105120009A4254D807460C469B1A01EBC10200EB89
:105130008202D2699A4200D31A4602F103094FEA69
:10514000990915E006F103094FEA9909BB7904EBC7
:10515000C40507EB8505296A0093B3B2E2B2404665
:1051600005F091FE2B6A33442B62AB6A3344AB6289
:1051700008EB441303F510639B699BB24B4512D3B4
:1051800004EBC40307EB83039A6A5B6A9A420AD270
:105190004BB19B1A04EBC40207EB8202D6699E4214
:1051A000D0D31E46CEE704EBC40307EB83077A6A2D
:1051B000BB6A9A420FD804F00F040122A240D8F82B
:1051C000343823EA0203C8F83438002000E0012014
:1051D00003B0BDE8F0830020FAE730B583B00028C3
:1051E0007AD0044690F89534ABB1032384F8953413
:1051F000206805F0FFFB237C8DF80030231D0ECBCB
:10520000206805F02DFB58B1022384F89534012560
:10521000284603B030BD80F8943409F063FCE4E71D
:105220000021206806F03FF8024608B9034617E05F
:10523000022384F895340125EAE703EBC30104EB6C
:105240008101012048750B75CB8500200876C86167
:10525000086203EBC30104EB810148620133DBB256
:1052600020799842E9D816E002EBC20304EB8303ED
:10527000002183F8551283F8542283F85812C3F89A
:105280005C12C3F8601202EBC20304EB8303C3F8A1
:1052900064120132D2B29042E6D8237C8DF80030FD
:1052A000231D0ECB206805F0FBFB054658B90023F3
:1052B0006374012384F89534237B012B08D0206884
:1052C00005F0B0FFA4E7022384F8953401259FE799
:1052D000204600F073FDF2E7012599E7036890F896
:1052E0009424012A1AD010B50446012280F894248F
:1052F000DA6812F0400F02D0427B012A09D0206800
:1053000005F072FB206805F07FFF002084F894040C
:1053100010BD9A6B42F480329A63F0E70220704726
:1053200070B504460D460068066C00EB411303F5AA
:1053300030639A68A179012911D038498E4256D03C
:105340003DB905EBC50304EB8303D3F86432002BAE
:105350005ED0E9B2204609F007FC002070BD12F0D3
:10536000080F09D02E498E42F7D912F4004FF4D01D
:105370004FF400429A60F0E712F0200F02D0202292
:105380009A60EAE712F0280FE7D125498E4206D944
:1053900012F4004F03D04FF400429A60DDE705EBB2
:1053A000C50204EB8202D2F874121B69C3F3120324
:1053B000CB1AC2F868327DB905EBC50204EB820254
:1053C000D2F864226AB105EBC50204EB8202D2F87E
:1053D00060121944C2F86012E9B2204609F0C4FB19
:1053E000BBE704F29C42012105F09CFFF4E712F4B4
:1053F000004F03D04FF400429A60AEE712F0200F46
:1054000001D020229A60E9B2204609F0ADFBA4E762
:1054100004F29C42002105F085FF9AE70A31544FBF
:105420000A30544F38B5044603681D6C03EB411332
:10543000D3F8081B0E4A954207D903F5306311F4DF
:10544000004F02D04FF400429A60204609F084FBDE
:10545000074B9D4202D9A379012B01D0002038BD12
:1054600004F29C420121206805F05CFFF6E700BFD2
:105470000A30544F90F89434012B0CD010B50446E8
:10548000012380F894344174006805F0ADFE0020DB
:1054900084F8940410BD0220704738B505468C4648
:1054A00011F0800F29D101F00F0E0EEBCE04A400F5
:1054B00004F514740444211D0EEBCE0E00EB8E0E89
:1054C00000208EF855020CF00F0C81F800C08A60A5
:1054D0000B714A780AB1A1F81AC0022B1CD095F8BA
:1054E0009434012B1BD0012385F89434286805F0EF
:1054F000AFFB002085F8940438BD01F00F0000EBED
:10550000C001890010312944043100EBC00005EBD3
:10551000800001244475D6E700234B71DFE70220A9
:10552000EAE710B504460A4611F0800F20D101F0D9
:105530000F0000EBC0039B0003F514732344191DF7
:1055400000EBC00004EB8000002380F8553202F02D
:105550000F020A7094F89434012B18D0012384F8B8
:105560009434206805F0C0FB002084F8940410BD3A
:1055700001F00F0000EBC0039B0010332344191D02
:1055800000EBC00004EB800001234375DFE702203D
:10559000EDE710B5144601F00F0C0CEBCC018900BF
:1055A00001F51471014404310CEBCC0E00EB8E0EAE
:1055B000CEF86022CEF864320023CEF868328EF83E
:1055C00055328EF854C28279012A04D0006805F061
:1055D00071FC002010BDCEF87042F7E701F00F011A
:1055E00001EBC10100EB8100D0F86802704710B5F3
:1055F000144601F00F0C0CEBCC0189001031014472
:1056000004310CEBCC0E00EB8E0ECEF82020CEF841
:1056100024300023CEF8283001238EF815308EF880
:1056200014C082799A4204D0006805F043FC00203F
:1056300010BDCEF83040F7E738B501F00F0502791C
:10564000AA4238D304460B4611F0800F1FD101EB5C
:10565000C101890001F514710144043103EBC30356
:1056600000EB8303002283F8552201238B700D7019
:1056700094F89434012B20D0012384F894342068CA
:1056800005F057FD85B1002084F8940438BD05EB82
:10569000C501890010310144043105EBC50300EB5D
:1056A000830301225A75E0E704F29C42A179206845
:1056B00005F038FEE7E70120E8E70220E6E701F021
:1056C0000F0302799A4230D310B5044611F0800FCF
:1056D0001ED103EBC301890001F5147101440431AB
:1056E00003EBC30200EB8202002082F85502002285
:1056F0008A700B7094F89434012B18D0012384F82D
:105700009434206805F042FD002084F8940410BD14
:1057100003EBC301890010310144043103EBC302E0
:1057200000EB820201205075E1E701207047022062
:10573000EDE708B511F0800F0CD101F00F0101EB7E
:10574000C101890001F5147101440431006805F0BC
:105750003BFB08BD01F00F0101EBC10189001031D5
:1057600001440431F2E72DE9F04F83B004460568A7
:10577000284605F094FD10B103B0BDE8F08F064651
:10578000206805F05DFD0028F6D005F50067BB68D0
:10579000C3F30D23C4F8D434206805F051FD10F094
:1057A000020F04D02268536903F00203536120689A
:1057B00005F046FD10F0100F16D02268936923F013
:1057C00010039361D5F8208008F00F0908F4F01356
:1057D000B3F5802F6AD0B3F5402F00F08D8022689A
:1057E000936943F010039361206805F029FD10F4DC
:1057F000002F40F09380206805F022FD10F4802FE8
:1058000040F0FC80206805F01BFD0028C0F27D817F
:10581000206805F015FD10F4006F09D0BB6813F087
:10582000010F40F08A812268536903F400635361D9
:10583000206805F005FD10F0006F15D0226853694F
:1058400003F00063536194F8CC34002B40F079816D
:10585000012184F8CC1423685B6DC3F38303C4F87F
:10586000D034204600F0BEFA206805F0E9FC10F4C0
:10587000805F40F06A81206805F0E2FC10F4005F70
:1058800040F0B681206805F0DBFC10F0080F40F016
:10589000C781206805F0D4FC10F0800F00F0DA8199
:1058A000AB6923F08003AB610126C3E147F6F073D7
:1058B00018EA030F93D04FEA181A4FEAC90301936D
:1058C00009EBC90B04EB8B0BC8F30A12DBF860126F
:1058D000284605F00BFCDBF86032CAF30A0A534491
:1058E000CBF86032DBF86832019A4A4404EB82025A
:1058F0005344C2F8683272E7082204F29C412846F9
:1059000005F0F4FB09EBC90304EB8303D3F8682229
:10591000C8F30A184244C3F8682260E7206805F01B
:1059200093FC8046B14635E005EB49130122C3F8EC
:10593000082B49462046FFF7F3FC3CE005EB4913F2
:105940000822C3F8082B49462046FFF76BFD35E0D7
:1059500009EBC90304EB830393F85732012B41D0C1
:1059600005EB49130222C3F8082B1AF0200F04D0CC
:1059700005EB49132022C3F8082B1AF4005F05D069
:1059800005EB49134FF40052C3F8082B09F1010944
:105990004FEA5808B8F1000F3FF42DAF18F0010F8F
:1059A000F4D05FFA89FB5946206805F05DFC824619
:1059B00010F0010FB8D11AF0080FBFD11AF0100F74
:1059C00004D005EB49131022C3F8082B1AF0020F7C
:1059D000CBD06B6913F0800FBAD07B6843F480633F
:1059E0007B60B5E709EBC90304EB8303002283F86E
:1059F00057225946204609F007F9B1E7206805F01B
:105A00002BFC8046B14625E05946204609F0B8F8FF
:105A10001AF0080F04D005EB49130822C3F808292F
:105A20001AF0100F04D005EB49131022C3F808290F
:105A30001AF0400F04D005EB49134022C3F808299F
:105A40001AF0020F40D11AF0800F59D109F1010963
:105A50004FEA5808B8F1000F3FF4D4AE18F0010F28
:105A6000F4D05FFA89FB5946206805F006FC8246AF
:105A700010F0010FCCD009F00F02012101FA02F25F
:105A80007B6B23EA02037B6305EB4913C3F8081918
:105A9000A3798B42B8D109EBC90304EB83031A6ADB
:105AA000D9690A441A62B9F1000FADD109EBC903F3
:105AB00004EB83035B6A002BA6D104F29C42012114
:105AC000206805F02FFC9FE74946284604F098FF20
:105AD00009EBC90304EB8303DB7D012B05D005EB48
